:100000000C94F4010C942C020C942C020C942C02F1
:100010000C942C020C942C020C942C020C942C02A8
:100020000C942C020C942C020C94CA200C949E214B
:100030000C94EC1B0C942C020C942C020C942C02AF
:100040000C942C020C942C020C942C020C942C0278
:100050000C942C020C94731C0C942C020C942C0207
:100060000C942C020C942C020C942C020C942C0258
:100070000C942C020C942C020C942C020C942C0248
:100080000C942C020C942C020C942C020C942C0238
:100090000C942C020C942C020C942C020C942C0228
:1000A0000C942C020C942C020C942C020763423604
:1000B000B79BD8A71A39685618AEBAAB558C1D3CF9
:1000C000B7CC5763BD6DEDFD753EF6177231BF00BD
:1000D0000000803F08000000BE922449123EABAAF7
:1000E000AA2ABECDCCCC4C3E00000080BEABAAAA52
:1000F000AA3E00000000BF000000803F000000009A
:1001000000084178D3BB4387D1133D190E3CC3BDD2
:100110004282AD2B3E68EC8276BED98FE1A93E4C7F
:1001200080EFFFBE01C4FF7F3F00000000002900F8
:1001300014001A000800150017001C0018000C001D
:100140001200130034002A002400250026002B0092
:1001500004001600070009000A000B000D000E0045
:100160000F00330028000000210022002300E100DE
:100170001D001B00060019000500110010003600CC
:1001800037003800350052001E001F002000E0003C
:10019000E300E200000000002C000000000000006E
:1001A0002D002E00500051004F0027002152010069
:1001B0003A003B003C003D003E003F004000410053
:1001C000420043004400450001000100010001001D
:1001D0000100010001000100010001000100010017
:1001E0000100010001000000010001000100010008
:1001F00001000100010001000100010001000100F7
:1002000001003100010001000100010001000100B6
:100210002F0030000000000001000000000000007E
:10022000010001004A0001004D0001000100010031
:10023000007C01000100010001000100010001003B
:1002400001000100010001000100010001000100A6
:100250000100010001000100010001000100010096
:100260000100010001000000010001000100010087
:100270000100010001000100010001000100010076
:100280000100010001000100010001000100010066
:10029000010001000000000001000000000000005B
:1002A000010001000100010001000100010016032E
:1002B00074007200610073006800740072007500C1
:1002C00063006B000000140373006B00790063008F
:1002D0006F0064006500320032000000040309046E
:1002E00009023B00020100A0FA0904000001030119
:1002F00001000921110100012240000705810308C6
:10030000000109040100010300000009211101009E
:1003100001227B0007058203200001120100020078
:10032000000008EDFE0000000101020001050109C6
:1003300002A10185020901A1000509190129081579
:100340000025019508750181020501093009311563
:1003500081257F95027508810609381581257F95CD
:100360000175088106050C0A38021581257F950163
:1003700075088106C0C005010980A1018503190126
:100380002AB700150126B700950175108100C00538
:100390000C0901A101850419012AA002150126A05A
:1003A00002950175108100C005010906A10105072C
:1003B00019E029E7150025019508750181029501CD
:1003C000750881010507190029FF150026FF009512
:1003D0000675088100050819012905950575019123
:1003E00002950175039101C011241FBECFEFDAE021
:1003F000DEBFCDBF04B603FE18C080919605909174
:100400009705A0919805B09199058730904BA7402A
:10041000B04B59F4109296051092970510929805DA
:1004200010929905E0E0F8E3099514E0A0E0B1E04E
:10043000E6E5F0E502C005900D92AC33B107D9F7BF
:1004400025E0ACE3B4E001C01D92A639B207E1F7A4
:100450000E943B110C94EA270C94000089EA611178
:1004600001C08AEA0E94670480E008958330C0F4E6
:100470006430B0F44031A0F494E0899FF00111247D
:10048000E60FF11D84E0EE0FFF1F8A95E1F7E40F00
:10049000F11DEE0FFF1FE25DFE4F859194910895CF
:1004A00080E090E008950E943602089581E008956A
:1004B00081E008950E945802089508950E945D0207
:1004C0000895A5E0B0E0E7E6F2E00C9456274983F2
:1004D0005A833091430489819A81311119C066236E
:1004E00099F0222389F00E942108182F682F898112
:1004F0009A810E94FE0769817A81812F0E94AB0E4A
:100500002596E3E00C9472270E940F08182FF3CF72
:100510000E94210869817A81F1CFFC01262F408158
:1005200051816281738184810E946102089581E01A
:100530000895CF93DF93EC0160E00E948D02BE012D
:100540000E945E02DF91CF9108950E94DF0F08950F
:100550000E94E30F08950895CF93DF930E94CD0684
:100560000E94F0130E944C1CEC0140E063E070E03C
:1005700080E091E00E94F0110E94AB02CE010E9447
:10058000641C8A3F910528F00E94B611DF91CF913B
:1005900008958FE99FE00197F1F700C00000EECFCA
:1005A0000E94AC020E94971C08950E94AC020E9417
:1005B000BB1C08950F931F93CF93DF938C0161E0D1
:1005C0000E948D02EC01B8010E945A02811106C0FE
:1005D00080E0DF91CF911F910F910895B801CE0176
:1005E0000E9465118823A1F3B801CE010E949514E1
:1005F000882371F3B801CE010E94891A882341F340
:10060000B801CE010E946F18882311F3B801CE0102
:100610000E94FB198823E1F2F8018281882361F0AE
:10062000C330FCE7DF07E9F058F4C115ECE7DE075B
:10063000A9F0C130DC47B9F0C8010E945602C9CF09
:10064000CB358CE7D807A9F0CC35ECE7DE0771F0A5
:10065000CA35DC4789F70E94230CEECF0E94D002F6
:10066000B7CF0E942B0C0E94D502B2CF0E94190C6A
:10067000E3CF0E94270CE0CF0E94C81B0E946803B2
:100680000E94B61108950E946C030E94CD1B08952C
:1006900008950E944803089581E008950895CF9336
:1006A000DF93D82F0E944C03C82F882319F08D2F79
:1006B0000E944E038C2FDF91CF9108950895CF9320
:1006C000C82F0E9449038C2F0E944F03CF91089599
:1006D00080E00E945F0308950E94D71A0E945F0382
:1006E0000895CF930E94D71AC82F80913E048C178B
:1006F00079F0C0933E040E94581C60933F047093AD
:10070000400480934104909342048C2F0E945F0325
:10071000CF910895ABE0B0E0E0E9F3E00C94572707
:100720004F83588769877A878B8761110E94640B92
:100730001E821D8285E0FE013796DE011196019032
:100740000D928A95E1F78C819D81892B61F4498115
:100750005A816B817C818D819E810E948D0A2B96AE
:10076000E2E00C94732789819A8189238F3F79F382
:10077000CE0101960E9497028111E9CFF0CFFC01D2
:10078000808191810E9453080895662329F00E9478
:1007900062160E94351708950E94BC16FACFCF93B7
:1007A000C82F8823B9F08CEF8C0F813AA8F46C2FF6
:1007B00080911801909119010E94591B882329F0FA
:1007C0008C2F0E94240B0E94850B8C2F0E941C0BE7
:1007D0000E94850BCF91089580E28C0F883048F4F9
:1007E000C77081E001C0880FCA95EAF70E94470BE5
:1007F000EFCFEBE5EC0FE33040F4F0E0E052FC4FDC
:10080000808190E00E94FD1AE5CFE8E5EC0FE93128
:1008100050F4F0E0EE0FFF1FE255FC4F8081918114
:100820000E94221BD7CF83E38C0F833198F661E0BF
:100830008C2F0E94C503CECF882381F19CEF980FA7
:10084000913A28F40E94240B0E94850B089590E2AF
:10085000980F983050F4877091E001C0990F8A95F5
:10086000EAF7892F0E944D0BEFCF9BE5980F93304D
:1008700028F490E080E00E94FD1A089598E5980F12
:10088000993128F490E080E00E94221B089593E3C0
:10089000980F933118F460E00E94C50308951F93E8
:1008A000CF93DF93182FEB010E94CF03209739F4E9
:1008B000812F0E941C04DF91CF911F9108958FE931
:1008C0009FE00197F1F700C000002197EFCF70E0A3
:1008D00060E0893311F460E570E00E944F040895F0
:1008E000882321F00E94470B0E94850B08958823DE
:1008F00021F00E944D0B0E94850B0895B0E0A0E00E
:10090000E4E8F4E00C9450276C01D62FC72FFC01CB
:100910001281F580F2949FE0F9220E943D0BE82EAF
:100920008823B9F0E12E1123A1F08C2F807F803431
:1009300021F080E28D0F8830D0F080911E0582FF7B
:1009400016C082E00E94E80B0E943D0B91E0E82E69
:10095000E926BC2EB2948FE0B822FBE0FB1508F428
:1009600068C0EB2DF0E0E451F84D0C943227E12CF7
:10097000F0CF0C2F0F70C07F11F00295007F112374
:1009800099F0002359F080E28D0F883010F0D111DA
:1009900007C0802F0E94470B0E94850B8D2F41C0FE
:1009A000802F0E94570BF8CF8D2F0E941C0400232C
:1009B00009F43FC080E28D0F883010F0D11104C0DF
:1009C000802F0E944D0B03C0802F0E945D0B0E9460
:1009D000850B2FC00C2F0F70C07FC03211F0029515
:1009E000007FDD2381F0D13009F468C0112309F4C0
:1009F00072C0FF2009F468C0F601858180FFCECF68
:100A00008F70858361C080911E0582FD33C01123E4
:100A100059F0002329F0802F0E94470B0E94850B7C
:100A200080E00E94CF0305C080E00E941C040111F9
:100A3000C7CFEB2DE850FF0B349720F40E94D71A54
:100A40000E945F03EE2089F00E94390B80FD0DC0EB
:100A5000F60112820E94330B0E945C07C6010E94BD
:100A60008D060E94330B0E946C07CDB7DEB7E9E01C
:100A70000C946C27112389F0F11006C00E94670BBB
:100A8000802B0E947004D5CF21E0F212F7CF0E9494
:100A9000670B802B0E946E0BCCCFF11006C00E941A
:100AA0007B0B802F0E947704C4CF31E0F31609F24C
:100AB000802F0E9477040E947B0BBBCF112331F063
:100AC00085E08F1508F4B5CF802FDBCF94E09F151C
:100AD00008F4AFCFE6CFFF2021F3D93349F4FFEF7D
:100AE00027EE33E0F15020403040E1F700C0000035
:100AF0008D2F0E941C049DCF8C2F86958695837028
:100B000069F0813009F095CF8D2F9C2F93701111D2
:100B100002C080E090E00E94221B8BCF8D2F9C2F83
:100B20009370111102C080E090E00E94FD1A81CF05
:100B3000612F8D2F0E94C5037CCF8C2F8370A1F570
:100B4000111177CF4D2F429546954770440F440FB2
:100B50002D2F2F7030E0042E02C0220F331F0A9475
:100B6000E2F790E080E0D4FF09C08FE090E002C09F
:100B7000880F991F4A95E2F780959095C695C6957E
:100B8000C370822B932BC23049F058F4C13019F056
:100B90000E942C074ECF0E9423074BCF0E9435079F
:100BA00048CF0E94200745CF8695112311F08C2F46
:100BB0008170882309F43DCF4D2F429546954770AB
:100BC000440F440F2D2F2F7030E0042E02C0220F4F
:100BD000331F0A94E2F790E080E0D4FF09C08FE071
:100BE00090E002C0880F991F4A95E2F78095909592
:100BF000C695C695C370822B932BC23049F058F42A
:100C0000C13019F00E94970714CF0E948E0711CFB0
:100C10000E94A0070ECF0E9444070BCFCF70112374
:100C200029F08C2F0E945C078D2F2BCF8D2F0E94D7
:100C300077048C2F0E946C07FCCED23F51F160F4F8
:100C4000D03FB9F0D13F81F0112309F449C0F11030
:100C5000A5CE8C2F8F7121C0D33F11F1D43FA1F7C6
:100C600080911E0582FD26C08C2F8F71112311F3F8
:100C700014C0112349F084E08F1508F4DACE8C2FCC
:100C80008F710E947E07D5CE95E09F1508F4D1CED6
:100C9000F6CF8C2F8F711111CDCF0E945C07C9CE7A
:100CA000112329F08C2F8F710E945007C2CE0E9411
:100CB0004B07BFCE112349F0CF718C2F0E945C07E8
:100CC00063E08C2F0E94CA0BB4CE81E00E94E80B37
:100CD000E1E0EF1508F0ADCE82E00E94E80BA9CE6E
:100CE000F110FBCE8C2F8F71A5CF0F931F93CF9355
:100CF000DF93EC01688179818A810E945E088C0112
:100D00000E94A9070E941F07B801CE010E947E041D
:100D1000DF91CF911F910F910895CF93DF93EC0155
:100D20008B819C81892B29F08881998189238F3F30
:100D300051F4DF91CF910895CE010E947506CE0146
:100D40000E949902F6CFCE010E94DA028111F4CFFF
:100D50000E943D0B882369F38A81882351F3809197
:100D60001E0582FFE6CF82E00E94E80BE2CF90E012
:100D700080E00E94FD1A90E080E00E94221B0E9409
:100D8000640B0E94850B0E9451170E94351708952D
:100D90000E942C0B0E94B70608950E94540B0E94DB
:100DA000C806089592959F70963091F058F4925F1E
:100DB0009F70923058F4803F19F030F4883E30F440
:100DC00081E008959A5FF4CF843FD1F380E00895E5
:100DD000883EB0F3813FD1F7F3CFFC01838194814A
:100DE000892B29F08081918189238F3F11F480E044
:100DF0000895808191810E9453080E94D20608952F
:100E0000A5E0B0E0E6E0F7E00C9457272596E2E095
:100E10000C947327A6E0B0E0E0E1F7E00C945727CC
:100E20002696E2E00C94732708950E941407089513
:100E30000E941507909367048093660408950895AF
:100E40000E94180708952091660430916704822B50
:100E5000932B0E941807089520916604309167042F
:100E6000822393230E9418070895209166043091ED
:100E70006704822793270E94180708950E94140789
:100E800008950E943E0708950E94410790936504CB
:100E900080936404089590E080E00E9444070895E0
:100EA00021E030E0A90102C0440F551F8A95E2F706
:100EB000CA010E944407089521E030E002C0220FD9
:100EC000331F8A95E2F78091640490916504822B28
:100ED000932B0E944407089521E030E002C0220FC6
:100EE000331F8A95E2F720953095809164049091A4
:100EF0006504822393230E944407089521E030E093
:100F000002C0220F331F8A95E2F78091640490910A
:100F10006504822793270E94440708952091640462
:100F200030916504822B932B0E94440708952091F1
:100F3000640430916504822393230E94440708953A
:100F40002091640430916504822793270E9444070E
:100F500008950895262F277091E001C0990F2A95D2
:100F6000EAF723E0769567952A95E1F7660F771FF4
:100F7000660F771FFA01E60FF71F50E040E0682F79
:100F800070E08191DF0111979B01042E02C036951C
:100F900027950A94E2F721702195282729232827ED
:100FA0002C934F5F5F4F4430510559F70895A82F98
:100FB000A77023E0969587952A95E1F7880F991FEA
:100FC000880F991FFB01E80FF91F50E040E080E017
:100FD000219130E00A2E02C0369527950A94E2F757
:100FE00021703327042E01C0220F0A94EAF7822BC6
:100FF0004F5F5F4F4430510559F70895262F9430C5
:1010000068F4803158F430E1939FB0011124680FE7
:10101000711D44E454E0822F0E94AA070895943081
:1010200070F4803160F440E1949F9001112464E4F5
:1010300074E0820F932F911D0E94D707089580E0DE
:101040000895B0E0A0E0E7E2F8E00C9450277C01BE
:101050000091640410916504809166049091670486
:10106000082B192BCFE0D0E0CC24C394D12CBC2E7C
:10107000C6010C2E02C0880F991F0A94E2F7802344
:101080009123892B49F4219790F7B12C8B2DCDB763
:10109000DEB7E9E00C946C27B7018C2F0E94B70EE5
:1010A000019789F3F3CFCF93DF93EC010E942108DE
:1010B000BE010E94B70EDF91CF9108951F93CF9389
:1010C000DF93EB0190914304992339F0CB010E9407
:1010D0005308DF91CF911F910895882369F0CB01C8
:1010E0000E942108182F682FCE010E94FE07BE0122
:1010F000812F0E94B70EEDCFCB010E940F08182F51
:10110000F6CF1F93CF93DF93C091680416E08091D0
:1011100069048C1304C0DF91CF911F910895D0E032
:101120001C9FF0011D9FF00D1124E659FB4F4081DB
:10113000518162817381848195810E940A07219681
:10114000C770E5CF40919A0450919B0460919C0434
:1011500070919D0480919E0490919F040E940A07C3
:1011600008951F93CF93DF9380919F04807F09F0B0
:1011700049C080919C04882309F444C0809168048C
:10118000C091690460919A0470919B04A0919D04A0
:10119000B0919E04D62FD72316E0C81799F190E09E
:1011A000109711F0DF3F19F401968770F6CF189F62
:1011B0009001199F300D1124F901E659FB4F41812F
:1011C0004713F2CF40814613EFCF42814111ECCF5C
:1011D000438154814A1B5B0B483C510528F78091A1
:1011E0009F048F70806180939F04F901E159FB4F48
:1011F00080818F70806180838AE994E00E948D06EF
:101200000E948108DF91CF911F910895A1E1B0E084
:10121000ECE0F9E00C944F278C0185E0F801DE0149
:101220001D9601900D928A95E1F7F801E2808AE916
:10123000C82E84E0D82E60919D0470919E046115A3
:10124000710509F44EC190919A0420919B04892F55
:1012500082238F3F09F445C140815181A380B4802E
:10126000F0909C04F501E61BF70BFF2009F4EAC09F
:1012700080919F04382F307FE83CF10508F0A3C02F
:1012800031116DC0FE2C251316C0941314C0E1104B
:1012900012C08F70806180939F040E94A208C601D3
:1012A0000E948D0680919F04F80185838F2D6196A1
:1012B000EAE00C946B27A114B10429F0842F852354
:1012C0008F3F09F027C180E0F82FF170DF2E80FFFB
:1012D0003CC0809168042091690436E0821315C0F7
:1012E0004D875E878D859E850E945308292F229504
:1012F0002F702230F0F0243018F59F70F1F0F801D3
:101300009581907FD1F4D12C1EC090E0389FF001E0
:10131000399FF00D1124E659FB4F6181651306C01A
:101320006081641303C06281E6120FC0019687706A
:10133000D5CF9F7011F0882331F3805E883018F389
:10134000C8010E948D06FD2CB1CFEE2009F4AECF6E
:1013500080919F04816080939F04F12CA7CF251377
:1013600006C0941304C0F801EE2009F487C0C80138
:101370000E94ED06882319F1EE2009F180919F0467
:10138000803270F020919A0430919B0438872F832B
:101390001986BB86AA868C87CE0107960E948D0689
:1013A00086E0F801AAE9B4E001900D928A95E1F790
:1013B0000E94B1080E94A208FF24F39477CFC801CD
:1013C0000E948D06F9CF311113C07A2DB98AA88AEF
:1013D0006E2D89890E9400078AE994E00E948D069B
:1013E00086E0F60111928A95E9F70E94A208B5CF2E
:1013F00025130FC094130DC0E1100BC0F8018583B5
:10140000C8010E948D0686E0F60111928A95E9F7DF
:101410004DCFC8010E94ED06882389F2EE2079F2B3
:1014200080919F04803208F4BBCF20919A043091C0
:101430009B043A8329831B82BD82AC828E83CE01BA
:101440000196ACCFE83CF10508F03EC0FE2CEE2042
:1014500009F4B5CF25132AC0941328C080919F04A6
:1014600080FD1BC0982F907FC1F0F8018583903FCD
:1014700031F0982F907F905F8F70892B8583C80102
:101480000E948D0686E0F801AAE9B4E001900D9271
:101490008A95E1F70E94A20809CF86E0F801AAE93F
:1014A000B4E001900D928A95E1F700CFC8010E9447
:1014B000ED06811175CF80919F04816080939F0418
:1014C000C8010E948D06F2CE7A2DB98AA88A6E2DA7
:1014D00089890E94000786E0F60111928A95E9F752
:1014E000D9CFEE2009F46BCFC8010E94ED06F82E8B
:1014F000882309F464CF86E0F801AAE9B4E00190FA
:101500000D928A95E1F78AE994E00E94BF030E9458
:10151000B108C0CF81E08E25D7CEACE0B0E0E3E9E2
:10152000FAE00C9456274F83588769877A878B8710
:101530009C87CE0107960E940609882369F08A8558
:101540009B85892B39F04F815885842F85238F3FC8
:1015500009F06BC016E05FC086E0FE013796DE0141
:10156000119601900D928A95E1F78A859B85892BCA
:1015700089F38F81988589238F3F61F320916904D6
:1015800030E0C90101968770992740916804481797
:10159000190671F40E94CD06109269041092680435
:1015A00086E0EAE9F4E0DF011D928A95E9F7D2CFFF
:1015B00096E0929FD001939FB00D1124A659BB4F86
:1015C000FE01319601900D929A95E1F7809369049E
:1015D0000E948108BFCF819FC001112486599B4F73
:1015E0000E9406098823E9F0E09168041E9FF0013B
:1015F0001124E659FB4F40815181628173818481BE
:1016000095810E940A078091680490E00196877096
:1016100099278093680480916804909169048913E4
:10162000DACF2C96E3E00C94722769857A858B8556
:101630009C850E940A078ECF682F80911801909197
:1016400019010E948F1B0895682F809118019091B5
:1016500019010E94921B089580911801909119011F
:101660000E94951B08958091A80485958595859580
:1016700008958091A804877008959091A8049770A8
:1016800081E009F480E008958091B3040895909179
:10169000B304892B8093B304089580959091B3048B
:1016A00098239093B30408951092B30408959091F1
:1016B000B204892B8093B204089580959091B2046E
:1016C00098239093B20408951092B20408958091E3
:1016D000A904089508950E946A0B089590911E052B
:1016E00092FF08C09091A904981721F08093A90453
:1016F0000E946B0B08958091A904882329F0109211
:10170000A90480E00E946B0B0895CF93DF93E091D2
:101710001801F09119018091B3048083E0911801C0
:10172000F091190180819091B204892B808390916E
:10173000A904992381F0E0911801F09119018081A9
:10174000892B808380911801909119010E94471B79
:1017500081110E947B0BC0911801D091190148E0C2
:1017600050E060EA74E0CE010E949227892B59F084
:1017700088E0FE01A0EAB4E001900D928A95E1F7BD
:10178000CE010E94E41ADF91CF91089508950E943E
:10179000C60B089590911E0592FF11C098E0899F95
:1017A00090011124622B6093A8040E945C07809131
:1017B000A8048595859585950E94C70B08950E947C
:1017C0005C0708951092A80480E00E94C70B08955A
:1017D0009091A804809589238093A804282F2770CE
:1017E00091F4282F082E000C330B9217130659F092
:1017F00090911E0592FF07C08595859585950E945D
:101800006C070E94E20B089590911E0592FB22271F
:1018100020F9281769F080FB92F990931E058091BA
:101820001D0590911E050E944C0C82E00E94E80B61
:10183000089580911E0582FB882780F991E0892711
:101840000E94040C089581E00E94040C089580E039
:101850000E94040C08956FEF7FEF90E080E00E94FB
:10186000D427089590E080E00E94B02721E0873ED1
:101870009E4F09F020E0822F089582E090E00E94C0
:10188000A827089583E090E00E94A827089584E0A7
:1018900090E00E94B0270895BC0184E090E00E948F
:1018A000D427089587E090E00E94A8270895682F24
:1018B00087E090E00E94B6270895AB01BC018FE05D
:1018C00090E00E94C8270895AB01BC0183E190E03D
:1018D0000E94C827089560E070E0CB010E94640C6C
:1018E000089560E070E0CB010E945D0C0E946B0CDB
:1018F000089567EE7EEF90E080E00E94D42760E0DC
:1019000082E090E00E94B62760E083E090E00E94D1
:10191000B627109267041092660460E074E184E0D8
:1019200090E00E94D42760E086E090E00E94B62715
:101930006FEF87E090E00E94B62740E050E0BA01E8
:1019400088E090E00E94C82760E08DE090E00E946F
:10195000B62740E050E0BA0188E190E00E94C82735
:1019600060E087E190E00E94B62740E050E0BA01D5
:101970008CE190E00E94C82770E060E080E290E097
:101980000E94D42740E050E0BA0188E190E00E9434
:10199000C8270E94710C08950E94790C0895682F41
:1019A0008EE090E00E94B62708950E94581C609334
:1019B000C6047093C7048093C8049093C9046093CD
:1019C000C2047093C3048093C4049093C504089523
:1019D0000E94581C6093C6047093C7048093C80487
:1019E0009093C9046093BE047093BF048093C004B5
:1019F0009093C1040895089508950E94FC0C0895E1
:101A000008950E94000D089581EA9FE00E94CD1A7A
:101A10000E94FB0C0E94FD0C089581E008950E9435
:101A20000D0D0895089508950E94120D0E94130D42
:101A300008950E94C00F0E945E030E9467120895DD
:101A40000E94431C0E947D190E949C100E94190D47
:101A50000E94010D0895AAE0B0E0E1E3FDE00C94DE
:101A60004C270E94B21026EB822E24E0922E6401B5
:101A700010E0F601E190F1906F01812F0E94E60FD6
:101A80001F5F143009F449C0E816F90691F38091FC
:101A9000CA0481FD0E94EF0F0E940F0D782E10E006
:101AA000812F0E94E60F7C01F401A190B1904F01BB
:101AB0008A159B0561F1A826BF2400E0CC24C394BD
:101AC000D12CC5018C219D21892BC1F07720B1F04B
:101AD0000E831F8321E0C7018C219D21892B09F4EE
:101AE00020E028870E944C1C8160782F9A87898784
:101AF0004E815F8168858A850E948A030F5FCC0CC6
:101B0000DD1C0031F1F6F4013297F182E0821F5FB3
:101B1000143031F60E94D50C22C0E816F90609F0FF
:101B2000B6CF0E944C1C8C018091B4049091B504F6
:101B300008171907A1F08FEF89838A831B820E94FF
:101B40004C1C8160782F9D838C8349815A816B81E5
:101B50008D810E948A031093B5040093B4040E94FF
:101B60002F140E949C1981110E94E80C0E94731787
:101B70000E9471032A96EDE00C946827CF93DF93BF
:101B80000E94BC0EEC01811520E59207D0F581156D
:101B900030E4930708F086C0803E910518F58D3C2F
:101BA000910508F07DC0883A910570F4853A910559
:101BB00008F06EC08130910501F10097F1F00497B3
:101BC000E0F4D0E0C0E019C0813C9105D0F7C85ADC
:101BD000D0E0CC0FDD1FCD51DC4F0990D881C02D56
:101BE000D4640BC08115904208F0A8C0C11581E0F3
:101BF000D80718F4C83ED10520F7CE01DF91CF9168
:101C00000895803622E5920710F5803432E5930777
:101C100008F052C08032924508F047C0C11582E5F5
:101C2000D80708F47DC02C2F2695269540E2249FE6
:101C3000900111248C2F8370C1E0D0E002C0CC0F42
:101C4000DD1F8A95E2F7C22BD32BDD68D6CF803A11
:101C500022E5920760F4803832E5930708F441C02A
:101C6000CF71D0E0DC2FCC27C46FD06AC6CF803CC8
:101C700042E5940708F449C0C03E82E5D80708F061
:101C8000A0CFDC2FCC27CC27DF71C06FD06AB5CFB7
:101C9000C55AD0E0CB5EDB4FC881D0E0D064ADCF79
:101CA000D065ABCFDF70D06AA8CFCF71D0E0DC2F8A
:101CB000CC27C16FD06AA1CF282F269526952770F3
:101CC00080E2289F900111248C2F8370C1E0D0E026
:101CD00002C0CC0FDD1F8A95E2F7C22BD32BDC6844
:101CE0008CCF282F26952695277040E2249F9001BF
:101CF00011248370C1E0D0E002C0CC0FDD1F8A95B3
:101D0000E2F7C22BD32BDA6878CF8F710E945E0F77
:101D1000C82FD0E0DC2FCC27CC27DF71D0626DCF6D
:101D20008C2F8F710E945E0F35E0D695C7953A953E
:101D3000E1F7CF709C2FEC01D0695FCF8D2F8F71B1
:101D40000E945E0F90E0982F882788279F719C0142
:101D50002C2BE901E3CF462F743030F4603120F4AE
:101D6000672F0E945302089590E080E008950E943A
:101D7000AB0E0E94BE0D089582389105B9F1B0F402
:101D80008133910509F47DC048F48932910509F445
:101D90006DC08A32910509F47BC0089585339105A1
:101DA00009F45FC08933910509F10895833E9105D7
:101DB000D9F138F4803E910529F1823E910579F1FF
:101DC0000895863E9105D9F1873E910509F43EC0FC
:101DD000843E910541F520911E0521FF24C080918C
:101DE0001D0584FD19C087EE90E0089520911D0522
:101DF000237009F05AC020911E0523FF14C089E208
:101E000090E0089520911D0520FD38C030911E05F9
:101E100030FF09C024FF43C090E080E00895209186
:101E20001D0522FDF7CF089520911D0522FD3AC022
:101E300030911E0530FD39C024FFF5CFEDCF209144
:101E40001D0523FFF0CF24FDE7CFCDCF20911D0549
:101E500023FD2EC030911E0531FFEECF84EE90E0C1
:101E6000089520911D0525FFDECFC9CF20911D05C6
:101E700025FD21C020911E0523FFD5CF89E390E0E9
:101E8000D2CF20911D0526FFCECF8AE290E00895A3
:101E900020911D0526FFC7CF81E390E0089583EED2
:101EA00090E0089582EE90E0089580EE90E008952D
:101EB00086EE90E0089585E390E0089590911D05E9
:101EC00092FF06C0282F28712830F9F4877F84609C
:101ED00093FF06C0282F28712831F1F4877E846192
:101EE00020911E0520FF06C0382F38713830D9F4F4
:101EF000877F816021FF06C0282F28712831D1F407
:101F0000877E816194FD877E0895282F2471243077
:101F1000F9F68B7F8860DCCF282F2471243101F7FC
:101F20008B7E8861DDCF382F3171313019F78E7F8C
:101F30008860E0CF282F2171213121F78E7E8861C2
:101F4000E1CF80E008950E942B0C08950E94B2100A
:101F50002FEF86E791E0215080409040E1F700C0EC
:101F600000000E94B21080E00E94E60F80FF04C0D3
:101F70000E94A30F0E94971C08950E94A60F089527
:101F80000E94320C811102C00E94CC0C0E943D0CB8
:101F90008093CA040E94470C90931E0580931D05F0
:101FA0000E94BD0F0E94420C90E00E942007809189
:101FB0006404909165040E944107089508950E9469
:101FC000DE0F089508950E94E20F0895E82FF0E0D3
:101FD000EE0FFF1FE95DFA4F80819181089508950A
:101FE00080EA8A95F1F7089500C008950E94F00FE5
:101FF0000895F894E82FE295EF70F0E031A1282FD2
:102000002F7081E090E001C0880F2A95EAF7982FA1
:102010009095932391A392A1892B82A378940895FC
:10202000CF93DF9381E30E94F90F87EF0E94F90FAE
:1020300086EF0E94F90F85EF0E94F90FC8E1D4E006
:1020400089918F3F11F00E94F90F84E0C832D807C0
:10205000B9F7DF91CF910895AF92BF92DF92EF92DF
:10206000FF920F931F93CF93DF938C01D62EC62F31
:10207000D0E0CE01885D9B4F7C01FC0120812F3F89
:1020800009F44DC0F894E22FE295EF70F0E031A131
:102090002F7081E090E001C0880F2A95EAF7932F16
:1020A000982B91A392A18095892382A378940E9472
:1020B000F40FE8E1F4E048E254E021E030E0B12C34
:1020C000A12C61916F3FA9F1A62FA295AF70B0E04E
:1020D00090968C9190E06F7002C0959587956A9567
:1020E000E2F780FD26C0C901A82AB92A220F331FB2
:1020F0004E175F0731F7F70180818F3F11F00E9483
:10210000F90F61E0A114B10409F460E08D2D0E9483
:10211000F60FCC0FDD1FC00FD11FB982A882DF914F
:10212000CF911F910F91FF90EF90DF90BF90AF90F4
:10213000089590E080E0D8CF0E94101088E0E7E298
:10214000F5E0DF01982F1D929A95E9F7EFE1F5E0B0
:10215000DF011D928A95E9F784E00E94ED100E944C
:10216000A5020895A8E0B0E0E8EBF0E10C94542754
:102170008E010F5F1F4F88E0F80111928A95E9F7F1
:10218000F12C6F2DC8010E942C10F394F4E0FF1283
:10219000F8CF48E050E0B8018FE195E00E94922727
:1021A00021E0009709F420E0892B41F088E0F80154
:1021B000AFE1B5E001900D928A95E1F744E067E266
:1021C00075E08FE195E00E94EE10182F0E94A802A2
:1021D000812F2896E5E00C9470270895CF92DF9226
:1021E000EF92FF921F93CF93DF936C017B01C42F7B
:1021F000222349F081E08093CD040E944C1C9093EF
:10220000CC048093CB041091CD0411110AC010E0CE
:10221000812FDF91CF911F91FF90EF90DF90CF90B2
:1022200008958091CB049091CC040E94641C059782
:1022300070F3D0E0CC0FDD1FAE01B601C7010E94E4
:102240009227892B41F0AE01B601C7010E949F275A
:102250001092CD04DDCF10E0FBCF0E94201E0E9423
:10226000200D0E942D1E08950E94321E0E942B0DEB
:102270000E944C1E08950E94E51B0E94061E0E94AB
:10228000040D0E942D110E9434110E94140DFBCFE9
:102290008554990BBC01990F880B990B0E94ED2373
:1022A00020E030E040E451E40E944A239B01AC016D
:1022B00060E070E080E090E40E940A2520E030E0D9
:1022C0004CED53E40E949D240895FB01803824E7DF
:1022D000920739F482818823A1F10E94BA1380E029
:1022E0000895813824E7920731F48281882349F1E7
:1022F0000E94CB13F4CF823824E7920741F4828105
:102300008823F9F00E94B2118111F2CFE6CF84390F
:1023100024E7920769F48281882399F00E94EA13E6
:1023200040E064E070E08AE191E00E94F011D7CFD4
:102330008539944731F48281882319F00E94ED1386
:10234000EFCF81E008950E9448110E94B5130895CF
:102350000E9448110E94961208950E94B611089595
:1023600008950895809183058170089580913A01C0
:10237000811122C01092D9040E94E8131092D8044F
:102380001092D7041092D5041092D404E3E4F5E03F
:1023900080E090E0A0E8BFEB1182108282839383FB
:1023A000A483B58317821682389625E0E338F207B6
:1023B00099F781E080933A0108959C01A0E6BAEE76
:1023C0000E9438272091730140E4249F900111243A
:1023D000032E000C440B550B0E941027C9010895D1
:1023E000EF92FF921F93CF93DF93EC017B01142FA9
:1023F0008091830580FD08C00E94B611DF91CF91C6
:102400001F91FF90EF9008958091CE04811102C03A
:102410000E9467128091D70481110E94B61181E059
:102420008093D8041092D104D0934205C093410503
:10243000F0923005E0922F05109384051092D3049A
:102440001092D2046C817D818E819F810E94BC2379
:10245000CB010E94DD11AC01688179818A819B8169
:102460000E940B130E944C1C9093D0048093CF04C5
:10247000E0914105F09142058091D2049091D304FE
:1024800023E0880F991F2A95E1F7E80FF91F64816F
:102490007581868197810E94BC23CB010E94DD114A
:1024A0009093D5048093D404A9CF8091830580FFB5
:1024B00007C040E063E070E08BE591E00E94F0111E
:1024C0000E944C1C9093D0048093CF040895809177
:1024D000CE0481112AC00E94320C811102C00E94D8
:1024E000CC0C0E94520C80938305E3E4F5E080E07D
:1024F00090E0A0E8BFEB1182108282839383A483D3
:10250000B58317821682389625E0E338F20799F7EB
:102510008091CE04811105C00E94E71381E0809371
:10252000CE040E94B6110E9455120895B0E0A0E0BA
:10253000ECE9F2E10C9451276B017C0120E030E0E2
:10254000A9010E94452387FF04C0F7FAF094F7F829
:10255000F0948091D704882309F458C08091CE0468
:10256000811102C00E94671203E415E0C7E0D0E0C9
:10257000A7019601F80162AD73AD84AD95AD0E94DF
:10258000452381113CC083E0CC0FDD1F8A95E1F724
:10259000CD5BDA4F1982188280E090E0A0E8BFEBB3
:1025A0008A839B83AC83BD831F821E82AC01BD01E5
:1025B000F5E0CB37DF0789F4C1E0C093D604809102
:1025C000D90481508093D904811120C00E94E8135E
:1025D000C0933A011092D70419C088E0FE013896E2
:1025E000DE0101900D928A95E1F7198618864A87D7
:1025F0005B876C877D871F861E862896D9CF21979B
:1026000008501109CF3FDC0709F0B2CFCDB7DEB7D4
:10261000E8E00C946D27B0E0A0E0E1E1F3E10C9478
:102620004D276B017C018A018091830580FF7AC070
:102630008091CE04811102C00E94671220E030E038
:10264000A901C701B6010E94452387FF04C0F7FA1C
:10265000F094F7F8F094D091D9042D2F2150330B3A
:1026600059013FEFA316B30609F040C0DF5FD93030
:1026700008F478C088E08093D90483E495E028E0EA
:10268000FC013896DC0101900D922A95E1F708963D
:10269000E5E08B379E0799F781E08093D60480931D
:1026A000D704C091D904C150DD0B0E944C1CFE011F
:1026B00023E0EE0FFF1F2A95E1F7ED5BFA4F9183C0
:1026C0008083C282D382E482F582178306830E94CC
:1026D0004C1C9093DC048093DB0480913A018823A6
:1026E00009F10E94E91310923A011CC0C50133E0C0
:1026F000880F991F3A95E1F7FC01ED5BFA4F4F0106
:10270000A701960162817381848195810E9445238E
:10271000811124C0E4018091D9048150990BA8163D
:10272000B9062CF0CDB7DEB7ECE00C946927FFEFCB
:10273000AF1ABF0A88E0FE013896DE0101900D92C3
:102740008A95E1F70E944C1C99878887CA86DB86A8
:10275000EC86FD861F870E872896DDCF21E0A21A22
:10276000B1087FCFD093D90497CF4FEF5FEF0E948E
:102770000B130895809183058160809383050E94E7
:10278000570C0E94B01140E062E070E08BE491E0F1
:102790000E94F011089540E062E070E08BE391E068
:1027A0000E94F0110E94B1112FEF81EE94E02150B0
:1027B00080409040E1F700C000000E94B611809177
:1027C00083058E7F809383050E94570C089508959A
:1027D000089508951092DA0408951092DA04089585
:1027E0008091F50481110E94AD11089521E08F3F81
:1027F000910508F020E0822F08950E94F6130895B5
:102800000E94F0131092F50440E068E070E084EF5D
:1028100091E00E94F01108951092F40440E068E005
:1028200070E084E791E00E94F01108950E94F01397
:102830002091160330E02F5F3F4F23703327209302
:10284000160348E2429FC001439F900D112440E0CF
:1028500065E070E08C589D4F0E94F0110895CF9371
:102860008091F104882309F442C08091DD049091A5
:10287000DE04009799F50E944C1C9093DE0480932F
:10288000DD04E091DF048091E0048150990BEE2398
:1028900021F02E2F2150330BC9012091F504222362
:1028A00089F0F0E0EF51FB4FC0818F519B4FFC014D
:1028B00080810E94A8118091F504882319F08C2F43
:1028C0000E94A3118091DF0490E001966091E004E2
:1028D00070E00E94FC268093DF0409C00E94641C03
:1028E00020911403309115032817390720F2CF9156
:1028F0000895089581E08093F50440E068E070E079
:1029000084E392E00E94F0110E94791408950895E2
:1029100081E08093F40440E068E070E084EB91E0B3
:102920000E94F0110E9487140895EF92FF921F9366
:10293000CF93DF93CDB7DEB7A3970FB6F894DEBF82
:102940000FBECDBF7C01803944E79407A9F4DB01B9
:1029500012968C91882309F458C00E947A1480E062
:10296000A3960FB6F894DEBF0FBECDBFDF91CF9117
:102970001F91FF90EF9008958139B4E79B0741F4D0
:10298000FB018281882309F440C00E940014E7CF34
:102990008239F4E79F0751F48091F504DB01129628
:1029A0009C91992391F18111F0CFD7CF8115B1E797
:1029B0009B0739F4FB018281882339F10E94881436
:1029C000CECF8130F1E79F0741F4DB0112968C9165
:1029D0008823D9F00E940C14C2CF8230B1E79B0744
:1029E00049F4FB018281882381F08091F4048111F4
:1029F000F1CFE4CF8339944741F4DB0112968C91F7
:102A0000882319F00E941614AACF2091F5042111F1
:102A100005C08091F404882309F4DBC0FB013281F6
:102A2000332309F450C0F0EEEF16F10461F40E9474
:102A3000F01381E08093F3041092F2041092F104F9
:102A40001092E0048CCF42EEE416F10471F40E947F
:102A5000F0138091F304882319F081E08093F2044D
:102A60001092F3041092F1047ACF83EEE816F10489
:102A700091F48091F204882331F10E94F0131092B6
:102A8000F30481E08093F1041092DF041092DE04DD
:102A90001092DD0464CF92E5E916F10451F48091BF
:102AA0001403909115030A979093150380931403D0
:102AB00056CFA1E5EA16F10431F480911403909108
:102AC00015030A96F1CF8091160310911903811115
:102AD00011C0135080911703180FFB018081180F4C
:102AE000418184E090E0841B9109FCE08F9F100DF0
:102AF000112414C0813071F5105E80911703180FF6
:102B0000DB018C91180F11964C9184E090E0841BAE
:102B10009109982F990F990F890F180F332309F4F2
:102B200051C0222319F0812F0E94A3118091F30438
:102B3000882351F08091E004E82FF0E0EF51FB4F43
:102B400010838F5F8093E004C7010E94FD1391E022
:102B5000892706CF823071F4105E80911703180F19
:102B6000FB018081180F418184E090E0841B910972
:102B7000F7E0BCCF833091F683E2EBE8F3E0DE01CF
:102B8000119601900D928A95E1F7DB01EC9181E0BD
:102B900090E08C0F9D1F8E0F911DFC0180911703FB
:102BA00090911803E80FF91F13508081180F1196A8
:102BB0004C9184E090E0841B9109ACE08A9F100D59
:102BC0001124ACCF222309F4BFCF812F0E94A8117A
:102BD000BBCF81E0C5CE8091FC0480FF0DC0609129
:102BE0001F0370E0660F771F6038710570F561157F
:102BF000710569F1862F089581FF07C060911F0359
:102C000084E0689FB0011124EFCF60911F0382FD23
:102C10000AC08091FB048823A9F020911E036091D3
:102C20001F03821710F088E0ECCF869FC0011124AB
:102C300033E0880F991F3A95E1F7622F70E00E9408
:102C4000FC26D2CF68E070E0D5CF8FE7089581E011
:102C500008958091FC0480FF0CC060911B0370E01C
:102C600075956795759567956115710549F1862F7D
:102C7000089581FF06C060911B0370E0759567950C
:102C8000F3CF60911B0382FD0BC09091FA0499234E
:102C9000A1F060911A0380911B03961738F0682FFA
:102CA00070E06038710500F38FE70895899FC001D7
:102CB000112470E00E94FC26F4CF61E070E0D7CFD1
:102CC00081E008958D3C31F40E94EB15819580934D
:102CD000000508958E3C19F40E94EB15F8CF8F3C47
:102CE00031F40E94EB1581958093FF040895803D97
:102CF00019F40E94EB15F8CF893D29F40E9429169A
:102D00008093010508958A3D21F40E94291681953A
:102D1000F7CF8B3D31F40E942916819580930205EF
:102D200008958C3D19F40E942916F8CF9FE2980F60
:102D3000983070F4815D990B21E030E001C0220FE2
:102D40008A95EAF78091FE04822B8093FE04089511
:102D50008D3D31F48091FC0481608093FC040895E2
:102D60008E3D21F48091FC048260F7CF8F3DB9F74E
:102D70008091FC048460F1CF4091FF048D3C59F4B4
:102D80008091000587FF0DC01092000541110BC016
:102D90001092FB0408C08E3C81F480910005181647
:102DA0009CF3442381F08091010590910205892BC9
:102DB00009F05AC01092FA0408958F3C49F447FF75
:102DC000F0CF1092FF04809100058111ECCFE0CF8D
:102DD000803D19F41416ACF3E4CF90910105893DC0
:102DE00029F41916F4F610920105DBCF8A3D19F487
:102DF00097FFD7CFF8CF909102058B3D29F497FF2D
:102E0000D0CF10920205CDCF8C3D19F41916CCF31A
:102E1000C8CF9FE2980F983090F4815D990B21E024
:102E200030E0B90102C0660F771F8A95E2F7CB0147
:102E300080959091FE0489238093FE04B2CF8D3D4E
:102E400031F48091FC048E7F8093FC04AACF8E3DE8
:102E500021F48091FC048D7FF7CF8F3D09F0A1CF45
:102E60008091FC048B7FF0CF08950E944C1C9C0144
:102E70009091FF0480910005982B21F03093F90484
:102E80002093F8049091010580910205982B21F080
:102E90003093F7042093F6048DEF94E00E94EF1A2C
:102EA000089586E0EDEFF4E0DF011D928A95E9F7E1
:102EB0001092FB041092FA041092FC040895FC0195
:102EC000828181110EC0838181110BC084818111A7
:102ED00008C091E08581811101C090E0892F817047
:102EE000089581E0FCCFA6E0B0E0E9E7F7E10C94BB
:102EF000562786E0EDEFF4E0DE01119601900D9289
:102F00008A95E1F71092FF041092000510920105D6
:102F1000109202058B819C81892B89F08091F804A5
:102F20009091F9040E94641CAC019091FB049923D8
:102F3000C9F1809120038417150608F440C08D81E3
:102F40009E81892B91F08091F6049091F7040E9464
:102F5000641CAC019091FA04992309F471C080912A
:102F60001C038417150608F479C0BE016F5F7F4FFC
:102F70008DEF94E00E949C1B811105C08DEF94E0C1
:102F80000E945F1781110E94351786E0FE0131967D
:102F9000ADEFB4E001900D928A95E1F72696E3E05B
:102FA0000C947227209121038AE0289F900111241C
:102FB0002417350720F69F5F9093FB0402C09F3FC4
:102FC000D1F71B81112359F00E94EB159FEF1116C9
:102FD0000CF491E0899F802D11248093FF041C81C3
:102FE000112359F00E94EB159FEF11160CF491E09C
:102FF000899F802D1124809300053091FF04332395
:1030000009F49DCF20910005222309F498CF45EBC8
:103010003403C0011124992359F09093FF0445EB28
:10302000240390011124332339F03093000587CF16
:1030300081E08093FF04F3CF81E0809300057FCF90
:1030400020911D038AE0289F900111242417350741
:1030500008F08BCF9F5F9093FA0402C09F3FD1F797
:103060001D81112359F00E9429169FEF11160CF4AF
:1030700091E0899F802D1124809301051E811123E9
:1030800059F00E9429169FEF11160CF491E0899FC8
:10309000802D11248093020530910105332309F41A
:1030A00064CF20910205222309F45FCF45EB34035E
:1030B000C0011124992359F09093010545EB240395
:1030C00090011124332339F0309302054ECF81E073
:1030D00080930105F3CF81E08093020546CFCF9323
:1030E000DF93EC01FB018281882309F4FAC09E0181
:1030F00030572332310508F057C00E94470C909397
:103100001E0580931D05FE01E150F047E232F105F6
:1031100020F4E850F84D0C94322780911D05816011
:1031200080931D0538C080911E05886080931E0520
:1031300032C080911D058260F3CF80911D058460AF
:10314000EFCF80911D058860EBCF80911E058160D7
:10315000EDCF80911E058260E9CF80911D058061D1
:10316000DFCF80911D058062DBCF80911D058064DB
:10317000D7CF0E94CD0680911D058068D1CF809168
:103180001D058C6080931D0540E064E070E082E5E1
:1031900093E00E94F01180911D0590911E050E9400
:1031A0004C0C0E94CD0680E0DF91CF910895809174
:1031B0001E05836080931E0540E064E070E082E2BB
:1031C00093E0E7CF80911D058E7FAACF80911E05E9
:1031D000877FACCF80911D058D7FA2CF80911D058B
:1031E0008B7F9ECF80911D05877F9ACF80911E0592
:1031F0008E7F9CCF80911E058D7F98CF80911D057D
:103200008F7E8ECF80911D058F7D8ACF80911D0589
:103210008F7B86CF0E94CD0680911D058F7780CF52
:1032200080911D05837F80931D0540E062E070E082
:1032300082E793E0AECF80911E058C7F80931E05C0
:1032400040E062E070E082E493E0A3CF80911D054E
:1032500082FB992790F921E0922790FB82F990FB5D
:1032600083F980931D0540E083FFE0CF8ECF8091EE
:103270001E05982F909591708E7F892B90FB81F978
:1032800080931E0540E081FFDCCF97CF90911D0514
:10329000892F8F7B96FF806443CF0E94CD0690914B
:1032A0001D05892F97FB87F980583ACF81E00E944E
:1032B000CF0C71CF80E0FBCF90911D05892F8F7EC1
:1032C00094FF80612DCF90911D05892F8E7F90FFF7
:1032D000816026CF90911E05892F877F93FF88609C
:1032E00025CF81E061CF8FE891E00197F1F700C031
:1032F000000008950E942E02089581E08093040545
:1033000052985A9A53985B9A0E9473192091040517
:1033100046E055E0FA018E2F841B821708F00895CD
:1033200089B182FB882780F94B9904C090E0892BF2
:103330008193F1CF92E0FBCFB0E0A0E0E2EAF9E1C7
:103340000C945127F12CE12C84E0C82ED12C8091D3
:103350000405F81630F08E2DCDB7DEB7E8E00C94FA
:103360006D270F2D10E0E9B1E2FBEE27E0F94B9954
:1033700040C080E08E2BD801AA5FBA4FEC919E2FFF
:1033800093709817A1F1EE0FEE0FE82BEC93EF700E
:10339000F0E0E45DFB4FE801CB5FDA4F808198817C
:1033A000890F888320E084305CF0F801ED5FFA4FEC
:1033B00080818F5F808360E08F2D0E947A1921E0E9
:1033C00088818D3F5CF4F801ED5FFA4F8081815078
:1033D000808361E08F2D0E947A1921E08881082E78
:1033E000000C990BB6010E94FC268883E22AF39414
:1033F000AECF82E0BFCFCF93DF93EB0186319C4706
:1034000011F50E94440B9A81992399F08A7A91E0F0
:1034100009F490E090930705811109C089E20E94A8
:103420001C0B0E94850B80E0DF91CF91089585E30E
:10343000F6CF80910705811104C089E20E94240B18
:10344000F0CF85E3FBCF81E0EFCF0F931F93CF93B6
:10345000DF93C42FD22FFC0182818823C9F04093CF
:103460000A050E944C1C909309058093080580E290
:103470008C0F883040F4C77081E001C0880FCA9576
:10348000EAF70E947004DF91CF911F910F91089588
:1034900010910A05141332C0809108059091090516
:1034A0000E94641C883C910548F5C0E2CD0F1D17B1
:1034B000B9F080E2810F883040F4177081E001C0DC
:1034C000880F1A95EAF70E947704C83048F481E023
:1034D0009D2F977001C0880F9A95EAF70E9470049B
:1034E000802F0E946704C83070F6D77081E001C059
:1034F000880FDA95EAF70E947704C5CF80E28C0F37
:10350000883008F6C77081E001C0880FCA95EAF7D5
:10351000F2CF0F93DB0188519C4787309105A0F5CE
:10352000FC01E65EF74D0C94322706E221EE41EEF7
:103530006AE17CE7CD010E94251A80E00F91089591
:1035400007E225EE45EE6BE17CE7F4CF06E221EEE3
:1035500040EE68E17CE7EECF07E225EE44EE69E15C
:103560007CE7E8CF06E221EE42EE6CE17CE7E2CFB9
:1035700007E225EE46EE6DE17CE7DCCF08E221E0D4
:1035800045EE6EE17CE7D6CF12968C91882319F038
:1035900010920A05D3CF81E0D1CF90933D04809360
:1035A0003C0408959093100580930F050895E091D1
:1035B0000F05F0911005309729F00190F081E02D72
:1035C0000995089580E00895E0910F05F0911005A8
:1035D000309721F00280F381E02D09950895E09164
:1035E0000F05F0911005309739F022E0DC012C93A3
:1035F0000480F581E02D09950895A3E0B0E0E3E0B3
:10360000FBE10C94572720910D0530910E052817EA
:103610003907A1F090930E0580930D05E0910F05F9
:10362000F0911005309751F023E029839B838A8322
:103630000680F781E02DCE01019609952396E2E000
:103640000C947327A3E0B0E0E8E2FBE10C94572769
:1036500020910B0530910C0528173907A1F09093A4
:103660000C0580930B05E0910F05F0911005309744
:1036700051F024E029839B838A830680F781E02D23
:10368000CE01019609952396E2E00C9473279C01E4
:103690002E5F3F4FAC01485F5F4F80E02417350736
:1036A00009F40895F90191919F019923B9F38F5F6E
:1036B000F5CF662349F0FC01329608962191261732
:1036C00029F0E817F907D1F780E0089581E008951F
:1036D0009C01FC0132969FEF80E04191461751F02A
:1036E0009F3F19F4411101C0982F8F5F8630A9F7D1
:1036F0009F3F09F40895290F311D97FD3A95F9016F
:1037000062830895FC01329608962191261303C026
:10371000DF0111971C92E817F907B9F708950E9485
:10372000681B08950E94821B0895029626E0FC0102
:1037300011922A95E9F7089546E050E00E949227F9
:1037400021E0892B09F420E0822F089508950E943A
:10375000A61B0895811106C081E0809311050E9487
:10376000A71B089582E0F9CF83E0809311050E94A2
:10377000A71B08950E94AA1B089581E0809311055C
:103780000E94A71B08950E94BD1B089508950895E7
:103790000E94C71B0895089508950E94C61B0895AE
:1037A000CF930E94CB1B0E94B2100E94CC1BC0E0A2
:1037B0008C2F0E94E60F892B31F4CF5FC430C1F704
:1037C00080E0CF91089581E0FCCF85B7806885BF08
:1037D00085B7806885BF08951F921FB61F92112478
:1037E0008F939F93AF93BF9380911205811113C064
:1037F0008091850590918605A0918705B0918805F7
:103800004196A11DB11D8093850590938605A093D7
:103810008705B0938805BF91AF919F918F911F90BD
:103820001FBE1F90189580918D05843031F10E9444
:103830003C031092120588E190E020E40FB6F89462
:10384000A895809360000FBE2093600083B7817FAE
:10385000846083BF83B7816083BF7894889583B782
:103860008E7F83BF0FB6F894A89580916000886121
:1038700080936000109260000FBE08950E94CD06F4
:103880000E944303089582E084BD93E095BD9AEFC2
:1038900097BD80936E0008952FB7F89480918505A9
:1038A00090918605A0918705B09188052FBF089556
:1038B0002FB7F894609185057091860580918705F2
:1038C000909188052FBF08959C014FB7F89480917F
:1038D000850590918605A0918705B09188054FBF19
:1038E000821B930B089578941F921FB61F92112488
:1038F0008F939F93AF93BF93809185059091860599
:10390000A0918705B09188050196A11DB11D8093F6
:10391000850590938605A0938705B0938805BF9190
:10392000AF919F918F911F901FBE1F90189581E0BE
:103930008093E00080E28093D8001092C9008FE16C
:103940009EE40197F1F700C0000087E090EBDC01F6
:103950008093960590939705A0939805B093990549
:1039600088E19CE00FB6F894A895809360000FBEA4
:1039700090936000FFCF88E19CE00FB6F894A89583
:10398000809360000FBE90936000FFCF80911B0575
:1039900008959B01BA0190918D059430E9F48F70E0
:1039A0008093E9009FEF8091E800915085FD06C06B
:1039B00085ED8A95F1F700009111F5CF8091E8002F
:1039C00085FF0AC050E040E0C9010E94BE1E809100
:1039D000E8008E778093E800089543E050E0BC0152
:1039E00082E00E94C91C089546E050E0BC0182E0DC
:1039F0000E94C91C0895CF93DF93EC0148E050E08A
:103A0000BC0181E00E94C91C88E0FE01A3E1B5E091
:103A100001900D928A95E1F7DF91CF910895809101
:103A20008C05811109C00E944E200E94AB2080911C
:103A3000E20084608093E200089510928C0508955E
:103A40000E94BD1B08956091890581E0611101C04C
:103A500080E00E94B41B089590918D0581E0943020
:103A600009F080E0609189050E94BA1B089542E048
:103A700061EC81E00E94CA1F42E261EC82E00E9498
:103A8000CA1F90918D0581E0943009F080E060912B
:103A900089050E94AA1B089580918F05833009F43F
:103AA00061C030F48130D1F1823009F49EC00895B4
:103AB0008A3009F48AC08B3009F46FC0893009F06C
:103AC00050C080918E05813209F04BC080919205E3
:103AD00090919305029708F044C08091E800877F99
:103AE0008093E8008091E80082FF37C09091F30056
:103AF0008091F200029731F48091F100813011F051
:103B0000863021F48091F10080931B058091E800BC
:103B10008B778093E8000E94FE1F23C080918E0562
:103B2000813AF9F48091E800877F8093E8008091E2
:103B3000920590919305892B61F468E083E195E00B
:103B400070E00E940D1F8091E8008B778093E80061
:103B5000089560E090E080E0F3CF80918D058111C1
:103B6000C1CF089580918E05813AD9F78091920551
:103B700090919305892BA9F78091E800877F809326
:103B8000E8008091E80080FFFCCF80918A03809359
:103B9000F1008091E8008E77BCCF80918E05813254
:103BA00001F78091920590919305892BD1F6809130
:103BB000E800877F8093E8000E94FE1F80919005B7
:103BC00080938A030E94CD06089580918E058132EC
:103BD00041F68091E800877F8093E8000E94FE1FF5
:103BE0008091910580931C05089580918E05813AFE
:103BF00009F0B7CF8091E800877F8093E80080913B
:103C0000E80080FFFCCF80911C05C1CF84B7877F7F
:103C100084BF0FB6F894A895809160008861809366
:103C20006000109260000FBE80E890E00FB6F8943C
:103C300080936100909361000FBE0E94C31B0895A2
:103C40000E944E200E94AB20E2EEF0E08081846072
:103C5000808378940E942A23089582E893E00E944A
:103C6000D21A089580918D05853031F480918D05AB
:103C7000853019F00E943E1C08950E94131C80910B
:103C80008B05882399F30E94D01B882379F30E9427
:103C9000A81E0E94CD06EACF08950E94501E0895E6
:103CA000292F33272330310519F168F421303105EC
:103CB00009F444C02230310509F445C090E080E0A9
:103CC00030E020E025C02132310549F122323105B2
:103CD000A9F780E490E028EA33E061157105C1F0AE
:103CE0008BE790E02DE233E06130710589F0E6CF9B
:103CF00099278130910581F0009729F00297F1F61C
:103D0000EEEAF2E002C0ECEDF2E0849190E09F0177
:103D1000FA01318320830895E6ECF2E0F6CF89E0E2
:103D200090E022EF32E06115710591F389E090E0B7
:103D30002BE033E06130710559F3C0CF82E190E0B0
:103D40002BE133E0E5CF8BE390E020EE32E0E0CFF3
:103D500080E189BD82E189BD09B400FEFDCF80917B
:103D6000D8008F7D8093D8008091E000826080939E
:103D7000E0008091E00081FDFCCF0895AF92BF92FA
:103D8000CF92DF92FF920F931F93CF93DF936C013B
:103D9000EB018A010E941D20F82E811123C001151C
:103DA000110539F0F80180819181C81BD90BC80E2B
:103DB000D91EB12CA12C2097A9F08091E80085FD97
:103DC00022C08091E8008E778093E80001151105EC
:103DD000A1F0F80180819181A80EB91EB182A08264
:103DE00085E0F82E8F2DDF91CF911F910F91FF90DD
:103DF000DF90CF90BF90AF9008950E941D20882340
:103E0000D1F2F82EEFCFF60181916F018093F1008E
:103E10002197FFEFAF1ABF0ACECFFC018091940526
:103E20009091950586179707A0F06115710529F403
:103E30009091E8009E779093E80090E061157105FD
:103E400051F4911108C08091E80082FF34C080E0F5
:103E50000895BC01F2CF80918D058823C1F1853092
:103E6000C1F18091E80083FD30C08091E80082FDBF
:103E7000EACF8091E80080FFE1CF8091F3002091AC
:103E8000F200382F6115710519F02830310558F00E
:103E900091E02830310509F090E02091E8002E777C
:103EA0002093E800CBCF81918093F100615071099C
:103EB0002F5F3F4FE7CF80918D05882341F08530FC
:103EC00041F08091E80083FFBECF81E0089582E059
:103ED000089583E00895FC018091940590919505E3
:103EE00086179707A0F06115710529F48091E80005
:103EF0008E778093E80090E06115710551F491117F
:103F000008C08091E80082FF35C080E00895BC01C0
:103F1000F2CF80918D058823C9F18530C9F1809158
:103F2000E80083FD31C08091E80082FDEACF8091F6
:103F3000E80080FFE1CF8091F3002091F200382F5C
:103F40006115710519F02830310558F091E02830DD
:103F5000310509F090E08091E8008E778093E800C9
:103F6000CBCF84918093F1003196615071092F5F1E
:103F70003F4FE6CF80918D05882341F0853041F099
:103F80008091E80083FFBDCF81E0089582E008952D
:103F900083E00895982F973028F08F708093E90080
:103FA00081E008959093E900242F762F50E0981730
:103FB00031F07091EC002091ED005091F00021FD66
:103FC00002C09F5FE8CF3091EB003E7F3093EB0063
:103FD0003091ED003D7F3093ED003091EB0031608A
:103FE0003093EB007093EC002093ED005093F000C1
:103FF0002091EE0027FDE5CF80E0089580918E05A9
:1040000087FF13C08091E80082FF06C08091E8001E
:104010008B778093E80004C080918D058111F2CFE9
:10402000089580918D058823D9F38091E80080FF61
:10403000F8CF8091E8008E77ECCF2091E4003091AA
:10404000E50095E6A9012091EC00822F817020FF08
:1040500006C08091E80080FF06C080E008952091AE
:10406000E80022FD1AC080918D05882389F08530F3
:1040700089F08091EB0085FD0FC02091E400309124
:10408000E50042175307F9F29150E1F684E00895F4
:1040900082E0089583E0089581E008950E94BD20A4
:1040A0000E94C520E0EEF0E0808181608083E8ED31
:1040B000F0E080818F77808319BCA7EDB0E08C9110
:1040C0008E7F8C9380818F7E808310928C050895E3
:1040D0000F931F93CF93DF930E94BD200E94C520B2
:1040E000C8EDD0E088818F77888388818068888355
:1040F00088818F7D888319BC10928D051092890567
:1041000010928B0510928A0500EE10E0F801808174
:104110008B7F808388818160888342E060E080E0DB
:104120000E94CA1FE1EEF0E080818E7F8083E2EE84
:10413000F0E0808181608083808188608083F801E5
:1041400080818E7F8083888180618883DF91CF9199
:104150001F910F910895E8EDF0E080818F7E8083BC
:10416000E7EDF0E080818160808384E082BF81E0C0
:1041700080938C050E9468200895E8EDF0E080812E
:104180008E7F80831092E20008951092DA001092E0
:10419000E10008951F920F920FB60F9211242F93F2
:1041A0003F934F935F936F937F938F939F93AF93BF
:1041B000BF93EF93FF938091E10082FF0BC080914A
:1041C000E20082FF07C08091E1008B7F8093E100D5
:1041D0000E9429238091DA0080FF19C08091D800C5
:1041E00080FF15C08091DA008E7F8093DA00809185
:1041F000D90080FF96C080E189BD82E189BD09B404
:1042000000FEFDCF81E080938D050E940F1D8091FF
:10421000E10080FF19C08091E20080FF15C080910D
:10422000E2008E7F8093E2008091E20080618093C3
:10423000E2008091D80080628093D80019BC85E0AC
:1042400080938D050E94231D8091E10084FF2BC087
:104250008091E20084FF27C080E189BD82E189BDB1
:1042600089B5982F917080FFFBCF8091D8008F7D0A
:104270008093D8008091E1008F7E8093E10080914F
:10428000E2008F7E8093E2008091E2008160809363
:10429000E20080918905882309F449C084E0809375
:1042A0008D050E942C1D8091E10083FF29C0809123
:1042B000E20083FF25C08091E100877F8093E100C9
:1042C00082E080938D05109289058091E1008E7FB8
:1042D0008093E1008091E2008E7F8093E2008091E4
:1042E000E20080618093E20042E060E080E00E94B2
:1042F000CA1F8091F00088608093F0000E94201D0A
:10430000FF91EF91BF91AF919F918F917F916F91AD
:104310005F914F913F912F910F900FBE0F901F9083
:10432000189519BC10928D050E941D1D70CF8091AB
:10433000E30087FD93E090938D05B3CF1F920F921A
:104340000FB60F9211242F933F934F935F936F9368
:104350007F938F939F93AF93BF93CF93DF93EF930D
:10436000FF93D091E900DF708091EC00C82FC170FD
:1043700080FDC0E81092E9008091F000877F809373
:10438000F00078940E94E2211092E9008091F00000
:1043900088608093F000CD2BCF70C093E900FF912F
:1043A000EF91DF91CF91BF91AF919F918F917F91CD
:1043B0006F915F914F913F912F910F900FBE0F9092
:1043C0001F901895AAE2B0E0E8EEF1E20C945627AF
:1043D0008EE895E02091F100FC012193CF01F5E0FA
:1043E00086399F07B9F70E944C1D8091E80083FF32
:1043F0001EC180918E0590918F059A3008F017C1EB
:10440000E92FF0E0EF5DF74D0C943227803899F0FA
:10441000823809F00CC1809192058F70873008F0C6
:1044200006C18093E9008091EB0085FB882780F925
:104430001092E90006C080918A0590918B05911138
:1044400082609091E800977F9093E8008093F1005C
:104450001092F1008091E8008E77E5C0882309F47E
:10446000D3C0823009F0E3C0809190058111D6C09D
:10447000809192058F702FEF280F263008F0D7C05B
:104480008093E9002091EB0020FFC8C0933031F405
:104490008091EB0080628093EB00C0C09091EB00B4
:1044A00090619093EB0021E030E001C0220F8A95EB
:1044B000EAF72093EA001092EA008091EB0088600E
:1044C000EACF8111B4C0109190051F778091E3006D
:1044D0008078812B8093E3008091E800877F809330
:1044E000E8000E94FE1F8091E80080FFFCCF8091D1
:1044F000E30080688093E30082E0111183E0809301
:104500008D0595C08058823008F091C0809190054B
:10451000909191058C3D23E09207A1F583E08A8379
:104520008AE289834FB7F894DE01139620E03EE0DB
:1045300051E2E32FF0E050935700E49120FF03C0D5
:10454000E295EF703F5FEF708E2F90E0EA30C0F0A1
:10455000C7968D939D932F5F243159F74FBF80915C
:10456000E800877F8093E8006AE270E0CE01019660
:104570000E940D1F8091E8008B778093E80057C060
:10458000C096E7CF6091920570919305AE014F5FA1
:104590005F4F0E944D1EBC01892B09F448C09091C9
:1045A000E800977F9093E80089819A810E946B1FB1
:1045B000E1CF8038E1F58091E800877F8093E800C3
:1045C000809189058093F10045CF811130C0909191
:1045D0009005923060F58091E800877F8093E80035
:1045E000909389050E94FE1F80918905882311F010
:1045F00084E005C08091E30087FDFACF81E08093DD
:104600008D050E94371D13C080919005813079F48B
:1046100081E0933009F080E080938B051092E900EF
:104620008091E800877F8093E8000E94FE1F8091C0
:10463000E80083FF0AC08091E800877F8093E8004C
:104640008091EB0080628093EB00AA96E3E00C94EB
:1046500072270895CF9380918D058823A1F0C09192
:10466000E900CF709091EC00892F817090FD80E877
:10467000C82B1092E9008091E80083FD0E94E2219E
:10468000CF70C093E900CF9108950E94282408F4C8
:1046900081E008950E945E230C9463240E945C24B0
:1046A00058F00E94552440F029F45F3F29F00C9403
:1046B0004C2451110C9497240C9452240E9474247D
:1046C00068F39923B1F3552391F3951B550BBB2741
:1046D000AA2762177307840738F09F5F5F4F220F86
:1046E000331F441FAA1FA9F335D00E2E3AF0E0E87D
:1046F00032D091505040E695001CCAF72BD0FE2FC7
:1047000029D0660F771F881FBB1F2617370748075A
:10471000AB07B0E809F0BB0B802DBF01FF27935812
:104720005F4F3AF09E3F510578F00C944C240C9466
:1047300097245F3FE4F3983ED4F386957795679589
:10474000B795F7959F5FC9F7880F911D9695879547
:1047500097F90895E1E0660F771F881FBB1F621766
:1047600073078407BA0720F0621B730B840BBA0B24
:10477000EE1F88F7E09508950E947C2488F09F57EB
:1047800098F0B92F9927B751B0F0E1F0660F771F75
:10479000881F991F1AF0BA95C9F714C0B13091F06B
:1047A0000E949624B1E008950C949624672F782FE8
:1047B0008827B85F39F0B93FCCF386957795679530
:1047C000B395D9F73EF490958095709561957F4F9C
:1047D0008F4F9F4F0895E89409C097FB3EF4909542
:1047E0008095709561957F4F8F4F9F4F9923A9F0CA
:1047F000F92F96E9BB279395F69587957795679559
:10480000B795F111F8CFFAF4BB0F11F460FF1BC09C
:104810006F5F7F4F8F4F9F4F16C0882311F096E92F
:1048200011C0772321F09EE8872F762F05C06623DD
:1048300071F096E8862F70E060E02AF09A95660F96
:10484000771F881FDAF7880F9695879597F908954F
:10485000990F0008550FAA0BE0E8FEEF1616170691
:10486000E807F907C0F012161306E407F50798F0F9
:10487000621B730B840B950B39F40A2661F0232B12
:10488000242B252B21F408950A2609F4A140A6958E
:104890008FEF811D811D089597F99F6780E870E073
:1048A00060E008959FEF80EC089500240A941616A6
:1048B000170618060906089500240A94121613060E
:1048C000140605060895092E0394000C11F488239C
:1048D00052F0BB0F40F4BF2B11F460FF04C06F5FB8
:1048E0007F4F8F4F9F4F089557FD9058440F551F8E
:1048F00059F05F3F71F04795880F97FB991F61F062
:104900009F3F79F087950895121613061406551FD8
:10491000F2CF4695F1DF08C0161617061806991F44
:10492000F1CF86957105610508940895E894BB2739
:1049300066277727CB0197F908950E94B0240C943D
:1049400063240E94552438F00E945C2420F09523B3
:1049500011F00C944C240C94522411240C949724A0
:104960000E94742470F3959FC1F3950F50E0551F7A
:10497000629FF001729FBB27F00DB11D639FAA27B4
:10498000F00DB11DAA1F649F6627B00DA11D661F03
:10499000829F2227B00DA11D621F739FB00DA11D24
:1049A000621F839FA00D611D221F749F3327A00DDE
:1049B000611D231F849F600D211D822F762F6A2F7A
:1049C00011249F5750409AF0F1F088234AF0EE0FDF
:1049D000FF1FBB1F661F771F881F91505040A9F70C
:1049E0009E3F510580F00C944C240C9497245F3F1B
:1049F000E4F3983ED4F3869577956795B795F79548
:104A0000E7959F5FC1F7FE2B880F911D96958795BF
:104A100097F90895FA01EE0FFF1F30962105310531
:104A2000A1F16115710561F48038BFE39B0749F17D
:104A300068949038810561F08038BFEF9B0741F0A2
:104A400099234AF5FF3FE1053105210519F1E89465
:104A50000894E795D901AA2329F4AB2FBE2FF85F5C
:104A6000D0F310C0FF5F70F4A695E0F7F73950F06F
:104A700019F0FF3A38F49F779F930DD00F9007FC01
:104A80009058089546F00C94522460E070E080E85D
:104A90009FE308954FE79F775F934F933F932F9343
:104AA0000E9405262F913F914F915F910E949D2476
:104AB0000C94622529F416F00C944C240C94962442
:104AC0000C9452240E947C24A8F39638A0F707F88F
:104AD0000F92E8942BE33AEA48EB5FE70E94B32495
:104AE0000F920F920F924DB75EB70F920E944D2614
:104AF000ECEAF0E00E9494254F915F91EF91FF91D5
:104B0000E595EE1FFF1F49F0FE57E0684427EE0FC2
:104B1000441FFA95E1F74195550B0E94C7250F9068
:104B200007FE0C94BB250895DF93CF931F930F933B
:104B3000FF92EF92DF927B018C01689406C0DA2E1F
:104B4000EF010E94B024FE01E894A59125913591D2
:104B500045915591A6F3EF010E949926FE01970118
:104B6000A801DA9469F7DF90EF90FF900F911F9101
:104B7000CF91DF9108959B01AC0160E070E080E887
:104B80009FE30C944A230C944C240C94EE260E9430
:104B90007C24D8F39923C9F3940F511DA3F39150AA
:104BA000504094F059F0882332F0660F771F881F29
:104BB00091505040C1F79E3F51052CF7880F911D31
:104BC0009695879597F908955F3FACF0983E9CF0D5
:104BD000BB27869577956795B79508F4B16093954F
:104BE000C1F7BB0F58F711F460FFE8CF6F5F7F4F3D
:104BF0008F4F9F4FE3CF0C94972416F00C94EE2622
:104C00000C94522468940C944C240E947C24A8F3A5
:104C10009923C1F3AEF3DF93CF931F930F93FF92CA
:104C2000C92FDD2788232AF02197660F771F881F59
:104C3000DAF720E030E040E85FEB9FE3883920F0CE
:104C4000803E38F021968F770E948226E4EDF0E0D6
:104C500004C00E948226E1E0F1E00E9494258B01CD
:104C6000BE01EC01FB2E6F5771097595771F880BFC
:104C7000990B0E94ED2328E132E741E35FE30E94B4
:104C8000B024AF2D9801AE01FF900F911F91CF91ED
:104C9000DF910E9499260C946324FA01DC01AA0F8B
:104CA000BB1F9B01AC01BF5728F4222733274427A1
:104CB000507820C0B75190F4AB2F0024469537951B
:104CC0002795011CA395D2F3002071F0220F331F0A
:104CD000441FB395DAF30ED00C9481266130710530
:104CE000A0E88A07B94630F49B01AC016627772714
:104CF00088279078309621F0208331834283538334
:104D000008955058BB27AA270E9499260C94632423
:104D10000E94552438F00E945C2420F039F49F3F13
:104D200019F426F40C9452240EF4E095E7FB0C944D
:104D30004C24E92F0E94742458F3BA1762077307B2
:104D40008407950720F079F4A6F50C9496240EF4C8
:104D5000E0950B2EBA2FA02D0B01B90190010C018B
:104D6000CA01A0011124FF27591B99F0593F50F4A3
:104D7000503E68F11A16F040A22F232F342F4427FB
:104D8000585FF3CF469537952795A795F0405395F3
:104D9000C9F77EF41F16BA0B620B730B840BBAF0C3
:104DA0009150A1F0FF0FBB1F661F771F881FC2F72E
:104DB0000EC0BA0F621F731F841F48F48795779542
:104DC0006795B795F7959E3F08F0B0CF9395880FFC
:104DD00008F09927EE0F9795879508959F3F31F03A
:104DE000915020F4879577956795B795880F911D19
:104DF0009695879597F9089597FB072E16F40094DA
:104E000007D077FD09D00E947E2707FC05D03EF42D
:104E1000909581959F4F0895709561957F4F089566
:104E2000A1E21A2EAA1BBB1BFD010DC0AA1FBB1FAE
:104E3000EE1FFF1FA217B307E407F50720F0A21B20
:104E4000B30BE40BF50B661F771F881F991F1A948D
:104E500069F760957095809590959B01AC01BD01B7
:104E6000CF010895EE0FFF1F0590F491E02D0994F6
:104E7000A29FB001B39FC001A39F700D811D11249B
:104E8000911DB29F700D811D1124911D08952F92C7
:104E90003F924F925F926F927F928F929F92AF92CA
:104EA000BF92CF92DF92EF92FF920F931F93CF9317
:104EB000DF93CDB7DEB7CA1BDB0B0FB6F894DEBFAE
:104EC0000FBECDBF09942A88398848885F846E84D4
:104ED0007D848C849B84AA84B984C884DF80EE801E
:104EE000FD800C811B81AA81B981CE0FD11D0FB627
:104EF000F894DEBF0FBECDBFED010895AA1BBB1B0A
:104F000051E107C0AA1FBB1FA617B70710F0A61BC9
:104F1000B70B881F991F5A95A9F780959095BC01EA
:104F2000CD010895FB01DC0104C08D910190801931
:104F300021F441505040C8F7881B990B0895FB019C
:104F4000DC0102C001900D9241505040D8F7089505
:104F5000F999FECF92BD81BDF89A992780B5089541
:104F6000A8E1B0E042E050E00C94DC27262FF9994C
:104F7000FECF92BD81BDF89A019700B4021639F0B8
:104F80001FBA20BD0FB6F894FA9AF99A0FBE089589
:104F90000396272F0E94B7270E94B627252F0E942D
:104FA000B727242F0C94B7270196272F0E94B727E5
:104FB0000C94B627DC01CB01FC01F999FECF06C0A9
:104FC000F2BDE1BDF89A319600B40D9241505040C7
:104FD000B8F70895F894FFCFB904B904EA04EA04D5
:104FE0007C059805190519059D050E061D061D066B
:104FF000E2186319EA1899189D18EE18A118F2180A
:10500000FE18AD185C19B1180219B5180619461921
:10501000B9180A194D19BF1810192619A518F6182C
:10502000A918FA18D7181B19371956195A199318AD
:10503000E6186A19A61AAC1A951AA01AB21AB81A62
:10504000BE1A06222E2217232E2217236122822225
:065050001723D922E5221E
:1050560052D02445000000410000DC44000000411D
:1050660052D0A44400004041AA0400005C44000061
:1050760080415C978A440000804152D0A4440000DD
:1050860080410000DC4400008041010000DC440057
:1050960000004100005C440000004100005C440048
:1050A6000000410000DC440000004152D0A444004E
:1050B6000000410000DC440000004152D0244500BD
:1050C600004041780000DC44000000410AA7CF44BC
:1050D600000000415CFFB8440000004152D0A444E7
:1050E600000000411FD59244000000415C978A44AD
:1050F6000000004148F176440000004100005C4495
:105106000000004100005C440000004148F1764484
:10511600000000415C978A44000000411FD592447C
:105126000000004152D0A444000000415CFFB84496
:10513600000000410AA7CF44000000410000DC4403
:10514600000000410000DC44000000410AA7CF44F3
:10515600000000415CFFB8440000004152D0A44466
:10516600000000411FD59244000000415C978A442C
:105176000000004148F176440000004100005C4414
:105186000000004100005C440000004148F1764404
:10519600000000415C978A44000000411FD59244FC
:1051A6000000004152D0A444000000415CFFB84416
:1051B600000000410AA7CF44000000410000DC4483
:1051C6000000004100005C44000080411F15694456
:1051D6000000804148F176440000804100D08244BE
:1051E600000080415C978A4400008041A4D024449A
:1051F6000000804100005C44000080411FD59244BD
:10520600000080415CFFC3440000804100000000B4
:10521600000000005CFF4344000080411FD592441B
:10522600000080410000DC440000804152D024454B
:1052360000008041000000000000000000005C4407
:105246000000804148F17644000080415C978A4422
:10525600000080411FD592440000804152D0A444F2
:105266000000804164000307000C280850011E0A54
:10527600140148F176440000C04000005C44000080
:10528600C04048F176440000C04000005C44000085
:10529600C04000005C440000004100005C44000087
:1052A600004148F176440000C04000005C44000024
:1052B600C04048F176440000C04000005C44000055
:1052C600C04000005C440000004100005C44000057
:1052D6000041C61CFB1CF41CED1C01000204050762
:1052E600090B0C0E1011131517181A1C1D1F21235C
:1052F600242628292B2D2F3032343537393BE2002E
:10530600E900EA00B500B600B700CD008301CC0085
:105316008A01920194012102230224022502260217
:1053260027022A02B300B4006F0070009F01CB0170
:10533600818283E200E900EA00B500B600B700CD3D
:10534600008301CC008A01920194012102230224E8
:10535600022502260227022A02B300B4006F00705B
:10536600009F01CB018182839190946697C6343564
:10537600379567F1F036323331F7F6F500FF010065
:0C538600010000FFFF0000010001FF001B
:00000001FF
