:100000000C9448050C9480050C9480050C94800594
:100010000C9480050C9480050C9480050C9480054C
:100020000C9480050C9480050C9456290C942A2A73
:100030000C94C9220C9480050C9480050C948005C6
:100040000C9480050C9480050C9480050C9480051C
:100050000C9480050C9450230C9480050C9480051E
:100060000C9480050C9480050C9480050C948005FC
:100070000C9480050C9480050C9480050C948005EC
:100080000C9480050C9480050C9480050C948005DC
:100090000C9480050C9480050C9480050C948005CC
:1000A0000C9480050C9480050C94800529003A007E
:1000B0003B003C003D0000003E003F00400041008E
:1000C000420043004400450000002C001E001F00B9
:1000D0002000210022002300240025002600270004
:1000E0002D002E002A0000002C0035001400000016
:1000F0001A000800150017001C0018000C00120060
:1001000013002F00300031002C002B0004000000F1
:100110001600070009000A000B000D000E000F007A
:100120003300340028002C00000039000000E100FA
:100130001D001B000600190005001100100036000C
:10014000370038000000E10052000000E000E3004A
:100150000000E200000000002C0000000000000091
:10016000E200E0000000500051004F0044454255BD
:10017000473A2064697361626C65642E0A004445E5
:100180004255473A20656E61626C65642E0A000A2A
:100190000025303258006C65645F7461736B3A20DF
:1001A000004F6E6573686F743A2061637469766599
:1001B0003A2025640A000A002530313662003A20D0
:1001C0000025303258000A722F6320303132333428
:1001D00035363738394142434445460A00290A003A
:1001E0002575002F002575005D280025640020007E
:1001F000256400200025640020002564007C002583
:10020000303258006D6F7573656B6579205B627471
:100210006E7C782079207620685D287265702F6169
:10022000636C293A205B0000000000000000002AF7
:100230002B2800000000000000000000000000006B
:10024000000029000000002C1E3420212224342626
:1002500027252E362D3738271E1F2021222324251F
:10026000263333362E37381F0405060708090A0BD4
:100270000C0D0E0F101112131415161718191A1B46
:100280001C1D2F3130232D350405060708090A0BE4
:100290000C0D0E0F101112131415161718191A1B26
:1002A0001C1D2F3130354C00000000000000000004
:1002B000000000000000000000000000000000003E
:1002C00000000000000000000000007E0F00D4FFCE
:1002D000FFFFC700000078313A0964656C61792836
:1002E0002A31306D73293A2025750A323A09696E30
:1002F00074657276616C286D73293A2025750A330E
:100300003A096D61785F73706565643A2025750AF6
:10031000343A0974696D655F746F5F6D61783A2076
:1003200025750A353A09776865656C5F6D61785F98
:1003300073706565643A2025750A363A09776865F1
:10034000656C5F74696D655F746F5F6D61783A208D
:1003500025750A00703A097072696E742076616CB6
:100360007565730A643A097365742064656661751E
:100370006C74730A75703A092B310A646E3A092D50
:10038000310A6C743A092B31300A72743A092D31F2
:10039000300A4553432F713A09717569740A0A731B
:1003A00070656564203D2064656C7461202A206D51
:1003B00061785F7370656564202A202872657065B6
:1003C0006174202F2074696D655F746F5F6D617853
:1003D000290A77686572652064656C74613A2063E8
:1003E0007572736F723D25642C20776865656C3D6E
:1003F00025640A53656520687474703A2F2F656E02
:100400002E77696B6970656469612E6F72672F77EB
:10041000696B692F4D6F7573655F6B6579730A0042
:100420004D3E20004D25753A25733E20003F0A00C1
:100430003D2025750A003F0A0064656661756C748D
:10044000730A0025750A003F0A000A092D2056612B
:100450006C756573202D0A00710A000A092D204D64
:100460006F7573656B6579202D0A003F00433E2050
:10047000004C25640A000A092D20537461747573B9
:10048000202D0A686F73745F6B6579626F617264A7
:100490005F6C65647328293A20253032580A6B65F1
:1004A00079626F6172645F70726F746F636F6C3AC0
:1004B00020253032580A6B6579626F6172645F691A
:1004C000646C653A20253032580A74696D65725F34
:1004D00072656164333228293A202530386C580A15
:1004E000002573000A092D20436F6E736F6C652021
:1004F0002D0A4553432F713A09717569740A6D3A93
:10050000096D6F7573656B65790A000A092D204DB9
:1005100061676963202D0A443A0944656275672062
:100520004D65737361676520546F67676C650A5822
:100530003A094D6174726978204465627567204D8F
:100540006F646520546F67676C65202D2053686F5A
:1005500077206B65797072657373657320696E209F
:100560006D617472697820677269640A4B3A094B4D
:100570006579626F61726420446562756720546FAB
:1005800067676C65202D2053686F77206B657970E5
:1005900072657373207265706F72740A4D3A094404
:1005A00065627567204D6F75736520546F67676C62
:1005B000650A563A0956657273696F6E0A533A09AD
:1005C0005374617475730A433A09416374697661BF
:1005D000746520436F6E736F6C65204D6F64650AA0
:1005E00046312D4631303A09537769746368207477
:1005F0006F204C6179657220302D392028463130CA
:10060000203D204C30290A302D393A09537769743E
:10061000636820746F204C6179657220302D390A2F
:1006200047524156453A0953776974636820746F9D
:10063000204C6179657220302028616C7465726E7F
:10064000617465290A423A094A756D7020746F20F9
:10065000426F6F746C6F616465720A4553433A0967
:100660004A756D7020746F20426F6F746C6F616497
:1006700065722028616C7465726E617465290A4523
:100680003A095072696E7420454550524F4D2053BF
:10069000657474696E67730A4241434B535041431A
:1006A000453A09436C65617220454550524F4D0AE9
:1006B000006B65796D61705F636F6E6669672E723E
:1006C00061773A20253032580A2E737761705F6364
:1006D0006F6E74726F6C5F636170736C6F636B3A93
:1006E0002025750A2E636170736C6F636B5F746F86
:1006F0005F636F6E74726F6C3A2025750A2E737784
:1007000061705F6C63746C5F6C6775693A20257506
:100710000A2E737761705F7263746C5F72677569BC
:100720003A2025750A2E737761705F6C616C745F77
:100730006C6775693A2025750A2E737761705F7250
:10074000616C745F726775693A2025750A2E6E6F49
:100750005F6775693A2025750A2E737761705F6748
:10076000726176655F6573633A2025750A2E73772B
:1007700061705F6261636B736C6173685F62616318
:100780006B73706163653A2025750A2E6E6B726F0C
:100790003A2025750A2E737761705F657363617007
:1007A000655F636170736C6F636B3A2025750A0037
:1007B00064656275675F636F6E6669672E726177E5
:1007C0003A20253032580A2E656E61626C653A20F7
:1007D00025750A2E6D61747269783A2025750A2E86
:1007E0006B6579626F6172643A2025750A2E6D6FB0
:1007F0007573653A2025750A006565636F6E6669D5
:10080000673A0A64656661756C745F6C61796572DC
:100810003A2025750A003F000A6D6F7573653A200E
:100820006F66660A000A6D6F7573653A206F6E0A0F
:10083000000A6B6579626F6172643A206F66660ABE
:10084000000A6B6579626F6172643A206F6E0A000C
:100850000A6D61747269783A206F66660A000A6DE3
:1008600061747269783A206F6E0A000A6465627575
:10087000673A206F66660A000A64656275673A2007
:100880006F6E0A000A0A4A756D70696E6720746F90
:1008900020626F6F746C6F616465722E2E2E200063
:1008A000433E2000436C656172696E672045455088
:1008B000524F4D0A000A002530325820006B6579EE
:1008C000626F6172645F7265706F72743A20005B70
:1008D000735D005B575D005B535D005B525D005BC9
:1008E000445D005B435D000A036D0079003600350E
:1008F0000000000A036D0079003600350000000496
:1009000003090409027B00040100A0FA09040000A5
:100910000103010100092111010001224000070526
:1009200081030800010904010002030000000921FD
:1009300011010001222200070582032000010705A2
:100940000303200001090402000103000000092143
:1009500011010001227B0007058403200001090426
:1009600003000203000000092111010001222200FE
:10097000070585032000010705050320000112017A
:10098000000200000008EDFE00000100010200016D
:100990000631FF0974A1010975150026FF00952095
:1009A000750881020976150026FF009520750891CB
:1009B00002C00660FF0961A1010962150026FF005F
:1009C0009520750881020963150026FF00952075A2
:1009D000089102C005010902A10185020901A100D7
:1009E00005091901290815002501950875018102DD
:1009F0000501093009311581257F950275088106A9
:100A000009381581257F950175088106050C0A387E
:100A1000021581257F950175088106C0C005010971
:100A200080A101850319012AB700150126B7009599
:100A30000175108100C0050C0901A101850419018F
:100A40002AA002150126A002950175108100C0059B
:100A5000010906A101050719E029E71500250195FF
:100A600008750181029501750881010507190029A2
:100A7000FF150026FF00950675088100050819017D
:100A80002905950575019102950175039101C00035
:100A900011241FBECFEFDAE0DEBFCDBF04B603FEE8
:100AA00018C08091A2039091A303A091A403B091D8
:100AB000A5038730904BA740B04B59F41092A20386
:100AC0001092A3031092A4031092A503E0E0F8E3B0
:100AD000099512E0A0E0B1E0E6E9F9E502C0059071
:100AE0000D92A43BB107D9F723E0A4EBB2E001C01B
:100AF0001D92A23AB207E1F70E9471150C94A02C46
:100B00000C940000FF93EF93E091B402F091B502D2
:100B1000309709F00995EF91FF910895FC018591B7
:100B2000803011F0EFDFFBCF0895FF27E0E230E2E5
:100B300047FF0CC0419597FF09C0EDE260957095A5
:100B400080959095611D711D811D911D27FF02C02B
:100B5000219530E350E2AA27660F771F881F991F5F
:100B6000AA1FA41710F0A41B63955A95A9F7AA30E1
:100B700008F0A95FA05DAF93F3956115710581053C
:100B8000910541F7ED3211F4EF93F395F21718F454
:100B90003F93F395FBCF8F91B5DFFA95E1F7089579
:100BA000E991F9918591803021F0853219F0AADF21
:100BB000F9CF089520E0E89455915532C1F35033B0
:100BC00011F4689455915A3348F4505390F3220F1E
:100BD000022E220F220F200D250FF4CF0EF42195A7
:100BE00089919991533619F3533729F1533559F1B6
:100BF000BC0188279927E8945C3621F48991999162
:100C000068945591543639F446EF7EF077FF0DC065
:100C10008FEF9FEF0AC055374AE039F0583540E171
:100C200021F0523642E009F00895FF93EF937DDF03
:100C3000EF91FF91B7CFFF93EF93FC01819180304B
:100C4000B9F360DFFBCFFF93EF9368DFF1CFDF9362
:100C5000CF93CDB7DEB72596A3DFCF91DF9108956F
:100C600081E0089581E0089581E008950E943406AE
:100C7000089508950E9439060895A5E0B0E0E3E4E0
:100C8000F6E00C940C2C49835A833091BB02898185
:100C90009A81311119C0662399F0222389F00E94AC
:100CA000200C182F682F89819A810E94FD0B698181
:100CB0007A81812F0E94F91F2596E3E00C94282C5D
:100CC0000E940E0C182FF3CF0E94200C69817A81AC
:100CD000F1CFFC01262F4081518162817381848193
:100CE0000E943D06089581E00895CF93DF93EC01C3
:100CF00060E00E946906BE010E943A06DF91CF9132
:100D00000895E1E0F0E0DF0102C0AA0FBB1F6A9581
:100D1000E2F7BD01DF0102C0AA0FBB1F4A95E2F74F
:100D20006A2B01C0EE0F2A95EAF7962F98239613A7
:100D300002C08E2B0895E0958E230895242F462F10
:100D4000682F8091E0020E9481060E945D0B089549
:100D50000E94D61308950E94DA13089508950E9400
:100D6000EF0A0E94AE062FEF84E39CE02150804002
:100D70009040E1F700C0000008950E94AF060E9475
:100D8000742308950E94AF060E94982308950F933C
:100D90001F93CF93DF938C0161E00E946906EC0101
:100DA000B8010E94E918811106C080E0DF91CF915F
:100DB0001F910F910895B801CE010E943606882335
:100DC000A1F3B801CE010E943D21882371F3B8013F
:100DD000CE010E94D819882341F3B801CE010E94A8
:100DE000AF20882311F3F80182818823D9F0CA3516
:100DF000FDE5DF07A9F170F4C130ECE5DE07B1F0E5
:100E0000CE3DFCE5DF0721F1C115DC4559F40E9418
:100E1000BD06CBCFCC35EDE5DE07F9F020F1C73AC2
:100E2000DD45C1F0C8010E943206C0CF9091440355
:100E3000892F8E7F90FF81608093440380FF05C0DF
:100E40008EE791E00E948E05B0CF8CE691E0FACF5C
:100E50000E94EC100E94C206A8CF0E942610E2CF8A
:100E60000E943010DFCF0E943410DCCF0E94A522F8
:100E70000E94780708950E947C070E94AA22089584
:100E8000829590E09C01220F331F220F331F2C7C90
:100E900095958795959587958373282B30E0C901A3
:100EA000880F991F8A7A359527952575822B089585
:100EB000CF93DF93D92F0E944007C82F8D2F0E9418
:100EC00040079C2FDF91CF91089508950E946507F8
:100ED000089581E008950E94690708950895CF93C9
:100EE000C82F0E9466078C2F0E946B07CF91089530
:100EF00080E00E946F0708950E9499210E946F0769
:100F00000895CF930E949921C82F8091B6028C1723
:100F100089F1C093B6020E9435236093B7027093A3
:100F2000B8028093B9029093BA028091440382FF81
:100F30001EC080FF1CC086E991E00E948E05809152
:100F4000440380FF14C01F92CF9381E991E09F93E7
:100F50008F930E942706809144030F900F900F906B
:100F60000F9080FF04C08FE891E00E948E058C2FC7
:100F70000E946F07CF910895ABE0B0E0E2ECF7E09C
:100F80000C940D2C4F83588769877A878B87611162
:100F90000E945E0F1E821D8285E0FE013796DE01F3
:100FA000119601900D928A95E1F78C819D81892B94
:100FB00061F449815A816B817C818D819E810E947F
:100FC000870E2B96E2E00C94292C89819A81892343
:100FD0008F3F79F3CE0101960E9473068111E9CF0C
:100FE000F0CFFC01808191810E944D0C0895CF9338
:100FF000C82F8823E1F08CEF8C0F813AD0F48C2F2E
:101000000E94D21E811113C06C2F8091000190911B
:1010100001010E943622882329F08C2F0E941E0F86
:101020000E947F0F8C2F0E94160F0E947F0FCF917E
:10103000089580E28C0F883048F4C77081E001C0C9
:10104000880FCA95EAF70E94410FEFCFEBE5EC0F4E
:10105000E33040F4F0E0EB5BFE4F808190E00E94D3
:10106000F821E5CFE8E5EC0FE73150F4F0E0EE0FC2
:10107000FF1FE95EFE4F808191810E940E22D7CF33
:10108000C03FA8F28C2F0E94F5150E94C816CFCF42
:10109000882379F19CEF980F913A28F40E941E0F53
:1010A0000E947F0F089590E2980F983050F4877057
:1010B00091E001C0990F8A95EAF7892F0E94470FA6
:1010C000EFCF9BE5980F933028F490E080E00E94EA
:1010D000F821089598E5980F973128F490E080E082
:1010E0000E940E220895803F20F00E944F160E9419
:1010F000C81608951F93CF93DF93182FEB010E941A
:10110000F707209739F4812F0E944808DF91CF918B
:101110001F9108958FE99FE00197F1F700C000004B
:101120002197EFCF70E060E0893311F460E570E063
:101130000E947A080895882321F00E94410F0E949E
:101140007F0F0895882321F00E94470F0E947F0F90
:101150000895B0E0A0E0EFEAF8E00C94062C6C01F2
:10116000D62FC72FFC011281F580F2949FE0F9225F
:101170000E94370FE82E8823B9F0E12E1123A1F049
:101180008C2F807F803421F080E28D0F8830D0F06A
:101190008091780382FF16C082E00E94E20F0E94D5
:1011A000370F91E0E82EE926BC2EB2948FE0B822EA
:1011B000FBE0FB1508F468C0EB2DF0E0EE55F34DB5
:1011C0000C94F02BE12CF0CF0C2F0F70C07F11F09E
:1011D0000295007F112399F0002359F080E28D0FD2
:1011E000883010F0D11107C0802F0E94410F0E945B
:1011F0007F0F8D2F41C0802F0E94510FF8CF8D2F70
:101200000E944808002309F43FC080E28D0F883017
:1012100010F0D11104C0802F0E94470F03C0802F0F
:101220000E94570F0E947F0F2FC00C2F0F70C07F9E
:10123000C03211F00295007FDD2381F0D13009F436
:1012400063C0112309F46DC0FF2009F463C0F601E7
:10125000858180FFCECF8F7085835CC080917803BD
:1012600082FD33C0112359F0002329F0802F0E9402
:10127000410F0E947F0F80E00E94F70705C080E0C9
:101280000E9448080111C7CFEB2DE850FF0B34979F
:1012900020F40E9499210E946F07EE2089F00E949D
:1012A000330F80FD0DC0F60112820E942D0F0E94A7
:1012B000710BC6010E94AF0A0E942D0F0E947D0B88
:1012C000CDB7DEB7E9E00C94222C112389F0F110A0
:1012D00006C00E94610F802B0E949B08D5CF21E0A1
:1012E000F212F7CF0E94610F802B0E94680FCCCFC3
:1012F000F11006C00E94750F802F0E94A208C4CF73
:1013000031E0F31609F2F6CF112331F085E08F15A5
:1013100008F4BACF802FE0CF94E09F1508F4B4CF43
:10132000EBCFFF2049F3D93349F4FFEF27EE33E049
:10133000F15020403040E1F700C000008D2F0E94A6
:101340004808A2CF8C2F86958695837069F08130EE
:1013500009F09ACF8D2F9C2F9370111102C090E04D
:1013600080E00E940E2290CF8D2F9C2F9370111140
:1013700002C090E080E00E94F82186CF8D2F1123DB
:1013800029F00E94F5150E94C8167ECF0E944F16C4
:10139000FACF8C2F837079F5111176CF4D2F4295AE
:1013A00046954770440F440F8D2F8F70042E01C057
:1013B000880F0A94EAF72D2F2071D4FF07C02FE081
:1013C00030E001C0220F4A95EAF72095C695C695F0
:1013D000C370822BC23049F058F4C13019F00E941A
:1013E0004B0B52CF0E94450B4FCF0E94510B4CCF5D
:1013F0000E94420B49CF8695112311F08C2F8170EA
:10140000882309F441CF4D2F429546954770440FEC
:10141000440F8D2F8F70042E01C0880F0A94EAF7B5
:101420002D2F2071D4FF07C02FE030E001C0220F24
:101430004A95EAF72095C695C695C370822BC230AF
:1014400049F058F4C13019F00E949C0B1DCF0E9446
:10145000960B1ACF0E94A20B17CF0E945D0B14CFE0
:10146000CF70112329F08C2F0E94710B8D2F34CF58
:101470008D2F0E94A2088C2F0E947D0B05CFD23F9A
:1014800051F160F4D03FB9F0D13F81F0112309F45C
:1014900049C0F110AECE8C2F8F7121C0D33F11F116
:1014A000D43FA1F78091780382FD26C08C2F8F71E5
:1014B000112311F314C0112349F084E08F1508F4AF
:1014C000E3CE8C2F8F710E948A0BDECE95E09F15A4
:1014D00008F4DACEF6CF8C2F8F711111CDCF0E9488
:1014E000710BD2CE112329F08C2F8F710E94680BC3
:1014F000CBCE0E94640BC8CE112349F0CF718C2F44
:101500000E94710B63E08C2F0E94C40FBDCE81E05E
:101510000E94E20FE1E0EF1508F0B6CE82E00E94F3
:10152000E20FB2CEF110FFCE8C2F8F71A5CF0F93AB
:101530001F93CF93DF93EC01688179818A810E94A8
:10154000580C8C010E94A80B0E94410BB801CE01DF
:101550000E94A908DF91CF911F910F910895CF9319
:10156000DF93EC018B819C81892B29F08881998103
:1015700089238F3F51F4DF91CF910895CE010E94CE
:10158000970ACE010E947506F6CFCE010E94C706CB
:101590008111F4CF0E94370F882369F38A81882351
:1015A00051F38091780382FFE6CF82E00E94E20F40
:1015B000E2CF90E080E00E94F82190E080E00E947D
:1015C0000E220E945E0F0E947F0F0E9466170E94EB
:1015D000C81608950E94260F0E94D90A08950E94F5
:1015E0004E0F0E94EA0A089592959F70963091F0EE
:1015F00058F4925F9F70923058F4803F19F030F4A5
:10160000883E30F481E008959A5FF4CF843FD1F3AF
:1016100080E00895883EB0F3813FD1F7F3CFFC011D
:1016200083819481892B29F08081918189238F3F47
:1016300011F480E00895808191810E944D0C0E94F8
:10164000F40A0895A5E0B0E0E8E2FBE00C940D2C6C
:101650002596E2E00C94292CA6E0B0E0E2E3FBE062
:101660000C940D2C2696E2E00C94292C08950E94EF
:10167000360B08950E94370B8093E1020E94D90A2D
:10168000089508950E943A0B08959091E102892BE4
:101690000E943A0B08959091E10289230E943A0B2F
:1016A00008959091E10289270E943A0B08950E94C3
:1016B000360B08950E94570B08950E945A0B809391
:1016C000E0020E94D90A089580E00E945D0B08950F
:1016D00091E001C0990F8A95EAF7892F0E945D0B6E
:1016E000089521E030E001C0220F8A95EAF7809149
:1016F000E002822B0E945D0B089521E030E001C0E2
:10170000220F8A95EAF720958091E00282230E94B9
:101710005D0B089521E030E001C0220F8A95EAF7C1
:101720008091E00282270E945D0B08959091E00273
:10173000892B0E945D0B08959091E00289230E94FD
:101740005D0B08959091E00289270E945D0B08953A
:101750000895262F277091E001C0990F2A95EAF786
:1017600023E0769567952A95E1F7FB01EE0FFF1FC1
:10177000E60FF71FE40FF51F50E040E0682F70E020
:101780008191DF0111979B01042E02C036952795A8
:101790000A94E2F7217021952827292328272C93E2
:1017A0004F5F5F4F4330510559F70895A82FA77039
:1017B00023E0969587952A95E1F7FC01EE0FFF1F30
:1017C000E80FF91FE60FF71F50E040E080E021919D
:1017D00030E00A2E02C0369527950A94E2F7217070
:1017E0003327042E01C0220F0A94EAF7822B4F5FA1
:1017F0005F4F4330510559F70895262F963068F40E
:10180000803158F430E1939FB0011124680F711DAD
:101810004CEB52E0822F0E94A90B0895963070F491
:10182000803160F440E1949F900111246CEB72E0F0
:10183000820F932F911D0E94D60B089580E008958A
:10184000CF92DF92FF920F931F93CF93DF936C01A0
:101850000091E0028091E102082BC7E0D0E010E0A7
:10186000FC2EC8010C2E02C0959587950A94E2F7CC
:1018700080FD0CC02197A0F7F12C8F2DDF91CF9127
:101880001F910F91FF90DF90CF900895B6018C2F9C
:101890000E94B312019771F3F0CFCF93DF93EC0165
:1018A0000E94200CBE010E94B312DF91CF910895D7
:1018B0001F93CF93DF93EB019091BB02992339F0F3
:1018C000CB010E944D0CDF91CF911F910895882389
:1018D00069F0CB010E94200C182F682FCE010E94C6
:1018E000FD0BBE01812F0E94B312EDCFCB010E94F0
:1018F0000E0C182FF6CF1F93CF93DF93C091E20207
:1019000016E08091E3028C1304C0DF91CF911F9108
:101910000895D0E01C9FF0011D9FF00D1124EC51A3
:10192000FD4F4081518162817381848195810E9444
:101930002C0B2196C770E5CF4091140350911503ED
:101940006091160370911703809118039091190309
:101950000E942C0B08951F93CF93DF93809119035E
:10196000807F09F049C080911603882309F444C0A0
:101970008091E202C091E30260911403709115031B
:10198000A0911703B0911803D62FD72316E0C817DC
:1019900099F190E0109711F0DF3F19F401968770EC
:1019A000F6CF189F9001199F300D1124F901EC51C9
:1019B000FD4F41814713F2CF40814613EFCF428163
:1019C0004111ECCF438154814A1B5B0B483C5105CC
:1019D00028F7809119038F70806180931903F901B2
:1019E000E751FD4F80818F708061808384E193E0B7
:1019F0000E94AF0A0E947B0CDF91CF911F91089546
:101A0000A1E1B0E0E6E0FDE00C94052C8C0185E05E
:101A1000F801DE011D9601900D928A95E1F7F8011B
:101A2000E28084E1C82E83E0D82E60911703709184
:101A300018036115710509F44EC1909114032091AA
:101A40001503892F82238F3F09F445C140815181BD
:101A5000A380B480F0901603F501E61BF70BFF207E
:101A600009F4EAC080911903382F307FE83CF10572
:101A700008F0A3C031116DC0FE2C251316C09413BD
:101A800014C0E11012C08F708061809319030E940E
:101A90009C0CC6010E94AF0A80911903F80185834E
:101AA0008F2D6196EAE00C94212CA114B10429F049
:101AB000842F85238F3F09F027C180E0F82FF17034
:101AC000DF2E80FF3CC08091E2022091E30236E0ED
:101AD000821315C04D875E878D859E850E944D0CB3
:101AE000292F22952F702230F0F0243018F59F70A6
:101AF000F1F0F8019581907FD1F4D12C1EC090E0D7
:101B0000389FF001399FF00D1124EC51FD4F618198
:101B1000651306C06081641303C06281E6120FC0C2
:101B200001968770D5CF9F7011F0882331F3805EC6
:101B3000883018F3C8010E94AF0AFD2CB1CFEE2007
:101B400009F4AECF80911903816080931903F12CC1
:101B5000A7CF251306C0941304C0F801EE2009F4A2
:101B600087C0C8010E940F0B882319F1EE2009F1EC
:101B700080911903803270F0209114033091150385
:101B800038872F831986BB86AA868C87CE01079655
:101B90000E94AF0A86E0F801A4E1B3E001900D9243
:101BA0008A95E1F70E94AB0C0E949C0CFF24F394F1
:101BB00077CFC8010E94AF0AF9CF311113C07A2D37
:101BC000B98AA88A6E2D89890E94220B84E193E04C
:101BD0000E94AF0A86E0F60111928A95E9F70E9409
:101BE0009C0CB5CF25130FC094130DC0E1100BC092
:101BF000F8018583C8010E94AF0A86E0F6011192C0
:101C00008A95E9F74DCFC8010E940F0B882389F20E
:101C1000EE2079F280911903803208F4BBCF209135
:101C20001403309115033A8329831B82BD82AC8251
:101C30008E83CE010196ACCFE83CF10508F03EC0A2
:101C4000FE2CEE2009F4B5CF25132AC0941328C02A
:101C50008091190380FD1BC0982F907FC1F0F8017F
:101C60008583903F31F0982F907F905F8F70892B04
:101C70008583C8010E94AF0A86E0F801A4E1B3E0C1
:101C800001900D928A95E1F70E949C0C09CF86E0A5
:101C9000F801A4E1B3E001900D928A95E1F700CF3D
:101CA000C8010E940F0B811175CF809119038160CB
:101CB00080931903C8010E94AF0AF2CE7A2DB98A27
:101CC000A88A6E2D89890E94220B86E0F601119266
:101CD0008A95E9F7D9CFEE2009F46BCFC8010E94AD
:101CE0000F0BF82E882309F464CF86E0F801A4E1F5
:101CF000B3E001900D928A95E1F784E193E00E94B0
:101D0000F1070E94AB0CC0CF81E08E25D7CEACE0AE
:101D1000B0E0EDE8FEE00C940C2C4F835887698707
:101D20007A878B879C87CE0107960E94000D8823B7
:101D300069F08A859B85892B39F04F815885842FDE
:101D400085238F3F09F06BC016E05FC086E0FE017F
:101D50003796DE01119601900D928A95E1F78A85FA
:101D60009B85892B89F38F81988589238F3F61F328
:101D70002091E30230E0C9010196877099274091D4
:101D8000E2024817190671F40E94EF0A1092E3026A
:101D90001092E20286E0E4E1F3E0DF011D928A9511
:101DA000E9F7D2CF96E0929FD001939FB00D112416
:101DB000AC51BD4FFE01319601900D929A95E1F71D
:101DC0008093E3020E947B0CBFCF819FC00111244E
:101DD0008C519D4F0E94000D8823E9F0E091E202B2
:101DE0001E9FF0011124EC51FD4F40815181628111
:101DF0007381848195810E942C0B8091E20290E096
:101E00000196877099278093E2028091E202909177
:101E1000E3028913DACF2C96E3E00C94282C698531
:101E20007A858B859C850E942C0B8ECF682F8091A4
:101E30000001909101010E946C220895682F809109
:101E40000001909101010E946F220895809100018C
:101E5000909101010E94722208958091220385953C
:101E600085958595089580912203877008959091B6
:101E70002203977081E009F480E0089580912D039A
:101E8000089590912D03892B80932D0308958095BB
:101E900090912D03982390932D03089510922D0374
:101EA000089590912C03892B80932C03089580959D
:101EB00090912C03982390932C03089510922C0357
:101EC000089580912303089508950E94640F089552
:101ED0009091780392FF08C090912303981721F006
:101EE000809323030E94650F089580912303882324
:101EF00029F01092230380E00E94650F0895CF938C
:101F0000DF93E0910001F091010180912D03808326
:101F1000E0910001F0910101808190912C03892BC7
:101F2000808390912303992381F0E0910001F09147
:101F300001018081892B80838091000190910101B2
:101F40000E94242281110E94750FC0910001D0913E
:101F5000010148E050E06AE173E0CE010E94482CA4
:101F6000892B59F088E0FE01AAE1B3E001900D92BF
:101F70008A95E1F7CE010E94A621DF91CF910895C5
:101F800008950E94C00F08959091780392FF11C0A8
:101F900098E0899F90011124622B609322030E9494
:101FA000710B809122038595859585950E94C10FBF
:101FB00008950E94710B08951092220380E00E9400
:101FC000C10F089590912203809589238093220365
:101FD000282F277091F4282F082E000C330B92170E
:101FE000130659F09091780392FF07C08595859567
:101FF00085950E947D0B0E94DC0F0895CF93C82F1A
:102000008091780382FB992790F99C17E9F0C0FB37
:1020100082F98093780380917703909178030E94EE
:10202000631082E00E94E20F8091440380FF0CC0A5
:102030001F92CF9381EA91E09F938F930E9427068E
:102040000F900F900F900F90CF910895809178038B
:1020500082FB882780F991E089270E94FE0F08956E
:1020600081E00E94FE0F089580E00E94FE0F089517
:102070006FEF7FEF90E080E00E948A2C089590E05F
:1020800080E00E94662C883E9E4F19F40E948418BE
:10209000089580E0089582E090E00E945E2C08950B
:1020A00083E090E00E945E2C0895CF9384E090E05E
:1020B0000E945E2CC82F82E290E00E945E2C982F36
:1020C0008C2FCF910895CF93C92F682F84E090E093
:1020D0000E946C2C6C2F82E290E00E946C2CCF91BD
:1020E0000895AB01BC018FE090E00E947E2C089522
:1020F000AB01BC0183E190E00E947E2C089560E07A
:1021000070E0CB010E947810089560E070E0CB0190
:102110000E9471100E947F10089568EE7EEF90E09B
:1021200080E00E948A2C60E082E090E00E946C2CAB
:1021300060E083E090E00E946C2C1092E10260E08D
:1021400084E090E00E946C2C64E082E290E00E94C7
:102150006C2C60E085E090E00E946C2C60E086E0F2
:1021600090E00E946C2C6FEF87E090E00E946C2C56
:1021700040E050E0BA0188E090E00E947E2C60E0F0
:102180008DE090E00E946C2C40E050E0BA0188E1C4
:1021900090E00E947E2C60E087E190E00E946C2C31
:1021A00040E050E0BA018CE190E00E947E2C70E0AB
:1021B00060E080E290E00E948A2C40E050E0BA01AA
:1021C00088E190E00E947E2C80E00E949D180E9491
:1021D000CC180E94851008950E948D100895682FD4
:1021E0008EE090E00E946C2C08950E94352360934D
:1021F00040037093410380934203909343036093A1
:102200003C0370933D0380933E0390933F030895F6
:10221000089508950E940911089508950E940D11CE
:10222000089580EB95E20E948F210E9408110E9480
:102230000A11089581E008950E941A1108950895E1
:1022400008950E941F110E94201108950E94BA1340
:102250000E946E0708950E9420230E94DC180E94AD
:10226000D2140E9426110E940E110895AAE0B0E037
:10227000ECE3F1E10C94022C0E94E81420E3822E9E
:1022800023E0922E640110E0F601E190F1906F01DD
:10229000812F0E94DD131F5F163009F449C0E81634
:1022A000F90691F38091440381FD0E94E6130E9498
:1022B0001C11782E10E0812F0E94DD137C01F401A7
:1022C000A190B1904F018A159B0561F1A826BF240A
:1022D00000E0CC24C394D12CC5018C219D21892BF5
:1022E000C1F07720B1F00E831F8321E0C7018C215C
:1022F0009D21892B09F420E028870E9429238160F1
:10230000782F9A8789874E815F8168858A850E94A8
:10231000BC070F5FCC0CDD1C0031F1F6F4013297E5
:10232000F182E0821F5F163031F60E94F51022C064
:10233000E816F90609F0B6CF0E9429238C01809196
:102340002E0390912F0308171907A1F08FEF8983AF
:102350008A831B820E9429238160782F9D838C832E
:1023600049815A816B818D810E94BC0710932F0394
:1023700000932E030E9488170E9481072A96EDE0A1
:102380000C941E2CCF93DF930E94B812EC018115A0
:1023900021E5920708F042C0811530E5930708F067
:1023A0009FC0883E910530F5803E910508F094C0AD
:1023B000883A910588F4853A910508F086C0813005
:1023C000910509F489C0009709F486C0049708F0C4
:1023D00083C0D0E0C0E080C08F3B9105D0F7C85AE1
:1023E000D0E0CC0FDD1FC85BDE4F0990D881C02D37
:1023F000D46472C0811540E2940750F4C11581E0A5
:10240000D80708F069C0C03FD10518F3D06564C093
:1024100081159044F0F2DF70D06A5EC0811535E519
:10242000930718F5811544E5940708F085C0C11598
:1024300083E5D80708F06CC0C11522E5D20708F47F
:1024400062C0CE018370992721E030E002C0220FE4
:10245000331F8A95E2F7C695C69580E2C89FE001D2
:102460001124C22BD32BDC6837C0811539E59307C3
:10247000A8F4811548E5940708F063C0C11586E506
:10248000D80708F0A6CF8C2F0E945A13C82FD0E08F
:10249000DC2FCC27CC27DF71D0621EC081152AE546
:1024A000920708F453C090568115904208F091CFDE
:1024B0008D2F8F710E945A1390E0982F88278827BC
:1024C0009F719C012C2BE901E7CFC55AD0E0CA5877
:1024D000DE4FC881D0E0D064CE01DF91CF91089566
:1024E0008370992721E030E002C0220F331F8A95C4
:1024F000E2F7C695C69540E2C49FE0011124C22BC5
:10250000D32BDD68E9CFDC2FCC27C16FD06AE4CFB5
:10251000CE018370992721E030E002C0220F331FE3
:102520008A95E2F7C695C69540E2C49FE001112462
:10253000C22BD32BDA68D0CFD82FCC27C46FD06A68
:10254000CBCFD82FCC27C06FD06AC6CF8F700E9458
:102550005A1334E0D695C7953A95E1F7CF709C2F82
:10256000EC01D069B9CF0E94F91F0E94C2110895F1
:1025700082389105B9F1B0F48133910509F47DC039
:1025800048F48932910509F46DC08A32910509F445
:102590007BC008958533910509F45FC089339105A7
:1025A00009F10895833E9105D9F138F4803E9105F3
:1025B00029F1823E910579F10895863E9105D9F180
:1025C000873E910509F43EC0843E910541F5209176
:1025D000780321FF24C08091770384FD19C087EE22
:1025E00090E0089520917703237009F05AC020915C
:1025F000780323FF14C089E290E0089520917703C7
:1026000020FD38C03091780330FF09C024FF43C05B
:1026100090E080E008952091770322FDF7CF0895A0
:102620002091770322FD3AC03091780330FD39C004
:1026300024FFF5CFEDCF2091770323FFF0CF24FDCA
:10264000E7CFCDCF2091770323FD2EC030917803C3
:1026500031FFEECF84EE90E008952091770325FFBF
:10266000DECFC9CF2091770325FD21C020917803CB
:1026700023FFD5CF89E390E0D2CF2091770326FFC7
:10268000CECF8AE290E008952091770326FFC7CF4E
:1026900081E390E0089583EE90E0089582EE90E06B
:1026A000089580EE90E0089586EE90E0089585E329
:1026B00090E008959091770392FF06C0282F28712B
:1026C0002830F9F4877F846093FF06C0282F287193
:1026D0002831F1F4877E84612091780320FF06C0C1
:1026E000382F38713830D9F4877F816021FF06C0D8
:1026F000282F28712831D1F4877E816194FD877E4F
:102700000895282F24712430F9F68B7F8860DCCF60
:10271000282F2471243101F78B7E8861DDCF382F7B
:102720003171313019F78E7F8860E0CF282F217109
:10273000213121F78E7E8861E1CF0E943810089503
:102740000E94E8142FEF86E791E0215080409040EE
:10275000E1F700C000000E94E81480E00E94DD1351
:1027600080FF04C00E949D130E94742308950E945C
:10277000A01308950E943F10811102C00E94EC1026
:102780000E944B10809344030E945510909378034D
:10279000809377030E94B7130E9450100E94420B4F
:1027A0008091E0020E945A0B089508950E94D5136B
:1027B000089508950E94D9130895E82FF0E0EE0FD0
:1027C000FF1FEB57FC4F808191810895B0E0A0E09E
:1027D000ECEEF3E10C94072C86EC91E00E948E0560
:1027E00085E8E82E83E0F82ED0E0C0E091ECC92E19
:1027F00091E0D92E08EB11E0DF93CF93DF92CF92D7
:102800000E9427068EEB91E00E948E05F7018191D0
:1028100091917F010E9458079F938F931F930F936D
:102820000E94270686EB91E00E948E0521968DB7C7
:102830009EB708960FB6F8949EBF0FBE8DBFC630E8
:10284000D105D1F6CDB7DEB7E8E00C94232C80EAB1
:102850008A95F1F7089500C008950E9427140895FD
:10286000F894E82FE295EF70F0E031A1282F2F7057
:1028700081E090E001C0880F2A95EAF7982F9095A3
:10288000932391A392A1892B82A378940895CF9347
:10289000DF93C9E8D1E089918F3F11F00E94301495
:1028A00081E0CF38D807B9F7C9E7D1E089918F3FE8
:1028B00011F00E94301481E0C938D807B9F7DF91D0
:1028C000CF910895AF92BF92DF92EF92FF920F9354
:1028D0001F93CF93DF938C01D62EC62FD0E0CE016D
:1028E00087579E4F7C01FC0120812F3F09F44DC08A
:1028F000F894E22FE295EF70F0E031A12F7081E0C3
:1029000090E001C0880F2A95EAF7932F982B91A3A6
:1029100092A18095892382A378940E942B14E9E7E1
:10292000F1E049E851E021E030E0B12CA12C6191C7
:102930006F3FA9F1A62FA295AF70B0E090968C9151
:1029400090E06F7002C0959587956A95E2F780FDDB
:1029500026C0C901A82AB92A220F331F4E175F07C4
:1029600031F7F70180818F3F11F00E94301461E050
:10297000A114B10409F460E08D2D0E942D14CC0F38
:10298000DD1FC00FD11FB982A882DF91CF911F91A7
:102990000F91FF90EF90DF90BF90AF90089590E07F
:1029A00080E0D8CF0E9447148CE0E5E8F3E0DF0137
:1029B000982F1D929A95E9F7E9E7F3E0DF011D9260
:1029C0008A95E9F786E00E9423150E94A8060895DB
:1029D000ACE0B0E0EEEEF4E10C940A2C8E010F5F57
:1029E0001F4F8CE0F80111928A95E9F7F12C6F2DB9
:1029F000C8010E946214F394F6E0FF12F8CF4CE095
:102A000050E0B80189E793E00E94482C21E000974C
:102A100009F420E0892B41F08CE0F801A9E7B3E04C
:102A200001900D928A95E1F746E065E873E089E749
:102A300093E00E942415182F0E94AB06812F2C963C
:102A4000E5E00C94262C0895CF92DF92EF92FF924E
:102A50001F93CF93DF936C017B01C42F222349F096
:102A600081E0809347030E9429239093460380933B
:102A700045031091470311110AC010E0812FDF9127
:102A8000CF911F91FF90EF90DF90CF9008958091AC
:102A90004503909146030E944123059770F3D0E0CF
:102AA000CC0FDD1FAE01B601C7010E94482C892B57
:102AB00041F0AE01B601C7010E94552C10924703A8
:102AC000DDCF10E0FBCF0E942C260E942B110E942C
:102AD000392608950E943E260E9436110E945C26E7
:102AE00008950E94C2220E9412260E9411110E9483
:102AF00063150E946A150E942111FBCF80914E033D
:102B000080FF0DC06091070170E0660F771F60388D
:102B1000710570F56115710569F1862F089581FFC2
:102B200007C06091070184E0689FB0011124EFCFD6
:102B30006091070182FD0AC080914D038823A9F0AE
:102B40002091060160910701821710F088E0ECCF18
:102B5000869FC001112433E0880F991F3A95E1F751
:102B6000622F70E00E94DC2BD2CF68E070E0D5CFFE
:102B70008FE7089581E0089580914E0380FF0CC097
:102B80006091030170E0759567957595679561157E
:102B9000710549F1862F089581FF06C060910301F8
:102BA00070E075956795F3CF6091030182FD0BC0CE
:102BB00090914C039923A1F060910201809103014F
:102BC000961738F0682F70E06038710500F38FE7D2
:102BD0000895899FC001112470E00E94DC2BF4CF7E
:102BE00061E070E0D7CF81E00895803F31F40E942A
:102BF0007E158195809352030895813F19F40E94B8
:102C00007E15F8CF823F31F40E947E158195809326
:102C100051030895833F19F40E947E15F8CF893F30
:102C200029F40E94BC158093530308958A3F21F430
:102C30000E94BC158195F7CF8B3F31F40E94BC15E3
:102C400081958093540308958C3F19F40E94BC151C
:102C5000F8CF9CE0980F953070F4845F990B21E0D9
:102C600030E001C0220F8A95EAF780915003822B51
:102C70008093500308958D3F31F480914E0381601D
:102C800080934E0308958E3F21F480914E0382601D
:102C9000F7CF8F3FB9F780914E038460F1CF409119
:102CA0005103803F59F48091520387FF0DC0109269
:102CB000520341110BC010924D0308C0813F81F4B3
:102CC0008091520318169CF3442381F080915303A2
:102CD00090915403892B09F05AC010924C03089527
:102CE000823F49F447FFF0CF109251038091520385
:102CF0008111ECCFE0CF833F19F41416ACF3E4CF8D
:102D000090915303893F29F41916F4F61092530356
:102D1000DBCF8A3F19F497FFD7CFF8CF90915403B8
:102D20008B3F29F497FFD0CF10925403CDCF8C3F27
:102D300019F41916CCF3C8CF9CE0980F953090F495
:102D4000845F990B21E030E0B90102C0660F771F64
:102D50008A95E2F7CB018095909150038923809367
:102D60005003B2CF8D3F31F480914E038E7F80931C
:102D70004E03AACF8E3F21F480914E038D7FF7CF73
:102D80008F3F09F0A1CF80914E038B7FF0CF089544
:102D90008091440383FF7EC084E092E00E948E0510
:102DA000809150031F928F938FEF91E09F938F93A9
:102DB0000E9427068DEF91E00E948E0580915103BD
:102DC000282F082E000C330B3F938F938AEF91E04E
:102DD0009F938F930E94270688EF91E00E948E05B3
:102DE00080915203282F082E000C330B3F938F93B2
:102DF00085EF91E09F938F930E94270683EF91E0E8
:102E00000E948E0580915303282F082E000C330B4F
:102E10003F938F9380EF91E09F938F930E942706BB
:102E20008EEE91E00E948E0580915403282F082E8B
:102E3000000C330B3F938F938BEE91E09F938F9316
:102E40000E94270688EE91E00E948E0580914D0336
:102E50001F928F9385EE91E09F938F930E94270698
:102E600083EE91E00E948E0580914E031F928F9316
:102E700080EE91E09F938F930E9427068DED91E065
:102E80000E948E058DB79EB74C960FB6F8949EBFE4
:102E90000FBE8DBF0E9429239C0190915103809108
:102EA0005203982B21F030934B0320934A039091C7
:102EB000530380915403982B21F0309349032093BE
:102EC00048038FE493E00E94EA21089586E0EFE44E
:102ED000F3E0DF011D928A95E9F710924D031092FD
:102EE0004C0310924E030895FC01828181110EC0A3
:102EF000838181110BC08481811108C091E085819B
:102F0000811101C090E0892F8170089581E0FCCF8C
:102F1000A6E0B0E0EEE8F7E10C940C2C86E0EFE4DC
:102F2000F3E0DE01119601900D928A95E1F710927F
:102F300051031092520310925303109254038B8149
:102F40009C81892B89F080914A0390914B030E94C8
:102F50004123AC0190914D039923C9F1809108015F
:102F60008417150608F440C08D819E81892B91F04D
:102F700080914803909149030E944123AC019091B4
:102F80004C03992309F471C080910401841715063C
:102F900008F479C0BE016F5F7F4F8FE493E00E9419
:102FA0007922811105C08FE493E00E94741781118A
:102FB0000E94C81686E0FE013196AFE4B3E00190AE
:102FC0000D928A95E1F72696E3E00C94282C209147
:102FD00009018AE0289F900111242417350720F663
:102FE0009F5F90934D0302C09F3FD1F71B81112338
:102FF00059F00E947E159FEF11160CF491E0899F05
:10300000802D1124809351031C81112359F00E94BB
:103010007E159FEF11160CF491E0899F802D1124ED
:103020008093520330915103332309F49DCF2091B3
:103030005203222309F498CF45EB3403C001112435
:10304000992359F09093510345EB240390011124E7
:10305000332339F03093520387CF81E080935103BB
:10306000F3CF81E0809352037FCF209105018AE066
:10307000289F900111242417350708F08BCF9F5FFC
:1030800090934C0302C09F3FD1F71D81112359F04B
:103090000E94BC159FEF11160CF491E0899F802DC2
:1030A0001124809353031E81112359F00E94BC15F3
:1030B0009FEF11160CF491E0899F802D11248093CD
:1030C000540330915303332309F464CF2091540304
:1030D000222309F45FCF45EB3403C0011124992367
:1030E00059F09093530345EB2403900111243323AB
:1030F00039F0309354034ECF81E080935303F3CFE4
:1031000081E08093540346CF83E290E00E945E2CDE
:10311000833289F484E290E00E945E2C833059F47B
:1031200085E290E00E945E2C91E0853009F090E00D
:10313000892F8170089580E0FCCFCF93C82F6FEF67
:10314000811163E283E290E00E946C2C6FEFC11169
:1031500063E084E290E00E946C2C6FEFC11165E0A7
:1031600085E290E00E946C2CCF910895089586E24C
:1031700090E00E945E2C682F70E090E080E008955F
:103180000895CF93C62F0E94C0186C2F86E290E05E
:103190000E946C2CCF91089580E00E949D1860E001
:1031A00070E0CB010E94C1180E94771F0E9454203A
:1031B00081E00E949D1808950E94B6180E94B718D9
:1031C0000E94C0180E948418811102C00E94CC186D
:1031D0000895CF93FB01C281CC2309F19C012251B8
:1031E0003F452031310520F582510E946420C0E026
:1031F0008C2FCF91089581E00E94710B43E062E033
:1032000081E00E949E06F3CF81E00E947D0B43E0A7
:1032100062E081E00E949E06EBCF82E0F6CF803133
:10322000FFE59F0789F381319F45B9F3C1E0E0CF06
:103230008031EFE59E07F9F281319F45C9F682E0C2
:10324000DBCF2FEFFC0120830895EF92FF920F93C5
:103250001F93CF93DF93EC01062FE881E150E33118
:1032600008F05DC0F0E0E255F34D0C94F02B1982AC
:103270008AE08A83602FCE010E942924CDB7DEB771
:10328000E6E00C94252C8981823069F0833071F05E
:103290008130D9F40E9435230E94F62B6A837B8308
:1032A0008C839D83E7CF0E94B718F6CF7E0110E094
:1032B000812F0E94DD13F701928383831F5FF2E069
:1032C000EF0EF11C1630A1F7D5CF602FCE010E9472
:1032D0002119D0CF89818230C1F76A817B818C81AD
:1032E0009D810E94F62B0E94C118C4CF4B816A8138
:1032F00089810E94391F9827892798279D838C836D
:10330000B9CF2C813D813227232732274B816A8117
:1033100089810E945B1FAECF0E94771FABCF8FEFDA
:103320008883A8CF0E9407208983A4CF0E94092008
:103330009827892798279A8389839CCF6B8170E08F
:1033400089819A81AE014C5F5F4F98278927982722
:103350000E940C208FCF6B8170E089819A81AE0131
:103360004C5F5F4F9827892798270E94302082CF93
:103370000E9454207FCF0E94261FD6CF6B8170E021
:1033800089819A81AE014C5F5F4F982789279827E2
:103390000E94B11F6FCF6B8170E089819A81AE016D
:1033A0004C5F5F4F9827892798270E94D51F62CFCF
:1033B000CF93DF93EC01FB018281882309F464C180
:1033C000C330FDE5DF07E0F5CA3F9CE5D90730F4DF
:1033D0009E0122503C4524313105D8F50E945510FC
:1033E0009093780380937703C231ECE5DE0709F40C
:1033F0001FC108F06EC0C9308CE5D80709F4F2C0CF
:1034000008F03FC0C530ECE5DE0709F4DBC058F535
:10341000C3308CE5D80709F4CDC008F0CFC0809147
:1034200077038160C230DC4509F4AEC08091770338
:10343000909178030E9463100E94EF0A80E009C017
:10344000C53AEDE5DE0751F238F4C1369DE5D907FE
:1034500029F2DF91CF9108959E012D5A3D452330E9
:103460003105B8F7BBCF809177038062C730FCE5A8
:10347000DF0709F489C008F4B1C080917703806444
:1034800083C0CD309CE5D90709F4BAC070F48091AF
:1034900077038E7FCB30FCE5DF0709F475C008F4B5
:1034A000A7C0809177038D7F6FC0CF309CE5D9078F
:1034B00009F4B6C008F4A8C0C031FCE5DF0709F480
:1034C000B3C0C131DC4509F0B1CF809177038F7B68
:1034D0005BC0CF3F9CE5D90709F4B4C098F5CA3F5B
:1034E000FCE5DF0709F472C0B8F4C4319CE5D907E4
:1034F00009F4B6C008F4A2C0C531DC4509F096CF86
:103500008091770382FB992790F921E0922790FB25
:1035100082F990FB83F938C0CC3F8CE5D80709F4D9
:1035200077C008F457C0CD3FECE5DE0709F474C05E
:10353000809178038360CE3FDC4509F077CF80939C
:10354000780374CFC1368DE5D80709F496C068F4C6
:10355000C130EDE5DE0709F48CC008F477C0C23055
:10356000DD4509F063CF80E085C0CD3A9DE5D90700
:10357000E9F068F490917703892F8E7F90FF816046
:10358000C53ADD4509F052CF809377034FCFCE3A4D
:103590008DE5D80789F1CF3ADD4509F047CF909105
:1035A0007803892F877F93FF8860C9CF8091780344
:1035B0008860C5CF809177038260E6CF80917703E2
:1035C0008460E2CF809177038860DECF80917803BA
:1035D0008160B5CF809178038260B1CF809177030D
:1035E0008061D2CF0E94EF0A809177038068CCCFB0
:1035F000809177038C60C8CF80917803877F9FCFBD
:10360000809177038B7FC0CF80917703877FBCCF7A
:10361000809178038E7F93CF809178038D7F8FCFB9
:10362000809177038F7EB0CF809177038F7DACCF71
:103630000E94EF0A809177038F77A6CF809177035E
:10364000837FA2CF809178038C7F79CF809178039C
:10365000982F909591708E7F892B90FB81F96FCF79
:103660000E94EF0A90917703892F97FB87F9805882
:103670008BCF81E00E94EF10D9CE90917703892FF4
:103680008F7E94FF806180CF81E0E3CEB0E0A0E048
:10369000ECE4FBE10C94082CE82FF0E0E95DFD4F31
:1036A000D490282F26952695269530E0F901E953E8
:1036B000FD4F0491877010E0082E02C01595079504
:1036C0000A94E2F701701127F901E954FD4FE490E3
:1036D000F12C082E02C0F594E7940A94E2F791E0E9
:1036E000E922FF24F901E955FD4FC491D0E002C061
:1036F000D595C7958A95E2F7C170DD2701151105AB
:1037000019F081EE0E94F707E114F10419F086EE3A
:103710000E94F7078D2D0E949208E114F10419F020
:1037200086EE0E9448080115110519F081EE0E94ED
:103730004808CD2B19F08CE20E949208CDB7DEB775
:10374000E7E00C94242CEF92FF920F931F93CF93FA
:10375000DF93EC01162F0AE08881882309F454C016
:10376000813009F04EC08981813099F47E0122E0D8
:10377000E20EF11C8A810E949208E7012196812FB6
:10378000815050F3EFE9FFE03197F1F700C00000FE
:10379000F7CF823041F47E0182E0E80EF11C8A818D
:1037A0000E94F707EACF833041F47E01E2E0EE0E9B
:1037B000F11C8A810E944808E0CF843011F02196E4
:1037C000DDCF2A81229690E080E0AE014F5F5F4F0F
:1037D0002053330B2A30310548F0019778F2EFE996
:1037E000FFE03197F1F700C00000F7CF089FB0016C
:1037F000099F700D1124C901860F971F2981EA01C5
:10380000E4CF0E94461BBACFCDB7DEB7E6E00C94FA
:10381000252C809102011F928F93809103011F92AA
:103820008F93809106011F928F93809107011F92C1
:103830008F93809108011F928F93809109011F92AD
:103840008F9387ED92E09F938F930E9427068DB709
:103850009EB70E960FB6F8949EBF0FBE8DBF08950B
:10386000883228F58E3108F072C08B3041F130F487
:10387000873009F4CFC086E394E0E0C0833109F4D7
:103880005FC08431C1F788E594E00E948E05809185
:103890005903882309F4FEC010925903109258036B
:1038A00010925703109256031092550320C08F3484
:1038B00009F4C7C0D8F5893231F38833E1F68BE5D6
:1038C00094E00E948E050E94091C1F9281E08F9354
:1038D0001F9288E08F9384E593E09F938F930E94DB
:1038E00027060F900F900F900F900F900F90209140
:1038F0005903222309F4C9C08091550390915603BE
:10390000009711F48FE891E09F938F931F922F936C
:1039100084E294E09F938F930E9427060F900F906C
:103920000F900F900F900F9081E00895813509F46A
:103930009CC008F49CC0823509F09DCF81E082C014
:103940008AE494E00E948E050E94091CD0CF8D511C
:1039500080935903833009F442C058F48130C1F098
:103960008230A1F11092590387E494E00E948E0501
:103970001BC0853009F445C0D8F1863099F782E044
:1039800091E0909358038093570387ED91E008C02E
:1039900089E091E0909358038093570383E991E085
:1039A000909356038093550380915903882309F41B
:1039B0009ECF1F928F9383E494E09F938F930E94F6
:1039C00027060F900F900F900F9091CF88E091E015
:1039D00090935803809357038CE991E0E1CF87E0FF
:1039E00091E0909358038093570388EA91E0D8CFF1
:1039F00086E091E0909358038093570385EB91E024
:103A0000CFCF83E091E0909358038093570384ECE9
:103A100091E0C6CF81E08093090184E180930801A1
:103A20008AE0809307018EE18093060188E080930D
:103A3000030188E28093020189E394E00E948E05ED
:103A400056CF8AE0E0915703F09158033097D1F0B8
:103A50002081082E000C990B820F911D8F3F91053C
:103A600041F03CF08FEF808307C08FEFEBCF86EF04
:103A7000E9CF97FFF8CF108280811F928F9380E368
:103A800094E09BCF8DE294E0D9CF80E294E00E9455
:103A90008E054ACF80E00895CF93C82F1F928F9351
:103AA00081E794E09F938F930E94270681E001C0F5
:103AB000880FCA95EAF70E94420B0E94EF0A0F9006
:103AC0000F900F900F90CF910895EF92FF920F9368
:103AD0001F93CF93DF938B3109F410C108F0B0C06E
:103AE0008B3009F4CCC008F082C0863009F4DAC00B
:103AF00048F4853009F4B2C086E198E00E948E0552
:103B000080E0E0C0873009F4E2C08830A9F70E9465
:103B100050101F928F9389EF97E09F938F930E948D
:103B200027060E944B1083FB992790F91F929F93C1
:103B300082FB992790F91F929F9381FB992790F917
:103B40001F929F93982F91701F929F931F928F9314
:103B500080EB97E09F938F930E9427060E94551059
:103B600093FB222720F91F922F9387FB222720F90E
:103B70001F922F9386FB222720F91F922F9385FBFC
:103B8000222720F91F922F9384FB222720F91F92CE
:103B90002F9383FB222720F91F922F9382FB22274A
:103BA00020F91F922F9391FB222720F91F922F9328
:103BB000292F21701F922F9381FB222720F91F921A
:103BC0002F93282F21701F922F939F938F9381EB18
:103BD00096E09F938F930E9427068DB79EB78A9693
:103BE0000FB6F8949EBF0FBE8DBF81E06BC08031D1
:103BF00009F49CC080F48E3009F07ECF909144038C
:103C0000892F8B7F92FF84608093440382FF8BC057
:103C100081E498E07FC0863109F498C0893109F0C9
:103C20006BCF8CEE91E09F938F9381EE94E09F9306
:103C30008F930E9427060F900F900F900F90D5CF73
:103C40008A3249F190F4873211F128F48E3108F468
:103C500053CF8D511DC0893209F04ECF84E898E0D2
:103C60000E948E050E94BD06C0CF833468F48A335B
:103C700008F091C0853359F0883309F03DCF8BE0CF
:103C800095E00E948E05B1CF833409F035CF80E0F6
:103C90000E944C1DAACF84EA98E00E948E050E94E3
:103CA000EC10A3CF80914403807F8093440384EE83
:103CB00094E00E948E0580EA98E00E948E0581E0E3
:103CC00080935A03CDB7DEB7E6E00C94252C909193
:103CD0004403892F8E7F90FF81608093440380FF8F
:103CE00003C088E798E0CDCF8BE698E00E948E0570
:103CF00080914403817F8093440377CF9091440364
:103D0000892F8D7F91FF82608093440381FF08C0DB
:103D10008EE598E00E948E05809144038160EBCF90
:103D200080E598E0AECF81E398E0ABCF909144037B
:103D3000892F877F93FF88608093440383FF03C0AC
:103D400085E298E0E7CF88E198E09BCF0E94352399
:103D5000162F072FF82EE92ED0917603C091160169
:103D60000E949921EF92FF920F931F931F92DF936E
:103D70001F92CF931F928F9386E794E09F938F9328
:103D80000E9427068DB79EB70C960FB6F8949EBF7B
:103D90000FBE8DBF2ACF89537BCF80E008950E944C
:103DA000CD1E0895CF93C82F80915A038130C1F062
:103DB000882339F0823009F444C010925A0380E01D
:103DC0000DC00E943E0F8232D1F78C2F0E94CD1E73
:103DD00081111BC08C2F0E94651D8170CF910895A9
:103DE0000E943E0F823289F38C2F0E94CF1E8111D8
:103DF0001BC0C431D9F060F4CB3071F0C031D1F0C8
:103E00008BE694E00E948E0513C081E090E0E5CF40
:103E1000C93261F0C833A1F784EE94E00E948E05A8
:103E20008DE694E00E948E0581E0D7CF10925A0370
:103E300080E0D3CF82E080935A0388E30E94301C55
:103E4000F3CF8C2F0E94301C81E0C8CF84E008950E
:103E500090E2699FB001112450E0440F551F640F98
:103E6000751F90EC899F600D711D1124CB01879601
:103E700008950F931F93CF93DF938430C8F4663077
:103E8000B8F44031A8F40E94281F8C010E945E2CD7
:103E9000C82FD0E0DC2FCC27C80101960E945E2CF1
:103EA0009E01282BC901DF91CF911F910F91089599
:103EB00090E080E0F8CF0F931F93CF93DF93122F02
:103EC000032F843078F4663068F4403158F40E944F
:103ED000281FEC01602F0E946C2C612FCE010196EF
:103EE0000E946C2CDF91CF911F910F910895B0E04B
:103EF000A0E0EDE7FFE10C94052C8CEAC82E80E0F1
:103F0000D82ED0E0C0E0760110E01CC00E94300640
:103F100021E030E08C171D0621F01CF0F501259101
:103F20003491402F612F8C2F0E945B1F82E0A80EDE
:103F3000B11C0F5F003151F71F5F80E2E80EF11CEA
:103F4000163019F0570100E0E1CF219680ECC80E41
:103F5000D11CC430D105B9F6CDB7DEB7EAE00C9478
:103F6000212CEF92FF920F931F93CF93DF93EC01DD
:103F70008A017C01E60EF71ECE018796CE15DF057D
:103F800029F4CDB7DEB7E6E00C94252CC11523E06B
:103F9000D20740F40E945E2CF80180830F5F1F4F10
:103FA0002196EACFF8011082F9CFB0E0A0E0EBED66
:103FB000FFE10C94072C7C016A018C01060F171F8E
:103FC000EC01CE018796C017D10729F4CDB7DEB733
:103FD000E8E00C94232CC11523E0D20740F4FE0145
:103FE000EE19FF09EC0DFD1D60810E946C2C2196DD
:103FF000E8CF462F843040F4763030F4603120F43E
:10400000672F0E94391F089590E080E0089580E1B5
:10401000089589ED90E00895EF92FF920F931F931A
:10402000CF93DF93EC018A017C01E60EF71ECE01EF
:10403000895D9C4FCE15DF0529F4CDB7DEB7E6E0EC
:104040000C94252CC93DD10540F40E945E2CF8014A
:1040500080830F5F1F4F2196EACFF8011082F9CFBE
:10406000B0E0A0E0E6E3F0E20C94072C7C016A01EA
:104070008C01060F171FEC01CE01895D9C4FC01704
:10408000D10729F4CDB7DEB7E8E00C94232CC93D65
:10409000D10540F4FE01EE19FF09EC0DFD1D608114
:1040A0000E946C2C2196E8CFCF93DF93C7E2D3E038
:1040B00060E0CE010E946C2C2196C11584E0D807E7
:1040C000B9F7DF91CF910895A4E0B0E0EAE6F0E21D
:1040D0000C94082CF82E8FE08F1548F18FEF93E0A9
:1040E0000E945E2C811123C007E213E0F11023C06F
:1040F00019821A821B821C82DD24D39478018FEFEF
:10410000E81AF80AC8010E945E2C89831A82882363
:1041100071F09FEF980F9330D8F48A83D9820E5FA5
:104120001F4FC7010E945E2C8B83811112C0249601
:10413000E7E00C94242C011584E01807C1F3C801B2
:104140000E945E2C811101C0FA940F5F1F4FCECFE9
:10415000870160E0CE0101960E94A31BCFCFCF93D1
:10416000DF93EB0186319C4511F50E943E0F9A8149
:10417000992399F08A7A91E009F490E090935B0397
:10418000811109C089E20E94160F0E947F0F80E012
:10419000DF91CF91089585E3F6CF80915B03811184
:1041A00004C089E20E941E0FF0CF85E3FBCF81E0BF
:1041B000EFCF0F931F93CF93DF93C42FD22FFC0128
:1041C00082818823C9F040935E030E942923909343
:1041D0005D0380935C0380E28C0F883040F4C770ED
:1041E00081E001C0880FCA95EAF70E949B08DF9121
:1041F000CF911F910F91089510915E03141332C057
:1042000080915C0390915D030E944123883C91055D
:1042100048F5C0E2CD0F1D17B9F080E2810F88305C
:1042200040F4177081E001C0880F1A95EAF70E94E8
:10423000A208C83048F481E09D2F977001C0880F14
:104240009A95EAF70E949B08802F0E949208C83036
:1042500070F6D77081E001C0880FDA95EAF70E9406
:10426000A208C5CF80E28C0F883008F6C77081E0C5
:1042700001C0880FCA95EAF7F2CF0F939C01CB01DA
:10428000233F4CE5340759F1A8F4283DFCE53F07EE
:1042900001F1293D4CE53407D1F1273D3C4591F42E
:1042A00006E221EE41EE67ED7CE50E94D92080E038
:1042B0000F910895253FFCE53F07E9F0B0F0263F58
:1042C0003C45F9F0FC018281882339F110925E03AC
:1042D000EFCF07E225EE45EE68ED7CE5E6CF06E29E
:1042E00021EE40EE63EF7CE5E0CF07E225EE44EE01
:1042F00064EF7CE5DACF06E221EE42EE65EF7CE585
:10430000D4CF07E225EE46EE66EF7CE5CECF08E29D
:1043100021E045EE69ED7CE5C8CF81E0C9CF9093FF
:10432000B5028093B402089590936403809363036D
:104330000895E0916303F0916403309729F00190B0
:10434000F081E02D0995089580E00895EF92FF92A5
:104350000F931F93CF93DF938C01E0916303F09150
:104360006403309791F10280F381E02D09958091EB
:10437000440382FF2AC080FF04C08DEB98E00E94B6
:104380008E05D0E0C0E087EBE82E88E0F82E809123
:10439000440380FF0EC0F801EC0FFD1F80811F92C7
:1043A0008F93FF92EF920E9427060F900F900F902D
:1043B0000F902196C830D10551F78091440380FFBA
:1043C00004C085EB98E00E948E05CDB7DEB7E6E02D
:1043D0000C94252CE0916303F0916403309739F03D
:1043E00022E0DC012C930480F581E02D09950895ED
:1043F00020916103309162032817390771F090937F
:10440000620380936103E0916303F091640330974A
:1044100021F00680F781E02D0995089520915F0332
:10442000309160032817390771F0909360038093EF
:104430005F03E0916303F0916403309721F00084FF
:10444000F185E02D099508959C012E5F3F4FAC0149
:10445000485F5F4F80E02417350709F40895F9019C
:1044600091919F019923B9F38F5FF5CF662349F0AE
:10447000FC01329608962191261729F0E817F907D2
:10448000D1F780E0089581E008959C01FC01329607
:104490009FEF80E04191461751F09F3F19F4411181
:1044A00001C0982F8F5F8630A9F79F3F09F40895C8
:1044B000290F311D97FD3A95F90162830895FC019A
:1044C000329608962191261303C0DF0111971C92A2
:1044D000E817F907B9F708950E94452208950E9448
:1044E0005F220895029626E0FC0111922A95E9F7D1
:1044F000089546E050E00E94482C21E0892B09F401
:1045000020E0822F089508950E948322089581114A
:1045100006C081E0809365030E948422089582E0B2
:10452000F9CF83E0809365030E94842208950E945E
:104530008722089581E0809365030E948422089574
:104540000E949A220895089508950E94A422089531
:10455000089508950E94A3220895CF930E94A8224F
:104560000E94E8140E94A922C0E08C2F0E94DD1353
:10457000892B31F4CF5FC630C1F780E0CF91089529
:1045800081E0FCCF85B7806885BF85B7806885BF2F
:1045900008951F921FB61F9211248F939F93AF937C
:1045A000BF9380916603811113C080919103909114
:1045B0009203A0919303B09194034196A11DB11D64
:1045C0008093910390939203A0939303B0939403E9
:1045D000BF91AF919F918F911F901FBE1F90189513
:1045E00080919903843031F10E943607109266035E
:1045F00088E190E020E40FB6F894A89580936000DD
:104600000FBE2093600083B7817F846083BF83B730
:10461000816083BF7894889583B78E7F83BF0FB600
:10462000F894A89580916000886180936000109252
:1046300060000FBE08950E94EF0A0E943B07089594
:1046400082E084BD93E095BD9AEF97BD80936E00A4
:1046500008952FB7F8948091910390919203A091BF
:104660009303B09194032FBF08952FB7F8946091EE
:1046700091037091920380919303909194032FBFC3
:1046800008959C014FB7F894809191039091920303
:10469000A0919303B09194034FBF821B930B089595
:1046A00078941F921FB61F9211248F939F93AF93FC
:1046B000BF938091910390919203A0919303B09145
:1046C00094030196A11DB11D8093910390939203D1
:1046D000A0939303B0939403BF91AF919F918F9157
:1046E0001F901FBE1F90189581E08093E00080E22C
:1046F0008093D8001092C9008FE19EE40197F1F7F2
:1047000000C0000087E090EBDC018093A20390934F
:10471000A303A093A403B093A50388E19CE00FB684
:10472000F894A895809360000FBE90936000FFCF2F
:1047300088E19CE00FB6F894A895809360000FBEC6
:1047400090936000FFCF80917503089508959C01B8
:1047500084E08093E9009FEF8091E800915085FD0F
:1047600006C085ED8A95F1F700009111F5CF809193
:10477000E80085FF0CC050E040E066E070E0C90151
:104780000E94FB268091E8008E778093E8000895D0
:10479000CF93DF93EC0181E08093E9008FEF90915C
:1047A000E800815095FD06C095ED9A95F1F700005F
:1047B0008111F5CF8091E80085FF14C050E040E002
:1047C00068E070E0CE010E94FB268091E8008E77C1
:1047D0008093E80088E0FE01ADE6B3E001900D9221
:1047E0008A95E1F7DF91CF910895809369037093E3
:1047F0006B0360936A03809199038430F9F480938A
:10480000E9008FEF9091E800815095FD06C095ED8D
:104810009A95F1F700008111F5CF8091E80085FFAE
:104820000DC050E040E063E070E089E693E00E9454
:10483000FB268091E8008E778093E8000895BC0104
:1048400084E00E94F5230895BC0183E00E94F523D3
:104850000895CF93FC01603221F580919903843053
:1048600001F5C091E900CF702091EC00922F91707A
:1048700020FD90E8C92B82E08093E9008091E80058
:1048800080FF0CC050E040E060E270E0CF010E9489
:10489000FB268091E8008E778093E800CF70C0936C
:1048A000E900CF91089583EE98E00E948E058091F3
:1048B0009803811109C00E94DA280E94372980914B
:1048C000E20084608093E20008958FED98E00E94FA
:1048D0008E051092980308958BED98E00E948E0546
:1048E0000E949A22089587ED98E00E948E056091BB
:1048F000950381E0611101C080E00E94912208953A
:1049000083ED98E00E948E059091990381E09430A8
:1049100009F080E0609195030E949722089520910C
:1049200068032F5F822F62E30E94D02B992319F036
:104930002093680308951092680380916C03882384
:10494000F1F0809199038430C1F49091E9009F7057
:104950002091EC00822F817020FD80E8892B95E06A
:104960009093E9009091EB0090FF04C09091EE00CD
:1049700097FD08C08F708093E90010926C03089532
:104980001092F1009091E80095FDFACF9091E80027
:1049900090FFF0CF9091E8009E779093E800EACFE7
:1049A00042E061EC81E00E94562842E261EC84E042
:1049B0000E94562842E261EC82E00E94562842E2C0
:1049C00060EC83E00E94562842E261EC85E00E94A0
:1049D00056289091990381E0943009F080E060912D
:1049E00095030E948722089580919B03833009F4E8
:1049F00063C030F48130E1F1823009F4A0C0089541
:104A00008A3009F48CC08B3009F471C0893009F008
:104A100052C080919A03813209F04DC080919E036B
:104A200090919F03009719F0029709F044C080917C
:104A3000E800877F8093E8008091E80082FF37C01C
:104A40009091F3008091F200029731F48091F1008F
:104A5000813011F0863021F48091F100809375034C
:104A60008091E8008B778093E8000E948A2823C019
:104A700080919A03813AF9F48091E800877F8093CE
:104A8000E80080919E0390919F03892B61F468E078
:104A90008DE693E070E00E9499278091E8008B7783
:104AA0008093E800089560E090E080E0F3CF80918B
:104AB00099038111C1CF089580919A03813AD9F762
:104AC00080919E0390919F03892BA9F78091E80024
:104AD000877F8093E8008091E80080FFFCCF809181
:104AE00016018093F1008091E8008E77BCCF809111
:104AF0009A03813201F780919E0390919F03892B45
:104B0000D1F68091E800877F8093E8000E948A2890
:104B100080919C03809316010E94EF0A0895809172
:104B20009A03813241F68091E800877F8093E80004
:104B30000E948A2880919D03809376030895809136
:104B40009A03813A09F0B7CF8091E800877F80937C
:104B5000E8008091E80080FFFCCF80917603C1CF10
:104B60009FB7F89410926C039FBF90919903943073
:104B700009F048C02091E9002F703091EC00932F8C
:104B8000917030FD90E8922B25E02093E900209170
:104B9000EB0020FF34C02091EE0027FF30C02091B1
:104BA0006703222321F02091E80025FF28C01092FE
:104BB000670326E03091E80035FF14C08093F100D0
:104BC0008091E80085FD27C08091E80080FFFCCF40
:104BD0008091E8008E778093E8009F709093E900C1
:104BE00080E0089530919903343049F43091EB001E
:104BF00035FD05C0215041F481E0809367039F702B
:104C00009093E9008FEF0895EFE9FFE03197F1F716
:104C100000C00000CFCF8FB7F89421E020936C0341
:104C20008FBFDBCF84B7877F84BF0FB6F894A8957A
:104C300080916000886180936000109260000FBED8
:104C400080E890E00FB6F894809361009093610043
:104C50000FBE0E94A02208950E94DA280E943729E0
:104C6000E2EEF0E080818460808378940E94B52B2E
:104C700008958AE091E00E9494210895809199031B
:104C8000853051F48FEC98E00E948E058091990355
:104C9000853019F00E941B2308950E94F022809114
:104CA0009703882399F30E94AD22882379F30E9409
:104CB000E5260E94EF0AEACFA0E2B0E0E2E6F6E2E3
:104CC0000C940D2C80919903843009F583E0809336
:104CD000E9008091E80082FF1AC08091E80090E02E
:104CE00085FF09C050E040E060E270E0CE0101962F
:104CF0000E944A2791E08091E8008B778093E8003A
:104D0000992329F060E2CE0101960E942519A09610
:104D1000E2E00C94292C0E948E260895292F332737
:104D20002330310521F168F42130310509F443C005
:104D30002230310509F444C090E080E030E020E00A
:104D400026C02132310551F122323105A9F76430F4
:104D5000710590F7FB01EE0FFF1FEC55FD4F208111
:104D6000318160567D4FFB01808190E010C0992712
:104D70008130910581F0009729F00297E9F6E7EE7E
:104D8000F8E002C0EFEFF8E0849190E09F01FA01B3
:104D9000318320830895E3EFF8E0F6CF64307105A6
:104DA00058F6660F771FFB01E455FD4F20813181D6
:104DB00089E090E0ECCF82E190E02EE739E0E7CFA8
:104DC0008BE790E023E039E0E2CF80E189BD82E12A
:104DD00089BD09B400FEFDCF8091D8008F7D8093FE
:104DE000D8008091E00082608093E0008091E00034
:104DF00081FDFCCF0895AF92BF92CF92DF92FF92D8
:104E00000F931F93CF93DF936C01EB018A010E94F4
:104E1000A928F82E811123C00115110539F0F801D8
:104E200080819181C81BD90BC80ED91EB12CA12C31
:104E30002097A9F08091E80085FD22C08091E800CC
:104E40008E778093E80001151105A1F0F8018081AB
:104E50009181A80EB91EB182A08285E0F82E8F2D17
:104E6000DF91CF911F910F91FF90DF90CF90BF9076
:104E7000AF9008950E94A9288823D1F2F82EEFCF91
:104E8000F60181916F018093F1002197FFEFAF1A36
:104E9000BF0ACECFAF92BF92CF92DF92FF920F9315
:104EA0001F93CF93DF936C01EB018A010E94A92825
:104EB000F82E811123C00115110539F0F801808108
:104EC0009181C81BD90BC80ED91EB12CA12C2097DB
:104ED000A9F08091E80085FD22C08091E8008B77E1
:104EE0008093E80001151105A1F0F80180819181FE
:104EF000A80EB91EB182A08285E0F82E8F2DDF9119
:104F0000CF911F910F91FF90DF90CF90BF90AF9006
:104F100008950E94A9288823D1F2F82EEFCF80911E
:104F2000F100F60181936F012197FFEFAF1ABF0ADD
:104F3000CECFFC018091A0039091A1038617970723
:104F4000A0F06115710529F49091E8009E77909387
:104F5000E80090E06115710551F4911108C080914D
:104F6000E80082FF34C080E00895BC01F2CF809158
:104F700099038823C1F18530C1F18091E80083FD58
:104F800030C08091E80082FDEACF8091E80080FF88
:104F9000E1CF8091F3002091F200382F6115710567
:104FA00019F02830310558F091E02830310509F02A
:104FB00090E02091E8002E772093E800CBCF8191FC
:104FC0008093F100615071092F5F3F4FE7CF8091CF
:104FD0009903882341F0853041F08091E80083FFF8
:104FE000BECF81E0089582E0089583E00895FC013A
:104FF0008091A0039091A10386179707A0F06115F7
:10500000710529F48091E8008E778093E80090E0A4
:105010006115710551F4911108C08091E80082FF7B
:1050200035C080E00895BC01F2CF809199038823B8
:10503000C9F18530C9F18091E80083FD31C08091CC
:10504000E80082FDEACF8091E80080FFE1CF809107
:10505000F3002091F200382F6115710519F0283006
:10506000310558F091E02830310509F090E0809149
:10507000E8008E778093E800CBCF84918093F10095
:105080003196615071092F5F3F4FE6CF80919903B0
:10509000882341F0853041F08091E80083FFBDCF47
:1050A00081E0089582E0089583E00895982F973075
:1050B00028F08F708093E90081E008959093E900D3
:1050C000242F762F50E0981731F07091EC0020914A
:1050D000ED005091F00021FD02C09F5FE8CF3091BC
:1050E000EB003E7F3093EB003091ED003D7F30933D
:1050F000ED003091EB0031603093EB007093EC00E9
:105100002093ED005093F0002091EE0027FDE5CFB5
:1051100080E0089580919A0387FF13C08091E80092
:1051200082FF06C08091E8008B778093E80004C07E
:10513000809199038111F2CF08958091990388237A
:10514000D9F38091E80080FFF8CF8091E8008E7756
:10515000ECCF2091E4003091E50095E6A901209183
:10516000EC00822F817020FF06C08091E80080FF54
:1051700006C080E008952091E80022FD1AC08091C9
:105180009903882389F0853089F08091EB0085FDB3
:105190000FC02091E4003091E50042175307F9F267
:1051A0009150E1F684E0089582E0089583E0089547
:1051B00081E008950E9449290E945129E0EEF0E023
:1051C000808181608083E8EDF0E080818F7780834B
:1051D00019BCA7EDB0E08C918E7F8C9380818F7E7F
:1051E00080831092980308950F931F93CF93DF93BA
:1051F0000E9449290E945129C8EDD0E088818F770B
:10520000888388818068888388818F7D888319BCA2
:10521000109299031092950310929703109296039F
:1052200000EE10E0F80180818B7F808388818160AF
:10523000888342E060E080E00E945628E1EEF0E0E2
:1052400080818E7F8083E2EEF0E0808181608083C8
:10525000808188608083F80180818E7F808388814F
:1052600080618883DF91CF911F910F910895E8EDC0
:10527000F0E080818F7E8083E7EDF0E080818160C7
:10528000808384E082BF81E0809398030E94F428A9
:105290000895E8EDF0E080818E7F80831092E20037
:1052A00008951092DA001092E10008951F920F9273
:1052B0000FB60F9211242F933F934F935F936F93E9
:1052C0007F938F939F93AF93BF93EF93FF938091BF
:1052D000E10082FF0BC08091E20082FF07C0809155
:1052E000E1008B7F8093E1000E948F248091DA009F
:1052F00080FF19C08091D80080FF15C08091DA002E
:105300008E7F8093DA008091D90080FF96C080E183
:1053100089BD82E189BD09B400FEFDCF81E08093A3
:1053200099030E9453248091E10080FF19C080916D
:10533000E20080FF15C08091E2008E7F8093E20042
:105340008091E20080618093E2008091D8008062C9
:105350008093D80019BC85E0809399030E94732440
:105360008091E10084FF2BC08091E20084FF27C080
:1053700080E189BD82E189BD89B5982F917080FF58
:10538000FBCF8091D8008F7D8093D8008091E10081
:105390008F7E8093E1008091E2008F7E8093E20017
:1053A0008091E20081608093E200809195038823E0
:1053B00009F449C084E0809399030E94802480917D
:1053C000E10083FF29C08091E20083FF25C0809126
:1053D000E100877F8093E10082E08093990310923F
:1053E00095038091E1008E7F8093E1008091E2003F
:1053F0008E7F8093E2008091E20080618093E200E2
:1054000042E060E080E00E9456288091F0008860D1
:105410008093F0000E946C24FF91EF91BF91AF91B7
:105420009F918F917F916F915F914F913F912F91BC
:105430000F900FBE0F901F90189519BC10929903F2
:105440000E94652470CF8091E30087FD93E09093E4
:105450009903B3CF1F920F920FB60F9211242F937F
:105460003F934F935F936F937F938F939F93AF93EC
:10547000BF93CF93DF93EF93FF93D091E900DF7059
:105480008091EC00C82FC17080FDC0E81092E90047
:105490008091F000877F8093F00078940E946E2ABC
:1054A0001092E9008091F00088608093F000CD2B8D
:1054B000CF70C093E900FF91EF91DF91CF91BF9141
:1054C000AF919F918F917F916F915F914F913F919C
:1054D0002F910F900FBE0F901F901895AAE2B0E089
:1054E000E4E7FAE20C940C2C8AE993E02091F100B5
:1054F000FC012193CF01F3E0823A9F07B9F70E94A4
:10550000F4248091E80083FF1EC180919A0390915A
:105510009B039A3008F017C1E92FF0E0EF53F34DE9
:105520000C94F02B803899F0823809F00CC18091EE
:105530009E038F70873008F006C18093E900809148
:10554000EB0085FB882780F91092E90006C0809166
:10555000960390919703911182609091E800977F54
:105560009093E8008093F1001092F1008091E800A0
:105570008E77E5C0882309F4D3C0823009F0E3C0F8
:1055800080919C038111D6C080919E038F702FEF74
:10559000280F263008F0D7C08093E9002091EB0057
:1055A00020FFC8C0933031F48091EB00806280937B
:1055B000EB00C0C09091EB0090619093EB0021E074
:1055C00030E001C0220F8A95EAF72093EA0010929A
:1055D000EA008091EB008860EACF8111B4C010919D
:1055E0009C031F778091E3008078812B8093E300F8
:1055F0008091E800877F8093E8000E948A2880914C
:10560000E80080FFFCCF8091E30080688093E30096
:1056100082E0111183E08093990395C08058823015
:1056200008F091C080919C0390919D038C3D23E0F4
:105630009207A1F583E08A838AE289834FB7F894C1
:10564000DE01139620E03EE051E2E32FF0E05093BC
:105650005700E49120FF03C0E295EF703F5FEF70C9
:105660008E2F90E0EA30C0F0C7968D939D932F5F08
:10567000243159F74FBF8091E800877F8093E8007D
:105680006AE270E0CE0101960E9499278091E800BD
:105690008B778093E80057C0C096E7CF60919E0358
:1056A00070919F03AE014F5F5F4F0E948B26BC013C
:1056B000892B09F448C09091E800977F9093E80007
:1056C00089819A810E94F727E1CF8038E1F58091A6
:1056D000E800877F8093E800809195038093F10034
:1056E00045CF811130C090919C03923060F580913C
:1056F000E800877F8093E800909395030E948A28B2
:1057000080919503882311F084E005C08091E30027
:1057100087FDFACF81E0809399030E94D02413C0C3
:1057200080919C03813079F481E0933009F080E02E
:10573000809397031092E9008091E800877F80931F
:10574000E8000E948A288091E80083FF0AC08091C7
:10575000E800877F8093E8008091EB00806280936F
:10576000EB00AA96E3E00C94282CCF938091990348
:105770008823A1F0C091E900CF709091EC00892FAF
:10578000817090FD80E8C82B1092E9008091E800BC
:1057900083FD0E946E2ACF70C093E900CF910895D7
:1057A000991B79E004C0991F961708F0961B881F73
:1057B0007A95C9F78095089597FB072E16F4009403
:1057C00007D077FD09D00E94342C07FC05D03EF4A9
:1057D000909581959F4F0895709561957F4F08959D
:1057E000EE0FFF1F0590F491E02D0994692796278D
:1057F000692778278727782708952F923F924F921D
:105800005F926F927F928F929F92AF92BF92CF9250
:10581000DF92EF92FF920F931F93CF93DF93CDB759
:10582000DEB7CA1BDB0B0FB6F894DEBF0FBECDBFD1
:1058300009942A88398848885F846E847D848C84A2
:105840009B84AA84B984C884DF80EE80FD800C81AB
:105850001B81AA81B981CE0FD11D0FB6F894DEBF8E
:105860000FBECDBFED010895AA1BBB1B51E107C0C0
:10587000AA1FBB1FA617B70710F0A61BB70B881FE0
:10588000991F5A95A9F780959095BC01CD0108956F
:10589000FB01DC0104C08D910190801921F441507D
:1058A0005040C8F7881B990B0895FB01DC0102C02A
:1058B00001900D9241505040D8F70895F999FECFCC
:1058C00092BD81BDF89A992780B50895A8E1B0E00E
:1058D00042E050E00C94922C262FF999FECF92BD15
:1058E00081BDF89A019700B4021639F01FBA20BDA5
:1058F0000FB6F894FA9AF99A0FBE08950396272FD7
:105900000E946D2C0E946C2C252F0E946D2C242F40
:105910000C946D2C0196272F0E946D2C0C946C2CEE
:10592000DC01CB01FC01F999FECF06C0F2BDE1BD5F
:10593000F89A319600B40D9241505040B8F708954E
:10594000F894FFCFE408E40815091509A209BE0977
:1059500044094409C909300A3F0A3F0A3719431963
:105960006A19761981198C198F198F198F198F1946
:105970008F19921996199E19AB19B819BB19BE192E
:10598000CB19922ABA2AA32BBA2AA32BED2A0E2BC3
:06599000A32B652B712B17
:105996002403280850011E0A1401A323C823A723A1
:1059A60024241F24A62301E200E900EA00B500B67C
:1059B60000B700CD008301CC008A01920194012139
:1059C60002230224022502260227022A02B300B479
:1059D600006F007000818283E200E900EA00B500F2
:1059E600B600B700CD008301CC008A019201940174
:1059F6002102230224022502260227022A02B300DC
:105A0600B4006F0070008182839190946697C634CB
:105A160035379567F1F036323392F4F5F6F7313FC4
:105A26003F3F006D6B5F64656C6179006D6B5F690C
:105A36006E74657276616C006D6B5F6D61785F7315
:105A460070656564006D6B5F74696D655F746F5F2B
:105A56006D6178006D6B5F776865656C5F6D617809
:105A66005F7370656564006D6B5F776865656C5F15
:105A760074696D655F746F5F6D6178000A092D202A
:105A860056657273696F6E202D0A5649443A203066
:105A96007846454544286D79363529205049443A9B
:105AA60020307830303030286D793635292056450B
:105AB600523A203078303030310A4255494C443A17
:105AC6002020284D61722020352032303233290AB9
:105AD6004F5054494F4E533A204C554641204D4F56
