:100000000C944B0D0C94920D0C94920D0C94920D3B
:100010000C94920D0C94920D0C94920D0C94920DE4
:100020000C94920D0C94920D0C9439330C940D3465
:100030000C94A62D0C94920D0C94920D0C94920D90
:100040000C94920D0C94920D0C94920D0C94920DB4
:100050000C94920D0C94FD2D0C94920D0C94920D19
:100060000C94920D0C94920D0C94920D0C94920D94
:100070000C94920D0C94920D0C94920D0C94920D84
:100080000C94920D0C94920D0C94920D0C94920D74
:100090000C94920D0C94920D0C94920D0C94920D64
:1000A0000C94920D0C94920D0C94920D14001A0065
:1000B0000800150017001C0018000C0012001300A7
:1000C00004001600070009000A000B000D000E00D6
:1000D0000F0001511D001B00060019000500110052
:1000E0001000360037003800F2000000E1002C005C
:1000F00000000000F100F200000000003A003B00A8
:100100003C003D003E003F0040004100340227001B
:100110001E001F00200021002200230024002500D3
:100120002600010031002F0030002E002D00350088
:100130005000510052004F00E0000000E200280093
:10014000000000002A00280000000000005C010000
:100150000100010001000100010001000100010097
:100160000100010001000100010001000100010087
:100170000100010001000100010001000100010077
:100180000100010001000100010000000100010068
:10019000000000000100010000000000444542553D
:1001A000473A2064697361626C65642E0A004445B5
:1001B0004255473A20656E61626C65642E0A004FB5
:1001C0006E6573686F743A206163746976653A206E
:1001D00025640A000A0025303258006B6579626F89
:1001E0006172645F7365745F6C65643A20000A0035
:1001F0002530313662003A200025303258000A722C
:100200002F63203031323334353637383941424369
:100210004445460A00290A002575002F002575006F
:100220005D2800256400200025640020002564006E
:1002300020002564007C0025303258006D6F7573F6
:10024000656B6579205B62746E7C782079207620FE
:10025000685D287265702F61636C293A205B0053DA
:1002600074617274696E67206D6F74696F6E2E0AA7
:10027000000A006275727374206F6E002563256337
:100280002563256325632563256325637C000104BD
:100290008E966E773EFE7E5F1DB8F2664EFF5D194C
:1002A000B0C20469542AD62EBFDD19B0C3E529B106
:1002B000E023A5A9B1C10082674C1A978D7951201E
:1002C000C7068E7C7C7A764FFD5930E2460E9EBE84
:1002D000DF1D9991A0A5A1A9D022C6EF5C1B95892D
:1002E00090A2A7CCFB5528B3E44AF76C3BF46A56BE
:1002F0002EDE1F9DB8D3058892A6CE1EBEDF1D99A7
:10030000B0E246EF5C07115D980B9D9497EE4E4569
:10031000336B44C729562730C6A7D5F256DFB43809
:1003200062CBA0B6E30F84062405656F7689B577A6
:10033000412782666582CCD5E620D52717C5F8030C
:10034000237C5F64A51DC1D636CB4CD4DB66D78B2E
:10035000B1997E6F4C364006D6EBD7A2E4F49551A6
:100360005A5496D55344D78CE0B94068D218E9DD89
:100370009A239248EE7F43AFEA7738848C0A72AFB3
:1003800069F8DDF12483A3F84ABFF59413DBBBD8E9
:10039000B4B3A0FB4550603059123171A2D313E7BA
:1003A000FAE7CE0F63150B6B94BB378326059DFBD5
:1003B0004692FC0A15D10D7392D68C1B8CB8558AC7
:1003C000CEBDFE8EFCED0912839182513123FBB428
:1003D0000C76AD7CD9B44BB26714099C7F0C18BA6B
:1003E0003BD68E142AE41B529F2B7DE1FB6A33021D
:1003F000FAAC5AF23E887EAED1F378E805D1E3DC60
:1004000021F6E19ABD170ED9469B8803EAF666BE2F
:100410000E1B5049964097F1F1E480A66EE87734C0
:10042000BF294044C2FF4E98D39CA3322B7651047F
:1004300009E7A9D1A632B12353E247ABD6F5695CEF
:100440003E5FFAAE4520E5D244FF39326DFD2757B5
:100450005CFDF0DEC1B599E5F51C770175C56D58F9
:1004600092F2B247000126967A30FFB7F0EF77C1DB
:100470008A5DDCC0D129301E77387A94F1B87A7E53
:10048000EFA4D1AC314AF25D643DB2E2F00899FCD0
:1004900070EE24A77EEE1E20697D44BF8742DF8870
:1004A0003B0CDA42C904F94550FC838F116A72BCD7
:1004B0009995F0AC3DA73BCD1CE2887937115F39A7
:1004C00089950A16847AF68AA428E4ED83803BB1E4
:1004D00023A50310F466EABB0C0FC5EC6C69C5D309
:1004E00024ABD42AB799887608A0A8957CD8386D13
:1004F000CD5902514BF1B52B50E3B6BDD072CF9E12
:10050000FD6EBB44C8248A77188A1306EF977DFADC
:1005100081F031E6FA77ED3106315B548A9F30681D
:10052000DBE240F84E73FAAB748B105813DCD2E662
:1005300078D1322E8A9F2C58064827C5A95E81475C
:10054000894621910370A43E889CDA330ACEBC8B85
:100550008ECF9FD3718043CF6BA95183763082C5F4
:100560006A853911501A82DC1E1CD57DA971993318
:10057000471997B35AB1DFEDA4F2E62684A2289A70
:100580009EDFA66AF4D6FC2E5B9D1A2A2768FBC163
:1005900083214B90E036DD5B314255A013F7D089C3
:1005A000537199570929C5F321F8372F40F3D4AF78
:1005B00016083602FC77C58B049056B9C9679A991C
:1005C000E800D386FF972D08E9B7B391BCDF45C695
:1005D000ED0F8C4C1EE65B6E3830E4AAE395DEB975
:1005E000E49AF5B2559A879BF66AB2F2779A31F49B
:1005F0007A31D11D04C07C32A29E9AF562F8278D13
:10060000BF51FFD3DF64373F2A6F763A7D77069E6E
:10061000777F5EEB3251F916669A09F3B008A47041
:10062000964630FFDA4FE91BED8DF8741F3192B317
:10063000731736DB9130D688556B3477877AE7EEBF
:1006400006C61C8C190C4846235E9C075CBFB47E12
:10065000D64F749CE2C5508BC58B159060625729AC
:10066000D01343A18088910044C74D1986CC2F2A0E
:10067000755AFCEB972A70E378D891B04F9907A38D
:1006800095EA2421D5DE512093270A3073A8FF8AEA
:1006900097E9A76A8E0DE8F0DFECEAB46C1D392A01
:1006A000622D3D5A8B65F890052E7E912C78EF8E49
:1006B0007AC12FAC78EEAF2845064C26AF3BA2DBC3
:1006C000A39306B53CA5D8EE8FAF25CC3F856848EF
:1006D000A962CC978F7F2AEAE0150AAD6207BD4573
:1006E000F841D836CB4CDB6EE63AE7DA15E9291E3D
:1006F0001210A0142C0E3DF4BF394192750B257BCE
:10070000A3CE399C1564C8FA3DEF7327FE262ECE82
:10071000DA6EFD718EDDFE76EEDC125C02C53A4EBD
:100720004E4FBFCA4015C76E8D41F110E04F7E9706
:100730007F1CAE478E6BB12531B073C71B9779F91B
:1007400080D366223007741EE4D08021D6EE6B6C15
:100750004FBFF5B7D909872FA914BE27D972500109
:10076000D41373A6A751027525E1B345347DA88E35
:10077000EBF31649CB4F8CA1B9368539755D08006E
:10078000AEEBF6EAD7133A215A5F3084522695C968
:1007900014F257556BB110C2E1BD3B51C0B7554C77
:1007A000711226C70DF951A43802057FB8F1724BBA
:1007B000BF718914F37738D97124F30011A1D8D40B
:1007C0006927083735C9119D901C0EE71CFF2D1EA7
:1007D000E892E11810957CE080F4964321F97521A8
:1007E0006438DD9F1E9516DA561D4F9A53B2E2E427
:1007F00018CB6B1A65EB56C63BE5FED8263F3A840C
:10080000597266A2F375FFFB60B322AD3F2D6BF901
:10081000EBEA057CD88F6D2C989E2B93F15E46F009
:100820008749297368D77FF9F0E57DDB1D7519F3DA
:10083000C4589B1788A892E0BEBD8B1D8D9F56762D
:10084000ADAF29E2D9D552F6B55635573AC8E1567B
:10085000431994D3049B6D35D80B5F4D198EECFA78
:1008600064910A72202BBC1A4AFE8BFDBBED1B2340
:10087000EAAD7282A1299971BDF095C103DD7BC2F9
:10088000B23C2854D368A472C86696E0D1D87FF8E9
:10089000D1262BF7ADBA55CA15B932C3E588978E64
:1008A0005CFB92258BBFA245557AA76F8B575BCF18
:1008B0000ECB1DFB208277A88CCC16CE1DFADECC89
:1008C0000B62FECCE1B7F0C381647340A0C24D89D6
:1008D00011753355338DE84AFDEA6E300BD7312C54
:1008E000DE47E3BFF85542E27F59E517EF993469D7
:1008F00091B1238E20872DA8FED58AF3843AF03754
:10090000E4090054EE674993E48170E3904DEFFEF3
:1009100041B7997BC183BA62126F7DDE6BAFDA1685
:10092000F95551EEA60C2B02A3FD8DFB3017E46F99
:10093000DF3671C4CA872548B047ECEAB4BFA54D7D
:100940009B9F0293C4E3E4E8422D6881150AEB847F
:100950005BD6A874FB7D1DCB2CDA462A7662CEBC12
:100960005C9E8BE7CFBE78F57CEBB33A9CAA6FCC4C
:1009700072D159F21123D63F48D1B7CEB0BFCBEADE
:1009800080DE57D45E972F75D1508E802C6679BF4C
:10099000724BBD8A816CD3E101DCD21526C536DAF3
:1009A0002C1AC02794EDB79B850B5E8097C5EC4F42
:1009B000EC885D50073547DC0B3B3DDD60AFA85D43
:1009C000813824255D5C15D1DEB3ABEC0569EF837E
:1009D000ED5754B8646411163269DA9F2D7F36BB27
:1009E000445A34E87FBF03EB007F59682279CF7304
:1009F0006C2C29A7A15F38A11DF02053E01A6314C5
:100A0000587110AA080C3E161A6022827FBAA443BD
:100A1000A0D0AC1BD56B64B51493319E5350D05706
:100A200066EE5A4FFB032A695876F183F74EBA8C6B
:100A30004206605D6DCE6088AEA4C3F103A54B98FD
:100A4000A1FF67E1ACA2B862D76FA031B4D277AF93
:100A5000211006C69AFF1D09170E5FF1AA54344BE8
:100A6000458A8763A6DCF9243067C6B2D66133694C
:100A7000EE50615728E77EEEEC3A5A734EA88DE4AB
:100A800018EAEC4164C8E2E866B62DB6FB6A6C165B
:100A9000B3DD4643B973006A71ED4E9D251AC33C20
:100AA0004A95159935811402D6989BECD8233B843E
:100AB00029AF0C9983A69A344FFAE8D03C4BD0FB6F
:100AC000B668B89E8FCDF7602D7A22E57DAB651BA9
:100AD00095A7A87FB677477B5F8B1272D0D491EF32
:100AE000DE19503CA78BC4A9B323CB76E681F0C1B5
:100AF000048FA3B8545B97AC19FF3F55272FE01D17
:100B0000429B57FC4B4E0FCE98A9435703BDE7C8F5
:100B100094DF6E367332B4EF2E857A6EFC6C1882D9
:100B200075359007F3E49F3EDC68F3B5F3198092C6
:100B30000699A2E86FFF2E7FAE42A45FFBD40E8120
:100B40002BC304FF2BB3744E365B9C1500C6472B9A
:100B5000E88B3DF19C039A587F9B9CBF8549793572
:100B60002E567B411439478326AA078998111B8684
:100B7000E7737AD87D786153E979F5368D449284AC
:100B8000F91350583BA46A3665498E3C0EF16FD27A
:100B900084C47E8E3F39AE7C84F163378E3CCC3E7C
:100BA000448145F14BB9ED6B365DBB20601A0FA354
:100BB000AA55773AA9AE374DBAB8866BBC0850F63D
:100BC000CCA4BD1D4072A586FAE210AE3D584B97ED
:100BD000F34374A99EEB21B701A4869397EE2F4FA0
:100BE0003B86A1416F412690785C7F30384B3FAA0D
:100BF000ECED5C6F0EAD4387FD9335E601EF4126CA
:100C000090999EFB195BADD2918AE046AF65FA4F91
:100C100084C1A12DCF458BD38550557CF96788D4ED
:100C20004EE9D76B6154A1A4A6A2C2BF309C409FDD
:100C30005FD7692B24825ED9D6A712541AF7559F25
:100C40007650A99584E66B6DB59654D6CDB3A19B2D
:100C500046A7944DC494B498E3E1E234D533160723
:100C600054CDB77753DB4F4D469DE9D49C8A36B6B9
:100C7000B838266C0EFF9C1B438B80CCB93DDAC77D
:100C8000F18AF26DB8D7742F7E1EB7D34AB4ACFC8C
:100C900079486CBC96B69446572DB0A3FC1EB95249
:100CA00060852D41D043011E1CD57DFCF3960DC7F8
:100CB000CB2A299A93DD882D375DAAFB4968A09C31
:100CC00050867F685657F9791839D4E0018433612A
:100CD000CAA5D2D6E4C98A4A23444EBCF0DC24A17A
:100CE000A0C4E2073C10C4B5254B6563F480E7CF90
:100CF00061B1718221872CF59100320CECA9B59A73
:100D00007485E3368F764F9C6DCEBCAD0A4BED7685
:100D100004CBC3B9339E019396697DC5A245799BE7
:100D2000045C8409ED8843C7AB931426A140B5CE7B
:100D30004EBF2A42853E2C3B54E8121F0E9759B2F3
:100D40002789FAF2DF8E6859DC06BCB6850D0622CB
:100D5000ECB1CBE504E63DB3B04173083F3C5886A7
:100D600063EB50EE1D2C3774A9D318A3476E935430
:100D7000AD0A5DB82A555D78F6EEBE8E3C7669B94F
:100D800040C234EC2AB9ED7E20E48D0038C7E68FEE
:100D900044A886CEEB2AE990F14CDF32FB731B6D41
:100DA000921E95FEB4DB65DF4D23548948BF4A2E61
:100DB00070D6D762B43329B13A334C236DA676A5E9
:100DC000216348E6905DED90950B7A84BEB80D5E88
:100DD000630C62264C145AB3AC23A474A76F33304F
:100DE00005600142A028B7EE1938F164808243E122
:100DF00041271F1F90547AD5232ED13DCB28BA58B6
:100E00007FDC7C9124E92851836EC5562142EDA0F8
:100E10005622A140806BA8F794CA136B0C39D9FDF8
:100E2000E9F36FA69EFC708AB3BC593C1E1D6CF999
:100E30007CAFF9887195EB5700BD9F8C4FE12483FF
:100E4000C522EAFDD30CE217187C6A4CDE77B45356
:100E50009B4C81CD2360AA0E25739C02793230DF32
:100E600074DF7519F4A5145CF77AA8A591847C60E9
:100E700003063BCD50B6279CFEB1DDCCD3B0592440
:100E8000B2CAE21C81229D078F8EB9BE4EFAFC3990
:100E900065BABF9D12375E977EF389F55DF5E3096C
:100EA0008C62B5209D0C538A681BD28F75175DD458
:100EB000E5DA756219146A262DEBF8AF37F06CA4E9
:100EC00055B1BCE233C09ACAB011494F689B3B6B25
:100ED0003CCC13F6C785616842AEBBDDCD45162913
:100EE0001DEADBC803943CEE4F8211C3EC28BD978A
:100EF0000599DED7BB5E221FD4EB64D992D985B7A2
:100F00006A056AE42441F1CDF0D83FF89E0ECD0B7E
:100F10007A706B5A750A6A3388EC17750870102F4F
:100F200024CFC4E942006194CA1F3A7606FAD24837
:100F300081F077600345D961F4A46F3DD930C304D3
:100F40006B542AB7EC3BF44BF5685226CEFF5D1983
:100F500091A0A3A5A9B1E023C40A774DF95120A31C
:100F6000A5A9B1C10082868E7F5D1991A0A3C4EBB3
:100F7000540B756852078C9A978D79706246EF5CB6
:100F80001B95897141E121A1A1A1C002674C1AB64C
:100F9000CFFD785324ABB5C9F16023A5C812876D86
:100FA0005813858892876D5832C70C9A97ACDA36F9
:100FB000EE5E3EDF1DB8F2662FBDF87247ED5813A6
:100FC000858892878C7B550990A2C6EF3DF8532403
:100FD000ABD42AB7EC5A36EE5E3EDF3CFA764FFDD4
:100FE0005930E246EF3DF853056931C10082868EE3
:100FF0007F5D19B0E227CCFB744B148B948B756822
:1010000033C50892878C9AB6CF1CBAD70D98B2E632
:101010002FDC1B9589716023C40A968F9CBAF66EEB
:101020003FFC5B15A8D226AFBDF872662FDC1BB45F
:10103000CB148B94AAB7CDF951018082866F3DD92C
:1010400030E227CCFB744B14AAB7CDF97043046B84
:1010500035C9F16023A5C8F3450892876D5832E67B
:101060002FBDF872664E1EBEFE7E7E7E5F1D99917C
:10107000A0A3C40A774D1893A4ABD40B754910A252
:10108000C6EF3DF85324ABB5E833E44A16AEDE1F95
:10109000BCDB15A8B3C5087345E931C1E121A1A1A5
:1010A000A1C002866F5C3AD70D9893A4CA16AEDE33
:1010B0001F9D99B0E246EF3DF872470C9AB6CFFDFE
:1010C0005911A0A3A5C8F3450892876D39F04304D0
:1010D0008A96AEDE3EDF1D9991A0C2066F3DF87282
:1010E000470C9A978D989385887345E931E023A53D
:1010F000A9D003848A96AEDE1FBCDB15A8D226CE0B
:10110000FF5D1991818082672DD813A4ABD40B9415
:10111000AAB7CDF95120A3A5C8F345E95022C6EFDF
:101120005C3AD70D9893858873644AF74DF951203E
:10113000A3C40A96AEDE3EFE7E7E7E5F3CFA764F0C
:10114000FD7872662FBDD930C3E54812878C7B5578
:1011500028D2078C9A97ACDA178D795120A3C4EB6B
:10116000540B948B94AAD62EBFFC5B15A8D226AF45
:10117000DC1BB4EA37EC3BF46A37CD189385693150
:10118000C1E140E325C812878C9AB6CFFD5911A062
:10119000C2068E7F5D38F2470C7B746A37EC5A3694
:1011A000EE3FFC7A764F1C9B95897141006344EBBE
:1011B000542AD60F9CBAD70D9893856931C1008205
:1011C000868E9EBEDF3CFA572CDA36EE3FFC5B156E
:1011D0008971410082868E7F5D38F247ED5813A4F5
:1011E000CAF74DF95101806344EB542AD62EBFDD76
:1011F0001991A0A3A5A9B1E042068E7F5D1991A027
:10120000A3C40A968F7D7872470C7B746A562EDED3
:101210001FBCFA570D7951016121A1C0E325A9B185
:10122000C1E14002674C1A978D9893A4ABD42AD69B
:101230000F9C9BB4CB14AAB7CDF95120A3C4EB35B6
:10124000C9F16042068E7F7C7A766E3FFC7A766EBC
:101250005E3EFE7E5F3CDB15897141E121C0E344C7
:10126000EB542AB7CDF9706227ADD832C70C7B7426
:101270004B14AAB7EC3BD528D2076D39D120C2E771
:101280004C1A978D98B2C70C5928F39B313A0964D0
:10129000656C6179282A31306D73293A2025750AE9
:1012A000323A09696E74657276616C286D73293AF9
:1012B0002025750A333A096D61785F73706565643E
:1012C0003A2025750A343A0974696D655F746F5F59
:1012D0006D61783A2025750A353A09776865656C3D
:1012E0005F6D61785F73706565643A2025750A36B5
:1012F0003A09776865656C5F74696D655F746F5FE7
:101300006D61783A2025750A00703A097072696E2D
:10131000742076616C7565730A643A09736574208C
:1013200064656661756C74730A75703A092B310ACD
:10133000646E3A092D310A6C743A092B31300A7205
:10134000743A092D31300A4553432F713A097175AA
:1013500069740A0A7370656564203D2064656C7465
:1013600061202A206D61785F7370656564202A2092
:1013700028726570656174202F2074696D655F74D3
:101380006F5F6D6178290A77686572652064656CA6
:1013900074613A20637572736F723D25642C2077F7
:1013A0006865656C3D25640A5365652068747470D2
:1013B0003A2F2F656E2E77696B6970656469612EAF
:1013C0006F72672F77696B692F4D6F7573655F6BF0
:1013D0006579730A004D3E20004D25753A25733E10
:1013E00020003F0A003D2025750A003F0A00646581
:1013F0006661756C74730A0025750A003F0A000A5D
:10140000092D2056616C756573202D0A00710A0044
:101410000A092D204D6F7573656B6579202D0A00C3
:101420003F00433E20004C25640A000A092D20534A
:101430007461747573202D0A686F73745F6B6579BE
:10144000626F6172645F6C65647328293A2025308D
:1014500032580A6B6579626F6172645F70726F7483
:101460006F636F6C3A20253032580A6B6579626F72
:101470006172645F69646C653A20253032580A7481
:10148000696D65725F72656164333228293A20257F
:1014900030386C580A000A092D2056657273696F3E
:1014A0006E202D0A5649443A203078464545442856
:1014B000736B656C29205049443A203078303030C5
:1014C0003028736B656C29205645523A20307830AD
:1014D0003030310A4255494C443A2020284170723C
:1014E0002032342032303232290A4F5054494F4E84
:1014F000533A204C554641204D4F5553454B455985
:101500002045585452414B455920434F4E534F4C60
:101510004520434F4D4D414E4420343039360A4723
:1015200043433A20382E342E30204156522D4C4918
:1015300042433A20322E302E30204156525F4152E3
:1015400043483A20617672350A000A092D20436F1C
:101550006E736F6C65202D0A4553432F713A0971E4
:101560007569740A6D3A096D6F7573656B65790AF3
:10157000000A092D204D61676963202D0A443A094C
:101580004465627567204D65737361676520546FAC
:1015900067676C650A583A094D617472697820442E
:1015A00065627567204D6F646520546F67676C6571
:1015B000202D2053686F77206B6579707265737387
:1015C000657320696E206D61747269782067726935
:1015D000640A4B3A094B6579626F61726420446515
:1015E00062756720546F67676C65202D2053686FA4
:1015F00077206B65797072657373207265706F7296
:10160000740A4D3A094465627567204D6F757365BC
:1016100020546F67676C650A563A0956657273699C
:101620006F6E0A533A095374617475730A433A0929
:10163000416374697661746520436F6E736F6C6586
:10164000204D6F64650A46312D4631303A09537793
:101650006974636820746F204C6179657220302D45
:10166000392028463130203D204C30290A302D3990
:101670003A0953776974636820746F204C61796507
:101680007220302D390A47524156453A095377693D
:1016900074636820746F204C617965722030202853
:1016A000616C7465726E617465290A423A094A7503
:1016B0006D7020746F20426F6F746C6F616465721F
:1016C0000A4553433A094A756D7020746F20426F82
:1016D0006F746C6F616465722028616C7465726EE2
:1016E000617465290A453A095072696E742045454E
:1016F00050524F4D2053657474696E67730A42539C
:10170000504143453A09436C65617220454550524A
:101710004F4D0A006B65796D61705F636F6E66692E
:10172000672E7261773A20253032580A2E7377611E
:10173000705F636F6E74726F6C5F636170736C6FF8
:10174000636B3A2025750A2E636170736C6F636B4F
:101750005F746F5F636F6E74726F6C3A2025750AE9
:101760002E737761705F6C63746C5F6C6775693A38
:101770002025750A2E737761705F7263746C5F72D7
:101780006775693A2025750A2E737761705F6C6101
:101790006C745F6C6775693A2025750A2E737761E2
:1017A000705F72616C745F726775693A2025750AA3
:1017B0002E6E6F5F6775693A2025750A2E73776103
:1017C000705F67726176655F6573633A2025750A9D
:1017D0002E737761705F6261636B736C6173685FB6
:1017E0006261636B73706163653A2025750A2E6EC2
:1017F0006B726F3A2025750A0064656275675F63D6
:101800006F6E6669672E7261773A20253032580A0A
:101810002E656E61626C653A2025750A2E6D6174C5
:101820007269783A2025750A2E6B6579626F61724C
:10183000643A2025750A2E6D6F7573653A202575FB
:101840000A006565636F6E6669673A0A646566617A
:10185000756C745F6C617965723A2025750A003F7A
:10186000000A6D6F7573653A206F66660A000A6D2F
:101870006F7573653A206F6E0A000A6B6579626F47
:101880006172643A206F66660A000A6B6579626F5E
:101890006172643A206F6E0A000A6D617472697831
:1018A0003A206F66660A000A6D61747269783A20A0
:1018B0006F6E0A000A64656275673A206F66660A91
:1018C000000A64656275673A206F6E0A000A0A4A68
:1018D000756D70696E6720746F20626F6F746C6FC6
:1018E000616465722E2E2E2000433E2000436C65FD
:1018F0006172696E6720454550524F4D0A000A00DB
:101900002530325820006B6579626F6172645F72B6
:1019100065706F72743A20005B735D005B575D0009
:101920005B535D005B525D005B445D005B435D00AB
:101930000A0373006B0065006C0000000A0373006B
:101940006B0065006C0000000403090409025B00E1
:10195000030100A0FA0904000001030101000921AC
:10196000110100012240000705810308000A090453
:1019700001000103000000092111010001227B0088
:101980000705820320000A09040200020300000088
:101990000921110100012222000705830320000113
:1019A000070503032000011201000200000008EDFA
:1019B000FE00000100010200010631FF0974A101CF
:1019C0000975150026FF0095207508810209761516
:1019D0000026FF00952075089102C005010902A1AB
:1019E0000185020901A10005091901290815002531
:1019F000019508750181020501093009311581251C
:101A00007F95027508810609381581257F95017536
:101A1000088106050C0A38021581257F9501750895
:101A20008106C0C005010980A101850319012AB7FB
:101A300000150126B700950175108100C0050C093D
:101A400001A101850419012AA002150126A0029511
:101A50000175108100C005010906A101050719E003
:101A600029E7150025019508750181029501750882
:101A700081010507190029FF150026FF009506754D
:101A80000881000508190129059505750191029540
:101A90000175039101C011241FBECFEFDAE0DEBF54
:101AA000CDBF04B603FE27C08091DF029091E00213
:101AB000A091E102B091E2028730904BA740B04B79
:101AC000D1F41092DF021092E0021092E102109223
:101AD000E20214BE84B7877F84BF0FB6F894A8953E
:101AE00080916000886180936000109260000FBE5A
:101AF000E0E0F8E3099511E0A0E0B1E0E2EEFCE6F9
:101B000002C005900D92AE3FB107D9F722E0AEEFCB
:101B1000B1E001C01D92AF3DB207E1F70E946A1F1C
:101B20000C9447360C940000FF93EF93E091FE0174
:101B3000F091FF01309709F00995EF91FF91089519
:101B4000FC018591803011F0EFDFFBCF0895FF2776
:101B5000E0E230E247FF0CC0419597FF09C0EDE29B
:101B60006095709580959095611D711D811D911DE9
:101B700027FF02C0219530E350E2AA27660F771FA6
:101B8000881F991FAA1FA41710F0A41B63955A95CC
:101B9000A9F7AA3008F0A95FA05DAF93F39561158E
:101BA00071058105910541F7ED3211F4EF93F3953D
:101BB000F21718F43F93F395FBCF8F91B5DFFA95A9
:101BC000E1F70895E991F9918591803021F085320E
:101BD00019F0AADFF9CF089520E0E8945591553225
:101BE000C1F3503311F4689455915A3348F450536B
:101BF00090F3220F022E220F220F200D250FF4CF7B
:101C00000EF4219589919991533619F3533729F19F
:101C1000533559F1BC0188279927E8945C3621F4A3
:101C20008991999168945591543639F446EF7EF034
:101C300077FF0DC08FEF9FEF0AC055374AE039F0AC
:101C4000583540E121F0523642E009F00895FF9303
:101C5000EF937DDFEF91FF91B7CFFF93EF93FC01FF
:101C600081918030B9F360DFFBCFFF93EF9368DFA2
:101C7000F1CFDF93CF93CDB7DEB72596A3DFCF911A
:101C8000DF91089581E0089581E008950C94440E59
:101C900008950C94480E1F93CF93DF9300D000D08B
:101CA0000F92CDB7DEB749835A836B833091000220
:101CB00089819A8131111DC06623B9F02223A9F0D0
:101CC0000E94C414182F682F89819A810E94701471
:101CD00069817A81812F0F900F900F900F900F9054
:101CE000DF91CF911F910C94621B0E949C14182FBE
:101CF000EFCF0E94C41469817A81EDCFFC01262FB9
:101D0000408151816281738184810C944B0E81E00A
:101D10000895CF93DF93EC0160E00E947E0EBE0138
:101D2000DF91CF910C94490E0E948A1D0E944D0FA5
:101D30000C94AF1D0C94B21D80E00E944E0F0C94C9
:101D40005D23089508950E9419130E94A20E2FEF9B
:101D500084E39CE0215080409040E1F700C0000007
:101D60000C94212E0F931F93CF93DF938C0161E08E
:101D70000E947E0EEC01B8010E94460E8823C1F13C
:101D8000B801CE010E942A2B882391F1B801CE011F
:101D90000E945826882361F1B801CE010E94942A3E
:101DA000882331F1F8018281882361F0CF3DFCE581
:101DB000DF07B1F170F4C115ECE5DE07B9F0C13011
:101DC000DC45E1F0C801DF91CF911F910F910C9498
:101DD000420ECC358DE5D80749F1CD35DC0719F138
:101DE000CB35DD4579F70E948D19ECCF0E94A30E0B
:101DF00080E0DF91CF911F910F910895909178022B
:101E0000892F8E7F90FF81608093780280FF05C0CC
:101E10008EEA91E00E94A00DEBCF8CE991E0FACF21
:101E20000E943E1AE5CF0E948419CCCF0E949019DF
:101E3000C9CF0C94A10E0E94602C0E944E0F0C94EE
:101E4000190F829590E09C01220F331F220F331F40
:101E50002C7C95958795959587958373282B30E0F5
:101E6000C901880F991F8A7A359527952575822B88
:101E70000895CF93DF93D92F0E94210FC82F8D2F64
:101E80000E94210F9C2FDF91CF91089508950C940B
:101E9000460F81E008950C94490F0895CF93C82F01
:101EA0000E94470F8C2FCF910C944B0FCF93DF9351
:101EB000CDB7DEB72B970FB6F894DEBF0FBECDBF00
:101EC0004F83588769877A878B8761110E94BF1873
:101ED0001E821D8285E0FE013796DE01119601907B
:101EE0000D928A95E1F78C819D81892B89F4498136
:101EF0005A816B817C818D819E810E94E0172B9697
:101F00000FB6F894DEBF0FBECDBFDF91CF9108951D
:101F100089819A8189238F3F51F3CE0101960E94D6
:101F2000870E8111E4CFEBCFFC01808191810C946D
:101F300006150F931F93CF93DF9300D000D000D0EE
:101F4000CDB7DEB7082F162F0E94AC2329834B8311
:101F50005C836D837E83002399F0312B4981532F5D
:101F60006B817C818D819E8126960FB6F894DEBFB1
:101F70000FBECDBFDF91CF911F910F910C94CD2358
:101F800010953123EBCFCF93C82F882309F44CC091
:101F90008CEF8C0F813AC8F48C2F0E94402A81115B
:101FA00043C06C2F80910201909103010E94042D87
:101FB000882329F08C2F0E9481180E94EF188C2F03
:101FC0000E947A18CF910C94EF1880E28C0F883021
:101FD00048F4C77081E001C0880FCA95EAF70E94F3
:101FE000A218F0CFEBE5EC0FE33040F4F0E0E85B53
:101FF000FE4F808190E0CF910C94C62CE8E5EC0F69
:10200000E73150F4F0E0EE0FFF1FE65EFE4F8081F7
:102010009181CF910C94DC2CCD3E30F08C2F0E941E
:10202000FA1FCF910C94CD20CF910895882361F1B0
:102030009CEF980F913A20F40E9481180C94EF18AD
:1020400090E2980F983050F4877091E001C0990F9A
:102050008A95EAF7892F0E94A818F0CF9BE5980F80
:10206000933020F490E080E00C94C62C98E5980F13
:10207000973120F490E080E00C94DC2C8D3E20F031
:102080000E9454200C94CD2008951F93CF93DF938A
:10209000182FEB010E94C30F209731F4812FDF919D
:1020A000CF911F910C9416108FE99FE00197F1F7E3
:1020B00000C000002197F0CF70E060E0893311F498
:1020C00060E570E00C944510882321F00E94A2186E
:1020D0000C94EF180895882321F00E94A8180C94FE
:1020E000EF180895BF92CF92DF92EF92FF920F9375
:1020F0001F93CF93DF936C01D62FC72FFC01128162
:10210000F580F2949FE0F9220E949818E82E882327
:10211000B9F0E12E1123A1F08C2F807F803421F0C3
:1021200080E28D0F8830B0F08091BD0282FD12C038
:1021300082E00E9440190E94981891E0E82EE9265A
:10214000BC2EB2948FE0B822EB2DF0E0E75BF94CA7
:102150000C94F235E12CF4CF0C2F0F70C07F11F0EE
:102160000295007F112399F0002359F080E28D0F32
:10217000883010F0D11107C0802F0E94A2180E9451
:10218000EF188D2F41C0802F0E94B218F8CF8D2FED
:102190000E941610002309F43FC080E28D0F8830A2
:1021A00010F0D11104C0802F0E94A81803C0802F06
:1021B0000E94B8180E94EF182FC00C2F0F70C07F1C
:1021C000C03211F00295007FDD2381F0D13009F497
:1021D0006AC0112309F474C0FF2009F46AC0F60133
:1021E000858180FFCECF8F70858363C08091BD02D3
:1021F00082FF39C0112359F0002329F0802F0E945B
:10220000A2180E94EF1880E00E94C30F05C080E072
:102210000E9416100111C7CF2B2D2850330B2430EC
:10222000310520F40E94602C0E944E0FEE2009F42C
:102230009DC10E94941880FD99C1F60112820E94EE
:102240008E180E94D413C6010E94D7120E948E18C5
:10225000DF91CF911F910F91FF90EF90DF90CF9082
:10226000BF900C94F513112389F0F11006C00E9461
:10227000D218802B0E946410CFCFF1E0FF12F7CF6D
:102280000E94D218802B0E94D818C6CFF11006C029
:102290000E94E518802F0E946B10BECF21E0F2163D
:1022A00009F4BACFF5CF112331F035E03F1508F42A
:1022B000B3CF802FDFCF84E08F1508F4ADCFEACF06
:1022C000FF2041F3D93349F4FFEF27EE33E0F1501B
:1022D00020403040E1F700C000008D2F0E94161012
:1022E0009BCF8C2F86958695837069F0813009F09D
:1022F00093CF8D2F9C2F9370111102C090E080E03E
:102300000E94DC2C89CF8D2F9C2F9370111102C05D
:1023100090E080E00E94C62C7FCF8D2F112391F09A
:102320000E94FA1FED2FE15FFF0BE830F10568F422
:1023300061E070E001C0660FEA95EAF7812F0E9424
:10234000990F6ACF0E945420EDCF0E94CD2064CF18
:102350008C2F837009F041C011115ECF4D2F429533
:1023600046954770440F440F0D2F0F7010E030E07A
:1023700020E0042E04C0000F111F221F331F0A94F7
:10238000D2F760E070E0CB01D4FF0FC06FE070E0E7
:1023900080E090E004C0660F771F881F991F4A9560
:1023A000D2F76095709580959095C695C695C37047
:1023B000602B712B822B932BC23049F058F4C13023
:1023C00019F00E94861328CF0E94741325CF0E9413
:1023D000981322CF0E9472131FCF8695112311F0FC
:1023E0008C2F8170882309F417CF4D2F4295469585
:1023F0004770440F440F0D2F0F7010E030E020E0C5
:10240000042E04C0000F111F221F331F0A94D2F79D
:1024100060E070E0CB01D4FF0FC06FE070E080E0BF
:1024200090E004C0660F771F881F991F4A95D2F766
:102430006095709580959095C695C695C370602BF4
:10244000712B822B932BC23049F058F4C13019F014
:102450000E944B14E1CE0E943914DECE0E945D141E
:10246000DBCE0E94AE13D8CECF70112329F08C2F73
:102470000E94D4138D2FFECE8D2F0E946B108C2FB7
:102480000E94F513C9CED23F51F160F4D03FB9F0AC
:10249000D13F81F0112309F449C0F11072CE8C2F85
:1024A0008F7121C0D33F11F1D43FA1F78091BD02BC
:1024B00082FF26C08C2F8F71112311F314C01123BA
:1024C00049F0F4E0FF1508F4A7CE8C2F8F710E941D
:1024D0001814A2CE25E02F1508F49ECEF6CF8C2F2F
:1024E0008F711111CDCF0E94D41396CE112329F0F4
:1024F0008C2F8F710E94BF138FCE0E94BA138CCE87
:10250000112349F0CF718C2F0E94D41363E08C2FDC
:102510000E94251981CE81E00E94401931E03F15CB
:1025200008F07ACE82E00E94401976CEFF2059F062
:10253000D93309F0D2CE8FEF97EEE3E0815090408F
:10254000E040E1F7C8CE8C2F8F719ACF4C2F4F709F
:102550006D2FC6010E945E1B0E9434155DCE4C2F6C
:102560004F706D2FC6010E94611B56CEDF91CF9137
:102570001F910F91FF90EF90DF90CF90BF90089543
:102580000F931F93CF93DF93EC01688179818A8148
:102590000E9410158C010E946F140E947113B801E3
:1025A000CE01DF91CF911F910F910C947210CF93B8
:1025B000DF93EC018B819C81892B29F088819981A3
:1025C00089238F3F59F4DF91CF910895CE010E9466
:1025D000C012CE01DF91CF910C94890ECE010E94E2
:1025E000B20E8111F3CF0E949818882361F38A817B
:1025F000882349F38091BD0282FDE5CF82E0DF911F
:10260000CF910C94401990E080E00E94C62C90E09D
:1026100080E00E94DC2C0E94BF180E94CF180E940C
:10262000EF180E9476220C94CD200E9488180C94FA
:1026300003130E94AF180C941513E92FE295EF7065
:10264000E250EE3070F4F0E0E75AF94C0C94F235B9
:10265000803F19F020F4883E20F481E00895843F03
:10266000E1F380E00895883EC0F3813FD1F7F5CFD4
:1026700093FB882780F90895FC01808191810E9455
:1026800006150C941D13CF93DF9300D000D00F924A
:10269000CDB7DEB70F900F900F900F900F90DF9196
:1026A000CF910895CF93DF9300D000D000D0CDB765
:1026B000DEB726960FB6F894DEBF0FBECDBFDF9112
:1026C000CF91089508950C9462130E946313609350
:1026D0001E0270931F0280932002909321020C949B
:1026E000031308950C9465130F931F9300911E021A
:1026F00010911F022091200230912102602B712B3A
:10270000822B932B1F910F910C9465130F931F93A2
:1027100000911E0210911F0220912002309121028F
:1027200060237123822393231F910F910C946513CF
:102730000F931F9300911E0210911F0220912002FF
:102740003091210260277127822793271F910F91D3
:102750000C9465130C9462130C94AA130E94AC138E
:1027600060931A0270931B0280931C0290931D02C7
:102770000C94031360E070E0CB010C94AE130F9344
:102780001F9341E050E060E070E08A019B0104C0CB
:10279000000F111F221F331F8A95D2F7C901B801FC
:1027A0001F910F910C94AE130F931F9341E050E0D3
:1027B00060E070E004C0440F551F661F771F8A95C4
:1027C000D2F780911A0290911B02A0911C02B09145
:1027D0001D028A019B01082B192B2A2B3B2BC901B7
:1027E000B8011F910F910C94AE130F931F9341E00A
:1027F00050E060E070E004C0440F551F661F771F73
:102800008A95D2F7CB01BA01609570958095909525
:1028100000911A0210911B0220911C0230911D029E
:1028200060237123822393231F910F910C94AE1385
:102830000F931F9341E050E060E070E004C0440F4C
:10284000551F661F771F8A95D2F780911A029091C3
:102850001B02A0911C02B0911D028A019B01082756
:1028600019272A273B27C901B8011F910F910C9402
:10287000AE130F931F9300911A0210911B02209127
:102880001C0230911D02602B712B822B932B1F9108
:102890000F910C94AE130F931F9300911A02109195
:1028A0001B0220911C0230911D02602371238223A0
:1028B00093231F910F910C94AE130F931F930091CC
:1028C0001A0210911B0220911C0230911D026027F8
:1028D0007127822793271F910F910C94AE130895AF
:1028E0002AE0929F800D1124982F977041E001C03B
:1028F000440F9A95EAF786958695869595E0899F87
:10290000F0011124EF5FFD4F90E080E070E0519105
:10291000DF0111979B01082E02C0369527950A9476
:10292000E2F7217021952527242325272C93019652
:102930008530910561F708952AE0929F800D11245A
:10294000982F977086958695869525E0829FF00151
:102950001124EF5FFD4F50E040E080E0219130E036
:10296000092E02C0369527950A94E2F72170332785
:10297000042E01C0220F0A94EAF7822B4F5F5F4FAB
:102980004530510559F70895BF92CF92DF92EF92EB
:10299000FF920F931F93CF93DF938C01C0901A0285
:1029A000D0901B02E0901C02F0901D0280911E024C
:1029B00090911F02A0912002B0912102C82AD92A29
:1029C000EA2AFB2ACFE1D0E0BC2ED701C6010C2EAB
:1029D00004C0B695A795979587950A94D2F780FD80
:1029E0000EC0219788F7B12C8B2DDF91CF911F91CD
:1029F0000F91FF90EF90DF90CF90BF900895B801B6
:102A00008C2F0E94911C019761F3EECFCF93DF933F
:102A1000EC010E94C414BE01DF91CF910C94911C73
:102A20001F93CF93DF93EB0190910002992331F034
:102A3000CB01DF91CF911F910C940615882379F07B
:102A4000CB010E94C414182F682FCE010E9470146D
:102A5000BE01812FDF91CF911F910C94911CCB016E
:102A60000E949C14182FF4CFEF92FF920F931F93A4
:102A7000CF93DF938C01892B81F0F12CEE24E3942A
:102A8000E8012196F8018491843770F4843008F0CD
:102A90005FC08130B1F08230A1F1DF91CF911F9101
:102AA0000F91FF90EF900895853709F44CC008F41A
:102AB0003DC09CE7980F903780F78F770E941610E3
:102AC00049C00E5F1F4FFE01849190E2980F98302D
:102AD00060F48770FE2D01C0FF0F8A95EAF78F2FF3
:102AE0000E94C2180E94EF1802C00E94C30F8F2DCF
:102AF000815030F2EFE9FFE03197F1F700C00000BC
:102B0000F7CF0E5F1F4FFE01849190E2980F98302F
:102B100050F48770FE2D01C0FF0F8A95EAF78F2FC2
:102B20000E94C818DFCF0E941610E1CF0E5F1F4F22
:102B3000FE01C491C150D8F28FE99FE00197F1F7EF
:102B400000C00000F7CF0E5F1F4FFE01F490CFCF03
:102B50000E94C30F8E01CBCF1F93CF93DF93C09101
:102B6000220216E0809123028C1304C0DF91CF91E2
:102B70001F910895D0E01C9FF0011D9FF00D1124BE
:102B8000EC5DFD4F4081518162817381848195812B
:102B90000E9452132196C770E5CF40915402509184
:102BA000550260915602709157028091580290919F
:102BB00059020C945213FF920F931F93CF93DF93FC
:102BC00080915902807FD1F4809156028823B1F020
:102BD000809122021091230260915402709155025B
:102BE000A0915702B0915802062F0723C09100010F
:102BF000D091010196E0F92E181306C0DF91CF9114
:102C00001F910F91FF90089590E0109711F00F3FE2
:102C100019F401968770F0CFF89E9001F99E300D5F
:102C20001124F901EC5DFD4F41814713F2CF408142
:102C30004613EFCF42814111ECCF438154814A1BAF
:102C40005B0B4C175D0728F7809159028F708061EC
:102C500080935902F901E75DFD4F80818F7080619B
:102C6000808384E592E00E94D712DF91CF911F917B
:102C70000F91FF900C94AC15AF92BF92CF92DF9260
:102C8000EF92FF920F931F93CF93DF93CDB7DEB7F1
:102C900061970FB6F894DEBF0FBECDBF8C0185E003
:102CA000F801DE011D9601900D928A95E1F7F80179
:102CB000E28084E5C82E82E0D82E609157027091A0
:102CC00058026115710509F45FC190915402209179
:102CD0005502892F82238F3F09F456C140815181CB
:102CE000A380B480F0905602F501E61BF70BBF01FC
:102CF000E0910001F0910101FF2009F4F6C08091FC
:102D00005902382F307F6E177F0708F0AFC031119E
:102D100079C0FE2C251323C0941321C0E1101FC0DD
:102D20008F708061809359020E94CD15C6010E9468
:102D3000D71280915902F80185838F2D61960FB6C5
:102D4000F894DEBF0FBECDBFDF91CF911F910F91E1
:102D5000FF90EF90DF90CF90BF90AF900895AB2899
:102D600029F0842F85238F3F09F027C180E0F82FB9
:102D7000F170DF2E80FF3CC080912202209123025F
:102D800036E0821315C04D875E878D859E850E9433
:102D90000615292F22952F702230F0F0243018F5D7
:102DA0009F70F1F0F8019581907FD1F4D12C1EC075
:102DB00090E0389FF001399FF00D1124EC5DFD4F3C
:102DC0006181651306C06081641303C062816E1166
:102DD0000FC001968770D5CF9F7011F0882331F313
:102DE000805E883018F3C8010E94D712FD2CA5CF51
:102DF000EE2009F4A2CF809159028160809359029C
:102E0000F12C9BCF251306C0941304C0F801EE20CB
:102E100009F487C0C8010E943C13882319F1EE20F1
:102E200009F180915902803270F020915402309162
:102E3000550238872F831986BB86AA868C87CE01D8
:102E400007960E94D71286E0F801A4E5B2E001904F
:102E50000D928A95E1F70E94DB150E94CD15FF24A3
:102E6000F3946BCFC8010E94D712F9CF311113C070
:102E70007A2DB98AA88A6E2D89890E94431384E528
:102E800092E00E94D71286E0F60111928A95E9F746
:102E90000E94CD15B5CF25130FC094130DC0E110BE
:102EA0000BC0F8018583C8010E94D71286E0F601A5
:102EB00011928A95E9F741CFC8010E943C138823FB
:102EC00089F2EE2079F280915902803208F4BBCF6A
:102ED00020915402309155023A8329831B82BD828E
:102EE000AC828E83CE010196ACCF6E177F0708F0BF
:102EF0003EC0FE2CEE2009F4B5CF25132AC0941352
:102F000028C08091590280FD1BC0982F907FC1F08E
:102F1000F8018583903F31F0982F907F905F8F70FC
:102F2000892B8583C8010E94D71286E0F801A4E5A9
:102F3000B2E001900D928A95E1F70E94CD15FDCE89
:102F400086E0F801A4E5B2E001900D928A95E1F7E0
:102F5000F4CEC8010E943C13811175CF80915902B3
:102F6000816080935902C8010E94D712E6CE7A2D63
:102F7000B98AA88A6E2D89890E94431386E0F601DA
:102F800011928A95E9F7D9CFEE2009F46BCFC801E9
:102F90000E943C13F82E882309F464CF86E0F801E0
:102FA000A4E5B2E001900D928A95E1F784E592E004
:102FB0000E94940F0E94DB15C0CF81E08E25D7CEF2
:102FC0001F93CF93DF93CDB7DEB72C970FB6F8944E
:102FD000DEBF0FBECDBF4F83588769877A878B8747
:102FE0009C87CE0107960E943C16882369F08A854B
:102FF0009B85892B39F04F815885842F85238F3FFE
:1030000009F071C016E05FC086E0FE013796DE0170
:10301000119601900D928A95E1F78A859B85892BFF
:1030200089F38F81988589238F3F61F32091230253
:1030300030E0C90101968770992740912202481714
:10304000190671F40E9419131092230210922202A1
:1030500086E0E4E5F2E0DF011D928A95E9F7D2CF40
:1030600096E0929FD001939FB00D1124AC5DBD4FAF
:10307000FE01319601900D929A95E1F7809323021B
:103080000E94AC15BFCF819FC00111248C5D9D4F64
:103090000E943C168823E9F0E09122021E9FF00175
:1030A0001124EC5DFD4F40815181628173818481E7
:1030B00095810E9452138091220290E001968770C0
:1030C00099278093220280912202909123028913F2
:1030D000DACF2C960FB6F894DEBF0FBECDBFDF91CE
:1030E000CF911F91089569857A858B859C850E9473
:1030F000521388CF682F80910201909103010C94A4
:103100003A2D682F80910201909103010C943C2D7F
:1031100080910201909103010C943E2D80915A02FE
:10312000859585958595089580915A0287700895B3
:1031300090915A02977081E009F480E0089580919F
:103140006602089590916602892B80936602089525
:10315000809590916602982390936602089510924C
:103160006602089590916502892B80936502089507
:10317000809590916502982390936502089510922E
:103180006502089590916402892B809364020895EA
:103190008095909164029823909364020895109210
:1031A0006402089580915B02089508950C94D518E7
:1031B0009091BD0292FD08C090915B02981721F09A
:1031C00080935B020C94D618089580915B0288234B
:1031D00029F010925B0280E00C94D6180895E091DB
:1031E0000201F0910301809166028083E091020167
:1031F000F0910301808190916502892B8083E09199
:103200000201F0910301808190916402892B8083F7
:1032100090915B02992381F0E0910201F09103010A
:103220008081892B808380910201909103010E940B
:10323000F22C81110E94E518809102019091030106
:103240000C946C2C08950C9422199091BD0292FD5F
:1032500010C098E0899F90011124622B60935A025C
:103260000E94D41380915A028595859585950C947A
:1032700023190C94D41310925A0280E00C94231951
:1032800090915A028095892380935A02282F2770A3
:1032900091F4282F082E000C330B9217130659F0C7
:1032A0009091BD0292FD07C08595859585950E94F8
:1032B000F5130C943B190895CF93C82F8091BD024C
:1032C00082FB992790F99C17E9F0C0FB82F9809363
:1032D000BD028091BC029091BD020E94BA1982E0A9
:1032E0000E9440198091780280FF0CC01F92CF93FA
:1032F0008FEB91E09F938F930E94390E0F900F9068
:103300000F900F90CF9108958091BD0282FB882786
:1033100080F991E089270C945C1981E00C945C1988
:1033200080E00C945C196FEF7FEF90E080E00C94EC
:10333000313690E080E00E940D3621E0893E9E4FBC
:1033400009F020E0822F089582E090E00C94053689
:1033500083E090E00C940536CF9384E090E00E94E7
:103360000536C82F82E290E00E940536982F8C2FF8
:10337000CF910895CF93C92F682F84E090E00E94E9
:1033800013366C2F82E290E0CF910C941336AB0190
:10339000BC018FE090E00C942536AB01BC0183E1C9
:1033A00090E00C94253660E070E0CB010C94CD19D0
:1033B00060E070E0CB010E94C7190C94D31969EE4C
:1033C0007EEF90E080E00E94313660E082E090E0A5
:1033D0000E94133660E083E090E00E941336109262
:1033E0001E0210921F02109220021092210260E031
:1033F00084E090E00E94133660E082E290E00E9458
:10340000133660E085E090E00E94133660E086E0CD
:1034100090E00E9413366FEF87E090E00E94133631
:1034200040E050E0BA0188E090E00E94253660E07C
:103430008DE090E00E94133640E050E0BA0188E150
:1034400090E00E94253660E087E190E00E9413360C
:1034500040E050E0BA018CE190E00E94253670E037
:1034600060E080E290E00E94313640E050E0BA0136
:1034700088E190E00E9425360C94D8190C94DF194D
:10348000682F8EE090E00C9413360E94E22D60933A
:103490007402709375028093760290937702609322
:1034A0007002709371028093720290937302089578
:1034B00085B7806885BF85B7806885BF0895089502
:1034C00008950C945F1A08950C94631A0E94581A78
:1034D00085E190E30E94562C0E94601A0C94611AB8
:1034E00081E008950C94701A089508950E94741A4A
:1034F0000C94751A0E94CD2D0E94BA1E0E941A23A8
:103500000C94641ACF93C82F8091780282FF1EC05A
:1035100080FF1CC08BED91E00E94A00D809178028D
:1035200080FF14C01F92CF9386ED91E09F938F93FD
:103530000E94390E809178020F900F900F900F909B
:1035400080FF04C084ED91E00E94A00D8C2FCF91EC
:103550000C944E0F8F929F92AF92BF92CF92DF92B8
:10356000EF92FF920F931F93CF93DF93CDB7DEB708
:103570002A970FB6F894DEBF0FBECDBF0E94CF1EB4
:1035800081110E94451A58E6852E52E0952E10E0D2
:1035900000E0A02E802F0E94B41D6C01F401E19088
:1035A000F1904F01E816F90609F45EC080917802A7
:1035B00081FD0E94BD1DC7018C259D25B12CEE24E7
:1035C000E394F12C9C012E213F21232B09F446C0CA
:1035D0000E94721A8823A9F0BE82AF82CE20DF201B
:1035E00081E0CD2809F480E088870E94D62D816093
:1035F000782F9A8789874E815F8168858A850E94A6
:10360000560F000F111FF801E859FD4F808191817D
:10361000E826F926F182E0820E946A210E945D2359
:103620000E94602C909167028917A9F10E94602C7A
:10363000809367022A960FB6F894DEBF0FBECDBF07
:10364000DF91CF911F910F91FF90EF90DF90CF907E
:10365000BF90AF909F908F900C94821AB394EE0C11
:10366000FF1CFAE0BF12AECF0F5F1F4F04301105F1
:1036700009F08FCF8FEF89838A831B820E94D62D1A
:103680008160782F9D838C8349815A816B818D81E4
:103690000E94560FC1CF2A960FB6F894DEBF0FBE18
:1036A000CDBFDF91CF911F910F91FF90EF90DF90F1
:1036B000CF90BF90AF909F908F90089590E080E062
:1036C00008950895972F70E02AE0929F600D711D74
:1036D0001124FB0198E2899FE00DF11D1124EE0FEA
:1036E000FF1FE455FF4F859194910895FC01EE0F63
:1036F000FF1FE251FE4F859194910895CF93DF9380
:103700000E94951CEC01811520E5920708F042C04B
:10371000811530E4930708F0BDC0883E910528F577
:10372000803E910508F09DC0883A910588F4853A5D
:10373000910508F08FC08130910509F492C000977F
:1037400009F48FC0049708F08CC0D0E0C0E089C0B5
:103750008F3B910508F489C0805C9109C03CD1057C
:10376000A0F30E94761BEC017CC08115904250F4BE
:10377000C11581E0D80708F074C0CD3ED10528F30B
:10378000D0656FC0C11590E3D90708F079C0CE01AC
:103790009F70E7CF811525E5920758F5811534E52F
:1037A000930708F0A6C0811542E5940750F4C115AF
:1037B00081E5D80708F471C0DC2FCC27C16FD06A2F
:1037C00050C0982F969596959E0123703327C1156A
:1037D000D34508F07FC0C1E0D0E002C0CC0FDD1FB0
:1037E0002A95E2F720E2929FC0011124C82BD92B21
:1037F0006FC0C11589E5D807A8F4C11598E5D907A8
:1038000008F07CC0C11526E5D20708F09ECF8C2FAA
:103810000E942C1DC82FD0E0DC2FCC27CC27DF71D5
:10382000D0621FC0C1153AE5D30708F46CC0CE01C1
:1038300090568115904208F088CF8D2F8F710E948D
:103840002C1D90E0982F882788279F719C012C2B96
:10385000E901E6CFC55AD0E0C758DE4FC881D0E0B5
:10386000D064CE01DF91CF910895C85AD0E0CC0F3B
:10387000DD1FC55BDE4F0990D881C02DD464F1CF28
:10388000CE019927D3FF03C0EC01D86CEACFEC013D
:10389000D06CE7CFDF70D06AE4CFCE01E4E096953C
:1038A0008795EA95E1F783702C2F2695269523704E
:1038B00090E2299F90011124382B8C2F8370C1E056
:1038C000D0E002C0CC0FDD1F8A95E2F7C22BD32BCC
:1038D000DC68C7CFC1E0D0E002C0CC0FDD1F2A9565
:1038E000E2F730E2939FC0011124C82BD92BDA688C
:1038F000B8CFD82FCC27C46FD06AB3CFDC2FCC275A
:10390000C06FD06AAECF8C2F8F700E942C1D34E018
:10391000D695C7953A95E1F7CF709C2FEC01D06909
:10392000A0CF0E94621B0C947E1B82389105B1F1DE
:10393000B0F48133910509F475C048F489329105DA
:1039400009F469C08A32910509F473C0089585337A
:10395000910509F459C08933910501F10895833E19
:103960009105A9F138F4803E9105F9F0823E910568
:1039700049F10895863E9105A9F1873E9105C9F167
:10398000843E910519F52091BD0221FF1FC0809151
:10399000BC0284FD14C087EE90E008952091BC0223
:1039A0002370A1F080EE90E008952091BC0220FDEC
:1039B00047C03091BD0230FF09C024FF44C090E0F1
:1039C00080E004C02091BC0222FDF7CF0895209131
:1039D000BC0222FD3BC03091BD0230FDE3CF24FF8D
:1039E000F5CFEDCF2091BC0223FFF0CF24FDE7CF30
:1039F000D2CF2091BC0223FD2CC03091BD0231FFFB
:103A0000EECF84EE90E008952091BC0225FFDECF3A
:103A100089E290E008952091BC0225FFD7CF85E38D
:103A200090E008952091BC0226FFD0CF8AE290E07A
:103A300008952091BC0226FFC9CF81E390E008954C
:103A400089E390E0089583EE90E0089582EE90E09F
:103A5000089586EE90E008959091BC0292FF06C012
:103A6000282F28712830F9F4877F846093FF06C0DF
:103A7000282F28712831F1F4877E84612091BD02BE
:103A800020FF06C0382F38713830D9F4877F816025
:103A900021FF06C0282F28712831D1F4877E81614B
:103AA00094FD877E0895282F24712430F9F68B7FAA
:103AB0008860DCCF282F2471243101F78B7E886148
:103AC000DDCF382F3171313019F78E7F8860E0CF2C
:103AD000282F2171213121F78E7E8861E1CF0C944E
:103AE00093190E94CF1E2FEF86E791E0215080406E
:103AF0009040E1F700C000000E94CF1E80E00E94CD
:103B0000B41D80FF04C00E946F1D0C94212E0895E7
:103B10000C94711D0E949919811102C00E943E1AD5
:103B20000E94A419809378020E94AC199093BD0260
:103B30008093BC020E94881D0E94A819682F70E023
:103B400090E080E00E94721360911A0270911B0253
:103B500080911C0290911D020C94AC1308950C945A
:103B6000AE1D08950C94B11DE82FF0E0EE0FFF1F7D
:103B7000EA53FD4F808191810895CF92DF92EF92B9
:103B8000FF920F931F93CF93DF938EEF91E00E94EC
:103B9000A00D86ECE82E82E0F82ED0E0C0E099EF90
:103BA000C92E91E0D92E00EF11E0DF93CF93DF9281
:103BB000CF920E94390E86EF91E00E94A00DF7018E
:103BC000819191917F010E94390F9F938F931F9351
:103BD0000F930E94390E8EEE91E00E94A00D219667
:103BE0008DB79EB708960FB6F8949EBF0FBE8DBFD7
:103BF000C430D105D1F6DF91CF911F910F91FF9085
:103C0000EF90DF90CF90089580EA8A95F1F70895BC
:103C100000C008950C94041EF894E82FE295EF700C
:103C2000F0E031A1282F2F7081E090E001C0880FD3
:103C30002A95EAF7982F9095932391A392A1892B27
:103C400082A378940895CF93DF93CCE7D1E0899154
:103C50008F3F11F00E940C1E81E0C638D807B9F7DB
:103C600081E90E940C1E80E90E940C1E84E90E94DA
:103C70000C1E86E6DF91CF910C940C1EAF92BF9282
:103C8000CF92DF92EF92FF920F931F93CF93DF9328
:103C9000D82EE92EF62E8A01C62FD0E0CE01845808
:103CA0009E4F5C01EC0128812F3F09F458C0F89425
:103CB000E22FE295EF70F0E031A12F7081E090E00B
:103CC00001C0880F2A95EAF7932F982B91A392A110
:103CD0008095892382A378940E94081EA6E8B1E00B
:103CE000ED2DFE2D6AE871E0E12C6801C094D094BE
:103CF0004D91808191814F3F69F1242F22952F7042
:103D000030E0E90128A130E04F7002C035952795D9
:103D10004A95E2F720FD1EC0802B912B9183808372
:103D2000EE24E39432966A177B0711F7F501808140
:103D30008F3F11F00E940C1E6E2D8F2DDF91CF91C1
:103D40001F910F91FF90EF90DF90CF90BF90AF90B9
:103D50000C940A1E8C219D2191838083E3CFDF91F7
:103D6000CF911F910F91FF90EF90DF90CF90BF9078
:103D7000AF9008950E94231E88E0E6ECF2E0DF0198
:103D8000982F1D929A95E9F7EEEBF2E0DF011D9274
:103D90008A95E9F784E00E94241F0C94940ECF9238
:103DA000DF92FF920F931F93CF93DF93CDB7DEB7D0
:103DB00028970FB6F894DEBF0FBECDBF8E010F5F00
:103DC0001F4F88E0F80111928A95E9F7F12CCC2475
:103DD000C394D12CA6016F2DC8010E943E1EF394FE
:103DE000CC0CDD1CFAE0FF12F5CF48E050E0B80142
:103DF0008EEB92E00E94F835FF24F394009709F4CB
:103E0000F12C892B41F088E0F801AEEBB2E0019093
:103E10000D928A95E1F72F2D44E066EC72E08EEB6F
:103E200092E00E94251F0E949A0E8F2D28960FB6B1
:103E3000F894DEBF0FBECDBFDF91CF911F910F91E0
:103E4000FF90DF90CF9008950895FF920F931F93F6
:103E5000CF93DF93F82E092F162FD72FC42F2223AD
:103E600049F081E080937B020E94D62D90937A02E4
:103E70008093790280917B028823A1F0809179025E
:103E800090917A020E94EE2D059760F0EF2DF02FB1
:103E9000A12FBD2F90E080E0D0E08C179D0744F06B
:103EA00010927B02DF91CF911F910F91FF900895A7
:103EB000219131912D933D930196EFCF0E94903047
:103EC0000E947A1A0C949C300E94A0300E94AA1A78
:103ED0000C94BE300E945F2D0E9477300E94661ABB
:103EE0000E945E1F0E94641F0E94761AFBCF809181
:103EF000820280FF12C06091090185E0689FB001D5
:103F00001124759567957595679560387105A8F5C5
:103F100061157105A1F1862F089581FF09C0609197
:103F2000090185E0689FB001112475956795EDCF73
:103F30006091090182FD0AC0809181028823D1F03D
:103F40009091080160910901891728F085E0689F28
:103F5000B0011124DACF869FB001112485E0869F3D
:103F60009001879F300D1124692F70E0C9010E94D4
:103F7000DE35CBCF65E070E0CECF8FE7089581E0EE
:103F800008958091820280FF0CC06091050170E06D
:103F900075956795759567956115710549F1862F3A
:103FA000089581FF06C06091050170E075956795E1
:103FB000F3CF6091050182FD0BC09091800299239F
:103FC000A1F06091040180910501961738F0682FE7
:103FD00070E06038710500F38FE70895899FC00194
:103FE000112470E00E94DE35F4CF61E070E0D7CF9D
:103FF00081E008958D3E31F40E94771F8195809372
:10400000860208958E3E19F40E94771FF8CF8F3EE6
:1040100031F40E94771F8195809385020895803F37
:1040200019F40E94771FF8CF893F29F40E94C11F1D
:104030008093870208958A3F21F40E94C11F8195D1
:10404000F7CF8B3F31F40E94C11F81958093880286
:1040500008958C3F19F40E94C11FF8CF9FE0980F7C
:10406000983070F4815F990B21E030E001C0220F9D
:104070008A95EAF780918402822B809384020895C6
:104080008D3F31F480918202816080938202089595
:104090008E3F21F4809182028260F7CF8F3FB9F783
:1040A000809182028460F1CF409185028D3E59F467
:1040B0008091860287FF0DC01092860241110BC0CD
:1040C0001092810208C08E3E81F4809186021816FB
:1040D0009CF3442381F08091870290918802892B80
:1040E00009F05AC01092800208958F3E49F447FFAC
:1040F000F0CF10928502809186028111ECCFE0CF43
:10410000803F19F41416ACF3E4CF90918702893FF5
:1041100029F41916F4F610928702DBCF8A3F19F4BE
:1041200097FFD7CFF8CF909188028B3F29F497FF64
:10413000D0CF10928802CDCF8C3F19F41916CCF352
:10414000C8CF9FE0980F983090F4815F990B21E0E1
:1041500030E0B90102C0660F771F8A95E2F7CB0104
:10416000809590918402892380938402B2CF8D3F01
:1041700031F4809182028E7F80938202AACF8E3F9B
:1041800021F4809182028D7FF7CF8F3F09F0A1CF7C
:10419000809182028B7FF0CF08958091780283FF17
:1041A0007EC08CE392E00E94A00D809184021F9259
:1041B0008F9387E392E09F938F930E94390E85E35C
:1041C00092E00E94A00D80918502282F082E000CFD
:1041D000330B3F938F9382E392E09F938F930E94E0
:1041E000390E80E392E00E94A00D80918602282F74
:1041F000082E000C330B3F938F938DE292E09F9338
:104200008F930E94390E8BE292E00E94A00D809164
:104210008702282F082E000C330B3F938F9388E2E0
:1042200092E09F938F930E94390E86E292E00E9463
:10423000A00D80918802282F082E000C330B3F938D
:104240008F9383E292E09F938F930E94390E80E2D6
:1042500092E00E94A00D809181021F928F938DE1C8
:1042600092E09F938F930E94390E8BE192E00E941F
:10427000A00D809182021F928F9388E192E09F931C
:104280008F930E94390E85E192E00E94A00D8DB7B8
:104290009EB74C960FB6F8949EBF0FBE8DBF0E947E
:1042A000D62D9C019091850280918602982B21F059
:1042B00030937F0220937E02909187028091880242
:1042C000982B21F030937D0220937C0283E892E0CA
:1042D0000C94B82CEF92FF920F931F93CF93DF9320
:1042E00000D000D000D0CDB7DEB786E0E3E8F2E042
:1042F000DE01119601900D928A95E1F7E09085021A
:10430000F090860200918702109188021092850237
:104310001092860210928702109288028E2D8F29A9
:1043200091F080917E0290917F020E94EE2DAC016F
:1043300090918102992309F43FC080910A0184176A
:10434000150608F447C0802F812B91F080917C02E4
:1043500090917D020E94EE2DAC01909180029923F4
:1043600009F477C0809106018417150608F47FC010
:104370008091850290918602892B90918702892BEA
:1043800090918802892B11F00E94CD2086E0FE01D9
:104390003196A3E8B2E001900D928A95E1F7269656
:1043A0000FB6F894DEBF0FBECDBFDF91CF911F9146
:1043B0000F91FF90EF90089520910B018AE0289FC4
:1043C000900111242417350708F0BDCF9F5F90930B
:1043D000810202C09F3FD1F7EE2059F00E94771F63
:1043E0009FEF1E140CF491E0899F802D112480937F
:1043F0008502FF2059F00E94771F9FEF1F140CF4D5
:1044000091E0899F802D112480938602309185024E
:10441000332309F498CF20918602222309F493CF05
:1044200045EB3403C0011124992359F09093850280
:1044300045EB240390011124332339F03093860295
:1044400082CF81E080938502F3CF81E08093860262
:104450007ACF209107018AE0289F90011124241728
:10446000350708F085CF9F5F9093800202C09F3F81
:10447000D1F7002359F00E94C11F9FEF10160CF4D2
:1044800091E0899F802D112480938702112359F098
:104490000E94C11F9FEF11160CF491E0899F802D9F
:1044A00011248093880230918702332309F460CF6E
:1044B00020918802222309F45BCF45EB3403C0012D
:1044C0001124992359F09093870245EB240390011E
:1044D0001124332339F0309388024ACF81E080934E
:1044E0008702F3CF81E08093880242CF86E0E3E841
:1044F000F2E0DF011D928A95E9F710928102109295
:104500008002109282020895CF93DF9300D000D0F2
:1045100000D0CDB7DEB786E0E3E8F2E0DE01119629
:1045200001900D928A95E1F729813A814B815C8156
:104530006D817E8180E090E026960FB6F894DEBF14
:104540000FBECDBFDF91CF910895EF92FF920F93F1
:104550001F93CF93DF93CDB7DEB72C970FB6F894A8
:10456000DEBF0FBECDBF49835A836B837C838D83AF
:104570009E83EF82F88609871A872B873C8746E05F
:1045800050E0BE01695F7F4FCE0101960E94F83571
:1045900021E0892B09F420E0822F2C960FB6F894A5
:1045A000DEBF0FBECDBFDF91CF911F910F91FF9066
:1045B000EF90089508950895CF93DF93CDB7DEB7B8
:1045C0002C970FB6F894DEBF0FBECDBF4F83588730
:1045D00069877A878B879C8786E0FE013796DE01A4
:1045E000119601900D928A95E1F729813A814B81CC
:1045F0005C816D817E8180E090E02C960FB6F8940E
:10460000DEBF0FBECDBFDF91CF910895CF93DF9373
:10461000CDB7DEB72C970FB6F894DEBF0FBECDBF77
:104620002C960FB6F894DEBF0FBECDBFDF91CF91B1
:104630000C94DC22E0918A01F0918B0109950E9493
:10464000DA220C94DB22EF92FF920F931F93E090FB
:104650008902F0908A0200918B0210918C022091C5
:104660008D0230918E0240918F02509190026091A4
:1046700091027091920280919302909194020E9413
:10468000A522882321F08FE892E00E94B82C109296
:10469000910210929202109293021092940286E07C
:1046A000EFE8F2E0A9E8B2E001900D928A95E1F717
:1046B0001F910F91FF90EF9008950F931F93CF9349
:1046C000DF9300D000D000D0CDB7DEB7E0918C01F1
:1046D000F0918D0140918F02509190026091910272
:1046E0007091920280919302909194020995E52F26
:1046F000CB0120938F0230939002E093920260935B
:104700009302909394020FE812E0642F6195D80110
:1047100012966C93A9017E2F0E94062320938F028C
:1047200030939002409391025093920260939302CF
:10473000709394020E948422F8018181832B8183EB
:1047400026960FB6F894DEBF0FBECDBFDF91CF9196
:104750001F910F910C942323CF93DF9300D000D0AF
:1047600000D0CDB7DEB786E0EFE8F2E0DE011196CB
:1047700001900D928A95E1F729813A814B815C8104
:104780006D817E8180E090E026960FB6F894DEBFC2
:104790000FBECDBFDF91CF910895CF93DF9300D0AF
:1047A00000D000D0CDB7DEB749835A836B837C83BA
:1047B0008D839E8386E0FE013196AFE8B2E00190E2
:1047C0000D928A95E1F726960FB6F894DEBF0FBEDC
:1047D000CDBFDF91CF910895EF92FF920F931F937A
:1047E000CF93DF93CDB7DEB765970FB6F894DEBFF2
:1047F0000FBECDBF488B598B8C8B9D8BF62E172F00
:10480000CE0101960E94CC258B818823B1F18A814B
:10481000882399F1EC80FD800F81188580919502A5
:1048200090919602892B99F4809178028970893051
:1048300041F48FE592E09F938F930E94390E0F9081
:104840000F900E94D62D909396028093950281E856
:10485000E8168FEFF8068CF1B7016038710514F097
:104860006FE770E0F62E01388FEF18074CF1003833
:10487000110514F00FE710E0102FFA8A1B8B86E069
:10488000FE017096DE011A9601900D928A95E1F76D
:104890002A853B854C855D856E857F8580E090E02F
:1048A00065960FB6F894DEBF0FBECDBFDF91CF91F6
:1048B0001F910F91FF90EF90089581E8F82ED3CFCC
:1048C00011E8DBCF0C9468259091780290FF36C0F8
:1048D00070E380FD71E360E381FD61E350E382FDFD
:1048E00051E340E383FD41E330E384FD31E320E322
:1048F00085FD21E390E386FD91E387FD20C080E301
:104900001F927F931F926F931F925F931F924F93FB
:104910001F923F931F922F931F929F931F928F93EB
:104920008CE792E09F938F930E94390E8DB79EB7CC
:1049300042960FB6F8949EBF0FBE8DBF089581E3D7
:10494000DFCF28E030E043E060E087EF0E94842B77
:1049500095E09A95F1F70000089585E08A95F1F7C2
:1049600000000C942C2CCF93DF93C82FD62F8035CA
:1049700011F0109297020E94A1248C2F80680E944F
:10498000FC2B8D2F0E94FC2BEC018AE68A95F1F717
:1049900000C08FE891E00197F1F700C000000E948D
:1049A0002C2CCE01DF91CF910895CF93C82F0E9478
:1049B000A1248C2F8F770E94FC2B0E94142CC82FCF
:1049C00085E08A95F1F7000085E68A95F1F7000009
:1049D0000E942C2C8C2FCF910895CF93DF93EC0164
:1049E0000E94A124CE0164E670E00E94CA356150A5
:1049F00071096837710510F067E770E08FE00E9479
:104A0000B324DF91CF910C942C2C8FE00E94D524FD
:104A10008F5F24E6829FC00111240895CF93DF9316
:104A20006DE183E10E94B3248FE39CE90197F1F7E4
:104A300000C0000068E183E10E94B3240E94A12429
:104A400082EE0E94FC2B90E59A95F1F7CEE8D2E039
:104A5000FE0184910E94FC2BF0E5FA95F1F7219676
:104A600082E1CC38D807A1F7EFE1F3E03197F1F715
:104A700000C000008AE20E94D52460E080E10E942C
:104A8000B3240E942C2C8FE39CE90197F1F700C01E
:104A90000000DF91CF910895CF93DF9380E00E94D3
:104AA000D524D82F8FE30E94D524C82F8AE20E94F4
:104AB000D524D23459F4CD3B49F491E0843009F047
:104AC00090E0892F8170DF91CF91089580E0FACF37
:104AD000879A0E947C2B109297020E942C2C0E9495
:104AE000A1240E942C2C66EB8BE30E94B3242FEFB1
:104AF00085EA9EE0215080409040E1F700C0000030
:104B00000E94A12425ED2A95F1F700000E94AD2412
:104B100085ED8A95F1F700006AE58AE30E94B324E7
:104B20009FEF20E782E0915020408040E1F700C0F5
:104B3000000082E00E94D52483E00E94D52484E016
:104B40000E94D52485E00E94D52486E00E94D524C9
:104B50000E940E250E94AD248FE39CE90197F1F796
:104B600000C0000080E496E00E94ED248FE99FE001
:104B70000197F1F700C0000060E080E10E94B324DB
:104B800060E081E10E94B32462E083E60E94B324E6
:104B90000E944C258F9808959F92AF92BF92CF921A
:104BA000DF92EF92FF920F931F93CF93DF93EC016D
:104BB00080919702811113C08091780280FF08C014
:104BC00083E792E09F938F930E94390E0F900F908E
:104BD00060E080E50E94B32481E0809397020E9408
:104BE000A12480E50E94FC2B8AEB8A95F1F700C096
:104BF0000E94142CF82E80E00E94FC2B0E94142CA2
:104C00006C010E94142CB82E0E94142C8C010E945E
:104C1000142CE82E0E942C2C8091780283FF1BC05C
:104C20008F2D0E9464248C2D0E9464248B2D0E9461
:104C30006424802F0E9464248E2D0E94642480911D
:104C4000780280FF08C081E792E09F938F930E94D3
:104C5000390E0F900F909F2C991C9924991CAA240F
:104C6000A394F3FCA12CDB28D194C194D1081E2974
:104C70001195019511090E942C2C8F2D877011F030
:104C800010929702F8829982AA82DC82CB82BD823E
:104C90001F830E83E886CE01DF91CF911F910F9184
:104CA000FF90EF90DF90CF90BF90AF909F900895CE
:104CB000CF93DF93EC01FB018281882309F420C1AB
:104CC000C430FDE5DF07C8F5CB3F9CE5D90730F4DC
:104CD0009E0122503C452431310598F50E94AC19C3
:104CE0009093BD028093BC02C031FCE5DF0709F45C
:104CF000E0C008F061C0C8309CE5D90709F4CBC01A
:104D000088F5C430FCE5DF0709F4B3C0E8F4C2302D
:104D10009CE5D90709F4A7C08091BC028260C3302A
:104D2000DC4509F4A3C08091BC029091BD020E94B1
:104D3000BA190E94191380E004C0C236EDE5DE07FF
:104D400069F2DF91CF9108958091BC028061C630F5
:104D5000FCE5DF0709F48AC008F48FC08091BC022B
:104D6000806284C08091BC028D7FCC309CE5D907E5
:104D700009F47CC070F48091BC028C60CA30FCE500
:104D8000DF0709F473C008F48AC08091BC028E7FEB
:104D90006DC08091BC02877FCE309CE5D90709F4B5
:104DA00065C08091BC028B7FCF30DC4508F45EC0CB
:104DB0008091BC028F7E5AC0CD3FFCE5DF0709F42D
:104DC00074C040F5C4319CE5D90709F48AC058F491
:104DD000C231FCE5DF0709F474C008F46EC08091AD
:104DE000BC02837F43C0CB3F9CE5D90709F449C08F
:104DF00008F04DC0C531DC4509F095CF8091BC026B
:104E000082FB992790F921E0922790FB82F990FB91
:104E100083F92CC0C1308DE5D80709F458C088F457
:104E20008091BD028360CF3FECE5DE0769F18091A0
:104E3000BD028D7FC115DD4538F18091BD028C7FAB
:104E400023C0C3308DE5D80709F458C008F452C018
:104E5000C236DD4509F067CF9091BC02892F8F7E65
:104E600094FF806103C08091BC0281608093BC028A
:104E70005ACF8091BC028460F9CF8091BC028860D7
:104E8000F5CF8091BD0281608093BD024CCF8091AF
:104E9000BD028260F9CF8091BC028064E7CF0E949E
:104EA00019138091BC028068E1CF8091BD028E7F92
:104EB000EBCF8091BC028F7DD9CF8091BC028F7BDC
:104EC000D5CF0E9419138091BC028F77CFCF8091EC
:104ED000BD02982F909591708E7F892B90FB81F960
:104EE000D3CF0E9419139091BC02892F97FB87F9A9
:104EF0008058BCCF81E00E94401A15CF80E0FBCFE4
:104F000081E01FCF809104011F928F938091050152
:104F10001F928F93809108011F928F9380910901B6
:104F20001F928F9380910A011F928F9380910B01A2
:104F30001F928F938CE892E19F938F930E94390E7A
:104F40008DB79EB70E960FB6F8949EBF0FBE8DBF5D
:104F50000895883228F58E3108F072C08B3041F107
:104F600030F4873009F4CFC08BEE93E1E0C0833199
:104F700009F45FC08431C1F78DE094E10E94A00D77
:104F800080919C02882309F4FEC010929C0210922A
:104F90009B0210929A02109299021092980220C0DD
:104FA0008F3409F4C7C0D8F5893231F38833E1F67C
:104FB00080E194E10E94A00D0E9482271F9281E06F
:104FC0008F931F9285E08F9389E093E19F938F9356
:104FD0000E94390E0F900F900F900F900F900F902E
:104FE00020919C02222309F4C9C0809198029091DB
:104FF0009902009711F482E991E09F938F931F9299
:105000002F9389ED93E19F938F930E94390E0F9018
:105010000F900F900F900F900F9081E008958135C1
:1050200009F49CC008F49CC0823509F09DCF81E052
:1050300082C08FEF93E10E94A00D0E948227D0CF03
:105040008D5180939C02833009F442C058F4813022
:10505000C1F08230A1F110929C028CEF93E10E948A
:10506000A00D1BC0853009F445C0D8F1863099F7F2
:1050700084E091E090939B0280939A028AED91E004
:1050800008C08BE091E090939B0280939A0286E99E
:1050900091E0909399028093980280919C028823DA
:1050A00009F49ECF1F928F9388EF93E19F938F9384
:1050B0000E94390E0F900F900F900F9091CF8AE0C1
:1050C00091E090939B0280939A028FE991E0E1CF67
:1050D00089E091E090939B0280939A028BEA91E0A1
:1050E000D8CF88E091E090939B0280939A0288EB5E
:1050F00091E0CFCF85E091E090939B0280939A025C
:1051000087EC91E0C6CF8EE180930B0182E3809320
:105110000A018AE08093090184E18093080188E014
:105120008093050188E2809304018EEE93E10E9452
:10513000A00D56CF8AE0E0919A02F0919B02309741
:10514000D1F02081082E000C990B820F911D8F3F0A
:10515000910541F03CF08FEF808307C08FEFEBCFDC
:1051600086EFE9CF97FFF8CF108280811F928F934F
:1051700085EE93E19BCF82EE93E1D9CF85ED93E16C
:105180000E94A00D4ACF80E00895CF93C82F1F92B0
:105190008F9386E294E19F938F930E94390E61E092
:1051A00070E080E090E004C0660F771F881F991FB1
:1051B000CA95D2F70E9472130F900F900F900F9024
:1051C000CF910C941913EF92FF920F931F93CF93EB
:1051D000DF938B3109F401C108F09FC08B3009F4D3
:1051E000BBC008F07DC0863009F4C9C048F48530E2
:1051F00009F4A1C08FE598E10E94A00D80E0CFC026
:10520000873009F4D3C08830A9F70E94A8191F92EB
:105210008F9382E498E19F938F930E94390E0E94AE
:10522000A41983FB992790F91F929F9382FB9927DA
:1052300090F91F929F9381FB992790F91F929F935A
:10524000982F91701F929F931F928F9389EF97E1F0
:105250009F938F930E94390E0E94AC1987FB2227DF
:1052600020F91F922F9386FB222720F91F922F935C
:1052700085FB222720F91F922F9384FB222720F9F8
:105280001F922F9383FB222720F91F922F9382FBDB
:10529000222720F91F922F9391FB222720F91F929A
:1052A0002F93292F21701F922F9381FB222720F902
:1052B0001F922F93282F21701F922F939F938F93CC
:1052C00084E197E19F938F930E94390E8DB79EB72B
:1052D00088960FB6F8949EBF0FBE8DBF81E05FC069
:1052E000803109F492C080F48E3009F083CF909120
:1052F0007802892F8B7F92FF84608093780282FFEF
:1053000081C08AE898E175C0863109F48EC0893180
:1053100009F070CF86E994E121C08A3249F190F416
:10532000873211F128F48E3108F464CF8D511DC0FD
:10533000893209F05FCF8DEC98E10E94A00D0E94A8
:10534000A30ECCCF833468F48A3308F093C085333E
:1053500059F0883309F04ECF81E795E10E94A00D06
:10536000BDCF833409F046CF80E00E94C528B6CF78
:105370008DEE98E10E94A00D0E943E1AAFCF809161
:105380007802807F809378028AE495E10E94A00DE4
:1053900089EE98E10E94A00D81E080939D02DF914B
:1053A000CF911F910F91FF90EF9008959091780207
:1053B000892F8E7F90FF81608093780280FF03C0E9
:1053C00081EC98E1CBCF84EB98E10E94A00D809115
:1053D0007802817F8093780281CF90917802892F23
:1053E0008D7F91FF82608093780281FF08C087EAF9
:1053F00098E10E94A00D809178028160EBCF89E94D
:1054000098E1ACCF8AE798E1A9CF90917802892FF3
:10541000877F93FF88608093780283FF03C08EE6C6
:1054200098E1E7CF81E698E199CF0E94E22D162F0F
:10543000072FF82EE92ED091BB02C09119010E94CE
:10544000602CEF92FF920F931F931F92DF931F9296
:10545000CF931F928F938BE294E19F938F930E943F
:10546000390E8DB79EB70C960FB6F8949EBF0FBE3F
:105470008DBF34CF895379CF80E008950C943C2AB6
:10548000CF93C82F80919D028130C1F0882339F0DD
:10549000823009F444C010929D0280E00DC00E9449
:1054A0009F188232D1F78C2F0E943C2A81111BC099
:1054B0008C2F0E94E3288170CF9108950E949F183D
:1054C000823289F38C2F0E943E2A81111BC0C43185
:1054D000D9F060F4CB3071F0C031D1F080E294E1CA
:1054E0000E94A00D13C081E090E0E5CFC93261F0C9
:1054F000C833A1F78AE495E10E94A00D82E294E10D
:105500000E94A00D81E0D7CF10929D0280E0D3CF02
:1055100082E080939D0288E30E94A927F3CF8C2F1D
:105520000E94A92781E0C8CFCF93DF93EB0186319A
:105530009C4511F50E949F189A81992399F08A7AC7
:1055400091E009F490E090939E02811109C089E2F4
:105550000E947A180E94EF1880E0DF91CF910895A1
:1055600085E3F6CF80919E02811104C089E20E94FA
:105570008118F0CF85E3FBCF81E0EFCF0F931F932E
:10558000CF93DF93C42FD22FFC0182818823C9F0EF
:105590004093A1020E94D62D9093A00280939F0277
:1055A00080E28C0F883008F050C0C77081E001C0E5
:1055B000880FCA95EAF7DF91CF911F910F910C9454
:1055C00064101091A102141335C080919F02909134
:1055D000A0020E94EE2D883C910560F5C0E2CD0F3F
:1055E0001D17B9F080E2810F883040F4177081E018
:1055F00001C0880F1A95EAF70E946B10C83048F472
:1056000081E09D2F977001C0880F9A95EAF70E945C
:105610006410802F0E945C10C830B8F4D77081E00D
:1056200001C0880FDA95EAF7DF91CF911F910F91B2
:105630000C946B1080E28C0F883038F4C77081E0D6
:1056400001C0880FCA95EAF7EFCFDF91CF911F9184
:105650000F9108950F939C01CB01243F4CE5340733
:1056600059F1A8F4293DFCE53F0701F12A3D4CE53D
:105670003407D1F1283D3C4591F406E221EE41EE9C
:1056800068ED7CE50E94BE2A80E00F910895263FD8
:10569000FCE53F07E9F0B0F0273F3C45F9F0FC019D
:1056A0008281882339F11092A102EFCF07E225EE23
:1056B00045EE69ED7CE5E6CF06E221EE40EE64EFD3
:1056C0007CE5E0CF07E225EE44EE65EF7CE5DACF3E
:1056D00006E221EE42EE66EF7CE5D4CF07E225EE4E
:1056E00046EE67EF7CE5CECF08E221E045EE6AEDBD
:1056F0007CE5C8CF81E0C9CF289A219A229A2398C5
:105700002B9880E58CBD089590910C019F3F09F086
:1057100071C08F3F09F46EC0611144C01092A302A2
:105720009091A302423009F441C0433009F442C0D1
:1057300094604130E1F141E050E042175307E0F15D
:105740009091A3024031510509F452C0C0F5423096
:10575000510509F446C04830510509F446C09CB5CE
:105760002091A302922B9CBD9091A202992319F043
:105770009DB591609DBD80930C01E82FE295EF707F
:10578000F0E031A1282F2F7081E090E001C0880F58
:105790002A95EAF7382B31A392A18095892382A319
:1057A00081E0089590E29093A302BACF986090931D
:1057B000A302C1CF9C60FBCF440F551FBECF403426
:1057C000510549F04038510541F04032510539F654
:1057D00021E02093A202926001C093609093A30203
:1057E000BECF91E09093A202BACF21E02093A20213
:1057F0009160F4CF80E00895CF93DF938EBD0E9437
:10580000D62DEC010DB407FE05C08EB590E0DF91FA
:10581000CF9108950E94D62D8C1B9D0B8436910547
:1058200088F38EEF9FEFF3CFCF93DF931EBC0E94E0
:10583000D62DEC010DB407FE05C08EB590E0DF91CA
:10584000CF9108950E94D62D8C1B9D0B8436910517
:1058500088F38EEF9FEFF3CF80910C018F3F29F1FA
:10586000E82FE295EF70F0E041A18F7021E030E089
:10587000B90102C0660F771F8A95E2F7CB01942F1A
:10588000982B91A392A1892B82A38FEF80930C0177
:105890008DB58E7F8DBD9CB58091A30280958923A7
:1058A0008CBD1092A3021092A20208959093FF0162
:1058B0008093FE0108959093A9028093A802089511
:1058C000E091A802F091A902309721F00190F081B7
:1058D000E02D099480E00895EF92FF920F931F93BB
:1058E000CF93DF938C01E091A802F091A902309749
:1058F000C1F10280F381E02D09958091780282FF49
:1059000030C080FF04C086E099E10E94A00DD0E085
:10591000C0E080E0E82E89E1F82E8091780280FFD7
:105920000EC0F801EC0FFD1F80811F928F93FF9234
:10593000EF920E94390E0F900F900F900F902196CA
:10594000C830D10551F78091780280FF0AC08EEFF0
:1059500098E1DF91CF911F910F91FF90EF900C9400
:10596000A00DDF91CF911F910F91FF90EF900895BF
:10597000E091A802F091A902309739F022E0DC0111
:105980002C930480F581E02D099408952091A602BE
:105990003091A7022817390771F09093A7028093DE
:1059A000A602E091A802F091A902309721F00680AA
:1059B000F781E02D099408952091A4023091A50269
:1059C0002817390771F09093A5028093A402E09103
:1059D000A802F091A902309721F00084F185E02D12
:1059E000099408959C012E5F3F4FAC01485F5F4FC3
:1059F00080E02417350709F40895F90191919F017A
:105A00009923B9F38F5FF5CF662349F0FC013296F5
:105A100008962191261729F0E817F907D1F780E0B9
:105A2000089581E008959C01FC0132969FEF80E08B
:105A30004191461751F09F3F19F4411101C0982F31
:105A40008F5F8630A9F79F3F09F40895290F311D14
:105A500097FD3A95F90162830895FC013296089604
:105A60002191261303C0DF0111971C92E817F90753
:105A7000B9F708950C94132D0C942D2D029626E061
:105A8000FC0111922A95E9F7089508950C94452D8B
:105A9000811105C081E08093AA020C94462D82E01A
:105AA000FACF83E08093AA020C94462D0C94482DE3
:105AB00081E08093AA020C94462D0C94582D0895F1
:105AC0008091D602843031F10E949C0E1092AB027C
:105AD00088E190E020E40FB6F894A89580936000E8
