:100000000C94C50A0C940C0B0C940C0B0C940C0B5C
:100010000C940C0B0C940C0B0C940C0B0C940C0B04
:100020000C940C0B0C940C0B0C94FF2E0C94D32FF3
:100030000C946C290C940C0B0C940C0B0C940C0B66
:100040000C940C0B0C940C0B0C940C0B0C940C0BD4
:100050000C940C0B0C94C3290C940C0B0C940C0BEF
:100060000C940C0B0C940C0B0C940C0B0C940C0BB4
:100070000C940C0B0C940C0B0C940C0B0C940C0BA4
:100080000C940C0B0C940C0B0C940C0B0C940C0B94
:100090000C940C0B0C940C0B0C940C0B0C940C0B84
:1000A0000C940C0B0C940C0B0C940C0B2C00F2000D
:1000B000F1002C00005C01000100010044454255A4
:1000C000473A2064697361626C65642E0A00444596
:1000D0004255473A20656E61626C65642E0A004F96
:1000E0006E6573686F743A206163746976653A204F
:1000F00025640A000A0025303258006B6579626F6A
:100100006172645F7365745F6C65643A20000A0015
:1001100025303862003A200025303258000A722F0C
:10012000632030313233343536370A00290A00254E
:1001300075002F002575005D28002564002000252E
:100140006400200025640020002564007C00253028
:100150003258006D6F7573656B6579205B62746EE4
:100160007C782079207620685D287265702F616325
:100170006C293A205B0003A6681E7D107E7E5F1C02
:10018000B8F2470C7B744B148B7566510B8C7674EC
:100190004B14AAD60F9CBAF66E3FDD38D502809B71
:1001A000826D5813A4ABB5C910A2C60A7F5D199120
:1001B000A0A3CEEB3EC9F16042E74CFB746A562E19
:1001C000BFDD38D3058892A6CEFF5D38D1CFEF587A
:1001D000CB6548F03585A9B28F5EF38094977E7524
:1001E00097877313B08A69D40ADEC1795936DB9DCB
:1001F000D6B8156FCE3C72324588DF6CA56DE876B7
:1002000096147420DCF4FA376A2732E329BFC4C796
:10021000069D58E7877C2E9F6E49075D23645483B3
:100220006ECBB777F72B6E0F2E6612605565FC43C9
:10023000B358735BE867044302DEB389A06D3A27C5
:1002400079645B0C169E66B18B870C5DF2B63D71CE
:10025000DF42038A068DEF1DA8965CED31615CA13B
:1002600034F68C08603307003E79951B437FFEB659
:10027000A6D49D7672BFADC015E83731A372635224
:100280001D1C5D511BE1A9ED60323EA950285306AB
:1002900059E2FCE702643921564AA5408081D55ACB
:1002A000607B6884F1E0B1B65BDFA81D6D6520C09E
:1002B000A2B9D9BB00A6DB8B015391FEC45185B016
:1002C000967FFD51DD1403672E751C76D36EDD9984
:1002D0005576E5AB23FC4AD5C6E82ECA8AB3F68C20
:1002E0006CB0E9F2E79E6941EDF16DD286D87ECB24
:1002F0005D476C856A23ED204093B420C7A5C9AF44
:100300000315AC19E52A36DF6DC58C8007CE920C3B
:10031000D806620FDD48461A53C78A8C5D5DB4A1CA
:1003200002D3A9B8F3948F3FE554D41165B25E09A6
:100330000B81E375A78981396C46F6069F273BB68A
:100340002D5F1D4BD47B1D617489E4E3BD981BC4F4
:10035000513BA4FAE092F7BEF24DBBFFAD4F6D6882
:10036000C27940AA9B8F0C324B5F3EAB5998B3F5D4
:100370001DAC5EBC78D3016C64152FD871A62D45D9
:10038000E12242E44E043C7DF44021B46705A8E23A
:10039000F372874C7DD91B6597F3C2E3E4C8D2DEC4
:1003A000F6EFDCBB44085EE2452701B0F643E73ACE
:1003B000F6DC9DEDF3C50CB89C983AD836EE9672F3
:1003C00067E78191D5050AE082D58FE8F9B0C9CFFA
:1003D00093E704C5BC2B43567EE8677CE5FB49AD3B
:1003E0005E9F2513DE6E6EE9F1EC870B59817684F2
:1003F00076B324AF30FD278BABD8008B9B0CD2B2E9
:100400004E5E9D1D96010067C15F0220FD456A0199
:10041000605845CA4721905AC443261AD7A54AB204
:100420005D2B3549FBA51792211E939667A27E3658
:100430007ADE5FBE7A589DF878A3FAC8D517F02106
:10044000978C80B54B3BBDBB4121A85067F7E7199E
:1004500080108ECE04183F516B77D89E16AFECEF0C
:1004600048164D9E8538183ED42887602AF67F09A5
:10047000866F9C3C3AFFABD061A2970D71947EFDD4
:10048000B98002896AB3846C2A7762BE0BF4AFAC80
:100490007B7C8ECA01BA717894FDB539A44D2F7852
:1004A000CFCA920C1A99484C1196B54E4128E4A631
:1004B000FE4B7291E7D4DD9F12E62938CE45AE029D
:1004C000B824AEBDE9660862A22C2B00E223D9C491
:1004D00048E4D3ACBB34C7F0E34FB930EAA212F121
:1004E000302C36DE48F2B04C433F2E58E420E3581F
:1004F000CD3122F0A22AE619905586F65579D1D74A
:10050000462FC0DC99E8F36ADF7FEB244A1E5A7558
:10051000DE2F5C19610353546A3B1870B64FF19C8F
:100520000A599D1992658C83142D448A75A9F590FA
:10053000D2664EFA690F5B0B9865C81142597FDD90
:100540001B7517314C7558EB58637DF2A6C26EB718
:100550003F3E5E47ADB704E805F8B2CF19F3D28548
:10056000FE3E3EB162082C10070D739017FA9B56A1
:100570000275F951E0E91A7B9FB3F398B81C9CE12E
:10058000D535AEC860481109946BD08B15BC056891
:10059000D3548A51395C4276CED8AD8930C9051C16
:1005A000CC943F0F906F722D85649AB923F90BC3D9
:1005B0007C390F970797DA5848330523B882E8D378
:1005C0005389AF338022840C955C67B8770C5CA2AA
:1005D0005F3D580F27F32FAE48BD0B6F54FB674CA0
:1005E000EA3227F1FAE2B0EC0B15B470F65CDD717B
:1005F00060C3C1A83265AC7A7741E5A96B1181FA75
:10060000348DFBC1806EC4603007D48B67BDAA8C6B
:100610009C64ACDB0B248B636FE6BCE733A44A4CD1
:10062000A79F4353D2BB8F43C73D78683FA53DCAC0
:100630006984A6972DC07D3134551D07B15F405C9C
:1006400093B0BC7CB0BCE712EE6B2BD34D67703A15
:100650009AF23C7C81FAD7D9909181B8B1F3486A7B
:10066000264F0CCEB09EFD4A3AAFAC5B3FBF445A1A
:10067000A3191E4BE7366AD720AED77D3BE7FF3A7A
:10068000862ED04A3EAF9F8E01BFF84FC1E86F74EF
:10069000E145D3F7046A4B9DEC332776D7C5E1B02B
:1006A0003B0E23ECF086D21ABF3D0462B36CB2EB72
:1006B0001705A60A8A7E831CB63709C60B703CB59F
:1006C0009381D893A05F1E08E2C6E5C972F1F1C11B
:1006D000EDD5589383F865672E0DA9F16412E64CA9
:1006E000EA153F8C1AB6BFF6B9523509B0E6F7CD18
:1006F000F1A5AA81D1816FB4A9661FFC48C0B6D10B
:100700008B062FF6EF1F0AE6CE3A4A55BF6DF94D1C
:10071000D408454BC366199210E1178E289116BF75
:100720003CEEA3A6999210E1F6CCACB8650B4366FB
:10073000F8E3E53F2489475D7843D06117BD5B64EA
:100740005408455993F6958A4151624B51023073D2
:10075000C787C54BA2970FE8465F7E2AE13020B0DD
:10076000FAE7CE6142576E21F37AECE325C725F311
:1007700067A757400002CF1C807767BD70A1199210
:100780003175932727B682E4EB1D7848E7A55E57BD
:10079000EF6428641BF611B2039DB9180227F7BE57
:1007A0009D55FC00D2C7AEAD0BC5E9424148D832D9
:1007B000CFF60FF5BC97C6994776BD89060F630C37
:1007C00051D45EEA48A8A2561C79848640884176B6
:1007D00055FCC2D7FDC9C7806135A74320F7EB6C34
:1007E0006613B0EC02753E4BAFB95D40DAD66E2DA4
:1007F0003954C29535542572E178B8EBC116580FBB
:100800009C9BB4EA37EC3B11BAD58AA9E398005116
:100810001C14E04096E5E9F22122B1236078D31759
:10082000F87AA5A8BA20D3151E32E45E1548AEA901
:10083000E5B833ECE8A242ACBF1084538719B45F2B
:10084000764D019D5674D95C97E788EA3ABFDC4C37
:10085000338A16B95BFAD842A7BB3C042778498192
:100860002A5A7D7C23A8BAF79A9FD2663E383C75F7
:10087000F9D13026306E5A6EDC6A69325033479EA9
:10088000A4A86466F08AE4FD276F51258B4374C9E0
:100890008EBD8831BEEC65D2CB8D5A1348168C6163
:1008A0000B11F6C666AEC3CC0CD2E19F82413F5617
:1008B000F973EFDC3050CFB67FBCD0B310AB24E47B
:1008C000ECAD188C392D304CC5400DF6ACD6185D0A
:1008D00096BF5F71759622970F02946EA6AE6D8FCC
:1008E0001ECA129B2A1CCEA9EEFD128EFCED093306
:1008F000BAF41A15F69D8716437C7857E144C9EB84
:100900001F584DC149115CB211A85516F1C650E9E6
:100910008789F6CFD89C51A7BC5B316D4D51D04C27
:10092000BC0D582D7B887AF98ED6404DBBBEC4E5F0
:1009300007FCD97B6DA642578F02944FE42A65E2EB
:10094000195A50E125654A60C2CDA8EC052E877B77
:1009500095B74FA00B1B4A7F92C890EE891E10D20C
:1009600085E49F63C812BB4EB8CF0AEC184EE67CF4
:10097000B33326C71FD20423EA070C5F90BDA76AD2
:100980000F4AD610013C12292E96C04DBBBEE5A7DA
:1009900083D56A3CE35BB8F25C6D1FA6F31224F6C4
:1009A000D63B1014090782E8306A99DC95019CD483
:1009B000683BCA9812AB7725157D10324598CD7AE1
:1009C000DF718A75C11CD46825EBBB54276F2AF7E9
:1009D000B9980327DE24A8BB98C284FF9B51D85343
:1009E00050DAF588AA872FAED6EA6BDEC8D7A728DB
:1009F0006581E8B23B1D4F758F9F7A748EC15F9AF7
:100A0000A89DFA03A3719B376DD50BF5E1A11B01DE
:100A10006AC667AAEA2C9DA4D26EFCDE2E7F94697A
:100A2000E54AE001483C6BF71EB60B5FF92E07C59F
:100A3000E8AE371BBC3CD8D50B919E8024F5060C44
:100A40000E9807962D19DC5893CCFB4EEBBD0FF595
:100A5000AF01FAF17C438CB8563EBE774E2BF7BB04
:100A6000B74547CDCCA64C727B6A2A701307FDB8F8
:100A70009C983AD823675B34D5140CAB771FF83DAC
:100A80005A9F92B72CAD31DE6107B36BF7381595DD
:100A900046144853695266076D83718A6725200F93
:100AA000FED702D76E2CD21A0A5DFD0F74E3A4366E
:100AB000079ADFD479BFEF59C04452879A6E1D0E52
:100AC000EEDE2E1AA98F3AC9BAEC99782D556B141F
:100AD000C206D5FC93534D118CF8FA797CA664AE0E
:100AE00061B87B9456A639789AE5C7DF1863239CD2
:100AF000FA66BBB75A274CD1A18322B3524935B00D
:100B000022835912001698DDADC294F9D37B647F1D
:100B1000443E3C8B9A839C696BE4DF9FED541FE558
:100B20005D7A0582B3DDEFFC5396B02C5AF8DF9C5A
:100B30008B164EDFDA4D090969500365D87370E8EA
:100B400086BFBB35CEB246CB02005BB4E2C68F2F68
:100B500098AF874B4845EDCC1DE658D6F250259FFF
:100B600052C7CB8A179D5BE5C8D772B752B2C498FB
:100B7000E37A173EC660A797B0CF188153844CD54F
:100B80001732031339510910E377494F6201BF8CC3
:100B90009AE0419E897436F996862E961C4AB72BA8
:100BA0004A97BC9940A3E03DC8AD2FDF4F2CC469E4
:100BB000829F9B810C615CA59D8C89C02CB44A33BB
:100BC0004EEBA25640C0C246AF6AFC67D1805EC5FC
:100BD0006D8443273F5515966AA0A5DAB7FFB77510
:100BE0006E4C49919D22A346EAED9A00E232C3D6AB
:100BF000A9712055A319EDF84FA7129C6687AF4E37
:100C0000B7F0DBBFEFF0F6AFEADA09FEDE385CA53D
:100C1000A2DF9945A8E4E792AC67AA4FBF773EA24E
:100C20004049224A1E3BAA707F95AF374BFC99E2A0
:100C3000E0BAD734CE55885B841B57C4800353C9B0
:100C40002F93044DD596E570A66E635D9D6CDB0217
:100C50000AA9DA8B53DCD99AC5942C91922ADEBB6F
:100C60008B13B9199664CCF26439B77549E986C219
:100C70008662D924D3813549FCA0A5A0930564B42C
:100C80001A57CE0C900227C57A2B5DAE3ED5DD10EB
:100C90007C14EA3A08AC724E903D3B7C862EEBD435
:100CA0000670E6C7FB5FBD18F411A41A93C3BED942
:100CB000FB26482F373CD003471AF76219245CF40F
:100CC000A892207AF29E2AC595A2FBA4EA85D8565E
:100CD000B770D16030A5308270DC7A658A363F5BB0
:100CE0000CAE547CD357847B3A651881EE059B4447
:100CF0004DB8DAA2A1C915D373030E43E98E15F9D5
:100D0000BEC6C58AE5C01EC2379E2A26A5A0BD2440
:100D10005FB9C1AB3448B95D98B46518F363194441
:100D20001B1116FFDCF17908860F529873C492905C
:100D30002B4709D0436C2F20EBDCDAC5087B9442AB
:100D4000306AC7DA8CC376A7A5CC6213006031582D
:100D5000449BF56414F511C5545283D47301160EE7
:100D6000B37A29693556D4EE8A17A299249CD78F75
:100D7000DB55B53E313A0964656C6179282A31301A
:100D80006D73293A2025750A323A09696E746572C5
:100D900076616C286D73293A2025750A333A096DFE
:100DA00061785F73706565643A2025750A343A0985
:100DB00074696D655F746F5F6D61783A2025750A9F
:100DC000353A09776865656C5F6D61785F7370654A
:100DD00065643A2025750A363A09776865656C5F5F
:100DE00074696D655F746F5F6D61783A2025750A6F
:100DF00000703A097072696E742076616C75657363
:100E00000A643A097365742064656661756C74736D
:100E10000A75703A092B310A646E3A092D310A6C51
:100E2000743A092B31300A72743A092D31300A456F
:100E300053432F713A09717569740A0A73706565B5
:100E400064203D2064656C7461202A206D61785FA8
:100E50007370656564202A2028726570656174204E
:100E60002F2074696D655F746F5F6D6178290A77F3
:100E7000686572652064656C74613A20637572738D
:100E80006F723D25642C20776865656C3D25640A8A
:100E900053656520687474703A2F2F656E2E7769DC
:100EA0006B6970656469612E6F72672F77696B6912
:100EB0002F4D6F7573655F6B6579730A004D3E202A
:100EC000004D25753A25733E20003F0A003D202540
:100ED000750A003F0A0064656661756C74730A00E8
:100EE00025750A003F0A000A092D2056616C7565B8
:100EF00073202D0A00710A000A092D204D6F7573A9
:100F0000656B6579202D0A003F00433E20004C258B
:100F1000640A000A092D20537461747573202D0A28
:100F2000686F73745F6B6579626F6172645F6C6523
:100F3000647328293A20253032580A6B6579626F2C
:100F40006172645F70726F746F636F6C3A202530EA
:100F500032580A6B6579626F6172645F69646C65AF
:100F60003A20253032580A74696D65725F72656186
:100F700064333228293A202530386C580A000A098F
:100F80002D2056657273696F6E202D0A5649443ABA
:100F900020307846454544286F70656E6578292075
:100FA0005049443A20307830303030286F70656EC8
:100FB000657829205645523A203078303030310A51
:100FC0004255494C443A2020284A756E2032302040
:100FD00032303232290A4F5054494F4E533A204C46
:100FE000554641204D4F5553454B45592045585482
:100FF00052414B455920434F4E534F4C4520434F90
:101000004D4D414E4420343039360A4743433A204F
:10101000382E342E30204156522D4C4942433A202E
:10102000322E302E30204156525F415243483A20F2
:10103000617672350A000A092D20436F6E736F6C5A
:1010400065202D0A4553432F713A09717569740A59
:101050006D3A096D6F7573656B65790A000A092D24
:10106000204D61676963202D0A443A094465627521
:1010700067204D65737361676520546F67676C65A2
:101080000A583A094D61747269782044656275673F
:10109000204D6F646520546F67676C65202D205369
:1010A000686F77206B6579707265737365732069FB
:1010B0006E206D617472697820677269640A4B3AB8
:1010C000094B6579626F61726420446562756720BF
:1010D000546F67676C65202D2053686F77206B65B0
:1010E000797072657373207265706F72740A4D3A0D
:1010F000094465627567204D6F75736520546F678D
:10110000676C650A563A0956657273696F6E0A53C1
:101110003A095374617475730A433A0941637469F7
:101120007661746520436F6E736F6C65204D6F64DC
:10113000650A46312D4631303A0953776974636840
:1011400020746F204C6179657220302D392028463B
:101150003130203D204C30290A302D393A0953775F
:101160006974636820746F204C6179657220302D3A
:10117000390A47524156453A0953776974636820E2
:10118000746F204C6179657220302028616C746521
:10119000726E617465290A423A094A756D7020744D
:1011A0006F20426F6F746C6F616465720A455343C0
:1011B0003A094A756D7020746F20426F6F746C6FBE
:1011C000616465722028616C7465726E6174652952
:1011D0000A453A095072696E7420454550524F4D88
:1011E0002053657474696E67730A425350414345D6
:1011F0003A09436C65617220454550524F4D0A00D3
:101200006B65796D61705F636F6E6669672E726181
:10121000773A20253032580A2E737761705F636FFA
:101220006E74726F6C5F636170736C6F636B3A2086
:1012300025750A2E636170736C6F636B5F746F5FEB
:10124000636F6E74726F6C3A2025750A2E73776126
:10125000705F6C63746C5F6C6775693A2025750A02
:101260002E737761705F7263746C5F726775693A31
:101270002025750A2E737761705F6C616C745F6CEA
:101280006775693A2025750A2E737761705F726100
:101290006C745F726775693A2025750A2E6E6F5FF0
:1012A0006775693A2025750A2E737761705F6772DA
:1012B0006176655F6573633A2025750A2E737761E1
:1012C000705F6261636B736C6173685F6261636BB3
:1012D00073706163653A2025750A2E6E6B726F3AE2
:1012E0002025750A0064656275675F636F6E6669C5
:1012F000672E7261773A20253032580A2E656E616A
:10130000626C653A2025750A2E6D61747269783AAF
:101310002025750A2E6B6579626F6172643A20250B
:10132000750A2E6D6F7573653A2025750A0065651F
:10133000636F6E6669673A0A64656661756C745FAF
:101340006C617965723A2025750A003F000A6D6F5D
:101350007573653A206F66660A000A6D6F7573656E
:101360003A206F6E0A000A6B6579626F6172643AA7
:10137000206F66660A000A6B6579626F6172643A73
:10138000206F6E0A000A6D61747269783A206F6688
:10139000660A000A6D61747269783A206F6E0A00FD
:1013A0000A64656275673A206F66660A000A6465BA
:1013B0006275673A206F6E0A000A0A4A756D706995
:1013C0006E6720746F20626F6F746C6F61646572FA
:1013D0002E2E2E2000433E2000436C656172696E04
:1013E0006720454550524F4D0A000A0025303258BB
:1013F00020006B6579626F6172645F7265706F72F5
:10140000743A20005B735D005B575D005B535D00C9
:101410005B525D005B445D005B435D000E036F004B
:10142000700065006E006500780000000E036F001C
:10143000700065006E006500780000000403090478
:1014400009025B00030100A0FA0904000001030186
:101450000100092111010001224000070581030854
:10146000000A090401000103000000092111010024
:1014700001227B000705820320000A090402000202
:101480000300000009211101000122220007058349
:1014900003200001070503032000011201000200E0
:1014A000000008EDFE00000100010200010631FF0E
:1014B0000974A1010975150026FF009520750881A2
:1014C000020976150026FF00952075089102C005D7
:1014D000010902A10185020901A1000509190129DB
:1014E00008150025019508750181020501093009DB
:1014F000311581257F9502750881060938158125EA
:101500007F950175088106050C0A38021581257F33
:10151000950175088106C0C005010980A1018503F8
:1015200019012AB700150126B70095017510810031
:10153000C0050C0901A101850419012AA0021501A9
:1015400026A002950175108100C005010906A101C0
:10155000050719E029E715002501950875018102A5
:101560009501750881010507190029FF150026FF5F
:10157000009506750881000508190129059505756E
:10158000019102950175039101C011241FBECFEF97
:10159000DAE0DEBFCDBF04B603FE27C08091C002F3
:1015A0009091C102A091C202B091C3028730904BCA
:1015B000A740B04BD1F41092C0021092C102109219
:1015C000C2021092C30214BE84B7877F84BF0FB6D5
:1015D000F894A895809160008861809360001092D3
:1015E00060000FBEE0E0F8E3099512E0A0E0B1E092
:1015F000EEE6F4E602C005900D92A430B107D9F7EB
:1016000022E0A4E0B2E001C01D92A03CB207E1F7E5
:101610000E94231C0C940D320C940000FF93EF9356
:10162000E0910402F0910502309709F00995EF91DD
:10163000FF910895FC018591803011F0EFDFFBCF21
:101640000895FF27E0E230E247FF0CC0419597FF85
:1016500009C0EDE26095709580959095611D711DB2
:10166000811D911D27FF02C0219530E350E2AA277A
:10167000660F771F881F991FAA1FA41710F0A41BBD
:1016800063955A95A9F7AA3008F0A95FA05DAF93BA
:10169000F395611571058105910541F7ED3211F45E
:1016A000EF93F395F21718F43F93F395FBCF8F91D7
:1016B000B5DFFA95E1F70895E991F99185918030C8
:1016C00021F0853219F0AADFF9CF089520E0E894DF
:1016D00055915532C1F3503311F4689455915A33F2
:1016E00048F4505390F3220F022E220F220F200DA8
:1016F000250FF4CF0EF4219589919991533619F362
:10170000533729F1533559F1BC0188279927E894BB
:101710005C3621F48991999168945591543639F445
:1017200046EF7EF077FF0DC08FEF9FEF0AC0553771
:101730004AE039F0583540E121F0523642E009F0F4
:101740000895FF93EF937DDFEF91FF91B7CFFF9364
:10175000EF93FC0181918030B9F360DFFBCFFF9301
:10176000EF9368DFF1CFDF93CF93CDB7DEB7259648
:10177000A3DFCF91DF910895811107C0662339F06F
:101780006AE070E089EF0E94C10D80E008956AE090
:1017900070E08AEFF8CF81E0089581E008950C941D
:1017A000CD0B08950C94D10B1F93CF93DF9300D0F2
:1017B00000D00F92CDB7DEB749835A836B83309147
:1017C000060289819A8131111DC06623B9F0222356
:1017D000A9F00E943F12182F682F89819A810E94D8
:1017E000EC1169817A81812F0F900F900F900F90EB
:1017F0000F90DF91CF911F910C94C7180E9418127F
:10180000182FEFCF0E943F1269817A81EDCFFC0142
:10181000262F408151816281738184810C94D40B85
:1018200081E00895CF93DF93EC0160E00E94070C04
:10183000BE01DF91CF910C94D20B0E94ED1A0E9451
:10184000C90C0C94121B0C94151B80E00E94CA0C4E
:101850000C941620089508950E9495100E942B0C58
:101860002FEF84E39CE0215080409040E1F700C0DE
:1018700000000C94E7290F931F93CF93DF938C0103
:1018800061E00E94070CEC01B8010E94CF0B882395
:10189000C1F1B801CE010E94F626882391F1B8016A
:1018A000CE010E94CC21882361F1B801CE010E94B3
:1018B0006026882331F1F8018281882361F0CF3DD1
:1018C000FCE5DF07B1F170F4C115ECE5DE07B9F016
:1018D000C130DC45E1F0C801DF91CF911F910F913C
:1018E0000C94CB0BCC358DE5D80749F1CD35DC0711
:1018F00019F1CB35DD4579F70E940817ECCF0E942E
:101900002C0C80E0DF91CF911F910F910895909161
:101910006702892F8E7F90FF81608093670280FF2E
:1019200005C08EEC90E00E941A0BEBCF8CEB90E0A0
:10193000FACF0E94B917E5CF0E94FF16CCCF0E94C4
:101940000B17C9CF0C942A0C0E942C280E94CA0C99
:101950000C94A20C829590E09C01220F331F220F61
:10196000331F2C7C95958795959587958373282BA8
:1019700030E0C901880F991F8A7A3595279525751A
:10198000822B089508950C94C20C81E008950C9464
:10199000C50C0895CF93C82F0E94C30C8C2FCF91F4
:1019A0000C94C70CCF93DF93CDB7DEB72B970FB650
:1019B000F894DEBF0FBECDBF4F83588769877A8703
:1019C0008B8761110E943A161E821D8285E0FE01FE
:1019D0003796DE01119601900D928A95E1F78C8180
:1019E0009D81892B89F449815A816B817C818D810C
:1019F0009E810E945B152B960FB6F894DEBF0FBE3A
:101A0000CDBFDF91CF91089589819A8189238F3F3E
:101A100051F3CE0101960E94100C8111E4CFEBCF5F
:101A2000FC01808191810C9481120F931F93CF93BD
:101A3000DF9300D000D000D0CDB7DEB7082F162F2F
:101A40000E94652029834B835C836D837E83002302
:101A500099F0312B4981532F6B817C818D819E813F
:101A600026960FB6F894DEBF0FBECDBFDF91CF91A3
:101A70001F910F910C94862010953123EBCFCF93BB
:101A8000C82F882309F44CC08CEF8C0F813AC8F41E
:101A90008C2F0E94B425811143C06C2F80910201CC
:101AA000909103010E94D028882329F08C2F0E9456
:101AB000FC150E946A168C2F0E94F515CF910C948C
:101AC0006A1680E28C0F883048F4C77081E001C04C
:101AD000880FCA95EAF70E941D16F0CFEBE5EC0FD0
:101AE000E33040F4F0E0E85BFE4F808190E0CF917E
:101AF0000C949228E8E5EC0FE73150F4F0E0EE0F9B
:101B0000FF1FE65EFE4F80819181CF910C94A82843
:101B1000CD3E30F08C2F0E94B31CCF910C94861DCB
:101B2000CF910895882361F19CEF980F913A20F4AA
:101B30000E94FC150C946A1690E2980F983050F4AD
:101B4000877091E001C0990F8A95EAF7892F0E946A
:101B50002316F0CF9BE5980F933020F490E080E0BF
:101B60000C94922898E5980F973120F490E080E04B
:101B70000C94A8288D3E20F00E940D1D0C94861D0B
:101B800008951F93CF93DF93182FEB010E943F0D11
:101B9000209731F4812FDF91CF911F910C94920DFA
:101BA0008FE99FE00197F1F700C000002197F0CF87
:101BB00070E060E0893311F460E570E00C94C10DD1
:101BC000882321F00E941D160C946A16089588231C
:101BD00021F00E9423160C946A160895BF92CF92AA
:101BE000DF92EF92FF920F931F93CF93DF936C01DD
:101BF000D62FC72FFC011281F580F2949FE0F922C5
:101C00000E941316E82E8823B9F0E12E1123A1F0CB
:101C10008C2F807F803421F080E28D0F8830B0F0EF
:101C20008091AC0282FD12C082E00E94BB160E942D
:101C3000131691E0E82EE926BC2EB2948FE0B8226C
:101C4000EB2DF0E0E15FFD4C0C94B831E12CF4CFCA
:101C50000C2F0F70C07F11F00295007F112399F0B7
:101C6000002359F080E28D0F883010F0D11107C0A9
:101C7000802F0E941D160E946A168D2F41C0802F52
:101C80000E942D16F8CF8D2F0E94920D002309F48B
:101C90003FC080E28D0F883010F0D11104C0802F3A
:101CA0000E94231603C0802F0E9433160E946A16DA
:101CB0002FC00C2F0F70C07FC03211F00295007F33
:101CC000DD2381F0D13009F46AC0112309F474C016
:101CD000FF2009F46AC0F601858180FFCECF8F70A6
:101CE000858363C08091AC0282FF39C0112359F013
:101CF000002329F0802F0E941D160E946A1680E0A2
:101D00000E943F0D05C080E00E94920D0111C7CFD7
:101D10002B2D2850330B2430310520F40E942C2821
:101D20000E94CA0CEE2009F49DC10E940F1680FD8E
:101D300099C1F60112820E9409160E945011C60133
:101D40000E9453100E940916DF91CF911F910F91AD
:101D5000FF90EF90DF90CF90BF900C947111112302
:101D600089F0F11006C00E944D16802B0E94E00DF4
:101D7000CFCFF1E0FF12F7CF0E944D16802B0E94CB
:101D80005316C6CFF11006C00E946016802F0E9425
:101D9000E70DBECF21E0F21609F4BACFF5CF11233B
:101DA00031F035E03F1508F4B3CF802FDFCF84E06A
:101DB0008F1508F4ADCFEACFFF2041F3D93349F4B2
:101DC000FFEF27EE33E0F15020403040E1F700C054
:101DD00000008D2F0E94920D9BCF8C2F86958695AB
:101DE000837069F0813009F093CF8D2F9C2F937011
:101DF000111102C090E080E00E94A82889CF8D2FA9
:101E00009C2F9370111102C090E080E00E949228F4
:101E10007FCF8D2F112391F00E94B31CED2FE15F36
:101E2000FF0BE830F10568F461E070E001C0660F77
:101E3000EA95EAF7812F0E94150D6ACF0E940D1DC9
:101E4000EDCF0E94861D64CF8C2F837009F041C0B6
:101E500011115ECF4D2F429546954770440F440FA8
:101E60000D2F0F7010E030E020E0042E04C0000FB2
:101E7000111F221F331F0A94D2F760E070E0CB01DC
:101E8000D4FF0FC06FE070E080E090E004C0660F08
:101E9000771F881F991F4A95D2F760957095809596
:101EA0009095C695C695C370602B712B822B932B92
:101EB000C23049F058F4C13019F00E94021128CF05
:101EC0000E94F01025CF0E94141122CF0E94EE1024
:101ED0001FCF8695112311F08C2F8170882309F470
:101EE00017CF4D2F429546954770440F440F0D2F45
:101EF0000F7010E030E020E0042E04C0000F111F2E
:101F0000221F331F0A94D2F760E070E0CB01D4FFA8
:101F10000FC06FE070E080E090E004C0660F771FB4
:101F2000881F991F4A95D2F7609570958095909576
:101F3000C695C695C370602B712B822B932BC23034
:101F400049F058F4C13019F00E94C711E1CE0E9447
:101F5000B511DECE0E94D911DBCE0E942A11D8CE57
:101F6000CF70112329F08C2F0E9450118D2FFECE9F
:101F70008D2F0E94E70D8C2F0E947111C9CED23F88
:101F800051F160F4D03FB9F0D13F81F0112309F451
:101F900049C0F11072CE8C2F8F7121C0D33F11F147
:101FA000D43FA1F78091AC0282FF26C08C2F8F71A5
:101FB000112311F314C0112349F0F4E0FF1508F4C4
:101FC000A7CE8C2F8F710E949411A2CE25E02F15E1
:101FD00008F49ECEF6CF8C2F8F711111CDCF0E94B9
:101FE000501196CE112329F08C2F8F710E943B1136
:101FF0008FCE0E9436118CCE112349F0CF718C2FD9
:102000000E94501163E08C2F0E94A01681CE81E0C7
:102010000E94BB1631E03F1508F07ACE82E00E94A4
:10202000BB1676CEFF2059F0D93309F0D2CE8FEF10
:1020300097EEE3E081509040E040E1F7C8CE8C2F6E
:102040008F719ACF4C2F4F706D2FC6010E94C3180D
:102050000E94AF125DCE4C2F4F706D2FC6010E94B3
:10206000C61856CEDF91CF911F910F91FF90EF9040
:10207000DF90CF90BF9008950F931F93CF93DF937E
:10208000EC01688179818A810E948B128C010E9407
:10209000EB110E94ED10B801CE01DF91CF911F919D
:1020A0000F910C94EE0DCF93DF93EC018B819C810B
:1020B000892B29F08881998189238F3F59F4DF91F9
:1020C000CF910895CE010E943C10CE01DF91CF91B7
:1020D0000C94120CCE010E943B0C8111F3CF0E9494
:1020E0001316882361F38A81882349F38091AC0217
:1020F00082FDE5CF82E0DF91CF910C94BB1690E09A
:1021000080E00E94922890E080E00E94A8280E942F
:102110003A160E944A160E946A160E942F1F0C94BB
:10212000861D0E9403160C947F100E942A160C94A0
:102130009110E92FE295EF70E250EE3070F4F0E08C
:10214000E15EFD4C0C94B831803F19F020F4883EDC
:1021500020F481E00895843FE1F380E00895883E13
:10216000C0F3813FD1F7F5CF93FB882780F908951D
:10217000FC01808191810E9481120C949910CF936F
:10218000DF9300D000D00F92CDB7DEB70F900F9045
:102190000F900F900F90DF91CF910895CF93DF9321
:1021A00000D000D000D0CDB7DEB726960FB6F89499
:1021B000DEBF0FBECDBFDF91CF91089508950C947F
:1021C000DE100E94DF106093100270931102809362
:1021D0001202909313020C947F1008950C94E11056
:1021E0000F931F930091100210911102209112027F
:1021F00030911302602B712B822B932B1F910F9127
:102200000C94E1100F931F93009110021091110292
:1022100020911202309113026023712382239323B1
:102220001F910F910C94E1100F931F9300911002D6
:102230001091110220911202309113026027712730
:10224000822793271F910F910C94E1100C94DE10BC
:102250000C9426110E94281160930C0270930D02B9
:1022600080930E0290930F020C947F1060E070E058
:10227000CB010C942A110F931F9341E050E060E0D2
:1022800070E08A019B0104C0000F111F221F331F41
:102290008A95D2F7C901B8011F910F910C942A11A8
:1022A0000F931F9341E050E060E070E004C0440FE2
:1022B000551F661F771F8A95D2F780910C02909167
:1022C0000D02A0910E02B0910F028A019B01082B12
:1022D000192B2A2B3B2BC901B8011F910F910C948C
:1022E0002A110F931F9341E050E060E070E004C0BA
:1022F000440F551F661F771F8A95D2F7CB01BA018D
:10230000609570958095909500910C0210910D024A
:1023100020910E0230910F026023712382239323B8
:102320001F910F910C942A110F931F9341E050E0DD
:1023300060E070E004C0440F551F661F771F8A9548
:10234000D2F780910C0290910D02A0910E02B091F3
:102350000F028A019B01082719272A273B27C90159
:10236000B8011F910F910C942A110F931F930091A4
:102370000C0210910D0220910E0230910F02602B81
:10238000712B822B932B1F910F910C942A110F9379
:102390001F9300910C0210910D0220910E023091BA
:1023A0000F0260237123822393231F910F910C94BA
:1023B0002A110F931F9300910C0210910D0220918E
:1023C0000E0230910F0260277127822793271F91F9
:1023D0000F910C942A110895990F990F890F982F36
:1023E000977041E001C0440F9A95EAF7869586956B
:1023F000869595E0899FF0011124E95FFD4F30E05B
:1024000020E070E05191DF011197CB01022E02C054
:10241000969587950A94E2F78170819585278423A4
:1024200085278C932F5F3F4F2530310559F708954D
:10243000990F990F890F982F977086958695869595
:1024400025E0829FF0011124E95FFD4F50E040E05C
:1024500080E0219130E0092E02C0369527950A943C
:10246000E2F721703327042E01C0220F0A94EAF705
:10247000822B4F5F5F4F4530510559F70895BF924A
:10248000CF92DF92EF92FF920F931F93CF93DF9340
:102490008C01C0900C02D0900D02E0900E02F090E2
:1024A0000F028091100290911102A0911202B0913E
:1024B0001302C82AD92AEA2AFB2ACFE1D0E0BC2E8F
:1024C000D701C6010C2E04C0B695A79597958795A0
:1024D0000A94D2F780FD0EC0219788F7B12C8B2D7E
:1024E000DF91CF911F910F91FF90EF90DF90CF90F0
:1024F000BF900895B8018C2F0E94F419019761F3E1
:10250000EECFCF93DF93EC010E943F12BE01DF912B
:10251000CF910C94F4191F93CF93DF93EB0190911B
:102520000602992331F0CB01DF91CF911F910C94DA
:102530008112882379F0CB010E943F12182F682F57
:10254000CE010E94EC11BE01812FDF91CF911F912E
:102550000C94F419CB010E941812182FF4CFEF92AB
:10256000FF920F931F93CF93DF938C01892B81F000
:10257000F12CEE24E394E8012196F801849184374C
:1025800070F4843008F05FC08130B1F08230A1F186
:10259000DF91CF911F910F91FF90EF9008958537B4
:1025A00009F44CC008F43DC09CE7980F903780F7C1
:1025B0008F770E94920D49C00E5F1F4FFE018491DC
:1025C00090E2980F983060F48770FE2D01C0FF0FE5
:1025D0008A95EAF78F2F0E943D160E946A1602C064
:1025E0000E943F0D8F2D815030F2EFE9FFE03197CF
:1025F000F1F700C00000F7CF0E5F1F4FFE0184917E
:1026000090E2980F983050F48770FE2D01C0FF0FB4
:102610008A95EAF78F2F0E944316DFCF0E94920D12
:10262000E1CF0E5F1F4FFE01C491C150D8F28FE978
:102630009FE00197F1F700C00000F7CF0E5F1F4F3A
:10264000FE01F490CFCF0E943F0D8E01CBCF1F93A0
:10265000CF93DF93C091140216E0809115028C1382
:1026600004C0DF91CF911F910895D0E01C9FF0012D
:102670001D9FF00D1124EA5EFD4F40815181628162
:102680007381848195810E94CE102196C770E5CF19
:102690004091460250914702609148027091490270
:1026A00080914A0290914B020C94CE10FF920F93AE
:1026B0001F93CF93DF9380914B02807FD1F4809161
:1026C00048028823B1F080911402109115026091A4
:1026D000460270914702A0914902B0914A02062F2A
:1026E0000723C0910001D091010196E0F92E181343
:1026F00006C0DF91CF911F910F91FF90089590E058
:10270000109711F00F3F19F401968770F0CFF89EE3
:102710009001F99E300D1124F901EA5EFD4F4181CF
:102720004713F2CF40814613EFCF42814111ECCFE6
:10273000438154814A1B5B0B4C175D0728F780913E
:102740004B028F70806180934B02F901E55EFD4F73
:1027500080818F708061808386E492E00E945310B4
:10276000DF91CF911F910F91FF900C942713AF929F
:10277000BF92CF92DF92EF92FF920F931F93CF936E
:10278000DF93CDB7DEB761970FB6F894DEBF0FBE0B
:10279000CDBF8C0185E0F801DE011D9601900D9200
:1027A0008A95E1F7F801E28086E4C82E82E0D82E0F
:1027B0006091490270914A026115710509F45FC187
:1027C0009091460220914702892F82238F3F09F47E
:1027D00056C140815181A380B480F0904802F50138
:1027E000E61BF70BBF01E0910001F0910101FF2012
:1027F00009F4F6C080914B02382F307F6E177F07A7
:1028000008F0AFC0311179C0FE2C251323C09413FA
:1028100021C0E1101FC08F70806180934B020E9425
:102820004813C6010E94531080914B02F801858322
:102830008F2D61960FB6F894DEBF0FBECDBFDF912E
:10284000CF911F910F91FF90EF90DF90CF90BF90AD
:10285000AF900895AB2829F0842F85238F3F09F08E
:1028600027C180E0F82FF170DF2E80FF3CC08091FF
:1028700014022091150236E0821315C04D875E8741
:102880008D859E850E948112292F22952F702230DE
:10289000F0F0243018F59F70F1F0F8019581907FE9
:1028A000D1F4D12C1EC090E0389FF001399FF00D7B
:1028B0001124EA5EFD4F6181651306C060816413D7
:1028C00003C062816E110FC001968770D5CF9F70D3
:1028D00011F0882331F3805E883018F3C8010E941C
:1028E0005310FD2CA5CFEE2009F4A2CF80914B020E
:1028F000816080934B02F12C9BCF251306C094136B
:1029000004C0F801EE2009F487C0C8010E94B81085
:10291000882319F1EE2009F180914B02803270F08A
:10292000209146023091470238872F831986BB8653
:10293000AA868C87CE0107960E94531086E0F80184
:10294000A6E4B2E001900D928A95E1F70E94561339
:102950000E944813FF24F3946BCFC8010E945310C8
:10296000F9CF311113C07A2DB98AA88A6E2D8989C1
:102970000E94BF1086E492E00E94531086E0F601A8
:1029800011928A95E9F70E944813B5CF25130FC01D
:1029900094130DC0E1100BC0F8018583C8010E949B
:1029A000531086E0F60111928A95E9F741CFC801EC
:1029B0000E94B810882389F2EE2079F280914B02B0
:1029C000803208F4BBCF20914602309147023A830F
:1029D00029831B82BD82AC828E83CE010196ACCF4F
:1029E0006E177F0708F03EC0FE2CEE2009F4B5CF2D
:1029F00025132AC0941328C080914B0280FD1BC070
:102A0000982F907FC1F0F8018583903F31F0982F87
:102A1000907F905F8F70892B8583C8010E9453102F
:102A200086E0F801A6E4B2E001900D928A95E1F704
:102A30000E944813FDCE86E0F801A6E4B2E00190C2
:102A40000D928A95E1F7F4CEC8010E94B810811169
:102A500075CF80914B02816080934B02C8010E9428
:102A60005310E6CE7A2DB98AA88A6E2D89890E94E4
:102A7000BF1086E0F60111928A95E9F7D9CFEE20D2
:102A800009F46BCFC8010E94B810F82E882309F40E
:102A900064CF86E0F801A6E4B2E001900D928A9539
:102AA000E1F786E492E00E94100D0E945613C0CF19
:102AB00081E08E25D7CE1F93CF93DF93CDB7DEB7BE
:102AC0002C970FB6F894DEBF0FBECDBF4F8358874B
:102AD00069877A878B879C87CE0107960E94B713F8
:102AE000882369F08A859B85892B39F04F81588529
:102AF000842F85238F3F09F071C016E05FC086E008
:102B0000FE013796DE01119601900D928A95E1F74C
:102B10008A859B85892B89F38F81988589238F3FAF
:102B200061F32091150230E0C90101968770992761
:102B3000409114024817190671F40E9495101092E2
:102B400015021092140286E0E6E4F2E0DF011D9225
:102B50008A95E9F7D2CF96E0929FD001939FB00D6E
:102B60001124AA5EBD4FFE01319601900D929A95F7
:102B7000E1F7809315020E942713BFCF819FC00108
:102B800011248A5E9D4F0E94B7138823E9F0E091DB
:102B900014021E9FF0011124EA5EFD4F4081518115
:102BA00062817381848195810E94CE10809114028C
:102BB00090E0019687709927809314028091140207
:102BC000909115028913DACF2C960FB6F894DEBFD8
:102BD0000FBECDBFDF91CF911F91089569857A8592
:102BE0008B859C850E94CE1088CF682F8091020132
:102BF000909103010C940629682F80910201909115
:102C000003010C94082980910201909103010C9416
:102C10000A2980914C028595859585950895809126
:102C20004C028770089590914C02977081E009F4EE
:102C300080E0089580915802089590915802892B60
:102C4000809358020895809590915802982390930C
:102C50005802089510925802089590915702892BB6
:102C600080935702089580959091570298239093EE
:102C70005702089510925702089590915602892B99
:102C800080935602089580959091560298239093D0
:102C90005602089510925602089580914D020895AB
:102CA00008950C9450169091AC0292FD08C090913A
:102CB0004D02981721F080934D020C9451160895FF
:102CC00080914D02882329F010924D0280E00C94EF
:102CD00051160895E0910201F0910301809158028C
:102CE0008083E0910201F09103018081909157026D
:102CF000892B8083E0910201F09103018081909102
:102D00005602892B808390914D02992381F0E091A6
:102D10000201F09103018081892B8083809102015F
:102D2000909103010E94BE2881110E94601680913B
:102D30000201909103010C94382808950C949D167B
:102D40009091AC0292FD10C098E0899F90011124EF
:102D5000622B60934C020E94501180914C02859529
:102D6000859585950C949E160C94501110924C02EA
:102D700080E00C949E1690914C028095892380935C
:102D80004C02282F277091F4282F082E000C330BAB
:102D90009217130659F09091AC0292FD07C08595E9
:102DA000859585950E9471110C94B6160895CF9360
:102DB000C82F8091AC0282FB992790F99C17E9F00B
:102DC000C0FB82F98093AC028091AB029091AC027F
:102DD0000E94351782E00E94BB168091670280FF37
:102DE0000CC01F92CF938FED90E09F938F930E9422
:102DF000B30B0F900F900F900F90CF91089580918B
:102E0000AC0282FB882780F991E089270C94D716C1
:102E100081E00C94D71680E00C94D7166FEF7FEF0B
:102E200090E080E00C94F73190E080E00E94D33194
:102E300021E0893E9E4F09F020E0822F089582E034
:102E400090E00C94CB3183E090E00C94CB31CF93A5
:102E500084E090E00E94CB31C82F82E290E00E9493
:102E6000CB31982F8C2FCF910895CF93C92F682FF6
:102E700084E090E00E94D9316C2F82E290E0CF9103
:102E80000C94D931AB01BC018FE090E00C94EB3194
:102E9000AB01BC0183E190E00C94EB3160E070E0A9
:102EA000CB010C94481760E070E0CB010E94421700
:102EB0000C944E1769EE7EEF90E080E00E94F731AF
:102EC00060E082E090E00E94D93160E083E090E031
:102ED0000E94D93110921002109211021092120227
:102EE0001092130260E084E090E00E94D93160E02B
:102EF00082E290E00E94D93160E085E090E00E949B
:102F0000D93160E086E090E00E94D9316FEF87E030
:102F100090E00E94D93140E050E0BA0188E090E0B2
:102F20000E94EB3160E08DE090E00E94D93140E0FA
:102F300050E0BA0188E190E00E94EB3160E087E167
:102F400090E00E94D93140E050E0BA018CE190E07D
:102F50000E94EB3170E060E080E290E00E94F73187
:102F600040E050E0BA0188E190E00E94EB310C941F
:102F700053170C945A17682F8EE090E00C94D931B7
:102F80000E94A82960936302709364028093650293
:102F90009093660260935F02709360028093610277
:102FA0009093620208950E94A8296093630270932F
:102FB0006402809365029093660260935B02709353
:102FC0005C0280935D0290935E02089585B78068ED
:102FD00085BF85B7806885BF0895089508950C94CE
:102FE000ED1708950C94F1170E94E6178BED9BE204
:102FF0000E9422280E94EE170C94EF1781E008959A
:103000000C94FE17089508950E9402180C9403185A
:103010000E9493290E94AF1B0E940A260E94D31F80
:103020000C94F217CF93C82F8091670282FF1EC0C5
:1030300080FF1CC08BEF90E00E941A0B809167020A
:1030400080FF14C01F92CF9386EF90E09F938F93E1
:103050000E94B30B809167020F900F900F900F901A
:1030600080FF04C084EF90E00E941A0B8C2FCF9158
:103070000C94CA0CEF92FF920F931F93CF93DF93A0
:10308000CDB7DEB72A970FB6F894DEBF0FBECDBF1F
:103090000E94BA1B81110E94C01780E00E94171B7A
:1030A000182F80915A02E82EE126811709F44DC0AD
:1030B0008091670281FD0E941D1BF12C01E08E2D85
:1030C000802309F43DC00E940018882399F0FE82F5
:1030D0001F82102381E009F480E088870E949C29E8
:1030E0008160782F9A8789874E815F8168858A857C
:1030F0000E94D20C80915A02082700935A020E9423
:103100001A2681110E94D3170E94231E0E941620A6
:103110000E942C2890915902891741F10E942C2875
:10312000809359022A960FB6F894DEBF0FBECDBF2A
:10313000DF91CF911F910F91FF90EF900C94121897
:10314000F394000F84E0F812BACF8FEF89838A835B
:103150001B820E949C298160782F9D838C834981EA
:103160005A816B818D810E94D20CC9CF2A960FB6ED
:10317000F894DEBF0FBECDBFDF91CF911F910F91AD
:10318000FF90EF90089590E080E008950895272F34
:10319000280F3327331FF901EE0FFF1FEE0FFF1F1C
:1031A000E60FF11DEE0FFF1FE455FF4F859194913F
:1031B0000895FC01EE0FFF1FE25FFE4F8591949191
:1031C0000895CF93DF930E94F819EC01811520E553
:1031D000920708F042C0811530E4930708F0BDC0A3
:1031E000883E910528F5803E910508F09DC0883AFB
:1031F000910588F4853A910508F08FC081309105DA
:1032000009F492C0009709F48FC0049708F08CC0AD
:10321000D0E0C0E089C08F3B910508F489C0805C94
:103220009109C03CD105A0F30E94D918EC017CC0E3
:103230008115904250F4C11581E0D80708F074C0A0
:10324000CD3ED10528F3D0656FC0C11590E3D907F5
:1032500008F079C0CE019F70E7CF811525E5920770
:1032600058F5811534E5930708F0A6C0811542E5AD
:10327000940750F4C11581E5D80708F471C0DC2F1C
:10328000CC27C16FD06A50C0982F969596959E0115
:1032900023703327C115D34508F07FC0C1E0D0E0CB
:1032A00002C0CC0FDD1F2A95E2F720E2929FC001F9
:1032B0001124C82BD92B6FC0C11589E5D807A8F4F4
:1032C000C11598E5D90708F07CC0C11526E5D207DD
:1032D00008F09ECF8C2F0E948F1AC82FD0E0DC2FD1
:1032E000CC27CC27DF71D0621FC0C1153AE5D307C8
:1032F00008F46CC0CE0190568115904208F088CF3A
:103300008D2F8F710E948F1A90E0982F8827882721
:103310009F719C012C2BE901E6CFC55AD0E0C7581C
:10332000DE4FC881D0E0D064CE01DF91CF91089507
:10333000C85AD0E0CC0FDD1FC55BDE4F0990D881A5
:10334000C02DD464F1CFCE019927D3FF03C0EC0187
:10335000D86CEACFEC01D06CE7CFDF70D06AE4CF55
:10336000CE01E4E096958795EA95E1F783702C2FDE
:1033700026952695237090E2299F90011124382BE1
:103380008C2F8370C1E0D0E002C0CC0FDD1F8A9586
:10339000E2F7C22BD32BDC68C7CFC1E0D0E002C07C
:1033A000CC0FDD1F2A95E2F730E2939FC001112474
:1033B000C82BD92BDA68B8CFD82FCC27C46FD06AE6
:1033C000B3CFDC2FCC27C06FD06AAECF8C2F8F70DD
:1033D0000E948F1A34E0D695C7953A95E1F7CF70E1
:1033E0009C2FEC01D069A0CF0E94C7180C94E11863
:1033F00082389105B1F1B0F48133910509F475C0BB
:1034000048F48932910509F469C08A32910509F4BA
:1034100073C008958533910509F459C08933910526
:1034200001F10895833E9105A9F138F4803E91059C
:10343000F9F0823E910549F10895863E9105A9F182
:10344000873E9105C9F1843E910519F52091AC02A2
:1034500021FF1FC08091AB0284FD14C087EE90E075
:1034600008952091AB022370A1F080EE90E00895C2
:103470002091AB0220FD47C03091AC0230FF09C063
:1034800024FF44C090E080E004C02091AB0222FD04
:10349000F7CF08952091AB0222FD3BC03091AC02E2
:1034A00030FDE3CF24FFF5CFEDCF2091AB0223FF1A
:1034B000F0CF24FDE7CFD2CF2091AB0223FD2CC06B
:1034C0003091AC0231FFEECF84EE90E00895209170
:1034D000AB0225FFDECF89E290E008952091AB0298
:1034E00025FFD7CF85E390E008952091AB0226FF1A
:1034F000D0CF8AE290E008952091AB0226FFC9CF99
:1035000081E390E0089589E390E0089583EE90E0F0
:10351000089582EE90E0089586EE90E008959091EF
:10352000AB0292FF06C0282F28712830F9F4877F5C
:10353000846093FF06C0282F28712831F1F4877E1C
:1035400084612091AC0220FF06C0382F38713830DA
:10355000D9F4877F816021FF06C0282F2871283188
:10356000D1F4877E816194FD877E0895282F247190
:103570002430F9F68B7F8860DCCF282F247124312A
:1035800001F78B7E8861DDCF382F3171313019F72B
:103590008E7F8860E0CF282F2171213121F78E7E28
:1035A0008861E1CF0C940E170E94BA1B2FEF86E7BB
:1035B00091E0215080409040E1F700C000000E945F
:1035C000BA1B80E00E94171B80FF04C00E94D21A21
:1035D0000C94E72908950C94D41A0E9414178111B1
:1035E00002C00E94B9170E941F17809367020E94B1
:1035F00027179093AC028093AB020E94EB1A0E94B3
:103600002317682F70E090E080E00E94EE10609138
:103610000C0270910D0280910E0290910F020C9499
:10362000281108950C94111B08950C94141BE82F75
:10363000F0E0E255FD4F808108958DE191E00E9418
:103640001A0B1F921F9288E191E09F938F930E9423
:10365000B30B85E191E00E941A0B8091AE020E94AB
:10366000AA0C1F928F9380E191E09F938F930E9409
:10367000B30B8DB79EB708960FB6F8949EBF0FBEDA
:103680008DBF8EE091E00C941A0B80EA8A95F1F7D9
:10369000089500C008950C94451BF894E82FE29516
:1036A000EF70F0E031A1282F2F7081E090E001C091
:1036B000880F2A95EAF7982F9095932391A392A1CA
:1036C000892B82A37894089585E30E944D1B84E39F
:1036D0000E944D1B86EC0E944D1B87E90E944D1BEA
:1036E00086E60C944D1B0F931F93CF93DF938C01B1
:1036F000C62FF894259A2D9878940E94491BECE7E0
:10370000F1E081E0D0E091919F3F79F0A92FA2955F
:10371000AF70B0E090962C9130E09F7002C035956C
:1037200027959A95E2F7982F20FD90E0D92B880FE6
:1037300091E0E038F90739F785E30E944D1B61E01D
:10374000D11101C060E08C2F0E944B1BF801EC0FDF
:10375000F11DD083DF91CF911F910F9108950E94A9
:10376000641B1092AE021092AD0281E00E94E01B39
:103770000C941D0C1F93CF93DF930F92CDB7DEB740
:10378000198260E0CE0101960E94731B9091AD02F8
:10379000898111E0981301C010E098138093AD0265
:1037A000212F41E06EEA72E08DEA92E00E94E11B77
:1037B0000E94230C812F0F90DF91CF911F910895CC
:1037C0000895FF920F931F93CF93DF93F82E092F45
:1037D000162FD72FC42F222349F081E080936A024D
:1037E0000E949C29909369028093680280916A02EA
:1037F0008823A1F080916802909169020E94B42907
:10380000059760F0EF2DF02FA12FBD2FCE0FDF2FEA
:10381000D11DEC17FD0741F410926A02DF91CF91A0
:103820001F910F91FF90089581918D93F2CF0E9487
:10383000562C0E9408180C94622C0E94662C0E9440
:103840003A180C94842C0E942B290E943D2C0E9433
:10385000F4170E94171C0E941D1C0E940418FBCF25
:103860008091710280FF12C06091090185E0689F1C
:10387000B001112475956795759567956038710548
:10388000A8F561157105A1F1862F089581FF09C082
:103890006091090185E0689FB001112475956795D5
:1038A000EDCF6091090182FD0AC0809170028823EA
:1038B000D1F09091080160910901891728F085E005
:1038C000689FB0011124DACF869FB001112485E0F2
:1038D000869F9001879F300D1124692F70E0C901E8
:1038E0000E94A431CBCF65E070E0CECF8FE7089582
:1038F00081E008958091710280FF0CC06091050104
:1039000070E075956795759567956115710549F135
:10391000862F089581FF06C06091050170E07595BE
:103920006795F3CF6091050182FD0BC090916F0206
:103930009923A1F06091040180910501961738F058
:10394000682F70E06038710500F38FE70895899F54
:10395000C001112470E00E94A431F4CF61E070E056
:10396000D7CF81E008958D3E31F40E94301C8195BF
:103970008093750208958E3E19F40E94301CF8CF92
:103980008F3E31F40E94301C81958093740208951B
:10399000803F19F40E94301CF8CF893F29F40E941F
:1039A0007A1C8093760208958A3F21F40E947A1C43
:1039B0008195F7CF8B3F31F40E947A1C81958093DB
:1039C000770208958C3F19F40E947A1CF8CF9FE08B
:1039D000980F983070F4815F990B21E030E001C0BE
:1039E000220F8A95EAF780917302822B80937302EB
:1039F00008958D3F31F4809171028160809371024E
:103A000008958E3F21F4809171028260F7CF8F3F3D
:103A1000B9F7809171028460F1CF409174028D3EBC
:103A200059F48091750287FF0DC010927502411103
:103A30000BC01092700208C08E3E81F48091750216
:103A400018169CF3442381F08091760290917702BE
:103A5000892B09F05AC010926F0208958F3E49F4E5
:103A600047FFF0CF10927402809175028111ECCF64
:103A7000E0CF803F19F41416ACF3E4CF90917602B6
:103A8000893F29F41916F4F610927602DBCF8A3FAB
:103A900019F497FFD7CFF8CF909177028B3F29F495
:103AA00097FFD0CF10927702CDCF8C3F19F4191623
:103AB000CCF3C8CF9FE0980F983090F4815F990BBA
:103AC00021E030E0B90102C0660F771F8A95E2F766
:103AD000CB01809590917302892380937302B2CFBA
:103AE0008D3F31F4809171028E7F80937102AACF55
:103AF0008E3F21F4809171028D7FF7CF8F3F09F0C7
:103B0000A1CF809171028B7FF0CF089580916702E1
:103B100083FF7EC083E591E00E941A0B80917302BF
:103B20001F928F938EE491E09F938F930E94B30B2B
:103B30008CE491E00E941A0B80917402282F082EC9
:103B4000000C330B3F938F9389E491E09F938F9305
:103B50000E94B30B87E491E00E941A0B80917502DA
:103B6000282F082E000C330B3F938F9384E491E0B1
:103B70009F938F930E94B30B82E491E00E941A0BF3
:103B800080917602282F082E000C330B3F938F93E1
:103B90008FE391E09F938F930E94B30B8DE391E0AD
:103BA0000E941A0B80917702282F082E000C330BED
:103BB0003F938F938AE391E09F938F930E94B30B7F
:103BC00087E391E00E941A0B809170021F928F93FD
:103BD00084E391E09F938F930E94B30B82E391E083
:103BE0000E941A0B809171021F928F938FE291E0D5
:103BF0009F938F930E94B30B8CE291E00E941A0B6B
:103C00008DB79EB74C960FB6F8949EBF0FBE8DBF72
:103C10000E949C299C019091740280917502982BBE
:103C200021F030936E0220936D0290917602809184
:103C30007702982B21F030936C0220936B0282E77D
:103C400092E00C948428EF92FF920F931F93CF93EE
:103C5000DF9300D000D000D0CDB7DEB786E0E2E73A
:103C6000F2E0DE01119601900D928A95E1F7E09065
:103C70007402F09075020091760210917702109212
:103C800074021092750210927602109277028E2DB5
:103C90008F2991F080916D0290916E020E94B4295B
:103CA000AC0190917002992309F43FC080910A0100
:103CB0008417150608F447C0802F812B91F080915E
:103CC0006B0290916C020E94B429AC0190916F023A
:103CD000992309F477C0809106018417150608F42A
:103CE0007FC08091740290917502892B9091760229
:103CF000892B90917702892B11F00E94861D86E016
:103D0000FE013196A2E7B2E001900D928A95E1F7AB
:103D100026960FB6F894DEBF0FBECDBFDF91CF91D0
:103D20001F910F91FF90EF90089520910B018AE071
:103D3000289F900111242417350708F0BDCF9F5FFD
:103D40009093700202C09F3FD1F7EE2059F00E947D
:103D5000301C9FEF1E140CF491E0899F802D1124DC
:103D600080937402FF2059F00E94301C9FEF1F14B3
:103D70000CF491E0899F802D11248093750230917D
:103D80007402332309F498CF20917502222309F499
:103D900093CF45EB3403C0011124992359F090933C
:103DA000740245EB240390011124332339F030933E
:103DB000750282CF81E080937402F3CF81E080931B
:103DC00075027ACF209107018AE0289F9001112483
:103DD0002417350708F085CF9F5F90936F0202C0CC
:103DE0009F3FD1F7002359F00E947A1C9FEF1016D5
:103DF0000CF491E0899F802D112480937602112389
:103E000059F00E947A1C9FEF11160CF491E0899FE3
:103E1000802D11248093770230917602332309F4A8
:103E200060CF20917702222309F45BCF45EB340366
:103E3000C0011124992359F09093760245EB240395
:103E400090011124332339F0309377024ACF81E077
:103E500080937602F3CF81E08093770242CF86E0B1
:103E6000E2E7F2E0DF011D928A95E9F71092700215
:103E700010926F02109271020895CF93DF9300D0D9
:103E800000D000D0CDB7DEB786E0E2E7F2E0DE0199
:103E9000119601900D928A95E1F729813A814B8123
:103EA0005C816D817E8180E090E026960FB6F8946B
:103EB000DEBF0FBECDBFDF91CF910895EF92FF928D
:103EC0000F931F93CF93DF93CDB7DEB72C970FB629
:103ED000F894DEBF0FBECDBF49835A836B837C83CA
:103EE0008D839E83EF82F88609871A872B873C870C
:103EF00046E050E0BE01695F7F4FCE0101960E940F
:103F0000BE3121E0892B09F420E0822F2C960FB6D8
:103F1000F894DEBF0FBECDBFDF91CF911F910F91FF
:103F2000FF90EF90089508950895CF93DF93CDB754
:103F3000DEB72C970FB6F894DEBF0FBECDBF4F8310
:103F4000588769877A878B879C8786E0FE0137963A
:103F5000DE01119601900D928A95E1F729813A814F
:103F60004B815C816D817E8180E090E02C960FB664
:103F7000F894DEBF0FBECDBFDF91CF910895CF93F0
:103F8000DF93CDB7DEB72C970FB6F894DEBF0FBE28
:103F9000CDBF2C960FB6F894DEBF0FBECDBFDF911C
:103FA000CF910C94951FE0918001F09181010995CA
:103FB0000E94931F0C94941FEF92FF920F931F93F4
:103FC000E0907802F090790200917A0210917B02E1
:103FD00020917C0230917D0240917E0250917F02BF
:103FE000609180027091810280918202909183029F
:103FF0000E945E1F882321F08EE792E00E948428B1
:10400000109280021092810210928202109283021A
:1040100086E0EEE7F2E0A8E7B2E001900D928A9523
:10402000E1F71F910F91FF90EF9008950F931F9369
:10403000CF93DF9300D000D000D0CDB7DEB7E091B2
:104040008201F091830140917E0250917F02609144
:104050008002709181028091820290918302099581
:10406000E52FCB0120937E0230937F02E093810203
:1040700060938202909383020EE712E0642F6195B1
:10408000D80112966C93A9017E2F0E94BF1F209326
:104090007E0230937F0240938002509381026093AE
:1040A0008202709383020E943D1FF8018181832B5D
:1040B000818326960FB6F894DEBF0FBECDBFDF9189
:1040C000CF911F910F910C94DC1FCF93DF9300D001
:1040D00000D000D0CDB7DEB786E0EEE7F2E0DE013B
:1040E000119601900D928A95E1F729813A814B81D1
:1040F0005C816D817E8180E090E026960FB6F89419
:10410000DEBF0FBECDBFDF91CF910895CF93DF9378
:1041100000D000D000D0CDB7DEB749835A836B837F
:104120007C838D839E8386E0FE013196AEE7B2E00C
:1041300001900D928A95E1F726960FB6F894DEBFAE
:104140000FBECDBFDF91CF910895CF93DF93CDB751
:10415000DEB72C970FB6F894DEBF0FBECDBF4F83EE
:1041600058878B879C870E949221FC0161382FEF32
:10417000720754F19B016038710514F02FE730E0AD
:10418000E138FF4F1CF18038910514F08FE790E083
:1041900029878A8786E0FE013796DE011196019015
:1041A0000D928A95E1F729813A814B815C816D817D
:1041B0007E8180E090E02C960FB6F894DEBF0FBEB3
:1041C000CDBFDF91CF91089521E8DACF81E8E0CF2C
:1041D00028E030E043E060E087EF0C945027CF9375
:1041E000DF93D82FC62F0E94E8208D2F80680E9471
:1041F000C8278C2F0E94C8270E94F8278FED91E0D6
:104200000197F1F700C00000DF91CF910895CF939F
:10421000C82F0E94E8208C2F8F770E94C8270E9409
:10422000E027C82F0E94F8278AE68A95F1F700C098
:104230008C2FCF9108958FE00E94072128EC829F58
:10424000C0011124089568EC883C910548F068E0AD
:10425000893020E2920720F468EC70E00E949031EF
:104260008FE00C94EF20CF93DF93879A0E9448272A
:104270006AE58AE30E94EF202FEF80E792E0215069
:1042800080409040E1F700C0000082E00E940721DA
:1042900083E00E94072184E00E94072185E00E94BC
:1042A000072186E00E94072162E089E30E94EF2057
:1042B0006DE183E10E94EF20EFE3FCE93197F1F734
:1042C00000C0000068E183E10E94EF200E94E82026
:1042D00082EE0E94C827F0E5FA95F1F7C6E7D1E033
:1042E000FE0184910E94C827F0E5FA95F1F7219626
:1042F0002DE0C437D207A1F70E94F8278FE39CE98D
:104300000197F1F700C0000080E20E940721682FAA
:10431000607F80E20E94EF2080E496E0DF91CF9101
:104320000C9423210F931F93CF93DF930E94E820D7
:1043300080E50E94C8278FE891E00197F1F700C05F
:1043400000000E94E02787FF22C00E94E0270E9411
:10435000E027D82F0E94E027182F0E94E027C82FBF
:104360000E94E02720E0312F89010D2B20E0382F1B
:10437000C9018C2BEC0182E00E94C8270E94F8271B
:10438000B801CE01DF91CF911F910F910895D0E038
:10439000C0E010E000E0EFCFCF93DF93EC01FB0132
:1043A0008281882309F420C1C430FDE5DF07C8F508
:1043B000CB3F9CE5D90730F49E0122503C45243187
:1043C000310598F50E9427179093AC028093AB02B9
:1043D000C031FCE5DF0709F4E0C008F061C0C83077
:1043E0009CE5D90709F4CBC088F5C430FCE5DF07AC
:1043F00009F4B3C0E8F4C2309CE5D90709F4A7C0BA
:104400008091AB028260C330DC4509F4A3C0809187
:10441000AB029091AC020E9435170E94951080E08B
:1044200004C0C236EDE5DE0769F2DF91CF91089551
:104430008091AB028061C630FCE5DF0709F48AC0D9
:1044400008F48FC08091AB02806284C08091AB027F
:104450008D7FCC309CE5D90709F47CC070F4809145
:10446000AB028C60CA30FCE5DF0709F473C008F4C6
:104470008AC08091AB028E7F6DC08091AB02877F36
:10448000CE309CE5D90709F465C08091AB028B7FE3
:10449000CF30DC4508F45EC08091AB028F7E5AC0FD
:1044A000CD3FFCE5DF0709F474C040F5C4319CE55D
:1044B000D90709F48AC058F4C231FCE5DF0709F4D2
:1044C00074C008F46EC08091AB02837F43C0CB3FC1
:1044D0009CE5D90709F449C008F04DC0C531DC4559
:1044E00009F095CF8091AB0282FB992790F921E0EA
:1044F000922790FB82F990FB83F92CC0C1308DE5A7
:10450000D80709F458C088F48091AC028360CF3F8B
:10451000ECE5DE0769F18091AC028D7FC115DD45C8
:1045200038F18091AC028C7F23C0C3308DE5D80771
:1045300009F458C008F452C0C236DD4509F067CF0F
:104540009091AB02892F8F7E94FF806103C0809190
:10455000AB0281608093AB025ACF8091AB02846042
:10456000F9CF8091AB028860F5CF8091AC02816079
:104570008093AC024CCF8091AC028260F9CF8091E5
:10458000AB028064E7CF0E9495108091AB028068F7
:10459000E1CF8091AC028E7FEBCF8091AB028F7D1B
:1045A000D9CF8091AB028F7BD5CF0E94951080919F
:1045B000AB028F77CFCF8091AC02982F90959170FE
:1045C0008E7F892B90FB81F9D3CF0E94951090911B
:1045D000AB02892F97FB87F98058BCCF81E00E94FE
:1045E000BB1715CF80E0FBCF81E01FCF8091040186
:1045F0001F928F93809105011F928F9380910801E4
:104600001F928F93809109011F928F9380910A01CD
:104610001F928F9380910B011F928F9384E79DE0EF
:104620009F938F930E94B30B8DB79EB70E960FB6D4
:10463000F8949EBF0FBE8DBF0895883228F58E3145
:1046400008F072C08B3041F130F4873009F4CFC0EC
:1046500083ED9EE0E0C0833109F45FC08431C1F78F
:1046600085EF9EE00E941A0B80918802882309F44E
:10467000FEC0109288021092870210928602109259
:1046800085021092840220C08F3409F4C7C0D8F587
:10469000893231F38833E1F688EF9EE00E941A0BED
:1046A0000E94F6221F9281E08F931F9285E08F93E4
:1046B00081EF9DE09F938F930E94B30B0F900F901B
:1046C0000F900F900F900F9020918802222309F4F1
:1046D000C9C08091840290918502009711F488E806
:1046E00091E09F938F931F922F9381EC9EE09F9375
:1046F0008F930E94B30B0F900F900F900F900F901D
:104700000F9081E00895813509F49CC008F49CC0A5
:10471000823509F09DCF81E082C087EE9EE00E9445
:104720001A0B0E94F622D0CF8D51809388028330DD
:1047300009F442C058F48130C1F08230A1F11092E6
:10474000880284EE9EE00E941A0B1BC0853009F49B
:1047500045C0D8F1863099F784E091E090938702C4
:104760008093860280ED91E008C08BE091E0909309
:104770008702809386028CE891E090938502809373
:10478000840280918802882309F49ECF1F928F9320
:1047900080EE9EE09F938F930E94B30B0F900F903B
:1047A0000F900F9091CF8AE091E0909387028093D1
:1047B000860285E991E0E1CF89E091E0909387025C
:1047C0008093860281EA91E0D8CF88E091E09093CF
:1047D0008702809386028EEA91E0CFCF85E091E058
:1047E00090938702809386028DEB91E0C6CF8EE195
:1047F00080930B0182E380930A018AE08093090190
:1048000084E18093080188E08093050188E2809329
:10481000040186ED9EE00E941A0B56CF8AE0E091DB
:104820008602F09187023097D1F02081082E000C8B
:10483000990B820F911D8F3F910541F03CF08FEF56
:10484000808307C08FEFEBCF86EFE9CF97FFF8CFDC
:10485000108280811F928F938DEC9EE09BCF8AEC1B
:104860009EE0D9CF8DEB9EE00E941A0B4ACF80E0EC
:104870000895CF93C82F1F928F938EE09FE09F9350
:104880008F930E94B30B61E070E080E090E004C081
:10489000660F771F881F991FCA95D2F70E94EE10E6
:1048A0000F900F900F900F90CF910C949510EF9266
:1048B000FF920F931F93CF93DF938B3109F401C1C4
:1048C00008F09FC08B3009F4BBC008F07DC0863073
:1048D00009F4C9C048F4853009F4A1C08BE493E120
:1048E0000E941A0B80E0CFC0873009F4D3C0883013
:1048F000A9F70E9423171F928F938EE293E19F9353
:104900008F930E94B30B0E941F1783FB992790F986
:104910001F929F9382FB992790F91F929F9381FB8F
:10492000992790F91F929F93982F91701F929F93B0
:104930001F928F9385EE92E19F938F930E94B30B0A
:104940000E94271787FB222720F91F922F9386FBAF
:10495000222720F91F922F9385FB222720F91F92EF
:104960002F9384FB222720F91F922F9383FB22276A
:1049700020F91F922F9382FB222720F91F922F9359
:1049800091FB222720F91F922F93292F21701F922C
:104990002F9381FB222720F91F922F93282F21701C
:1049A0001F922F939F938F9380E092E19F938F9319
:1049B0000E94B30B8DB79EB788960FB6F8949EBF32
:1049C0000FBE8DBF81E05FC0803109F492C080F4DA
:1049D0008E3009F083CF90916702892F8B7F92FFF1
:1049E00084608093670282FF81C086E793E175C08F
:1049F000863109F48EC0893109F070CF8EE79FE0CF
:104A000021C08A3249F190F4873211F128F48E31B5
:104A100008F464CF8D511DC0893209F05FCF89EB56
:104A200093E10E941A0B0E942C0CCCCF833468F4C3
:104A30008A3308F093C0853359F0883309F04ECF9C
:104A40008DE590E10E941A0BBDCF833409F046CF6B
:104A500080E00E943924B6CF89ED93E10E941A0BC1
:104A60000E94B917AFCF80916702807F8093670261
:104A700086E390E10E941A0B85ED93E10E941A0BE8
:104A800081E080938902DF91CF911F910F91FF9078
:104A9000EF90089590916702892F8E7F90FF81603B
:104AA0008093670280FF03C08DEA93E1CBCF80EA59
:104AB00093E10E941A0B80916702817F80936702C5
:104AC00081CF90916702892F8D7F91FF82608093C3
:104AD000670281FF08C083E993E10E941A0B80916D
:104AE00067028160EBCF85E893E1ACCF86E693E186
:104AF000A9CF90916702892F877F93FF8860809369
:104B0000670283FF03C08AE593E1E7CF8DE493E179
:104B100099CF0E94A829162F072FF82EE92ED091A1
:104B2000AA02C09119010E942C28EF92FF920F93C4
:104B30001F931F92DF931F92CF931F928F9383E156
:104B40009FE09F938F930E94B30B8DB79EB70C96F7
:104B50000FB6F8949EBF0FBE8DBF34CF895379CF67
:104B600080E008950C94B025CF93C82F80918902DE
:104B70008130C1F0882339F0823009F444C01092AA
:104B8000890280E00DC00E941A168232D1F78C2F64
:104B90000E94B02581111BC08C2F0E945724817068
:104BA000CF9108950E941A16823289F38C2F0E94A9
:104BB000B22581111BC0C431D9F060F4CB3071F043
:104BC000C031D1F088E09FE00E941A0B13C081E051
:104BD00090E0E5CFC93261F0C833A1F786E390E1F8
:104BE0000E941A0B8AE09FE00E941A0B81E0D7CF47
:104BF0001092890280E0D3CF82E08093890288E31B
:104C00000E941D23F3CF8C2F0E941D2381E0C8CF6B
:104C10000C94BC0B54985C9A5098589A89B1829520
:104C20008170489905C090E0892B80938C0208958B
:104C300092E0FACFE0918C02EE0FEE0FE0938C023F
:104C400029B124FB882780F9489937C020E0822BBE
:104C5000E82BE0938C02EF70F0E0EB51FE4F808187
:104C600090918B02890F80938B0220E0843054F066
:104C700080918A028F5F80938A0260E080E00E94C8
:104C8000082621E080918B028D3F54F480918A02A6
:104C9000815080938A0261E080E00E94082621E032
:104CA00080918B02082E000C990B64E070E00E944A
:104CB000A43180938B02822F089522E030E0C7CF89
:104CC000CF93DF93EB0186319C4511F50E941A16B4
:104CD0009A81992399F08A7A91E009F490E090936F
:104CE0008D02811109C089E20E94F5150E946A16A1
:104CF00080E0DF91CF91089585E3F6CF80918D021A
:104D0000811104C089E20E94FC15F0CF85E3FBCF3E
:104D100081E0EFCF0F931F93CF93DF93C42FD22F58
:104D2000FC0182818823C9F0409390020E949C2953
:104D300090938F0280938E0280E28C0F883008F06F
:104D400050C0C77081E001C0880FCA95EAF7DF91B3
:104D5000CF911F910F910C94E00D109190021413BC
:104D600035C080918E0290918F020E94B429883CB8
:104D7000910560F5C0E2CD0F1D17B9F080E2810FFB
:104D8000883040F4177081E001C0880F1A95EAF767
:104D90000E94E70DC83048F481E09D2F977001C054
:104DA000880F9A95EAF70E94E00D802F0E94D80D97
:104DB000C830B8F4D77081E001C0880FDA95EAF7FF
:104DC000DF91CF911F910F910C94E70D80E28C0F32
:104DD000883038F4C77081E001C0880FCA95EAF7BF
:104DE000EFCFDF91CF911F910F9108950F939C0109
:104DF000CB01243F4CE5340759F1A8F4293DFCE5EB
:104E00003F0701F12A3D4CE53407D1F1283D3C45EF
:104E100091F406E221EE41EE68ED7CE50E948A26DF
:104E200080E00F910895263FFCE53F07E9F0B0F0E0
:104E3000273F3C45F9F0FC018281882339F110922B
:104E40009002EFCF07E225EE45EE69ED7CE5E6CF77
:104E500006E221EE40EE64EF7CE5E0CF07E225EECE
:104E600044EE65EF7CE5DACF06E221EE42EE66EF36
:104E70007CE5D4CF07E225EE46EE67EF7CE5CECFAA
:104E800008E221E045EE6AED7CE5C8CF81E0C9CFBC
:104E9000289A219A229A23982B9880E58CBD089510
:104EA00090910C019F3F09F071C08F3F09F46EC0D3
:104EB000611144C01092920290919202423009F422
:104EC00041C0433009F442C094604130E1F141E017
:104ED00050E042175307E0F19091920240315105A2
:104EE00009F452C0C0F54230510509F446C04830BB
:104EF000510509F446C09CB520919202922B9CBDAD
:104F000090919102992319F09DB591609DBD809378
:104F10000C01E82FE295EF70F0E031A1282F2F70FF
:104F200081E090E001C0880F2A95EAF7382B31A381
:104F300092A18095892382A381E0089590E29093C5
:104F40009202BACF986090939202C1CF9C60FBCF3F
:104F5000440F551FBECF4034510549F0403851052C
:104F600041F04032510539F621E0209391029260E0
:104F700001C0936090939202BECF91E09093910212
:104F8000BACF21E0209391029160F4CF80E00895A0
:104F9000CF93DF938EBD0E949C29EC010DB407FED8
:104FA00005C08EB590E0DF91CF9108950E949C29B5
:104FB0008C1B9D0B8436910588F38EEF9FEFF3CF0A
:104FC000CF93DF931EBC0E949C29EC010DB407FE19
:104FD00005C08EB590E0DF91CF9108950E949C2985
:104FE0008C1B9D0B8436910588F38EEF9FEFF3CFDA
:104FF00080910C018F3F29F1E82FE295EF70F0E0EE
:1050000041A18F7021E030E0B90102C0660F771F27
:105010008A95E2F7CB01942F982B91A392A1892B2B
:1050200082A38FEF80930C018DB58E7F8DBD9CB5D3
:1050300080919202809589238CBD109292021092E9
:10504000910208959093050280930402089590932D
:105050009802809397020895E0919702F091980248
:10506000309721F00190F081E02D099480E00895BF
:10507000EF92FF920F931F93CF93DF938C01E091F8
:105080009702F09198023097C1F10280F381E02DF0
:1050900009958091670282FF30C080FF04C082EFD3
:1050A00093E10E941A0BD0E0C0E08CEEE82E83E181
:1050B000F82E8091670280FF0EC0F801EC0FFD1FF3
:1050C00080811F928F93FF92EF920E94B30B0F90FB
:1050D0000F900F900F902196C830D10551F7809115
:1050E000670280FF0AC08AEE93E1DF91CF911F91A2
:1050F0000F91FF90EF900C941A0BDF91CF911F91BD
:105100000F91FF90EF900895E0919702F09198022F
:10511000309739F022E0DC012C930480F581E02DFA
:105120000994089520919502309196022817390725
:1051300071F09093960280939502E0919702F0911E
:105140009802309721F00680F781E02D09940895A8
:1051500020919302309194022817390771F09093AF
:10516000940280939302E0919702F0919802309715
:1051700021F00084F185E02D099408959C012E5FB3
:105180003F4FAC01485F5F4F80E02417350709F4BB
:105190000895F90191919F019923B9F38F5FF5CF9C
:1051A000662349F0FC01329608962191261729F0D2
:1051B000E817F907D1F780E0089581E008959C0190
:1051C000FC0132969FEF80E04191461751F09F3FDE
:1051D00019F4411101C0982F8F5F8630A9F79F3FC6
:1051E00009F40895290F311D97FD3A95F90162835D
:1051F0000895FC01329608962191261303C0DF0121
:1052000011971C92E817F907B9F708950C94DF2855
:105210000C94F928029626E0FC0111922A95E9F7F0
:10522000089508950C941129811105C081E080939F
:1052300099020C94122982E0FACF83E080939902BC
:105240000C9412290C94142981E0809399020C94F7
:1052500012290C94242908958091B702843031F1E9
:105260000E94250C10929A0288E190E020E40FB68B
:10527000F894A895809360000FBE2093600083B7D8
:10528000817F846083BF83B7816083BF7894889572
:1052900083B78E7F83BF0FB6F894A8958091600086
:1052A000886180936000109260000FBE0895089599
:1052B00008950E9457290E94BA1B0E94582980E035
:1052C0000E94171B91E0811101C090E0892F089581
:1052D0000E9495100C94A40C1F921FB61F921124CB
:1052E0008F939F93AF93BF9380919A02811113C0C4
:1052F0008091AF029091B002A091B102B091B20240
:105300004196A11DB11D8093AF029093B002A0936E
:10531000B102B093B202BF91AF919F918F911F9054
:105320001FBE1F90189582E084BD93E095BD9AEF53
:1053300097BD80936E0008952FB7F8948091AF02C7
:105340009091B002A091B102B091B2022FBF089526
:105350002FB7F8946091AF027091B0028091B102C2
:105360009091B2022FBF08959C014FB7F89480919D
:10537000AF029091B002A091B102B091B2024FBFC2
:10538000821B930B089578941F921FB61F921124CD
:105390008F939F93AF93BF938091AF029091B00290
:1053A000A091B102B091B2020196A11DB11D8093EE
:1053B000AF029093B002A093B102B093B202BF913A
:1053C000AF919F918F911F901FBE1F90189581E004
:1053D0008093E00080E28093D8001092C9008FE1B2
:1053E0009EE40197F1F700C0000087E090EBDC013C
:1053F0008093C0029093C102A093C202B093C302F3
:1054000088E19CE00FB6F894A895809360000FBEE9
:1054100090936000FFCF8091A902089508959C01A8
:1054200082E08093E9009FEF8091E800915085FD34
:1054300006C085ED8A95F1F700009111F5CF8091B6
:10544000E80085FF0CC050E040E066E070E0C90174
:105450000E94F42C8091E8008E778093E8000895F4
:10546000CF93DF93EC0181E08093E9008FEF90917F
:10547000E800815095FD06C095ED9A95F1F7000082
:105480008111F5CF8091E80085FF14C050E040E025
:1054900068E070E0CE010E94F42C8091E8008E77E5
:1054A0008093E80088E0FE01A1EAB2E001900D924D
:1054B0008A95E1F7DF91CF91089580939D027093D3
:1054C0009F0260939E028091B702843001F582E0D2
:1054D0008093E9008FEF9091E800815095FD06C020
:1054E00095ED9A95F1F700008111F5CF8091E800D4
:1054F00085FF0DC050E040E063E070E08DE992E090
:105500000E94F42C8091E8008E778093E800089543
:10551000BC0184E00C945D2ABC0183E00C945D2AFC
:1055200088E194E10E941A0B8091B602811109C0B2
:105530000E94842E0E94E12E8091E200846080937C
:10554000E200089584E194E10E941A0B1092B602E1
:10555000089580E194E10E941A0B0C9424298CE0B8
:1055600094E10E941A0B6091B30281E0611101C0C5
:1055700080E00C941D2988E094E10E941A0B909120
:10558000B70281E0943009F080E06091B3020C949E
:10559000222920919C022F5F822F62E30E94843196
:1055A000992319F020939C02089510929C028091F7
:1055B000A0028823F1F08091B7028430C1F4909169
:1055C000E9009F702091EC00822F817020FD80E81F
:1055D000892B93E09093E9009091EB0090FF04C039
:1055E0009091EE0097FD08C08F708093E9001092B3
:1055F000A00208951092F1009091E80095FDFACF75
:105600009091E80090FFF0CF9091E8009E77909302
:10561000E800EACF42E061EC81E00E94002E42E225
:1056200061EC82E00E94002E42E261EC83E00E9485
:10563000002E9091B70281E0943009F080E06091F3
:10564000B3020C9414298091B902833009F460C02C
:1056500030F48130C9F1823009F49CC008958A3059
:1056600009F488C08B3009F46EC0893009F04FC04E
:105670008091B802813209F04AC08091BC029091B9
:10568000BD02029708F043C08091E800877F8093B5
:10569000E8008091E80082FF36C09091F30080918D
:1056A000F200029731F48091F100813011F08630E0
:1056B00021F48091F1008093A9028091E8008B771A
:1056C0008093E8000C94342E8091B802813AF9F46A
:1056D0008091E800877F8093E8008091BC029091E0
:1056E000BD02892B61F468E081EA92E070E00E94DB
:1056F000432D8091E8008B778093E800089560E067
:1057000090E080E0F3CF8091B7028111C2CF08957D
:105710008091B802813AD9F78091BC029091BD0284
:10572000892BA9F78091E800877F8093E80080911A
:10573000E80080FFFCCF809119018093F1008091F7
:10574000E8008E77BDCF8091B802813201F7809159
:10575000BC029091BD02892BD1F68091E800877F31
:105760008093E8000E94342E8091BA028093190140
:105770000C9495108091B802813249F68091E8002E
:10578000877F8093E8000E94342E8091BB02809333
:10579000AA0208958091B802813A09F0B8CF8091A9
:1057A000E800877F8093E8008091E80080FFFCCFCD
:1057B0008091AA02C2CF9FB7F8941092A0029FBF17
:1057C0009091B702943009F048C02091E9002F7001
:1057D0003091EC00932F917030FD90E8922B23E0F4
:1057E0002093E9002091EB0020FF34C02091EE00CF
:1057F00027FF30C020919B02222321F02091E80056
:1058000025FF28C010929B0226E03091E80035FF6A
:1058100014C08093F1008091E80085FD27C080913D
:10582000E80080FFFCCF8091E8008E778093E8004D
:105830009F709093E90080E008953091B702343072
:1058400049F43091EB0035FD05C0215041F481E071
:1058500080939B029F709093E9008FEF0895EFE98A
:10586000FFE03197F1F700C00000CFCF8FB7F89479
:1058700021E02093A0028FBFDBCF84B7877F84BF56
:105880000FB6F894A89580916000886180936000BD
:10589000109260000FBE80E890E00FB6F8948093FD
:1058A0006100909361000FBE0C9429290E94842E00
:1058B0000E94E12EE2EEF0E08081846080837894A3
:1058C0000C9469318DE091E00C9427288091B70207
:1058D0008530C9F484E094E10E941A0B8091B702EC
:1058E000853011F00C9468290E942C298091B50212
:1058F0008823A1F30E945929882381F30E94DE2C7A
:105900000E949510EBCF089508950C94872C292FB1
:1059100033272330310521F168F42130310509F4B2
:1059200043C02230310509F444C090E080E030E00B
:1059300020E026C02132310551F122323105A9F78C
:105940006330710590F7FB01EE0FFF1FE850FE4F2B
:10595000208131816B507E4FFB01808190E010C02F
:1059600099278130910581F0009729F00297E9F697
:10597000ECE1F4E102C0ECE3F4E1849190E09F01FA
:10598000FA01318320830895ECE2F4E1F6CF63302D
:10599000710558F6660F771FFB01E250FE4F20811C
:1059A000318189E090E0ECCF82E190E02BE934E1B5
:1059B000E7CF8BE590E020E434E1E2CF80E189BDE0
:1059C00082E189BD09B400FEFDCF8091D8008F7DB2
:1059D0008093D8008091E00082608093E000809105
:1059E000E00081FDFCCF0895AF92BF92CF92DF928D
:1059F000FF920F931F93CF93DF936C01EB018A010A
:105A00000E94532EF82E811123C00115110539F083
:105A1000F80180819181C81BD90BC80ED91EB12C09
:105A2000A12C2097A9F08091E80085FD22C08091EB
:105A3000E8008E778093E80001151105A1F0F801C8
:105A400080819181A80EB91EB182A08285E0F82ED6
:105A50008F2DDF91CF911F910F91FF90DF90CF900D
:105A6000BF90AF9008950E94532E8823D1F2F82E54
:105A7000EFCFF60181916F018093F1002197FFEF45
:105A8000AF1ABF0ACECFFC018091BE029091BF0237
:105A900086179707A0F06115710529F49091E80029
:105AA0009E779093E80090E06115710551F4911193
:105AB00008C08091E80082FF34C080E00895BC01F6
:105AC000F2CF8091B7028823C1F18530C1F1809176
:105AD000E80083FD30C08091E80082FDEACF80912C
