:100000000C94CA0A0C94110B0C94110B0C94110B48
:100010000C94110B0C94110B0C94110B0C94110BF0
:100020000C94110B0C94110B0C94E32E0C94B72F21
:100030000C9450290C94110B0C94110B0C94110B73
:100040000C94110B0C94110B0C94110B0C94110BC0
:100050000C94110B0C94A7290C94110B0C94110BFC
:100060000C94110B0C94110B0C94110B0C94110BA0
:100070000C94110B0C94110B0C94110B0C94110B90
:100080000C94110B0C94110B0C94110B0C94110B80
:100090000C94110B0C94110B0C94110B0C94110B70
:1000A0000C94110B0C94110B0C94110BF100F20039
:1000B000005C010044454255473A2064697361621F
:1000C0006C65642E0A0044454255473A20656E61CE
:1000D000626C65642E0A004F6E6573686F743A2017
:1000E0006163746976653A2025640A000A00253048
:1000F0003258006B6579626F6172645F7365745F1B
:100100006C65643A20000A0025303862003A20000D
:1001100025303258000A722F6320303132333435A3
:1001200036370A00290A002575002F002575005D65
:10013000280025640020002564002000256400209C
:10014000002564007C0025303258006D6F757365A2
:100150006B6579205B62746E7C78207920762068EC
:100160005D287265702F61636C293A205B0003A6DD
:10017000681E7D107E7E5F1CB8F2470C7B744B14AA
:100180008B7566510B8C76744B14AAD60F9CBAF6FD
:100190006E3FDD38D502809B826D5813A4ABB5C984
:1001A00010A2C60A7F5D1991A0A3CEEB3EC9F160F3
:1001B00042E74CFB746A562EBFDD38D3058892A601
:1001C000CEFF5D38D1CFEF58CB6548F03585A9B269
:1001D0008F5EF38094977E7597877313B08A69D486
:1001E0000ADEC1795936DB9DD6B8156FCE3C723226
:1001F0004588DF6CA56DE87696147420DCF4FA3738
:100200006A2732E329BFC4C7069D58E7877C2E9F23
:100210006E49075D236454836ECBB777F72B6E0F5F
:100220002E6612605565FC43B358735BE867044360
:1002300002DEB389A06D3A2779645B0C169E66B125
:100240008B870C5DF2B63D71DF42038A068DEF1D90
:10025000A8965CED31615CA134F68C086033070030
:100260003E79951B437FFEB6A6D49D7672BFADC086
:1002700015E83731A37263521D1C5D511BE1A9EDD6
:1002800060323EA95028530659E2FCE70264392146
:10029000564AA5408081D55A607B6884F1E0B1B6AA
:1002A0005BDFA81D6D6520C0A2B9D9BB00A6DB8BA2
:1002B000015391FEC45185B0967FFD51DD14036753
:1002C0002E751C76D36EDD995576E5AB23FC4AD5A9
:1002D000C6E82ECA8AB3F68C6CB0E9F2E79E694193
:1002E000EDF16DD286D87ECB5D476C856A23ED201B
:1002F0004093B420C7A5C9AF0315AC19E52A36DF72
:100300006DC58C8007CE920CD806620FDD48461A68
:1003100053C78A8C5D5DB4A102D3A9B8F3948F3F13
:10032000E554D41165B25E090B81E375A789813963
:100330006C46F6069F273BB62D5F1D4BD47B1D6197
:100340007489E4E3BD981BC4513BA4FAE092F7BE64
:10035000F24DBBFFAD4F6D68C27940AA9B8F0C3246
:100360004B5F3EAB5998B3F51DAC5EBC78D3016CC6
:1003700064152FD871A62D45E12242E44E043C7D40
:10038000F44021B46705A8E2F372874C7DD91B6560
:1003900097F3C2E3E4C8D2DEF6EFDCBB44085EE2CA
:1003A000452701B0F643E73AF6DC9DEDF3C50CB8FE
:1003B0009C983AD836EE967267E78191D5050AE0A7
:1003C00082D58FE8F9B0C9CF93E704C5BC2B43565B
:1003D0007EE8677CE5FB49AD5E9F2513DE6E6EE926
:1003E000F1EC870B5981768476B324AF30FD278BEF
:1003F000ABD8008B9B0CD2B24E5E9D1D9601006760
:10040000C15F0220FD456A01605845CA4721905AE4
:10041000C443261AD7A54AB25D2B3549FBA51792CE
:10042000211E939667A27E367ADE5FBE7A589DF8CB
:1004300078A3FAC8D517F021978C80B54B3BBDBB8C
:100440004121A85067F7E71980108ECE04183F515C
:100450006B77D89E16AFECEF48164D9E8538183E48
:10046000D42887602AF67F09866F9C3C3AFFABD080
:1004700061A2970D71947EFDB98002896AB3846C84
:100480002A7762BE0BF4AFAC7B7C8ECA01BA71785E
:1004900094FDB539A44D2F78CFCA920C1A99484CC7
:1004A0001196B54E4128E4A6FE4B7291E7D4DD9F2C
:1004B00012E62938CE45AE02B824AEBDE966086220
:1004C000A22C2B00E223D9C448E4D3ACBB34C7F040
:1004D000E34FB930EAA212F1302C36DE48F2B04CCC
:1004E000433F2E58E420E358CD3122F0A22AE619EA
:1004F000905586F65579D1D7462FC0DC99E8F36A36
:10050000DF7FEB244A1E5A75DE2F5C1961035354BA
:100510006A3B1870B64FF19C0A599D1992658C83FD
:10052000142D448A75A9F590D2664EFA690F5B0BBB
:100530009865C81142597FDD1B7517314C7558EB12
:1005400058637DF2A6C26EB73F3E5E47ADB704E882
:1005500005F8B2CF19F3D285FE3E3EB162082C10E9
:10056000070D739017FA9B560275F951E0E91A7B53
:100570009FB3F398B81C9CE1D535AEC8604811090B
:10058000946BD08B15BC0568D3548A51395C427684
:10059000CED8AD8930C9051CCC943F0F906F722D19
:1005A00085649AB923F90BC37C390F970797DA58FA
:1005B00048330523B882E8D35389AF338022840CB3
:1005C000955C67B8770C5CA25F3D580F27F32FAEA0
:1005D00048BD0B6F54FB674CEA3227F1FAE2B0ECEE
:1005E0000B15B470F65CDD7160C3C1A83265AC7ADE
:1005F0007741E5A96B1181FA348DFBC1806EC4602F
:100600003007D48B67BDAA8C9C64ACDB0B248B6356
:100610006FE6BCE733A44A4CA79F4353D2BB8F433A
:10062000C73D78683FA53DCA6984A6972DC07D3136
:1006300034551D07B15F405C93B0BC7CB0BCE71281
:10064000EE6B2BD34D67703A9AF23C7C81FAD7D986
:10065000909181B8B1F3486A264F0CCEB09EFD4A06
:100660003AAFAC5B3FBF445AA3191E4BE7366AD77B
:1006700020AED77D3BE7FF3A862ED04A3EAF9F8E15
:1006800001BFF84FC1E86F74E145D3F7046A4B9D91
:10069000EC332776D7C5E1B03B0E23ECF086D21AB7
:1006A000BF3D0462B36CB2EB1705A60A8A7E831CB9
:1006B000B63709C60B703CB59381D893A05F1E086E
:1006C000E2C6E5C972F1F1C1EDD5589383F86567CB
:1006D0002E0DA9F16412E64CEA153F8C1AB6BFF64E
:1006E000B9523509B0E6F7CDF1A5AA81D1816FB431
:1006F000A9661FFC48C0B6D18B062FF6EF1F0AE68D
:10070000CE3A4A55BF6DF94DD408454BC366199290
:1007100010E1178E289116BF3CEEA3A6999210E126
:10072000F6CCACB8650B4366F8E3E53F2489475D3A
:100730007843D06117BD5B645408455993F6958A98
:100740004151624B51023073C787C54BA2970FE8E6
:10075000465F7E2AE13020B0FAE7CE6142576E2133
:10076000F37AECE325C725F367A757400002CF1CB7
:10077000807767BD70A119923175932727B682E4FF
:10078000EB1D7848E7A55E57EF6428641BF611B2AD
:10079000039DB9180227F7BE9D55FC00D2C7AEAD28
:1007A0000BC5E9424148D832CFF60FF5BC97C69940
:1007B0004776BD89060F630C51D45EEA48A8A2565D
:1007C0001C7984864088417655FCC2D7FDC9C78014
:1007D0006135A74320F7EB6C6613B0EC02753E4B16
:1007E000AFB95D40DAD66E2D3954C29535542572B5
:1007F000E178B8EBC116580F9C9BB4EA37EC3B117B
:10080000BAD58AA9E39800511C14E04096E5E9F2B4
:100810002122B1236078D317F87AA5A8BA20D3157E
:100820001E32E45E1548AEA9E5B833ECE8A242AC4E
:10083000BF1084538719B45F764D019D5674D95CFF
:1008400097E788EA3ABFDC4C338A16B95BFAD8429C
:10085000A7BB3C04277849812A5A7D7C23A8BAF794
:100860009A9FD2663E383C75F9D13026306E5A6E6A
:10087000DC6A69325033479EA4A86466F08AE4FDBE
:10088000276F51258B4374C98EBD8831BEEC65D26C
:10089000CB8D5A1348168C610B11F6C666AEC3CCCD
:1008A0000CD2E19F82413F56F973EFDC3050CFB656
:1008B0007FBCD0B310AB24E4ECAD188C392D304C98
:1008C000C5400DF6ACD6185D96BF5F717596229740
:1008D0000F02946EA6AE6D8F1ECA129B2A1CCEA963
:1008E000EEFD128EFCED0933BAF41A15F69D87164B
:1008F000437C7857E144C9EB1F584DC149115CB2A4
:1009000011A85516F1C650E98789F6CFD89C51A792
:10091000BC5B316D4D51D04CBC0D582D7B887AF9A4
:100920008ED6404DBBBEC4E507FCD97B6DA64257B1
:100930008F02944FE42A65E2195A50E125654A6016
:10094000C2CDA8EC052E877B95B74FA00B1B4A7F25
:1009500092C890EE891E10D285E49F63C812BB4EE8
:10096000B8CF0AEC184EE67CB33326C71FD2042357
:10097000EA070C5F90BDA76A0F4AD610013C122906
:100980002E96C04DBBBEE5A783D56A3CE35BB8F2AB
:100990005C6D1FA6F31224F6D63B1014090782E8FB
:1009A000306A99DC95019CD4683BCA9812AB7725D4
:1009B000157D10324598CD7ADF718A75C11CD468D7
:1009C00025EBBB54276F2AF7B9980327DE24A8BB71
:1009D00098C284FF9B51D85350DAF588AA872FAE6E
:1009E000D6EA6BDEC8D7A7286581E8B23B1D4F75F4
:1009F0008F9F7A748EC15F9AA89DFA03A3719B376B
:100A00006DD50BF5E1A11B016AC667AAEA2C9DA46E
:100A1000D26EFCDE2E7F9469E54AE001483C6BF71C
:100A20001EB60B5FF92E07C5E8AE371BBC3CD8D508
:100A30000B919E8024F5060C0E9807962D19DC5814
:100A400093CCFB4EEBBD0FF5AF01FAF17C438CB8B4
:100A5000563EBE774E2BF7BBB74547CDCCA64C7262
:100A60007B6A2A701307FDB89C983AD823675B34D9
:100A7000D5140CAB771FF83D5A9F92B72CAD31DEE1
:100A80006107B36BF73815954614485369526607EA
:100A90006D83718A6725200FFED702D76E2CD21A7C
:100AA0000A5DFD0F74E3A436079ADFD479BFEF59CE
:100AB000C04452879A6E1D0EEEDE2E1AA98F3AC9D7
:100AC000BAEC99782D556B14C206D5FC93534D1191
:100AD0008CF8FA797CA664AE61B87B9456A6397816
:100AE0009AE5C7DF1863239CFA66BBB75A274CD137
:100AF000A18322B3524935B022835912001698DDE2
:100B0000ADC294F9D37B647F443E3C8B9A839C694D
:100B10006BE4DF9FED541FE55D7A0582B3DDEFFCEA
:100B20005396B02C5AF8DF9C8B164EDFDA4D09092C
:100B300069500365D87370E886BFBB35CEB246CB2B
:100B400002005BB4E2C68F2F98AF874B4845EDCCCF
:100B50001DE658D6F250259F52C7CB8A179D5BE5FC
:100B6000C8D772B752B2C498E37A173EC660A79747
:100B7000B0CF188153844CD5173203133951091063
:100B8000E377494F6201BF8C9AE0419E897436F940
:100B900096862E961C4AB72B4A97BC9940A3E03DF7
:100BA000C8AD2FDF4F2CC469829F9B810C615CA56F
:100BB0009D8C89C02CB44A334EEBA25640C0C2462D
:100BC000AF6AFC67D1805EC56D8443273F5515969B
:100BD0006AA0A5DAB7FFB7756E4C49919D22A3466E
:100BE000EAED9A00E232C3D6A9712055A319EDF8B7
:100BF0004FA7129C6687AF4EB7F0DBBFEFF0F6AFA2
:100C0000EADA09FEDE385CA5A2DF9945A8E4E7929E
:100C1000AC67AA4FBF773EA24049224A1E3BAA704A
:100C20007F95AF374BFC99E2E0BAD734CE55885B5D
:100C3000841B57C4800353C92F93044DD596E57088
:100C4000A66E635D9D6CDB020AA9DA8B53DCD99A30
:100C5000C5942C91922ADEBB8B13B9199664CCF201
:100C60006439B77549E986C28662D924D38135498A
:100C7000FCA0A5A0930564B41A57CE0C900227C51A
:100C80007A2B5DAE3ED5DD107C14EA3A08AC724E8C
:100C9000903D3B7C862EEBD40670E6C7FB5FBD180B
:100CA000F411A41A93C3BED9FB26482F373CD003B6
:100CB000471AF76219245CF4A892207AF29E2AC59A
:100CC00095A2FBA4EA85D856B770D16030A53082D2
:100CD00070DC7A658A363F5B0CAE547CD357847BDC
:100CE0003A651881EE059B444DB8DAA2A1C915D327
:100CF00073030E43E98E15F9BEC6C58AE5C01EC250
:100D0000379E2A26A5A0BD245FB9C1AB3448B95D82
:100D100098B46518F36319441B1116FFDCF17908C8
:100D2000860F529873C492902B4709D0436C2F20A2
:100D3000EBDCDAC5087B9442306AC7DA8CC376A74D
:100D4000A5CC621300603158449BF56414F511C5BD
:100D5000545283D47301160EB37A29693556D4EEF2
:100D60008A17A299249CD78FDB55B53E313A096486
:100D7000656C6179282A31306D73293A2025750A0E
:100D8000323A09696E74657276616C286D73293A1E
:100D90002025750A333A096D61785F737065656463
:100DA0003A2025750A343A0974696D655F746F5F7E
:100DB0006D61783A2025750A353A09776865656C62
:100DC0005F6D61785F73706565643A2025750A36DA
:100DD0003A09776865656C5F74696D655F746F5F0C
:100DE0006D61783A2025750A00703A097072696E53
:100DF000742076616C7565730A643A0973657420B2
:100E000064656661756C74730A75703A092B310AF2
:100E1000646E3A092D310A6C743A092B31300A722A
:100E2000743A092D31300A4553432F713A097175CF
:100E300069740A0A7370656564203D2064656C748A
:100E400061202A206D61785F7370656564202A20B7
:100E500028726570656174202F2074696D655F74F8
:100E60006F5F6D6178290A77686572652064656CCB
:100E700074613A20637572736F723D25642C20771C
:100E80006865656C3D25640A5365652068747470F7
:100E90003A2F2F656E2E77696B6970656469612ED4
:100EA0006F72672F77696B692F4D6F7573655F6B15
:100EB0006579730A004D3E20004D25753A25733E35
:100EC00020003F0A003D2025750A003F0A006465A6
:100ED0006661756C74730A0025750A003F0A000A82
:100EE000092D2056616C756573202D0A00710A006A
:100EF0000A092D204D6F7573656B6579202D0A00E9
:100F00003F00433E20004C25640A000A092D20536F
:100F10007461747573202D0A686F73745F6B6579E3
:100F2000626F6172645F6C65647328293A202530B2
:100F300032580A6B6579626F6172645F70726F74A8
:100F40006F636F6C3A20253032580A6B6579626F97
:100F50006172645F69646C653A20253032580A74A6
:100F6000696D65725F72656164333228293A2025A4
:100F700030386C580A000A092D2056657273696F63
:100F80006E202D0A5649443A20307846454544287B
:100F90006F70656E6D6F75736529205049443A20F6
:100FA000307830303030286F70656E6D6F757365D6
:100FB00029205645523A203078303030310A425597
:100FC000494C443A2020284D617920323920323072
:100FD0003232290A4F5054494F4E533A204C55460D
:100FE00041204D4F5553454B45592045585452418A
:100FF0004B455920434F4E534F4C4520434F4D4D89
:10100000414E4420343039360A4743433A20382E83
:10101000342E30204156522D4C4942433A20322E34
:10102000302E30204156525F415243483A2061767B
:1010300072350A000A092D20436F6E736F6C6520AC
:101040002D0A4553432F713A09717569740A6D3A37
:10105000096D6F7573656B65790A000A092D204D5E
:1010600061676963202D0A443A0944656275672007
:101070004D65737361676520546F67676C650A58C7
:101080003A094D6174726978204465627567204D34
:101090006F646520546F67676C65202D2053686FFF
:1010A00077206B65797072657373657320696E2044
:1010B0006D617472697820677269640A4B3A094BF2
:1010C0006579626F61726420446562756720546F50
:1010D00067676C65202D2053686F77206B6579708A
:1010E00072657373207265706F72740A4D3A0944A9
:1010F00065627567204D6F75736520546F67676C07
:10110000650A563A0956657273696F6E0A533A0951
:101110005374617475730A433A0941637469766163
:10112000746520436F6E736F6C65204D6F64650A44
:1011300046312D4631303A0953776974636820741B
:101140006F204C6179657220302D3920284631306E
:10115000203D204C30290A302D393A0953776974E3
:10116000636820746F204C6179657220302D390AD4
:1011700047524156453A0953776974636820746F42
:10118000204C6179657220302028616C7465726E24
:10119000617465290A423A094A756D7020746F209E
:1011A000426F6F746C6F616465720A4553433A090C
:1011B0004A756D7020746F20426F6F746C6F61643C
:1011C00065722028616C7465726E617465290A45C8
:1011D0003A095072696E7420454550524F4D205364
:1011E000657474696E67730A4253504143453A0906
:1011F000436C65617220454550524F4D0A006B6546
:10120000796D61705F636F6E6669672E7261773AA0
:1012100020253032580A2E737761705F636F6E74C9
:10122000726F6C5F636170736C6F636B3A202575CE
:101230000A2E636170736C6F636B5F746F5F636FB3
:101240006E74726F6C3A2025750A2E737761705F29
:101250006C63746C5F6C6775693A2025750A2E7330
:101260007761705F7263746C5F726775693A20258D
:10127000750A2E737761705F6C616C745F6C677553
:10128000693A2025750A2E737761705F72616C74FC
:101290005F726775693A2025750A2E6E6F5F6775F4
:1012A000693A2025750A2E737761705F67726176DF
:1012B000655F6573633A2025750A2E737761705FE9
:1012C0006261636B736C6173685F6261636B73709F
:1012D0006163653A2025750A2E6E6B726F3A202580
:1012E000750A0064656275675F636F6E6669672E75
:1012F0007261773A20253032580A2E656E61626C31
:10130000653A2025750A2E6D61747269783A202538
:10131000750A2E6B6579626F6172643A2025750AD1
:101320002E6D6F7573653A2025750A006565636FCC
:101330006E6669673A0A64656661756C745F6C61B4
:101340007965723A2025750A003F000A6D6F757342
:10135000653A206F66660A000A6D6F7573653A20FC
:101360006F6E0A000A6B6579626F6172643A206F72
:1013700066660A000A6B6579626F6172643A206F73
:101380006E0A000A6D61747269783A206F66660AA7
:10139000000A6D61747269783A206F6E0A000A64FF
:1013A000656275673A206F66660A000A6465627551
:1013B000673A206F6E0A000A0A4A756D70696E6797
:1013C00020746F20626F6F746C6F616465722E2E73
:1013D0002E2000433E2000436C656172696E6720D9
:1013E000454550524F4D0A000A0025303258200022
:1013F0006B6579626F6172645F7265706F72743A67
:1014000020005B735D005B575D005B535D005B52CA
:101410005D005B445D005B435D0014036F00700082
:1014200065006E006D006F007500730065000000C0
:1014300014036F00700065006E006D006F00750092
:101440007300650000000403090409025B00030146
:1014500000A0FA09040000010301010009211101A3
:1014600000012240000705810308000A0904010069
:101470000103000000092111010001227B00070582
:10148000820320000A09040200020300000009216F
:101490001101000122220007058303200001070536
:1014A00003032000011201000200000008EDFE000D
:1014B000000100010200010631FF0974A101097554
:1014C000150026FF00952075088102097615002673
:1014D000FF00952075089102C005010902A1018550
:1014E000020901A100050919012908150025019526
:1014F00008750181020501093009311581257F95A3
:10150000027508810609381581257F9501750881C6
:1015100006050C0A38021581257F9501750881069C
:10152000C0C005010980A101850319012AB7001572
:101530000126B700950175108100C0050C0901A1B5
:1015400001850419012AA002150126A00295017542
:10155000108100C005010906A101050719E029E76E
:101560001500250195087501810295017508810115
:101570000507190029FF150026FF0095067508814B
:101580000005081901290595057501910295017558
:10159000039101C011241FBECFEFDAE0DEBFCDBF43
:1015A00004B603FE27C08091BC029091BD02A091B9
:1015B000BE02B091BF028730904BA740B04BD1F430
:1015C0001092BC021092BD021092BE021092BF0295
:1015D00014BE84B7877F84BF0FB6F894A895809116
:1015E0006000886180936000109260000FBEE0E0B0
:1015F000F8E3099512E0A0E0B1E0E6E3F4E602C00A
:1016000005900D92A030B107D9F722E0A0E0B2E03A
:1016100001C01D92AC3BB207E1F70E940A1C0C947A
:10162000F1310C940000FF93EF93E0910002F091F0
:101630000102309709F00995EF91FF910895FC019F
:101640008591803011F0EFDFFBCF0895FF27E0E2B6
:1016500030E247FF0CC0419597FF09C0EDE260956D
:10166000709580959095611D711D811D911D27FFBD
:1016700002C0219530E350E2AA27660F771F881F2A
:10168000991FAA1FA41710F0A41B63955A95A9F7D8
:10169000AA3008F0A95FA05DAF93F39561157105BD
:1016A0008105910541F7ED3211F4EF93F395F217AF
:1016B00018F43F93F395FBCF8F91B5DFFA95E1F7DF
:1016C0000895E991F9918591803021F0853219F0E2
:1016D000AADFF9CF089520E0E89455915532C1F37F
:1016E000503311F4689455915A3348F4505390F3A1
:1016F000220F022E220F220F200D250FF4CF0EF401
:10170000219589919991533619F3533729F153351E
:1017100059F1BC0188279927E8945C3621F4899116
:10172000999168945591543639F446EF7EF077FFDD
:101730000DC08FEF9FEF0AC055374AE039F058359A
:1017400040E121F0523642E009F00895FF93EF9313
:101750007DDFEF91FF91B7CFFF93EF93FC01819174
:101760008030B9F360DFFBCFFF93EF9368DFF1CFF9
:10177000DF93CF93CDB7DEB72596A3DFCF91DF916F
:101780000895811107C0662339F06AE070E089EF9F
:101790000E94C60D80E008956AE070E08AEFF8CFFD
:1017A00081E0089581E008950C94D20B08950C9483
:1017B000D60B1F93CF93DF9300D000D00F92CDB7FD
:1017C000DEB749835A836B833091020289819A8103
:1017D00031111DC06623B9F02223A9F00E944212E4
:1017E000182F682F89819A810E94F11169817A816D
:1017F000812F0F900F900F900F900F90DF91CF914E
:101800001F910C94C7180E941C12182FEFCF0E9432
:10181000421269817A81EDCFFC01262F40815181EE
:101820006281738184810C94D90B81E00895CF93F8
:10183000DF93EC0160E00E940C0CBE01DF91CF91C0
:101840000C94D70B0E94EB1A0E94CE0C0C94101B28
:101850000C94131B80E00E94CF0C0C94FD1F089584
:1018600008950E949A100E94300C2FEF84E39CE0B0
:10187000215080409040E1F700C000000C94CB293B
:101880000F931F93CF93DF938C0161E00E940C0CA8
:10189000EC01B8010E94D40B8823C1F1B801CE013C
:1018A0000E94DA26882391F1B801CE010E94AD2171
:1018B000882361F1B801CE010E944426882331F1CA
:1018C000F8018281882361F0CF3DFCE5DF07B1F1AB
:1018D00070F4C115ECE5DE07B9F0C130DC45E1F08C
:1018E000C801DF91CF911F910F910C94D00BCC3593
:1018F0008DE5D80749F1CD35DC0719F1CB35DD454C
:1019000079F70E940B17ECCF0E94310C80E0DF9139
:10191000CF911F910F91089590916302892F8E7F2F
:1019200090FF81608093630280FF05C086EC90E0A9
:101930000E941F0BEBCF84EB90E0FACF0E94BC1704
:10194000E5CF0E940217CCCF0E940E17C9CF0C948E
:101950002F0C0E9410280E94CF0C0C94A70C82958B
:1019600090E09C01220F331F220F331F2C7C959592
:101970008795959587958373282B30E0C901880F4B
:10198000991F8A7A359527952575822B0895089594
:101990000C94C70C81E008950C94CA0C0895CF9361
:1019A000C82F0E94C80C8C2FCF910C94CC0CCF93D5
:1019B000DF93CDB7DEB72B970FB6F894DEBF0FBE1F
:1019C000CDBF4F83588769877A878B8761110E94C3
:1019D0003D161E821D8285E0FE013796DE011196BE
:1019E00001900D928A95E1F78C819D81892B89F474
:1019F00049815A816B817C818D819E810E945E1517
:101A00002B960FB6F894DEBF0FBECDBFDF91CF91FE
:101A1000089589819A8189238F3F51F3CE010196E0
:101A20000E94150C8111E4CFEBCFFC0180819181E4
:101A30000C9484120F931F93CF93DF9300D000D0A8
:101A400000D0CDB7DEB7082F162F0E94462029837D
:101A50004B835C836D837E83002399F0312B498116
:101A6000532F6B817C818D819E8126960FB6F894D1
:101A7000DEBF0FBECDBFDF91CF911F910F910C94B0
:101A8000672010953123EBCFCF93C82F882309F41B
:101A90004CC08CEF8C0F813AC8F48C2F0E94952596
:101AA000811143C06C2F80910201909103010E942B
:101AB000B428882329F08C2F0E94FF150E946D16F0
:101AC0008C2F0E94F815CF910C946D1680E28C0F2C
:101AD000883048F4C77081E001C0880FCA95EAF7E2
:101AE0000E942016F0CFEBE5EC0FE33040F4F0E07D
:101AF000E85BFE4F808190E0CF910C947628E8E57A
:101B0000EC0FE73150F4F0E0EE0FFF1FE65EFE4F02
:101B100080819181CF910C948C28CD3E30F08C2F18
:101B20000E949A1CCF910C946D1DCF91089588232B
:101B300061F19CEF980F913A20F40E94FF150C94EC
:101B40006D1690E2980F983050F4877091E001C0C4
:101B5000990F8A95EAF7892F0E942616F0CF9BE508
:101B6000980F933020F490E080E00C94762898E56C
:101B7000980F973120F490E080E00C948C288D3EF3
:101B800020F00E94F41C0C946D1D08951F93CF93B8
:101B9000DF93182FEB010E94440D209731F4812F21
:101BA000DF91CF911F910C94970D8FE99FE00197E2
:101BB000F1F700C000002197F0CF70E060E08933BA
:101BC00011F460E570E00C94C60D882321F00E94AA
:101BD00020160C946D160895882321F00E94261675
:101BE0000C946D160895BF92CF92DF92EF92FF9200
:101BF0000F931F93CF93DF936C01D62FC72FFC0158
:101C00001281F580F2949FE0F9220E941616E82EC8
:101C10008823B9F0E12E1123A1F08C2F807F80342E
:101C200021F080E28D0F8830B0F08091A80282FD13
:101C300012C082E00E94BE160E94161691E0E82EA5
:101C4000E926BC2EB2948FE0B822EB2DF0E0ED50E7
:101C5000FE4C0C949C31E12CF4CF0C2F0F70C07F04
:101C600011F00295007F112399F0002359F080E2D2
:101C70008D0F883010F0D11107C0802F0E942016E0
:101C80000E946D168D2F41C0802F0E943016F8CF14
:101C90008D2F0E94970D002309F43FC080E28D0F25
:101CA000883010F0D11104C0802F0E94261603C086
:101CB000802F0E9436160E946D162FC00C2F0F70B9
:101CC000C07FC03211F00295007FDD2381F0D1305A
:101CD00009F46AC0112309F474C0FF2009F46AC032
:101CE000F601858180FFCECF8F70858363C08091A0
:101CF000A80282FF39C0112359F0002329F0802F58
:101D00000E9420160E946D1680E00E94440D05C0BE
:101D100080E00E94970D0111C7CF2B2D2850330B67
:101D20002430310520F40E9410280E94CF0CEE20B0
:101D300009F49DC10E94121680FD99C1F60112821C
:101D40000E940C160E945511C6010E9458100E9454
:101D50000C16DF91CF911F910F91FF90EF90DF90C4
:101D6000CF90BF900C947611112389F0F11006C02A
:101D70000E945016802B0E94E50DCFCFF1E0FF129C
:101D8000F7CF0E945016802B0E945616C6CFF11036
:101D900006C00E946316802F0E94EC0DBECF21E08A
:101DA000F21609F4BACFF5CF112331F035E03F1523
:101DB00008F4B3CF802FDFCF84E08F1508F4ADCFC8
:101DC000EACFFF2041F3D93349F4FFEF27EE33E0A8
:101DD000F15020403040E1F700C000008D2F0E94FC
:101DE000970D9BCF8C2F86958695837069F08130F7
:101DF00009F093CF8D2F9C2F9370111102C090E0AA
:101E000080E00E948C2889CF8D2F9C2F9370111118
:101E100002C090E080E00E9476287FCF8D2F1123B2
:101E200091F00E949A1CED2FE15FFF0BE830F10565
:101E300068F461E070E001C0660FEA95EAF7812F6F
:101E40000E941A0D6ACF0E94F41CEDCF0E946D1DF6
:101E500064CF8C2F837009F041C011115ECF4D2FDC
:101E6000429546954770440F440F0D2F0F7010E0B8
:101E700030E020E0042E04C0000F111F221F331F8A
:101E80000A94D2F760E070E0CB01D4FF0FC06FE09E
:101E900070E080E090E004C0660F771F881F991FF4
:101EA0004A95D2F76095709580959095C695C695A0
:101EB000C370602B712B822B932BC23049F058F4E6
:101EC000C13019F00E94071128CF0E94F51025CFCC
:101ED0000E94191122CF0E94F3101FCF8695112363
:101EE00011F08C2F8170882309F417CF4D2F429564
:101EF00046954770440F440F0D2F0F7010E030E0EF
:101F000020E0042E04C0000F111F221F331F0A946B
:101F1000D2F760E070E0CB01D4FF0FC06FE070E05B
:101F200080E090E004C0660F771F881F991F4A95D4
:101F3000D2F76095709580959095C695C695C370BB
:101F4000602B712B822B932BC23049F058F4C13097
:101F500019F00E94CC11E1CE0E94BA11DECE0E948F
:101F6000DE11DBCE0E942F11D8CECF70112329F0C5
:101F70008C2F0E9455118D2FFECE8D2F0E94EC0DBF
:101F80008C2F0E947611C9CED23F51F160F4D03F20
:101F9000B9F0D13F81F0112309F449C0F11072CE9C
:101FA0008C2F8F7121C0D33F11F1D43FA1F78091C5
:101FB000A80282FF26C08C2F8F71112311F314C049
:101FC000112349F0F4E0FF1508F4A7CE8C2F8F7190
:101FD0000E949911A2CE25E02F1508F49ECEF6CFCF
:101FE0008C2F8F711111CDCF0E94551196CE1123D8
:101FF00029F08C2F8F710E9440118FCE0E943B11CF
:102000008CCE112349F0CF718C2F0E94551163E0C3
:102010008C2F0E94A31681CE81E00E94BE1631E073
:102020003F1508F07ACE82E00E94BE1676CEFF20E1
:1020300059F0D93309F0D2CE8FEF97EEE3E081501B
:102040009040E040E1F7C8CE8C2F8F719ACF4C2F93
:102050004F706D2FC6010E94C3180E94B2125DCE50
:102060004C2F4F706D2FC6010E94C61856CEDF91BF
:10207000CF911F910F91FF90EF90DF90CF90BF9085
:1020800008950F931F93CF93DF93EC0168817981BB
:102090008A810E948E128C010E94F0110E94F2101F
:1020A000B801CE01DF91CF911F910F910C94F30DE8
:1020B000CF93DF93EC018B819C81892B29F0888160
:1020C000998189238F3F59F4DF91CF910895CE01F3
:1020D0000E944110CE01DF91CF910C94170CCE01DC
:1020E0000E94400C8111F3CF0E941616882361F3E1
:1020F0008A81882349F38091A80282FDE5CF82E09E
:10210000DF91CF910C94BE1690E080E00E9476287B
:1021100090E080E00E948C280E943D160E944D169F
:102120000E946D160E94161F0C946D1D0E940616CB
:102130000C9484100E942D160C949610E92FE295B1
:10214000EF70E250EE3070F4F0E0ED5FFD4C0C9477
:102150009C31803F19F020F4883E20F481E00895FE
:10216000843FE1F380E00895883EC0F3813FD1F7DA
:10217000F5CF93FB882780F90895FC018081918138
:102180000E9484120C949E10CF93DF9300D000D055
:102190000F92CDB7DEB70F900F900F900F900F906A
:1021A000DF91CF910895CF93DF9300D000D000D07E
:1021B000CDB7DEB726960FB6F894DEBF0FBECDBF03
:1021C000DF91CF91089508950C94E3100E94E410DC
:1021D00060930C0270930D0280930E0290930F0295
:1021E0000C94841008950C94E6100F931F930091A3
:1021F0000C0210910D0220910E0230910F02602B03
:10220000712B822B932B1F910F910C94E6100F933F
:102210001F9300910C0210910D0220910E0230913B
:102220000F0260237123822393231F910F910C943B
:10223000E6100F931F9300910C0210910D02209154
:102240000E0230910F0260277127822793271F917A
:102250000F910C94E6100C94E3100C942B110E9437
:102260002D11609308027093090280930A029093E3
:102270000B020C94841060E070E0CB010C942F11E1
:102280000F931F9341E050E060E070E08A019B01F2
:1022900004C0000F111F221F331F8A95D2F7C901F6
:1022A000B8011F910F910C942F110F931F9341E0D0
:1022B00050E060E070E004C0440F551F661F771FB8
:1022C0008A95D2F78091080290910902A0910A02A2
:1022D000B0910B028A019B01082B192B2A2B3B2B57
:1022E000C901B8011F910F910C942F110F931F93E7
:1022F00041E050E060E070E004C0440F551F661FED
:10230000771F8A95D2F7CB01BA01609570958095B9
:102310009095009108021091090220910A023091D3
:102320000B0260237123822393231F910F910C943E
:102330002F110F931F9341E050E060E070E004C064
:10234000440F551F661F771F8A95D2F780910802A8
:1023500090910902A0910A02B0910B028A019B019F
:10236000082719272A273B27C901B8011F910F9178
:102370000C942F110F931F930091080210910902E2
:1023800020910A0230910B02602B712B822B932B30
:102390001F910F910C942F110F931F93009108021E
:1023A0001091090220910A0230910B0260237123DF
:1023B000822393231F910F910C942F110F931F933E
:1023C000009108021091090220910A0230910B023B
:1023D00060277127822793271F910F910C942F114B
:1023E0000895990F890F982F977041E001C0440F0D
:1023F0009A95EAF786958695869595E0899FF001EE
:102400001124ED5FFD4F30E020E070E05191DF01DD
:102410001197CB01022E02C0969587950A94E2F798
:10242000817081958527842385278C932F5F3F4F6B
:102430002530310559F70895990F890F982F977016
:1024400086958695869525E0829FF0011124ED5FA3
:10245000FD4F50E040E080E0219130E0092E02C0C5
:10246000369527950A94E2F721703327042E01C090
:10247000220F0A94EAF7822B4F5F5F4F45305105D8
:1024800059F70895BF92CF92DF92EF92FF920F9388
:102490001F93CF93DF938C01C0900802D090090264
:1024A000E0900A02F0900B0280910C0290910D02D4
:1024B000A0910E02B0910F02C82AD92AEA2AFB2A5B
:1024C000CFE1D0E0BC2ED701C6010C2E04C0B695DA
:1024D000A795979587950A94D2F780FD0EC021970E
:1024E00088F7B12C8B2DDF91CF911F910F91FF9029
:1024F000EF90DF90CF90BF900895B8018C2F0E948D
:10250000F219019761F3EECFCF93DF93EC010E94B4
:102510004212BE01DF91CF910C94F2191F93CF9319
:10252000DF93EB0190910202992331F0CB01DF910F
:10253000CF911F910C948412882379F0CB010E94D3
:102540004212182F682FCE010E94F111BE01812F77
:10255000DF91CF911F910C94F219CB010E941C12B4
:10256000182FF4CFEF92FF920F931F93CF93DF9327
:102570008C01892B81F0F12CEE24E394E801219663
:10258000F8018491843770F4843008F05FC08130A2
:10259000B1F08230A1F1DF91CF911F910F91FF90A7
:1025A000EF900895853709F44CC008F43DC09CE7CE
:1025B000980F903780F78F770E94970D49C00E5F74
:1025C0001F4FFE01849190E2980F983060F487705D
:1025D000FE2D01C0FF0F8A95EAF78F2F0E9440164B
:1025E0000E946D1602C00E94440D8F2D815030F262
:1025F000EFE9FFE03197F1F700C00000F7CF0E5F81
:102600001F4FFE01849190E2980F983050F487702C
:10261000FE2D01C0FF0F8A95EAF78F2F0E94461604
:10262000DFCF0E94970DE1CF0E5F1F4FFE01C491D7
:10263000C150D8F28FE99FE00197F1F700C0000088
:10264000F7CF0E5F1F4FFE01F490CFCF0E94440DD5
:102650008E01CBCF1F93CF93DF93C091100216E072
:10266000809111028C1304C0DF91CF911F910895C6
:10267000D0E01C9FF0011D9FF00D1124EE5EFD4F78
:102680004081518162817381848195810E94D31040
:102690002196C770E5CF409142025091430260916C
:1026A00044027091450280914602909147020C9439
:1026B000D310FF920F931F93CF93DF938091470224
:1026C000807FD1F4809144028823B1F08091100280
:1026D000109111026091420270914302A091450253
:1026E000B0914602062F0723C0910001D09101014D
:1026F00096E0F92E181306C0DF91CF911F910F912C
:10270000FF90089590E0109711F00F3F19F4019693
:102710008770F0CFF89E9001F99E300D1124F901D9
:10272000EE5EFD4F41814713F2CF40814613EFCF5C
:1027300042814111ECCF438154814A1B5B0B4C1702
:102740005D0728F7809147028F7080618093470270
:10275000F901E95EFD4F80818F708061808382E4A2
:1027600092E00E945810DF91CF911F910F91FF903E
:102770000C942A13AF92BF92CF92DF92EF92FF9206
:102780000F931F93CF93DF93CDB7DEB761970FB64B
:10279000F894DEBF0FBECDBF8C0185E0F801DE01ED
:1027A0001D9601900D928A95E1F7F801E28082E48E
:1027B000C82E82E0D82E60914502709146026115C4
:1027C000710509F45FC19091420220914302892F63
:1027D00082238F3F09F456C140815181A380B48088
:1027E000F0904402F501E61BF70BBF01E0910001F8
:1027F000F0910101FF2009F4F6C080914702382FC3
:10280000307F6E177F0708F0AFC0311179C0FE2C02
:10281000251323C0941321C0E1101FC08F70806165
:10282000809347020E944B13C6010E94581080916A
:102830004702F80185838F2D61960FB6F894DEBFAD
:102840000FBECDBFDF91CF911F910F91FF90EF9001
:10285000DF90CF90BF90AF900895AB2829F0842FE0
:1028600085238F3F09F027C180E0F82FF170DF2E1C
:1028700080FF3CC0809110022091110236E082134B
:1028800015C04D875E878D859E850E948412292FF5
:1028900022952F702230F0F0243018F59F70F1F05F
:1028A000F8019581907FD1F4D12C1EC090E0389F23
:1028B000F001399FF00D1124EE5EFD4F618165132B
:1028C00006C06081641303C062816E110FC001965F
:1028D0008770D5CF9F7011F0882331F3805E8830E8
:1028E00018F3C8010E945810FD2CA5CFEE2009F462
:1028F000A2CF80914702816080934702F12C9BCF49
:10290000251306C0941304C0F801EE2009F487C013
:10291000C8010E94BD10882319F1EE2009F18091B1
:102920004702803270F02091420230914302388792
:102930002F831986BB86AA868C87CE0107960E94B4
:10294000581086E0F801A2E4B2E001900D928A9559
:10295000E1F70E9459130E944B13FF24F3946BCFAD
:10296000C8010E945810F9CF311113C07A2DB98ACD
:10297000A88A6E2D89890E94C41082E492E00E9488
:10298000581086E0F60111928A95E9F70E944B13E0
:10299000B5CF25130FC094130DC0E1100BC0F80183
:1029A0008583C8010E94581086E0F60111928A952D
:1029B000E9F741CFC8010E94BD10882389F2EE20BB
:1029C00079F280914702803208F4BBCF2091420215
:1029D000309143023A8329831B82BD82AC828E836D
:1029E000CE010196ACCF6E177F0708F03EC0FE2CDB
:1029F000EE2009F4B5CF25132AC0941328C0809186
:102A0000470280FD1BC0982F907FC1F0F80185839D
:102A1000903F31F0982F907F905F8F70892B858346
:102A2000C8010E94581086E0F801A2E4B2E00190CB
:102A30000D928A95E1F70E944B13FDCE86E0F801D6
:102A4000A2E4B2E001900D928A95E1F7F4CEC801BC
:102A50000E94BD10811175CF8091470281608093E3
:102A60004702C8010E945810E6CE7A2DB98AA88A7A
:102A70006E2D89890E94C41086E0F60111928A9514
:102A8000E9F7D9CFEE2009F46BCFC8010E94BD1041
:102A9000F82E882309F464CF86E0F801A2E4B2E0BE
:102AA00001900D928A95E1F782E492E00E94150D63
:102AB0000E945913C0CF81E08E25D7CE1F93CF93AC
:102AC000DF93CDB7DEB72C970FB6F894DEBF0FBEFD
:102AD000CDBF4F83588769877A878B879C87CE01C4
:102AE00007960E94BA13882369F08A859B85892BF3
:102AF00039F04F815885842F85238F3F09F071C0AD
:102B000016E05FC086E0FE013796DE011196019067
:102B10000D928A95E1F78A859B85892B89F38F81B0
:102B2000988589238F3F61F32091110230E0C9011C
:102B3000019687709927409110024817190671F481
:102B40000E949A10109211021092100286E0E2E4A4
:102B5000F2E0DF011D928A95E9F7D2CF96E0929FCD
:102B6000D001939FB00D1124AE5EBD4FFE01319692
:102B700001900D929A95E1F7809311020E942A1319
:102B8000BFCF819FC00111248E5E9D4F0E94BA135A
:102B90008823E9F0E09110021E9FF0011124EE5EFF
:102BA000FD4F4081518162817381848195810E94B2
:102BB000D3108091100290E001968770992780933E
:102BC000100280911002909111028913DACF2C9695
:102BD0000FB6F894DEBF0FBECDBFDF91CF911F912E
:102BE000089569857A858B859C850E94D31088CF4E
:102BF000682F80910201909103010C94EA28682FBC
:102C000080910201909103010C94EC2880910201C3
:102C1000909103010C94EE2880914802859585954A
:102C20008595089580914802877008959091480293
:102C3000977081E009F480E008958091540208952E
:102C400090915402892B809354020895809590911D
:102C500054029823909354020895109254020895B8
:102C600090915302892B80935302089580959091FF
:102C7000530298239093530208951092530208959B
:102C800090915202892B80935202089580959091E1
:102C9000520298239093520208951092520208957E
:102CA00080914902089508950C9453169091A802BA
:102CB00092FD08C090914902981721F08093490233
:102CC0000C945416089580914902882329F010929B
:102CD000490280E00C9454160895E0910201F091AD
:102CE0000301809154028083E0910201F09103017D
:102CF000808190915302892B8083E0910201F091B1
:102D00000301808190915202892B80839091490226
:102D1000992381F0E0910201F09103018081892BD8
:102D2000808380910201909103010E94A228811169
:102D30000E94631680910201909103010C941C285B
:102D400008950C94A0169091A80292FD10C098E0EE
:102D5000899F90011124622B609348020E945511B3
:102D6000809148028595859585950C94A1160C94C3
:102D700055111092480280E00C94A11690914802DF
:102D80008095892380934802282F277091F4282F5B
:102D9000082E000C330B9217130659F09091A802DD
:102DA00092FD07C08595859585950E9476110C94B6
:102DB000B9160895CF93C82F8091A80282FB992756
:102DC00090F99C17E9F0C0FB82F98093A8028091EA
:102DD000A7029091A8020E94381782E00E94BE16B6
:102DE0008091630280FF0CC01F92CF9387ED90E02B
:102DF0009F938F930E94B80B0F900F900F900F909E
:102E0000CF9108958091A80282FB882780F991E0F4
:102E100089270C94DA1681E00C94DA1680E00C9481
:102E2000DA166FEF7FEF90E080E00C94DB3190E0FA
:102E300080E00E94B73121E0893E9E4F09F020E0FA
:102E4000822F089582E090E00C94AF3183E090E00F
:102E50000C94AF31CF9384E090E00E94AF31C82F43
:102E600082E290E00E94AF31982F8C2FCF9108958D
:102E7000CF93C92F682F84E090E00E94BD316C2F62
:102E800082E290E0CF910C94BD31AB01BC018FE0A8
:102E900090E00C94CF31AB01BC0183E190E00C9445
:102EA000CF3160E070E0CB010C944B1760E070E034
:102EB000CB010E9445170C94511769EE7EEF90E00C
:102EC00080E00E94DB3160E082E090E00E94BD3152
:102ED00060E083E090E00E94BD3110920C021092FD
:102EE0000D0210920E0210920F0260E084E090E05A
:102EF0000E94BD3160E082E290E00E94BD3160E05E
:102F000085E090E00E94BD3160E086E090E00E94A4
:102F1000BD316FEF87E090E00E94BD3140E050E0AE
:102F2000BA0188E090E00E94CF3160E08DE090E04F
:102F30000E94BD3140E050E0BA0188E190E00E947B
:102F4000CF3160E087E190E00E94BD3140E050E089
:102F5000BA018CE190E00E94CF3170E060E080E245
:102F600090E00E94DB3140E050E0BA0188E190E05F
:102F70000E94CF310C9456170C945D17682F8EE089
:102F800090E00C94BD310E948C2960935F02709395
:102F90006002809361029093620260935B0270937F
:102FA0005C0280935D0290935E0208950E948C29DA
:102FB00060935F027093600280936102909362025B
:102FC00060935702709358028093590290935A026B
:102FD000089585B7806885BF85B7806885BF0895E7
:102FE000089508950C94F01708950C94F4170E9416
:102FF000E9178FEB9BE20E9406280E94F1170C94C0
:10300000F21781E008950C940118089508950E9424
:1030100005180C9406180E9477290E94961B0E949E
:10302000EB250E94BA1F0C94F517CF93C82F8091FF
:10303000630282FF1EC080FF1CC083EF90E00E94ED
:103040001F0B8091630280FF14C01F92CF938EEEFE
:1030500090E09F938F930E94B80B809163020F9032
:103060000F900F900F9080FF04C08CEE90E00E94B4
:103070001F0B8C2FCF910C94CF0CFF920F931F93AB
:10308000CF93DF93CDB7DEB72A970FB6F894DEBFA4
:103090000FBECDBF0E94A11B81110E94C31780E00B
:1030A0000E94151B182F80915602F82EF1268117C9
:1030B00009F44CC08091630281FD0E941B1B0F2DFF
:1030C0000170F0FC41C0F1FE41C0FF24F39402E026
:1030D0000E940318882399F0FE821F82102381E04A
:1030E00009F480E088870E9480298160782F9A8780
:1030F00089874E815F8168858A850E94D70C80917F
:1031000056028027809356020E94FC2581110E945E
:10311000D6170E940A1E0E94FD1F0E94102890913F
:103120005502891721F10E941028809355022A9692
:103130000FB6F894DEBF0FBECDBFDF91CF911F91C8
:103140000F91FF900C941518F12CC2CF8FEF89834B
:103150008A831B820E9480298160782F9D838C83C3
:1031600049815A816B818D810E94D70CCDCF2A96DF
:103170000FB6F894DEBF0FBECDBFDF91CF911F9188
:103180000F91FF90089590E080E008950895272F13
:10319000280F3327331FF901EE0FFF1FE60FF11D34
:1031A000EE0FFF1FE455FF4F859194910895FC01A8
:1031B000EE0FFF1FEA5FFE4F859194910895CF9324
:1031C000DF930E94F619EC01811520E5920708F0C3
:1031D00042C0811530E4930708F0BDC0883E9105D8
:1031E00028F5803E910508F09DC0883A910588F445
:1031F000853A910508F08FC08130910509F492C09D
:10320000009709F48FC0049708F08CC0D0E0C0E0AC
:1032100089C08F3B910508F489C0805C9109C03C4E
:10322000D105A0F30E94D718EC017CC08115904213
:1032300050F4C11581E0D80708F074C0CD3ED10527
:1032400028F3D0656FC0C11590E3D90708F079C0A5
:10325000CE019F70E7CF811525E5920758F58115BE
:1032600034E5930708F0A6C0811542E5940750F4B1
:10327000C11581E5D80708F471C0DC2FCC27C16FD8
:10328000D06A50C0982F969596959E01237033274B
:10329000C115D34508F07FC0C1E0D0E002C0CC0F1B
:1032A000DD1F2A95E2F720E2929FC0011124C82B6E
:1032B000D92B6FC0C11589E5D807A8F4C11598E5C9
:1032C000D90708F07CC0C11526E5D20708F09ECFCB
:1032D0008C2F0E948D1AC82FD0E0DC2FCC27CC2752
:1032E000DF71D0621FC0C1153AE5D30708F46CC086
:1032F000CE0190568115904208F088CF8D2F8F71A6
:103300000E948D1A90E0982F882788279F719C0132
:103310002C2BE901E6CFC55AD0E0C758DE4FC88153
:10332000D0E0D064CE01DF91CF910895C85AD0E0AB
:10333000CC0FDD1FC55BDE4F0990D881C02DD46452
:10334000F1CFCE019927D3FF03C0EC01D86CEACFAF
:10335000EC01D06CE7CFDF70D06AE4CFCE01E4E0BF
:1033600096958795EA95E1F783702C2F26952695FB
:10337000237090E2299F90011124382B8C2F8370A9
:10338000C1E0D0E002C0CC0FDD1F8A95E2F7C22B6E
:10339000D32BDC68C7CFC1E0D0E002C0CC0FDD1F6B
:1033A0002A95E2F730E2939FC0011124C82BD92B54
:1033B000DA68B8CFD82FCC27C46FD06AB3CFDC2F50
:1033C000CC27C06FD06AAECF8C2F8F700E948D1A21
:1033D00034E0D695C7953A95E1F7CF709C2FEC0174
:1033E000D069A0CF0E94C7180C94DF1882389105CD
:1033F000B1F1B0F48133910509F475C048F4893214
:10340000910509F469C08A32910509F473C00895E1
:103410008533910509F459C08933910501F1089567
:10342000833E9105A9F138F4803E9105F9F0823E82
:10343000910549F10895863E9105A9F1873E9105D0
:10344000C9F1843E910519F52091A80221FF1FC002
:103450008091A70284FD14C087EE90E0089520912A
:10346000A7022370A1F080EE90E008952091A702BA
:1034700020FD47C03091A80230FF09C024FF44C09E
:1034800090E080E004C02091A70222FDF7CF0895CC
:103490002091A70222FD3BC03091A80230FDE3CF6E
:1034A00024FFF5CFEDCF2091A70223FFF0CF24FD1D
:1034B000E7CFD2CF2091A70223FD2CC03091A802E4
:1034C00031FFEECF84EE90E008952091A70225FF12
:1034D000DECF89E290E008952091A70225FFD7CFA3
:1034E00085E390E008952091A70226FFD0CF8AE2DD
:1034F00090E008952091A70226FFC9CF81E390E0D4
:10350000089589E390E0089583EE90E0089582EEB7
:1035100090E0089586EE90E008959091A70292FFC2
:1035200006C0282F28712830F9F4877F846093FF24
:1035300006C0282F28712831F1F4877E84612091FC
:10354000A80220FF06C0382F38713830D9F4877FA1
:10355000816021FF06C0282F28712831D1F4877E91
:10356000816194FD877E0895282F24712430F9F617
:103570008B7F8860DCCF282F2471243101F78B7E6C
:103580008861DDCF382F3171313019F78E7F886037
:10359000E0CF282F2171213121F78E7E8861E1CF84
:1035A0000C9411170E94A11B2FEF86E791E0215088
:1035B00080409040E1F700C000000E94A11B80E025
:1035C0000E94151B80FF04C00E94D01A0C94CB29C6
:1035D00008950C94D21A0E941717811102C00E94FC
:1035E000BC170E942217809363020E942A179093AF
:1035F000A8028093A7020E94E91A0E942617682F4A
:1036000070E090E080E00E94F310609108027091F9
:10361000090280910A0290910B020C942D110895D9
:103620000C940F1B08950C94121BE82FF0E0E65544
:10363000FD4F8081089585E191E00E941F0B1F924C
:103640001F9280E191E09F938F930E94B80B8DE0D1
:1036500091E00E941F0B8091AA020E94AF0C1F9262
:103660008F9388E091E09F938F930E94B80B8DB762
:103670009EB708960FB6F8949EBF0FBE8DBF86E02A
:1036800091E00C941F0B80EA8A95F1F7089500C031
:1036900008950C94431BF894E82FE295EF70F0E046
:1036A00031A1282F2F7081E090E001C0880F2A956A
:1036B000EAF7982F9095932391A392A1892B82A347
:1036C0007894089584E90E944B1B86E60E944B1B68
:1036D00087E90C944B1B0F931F93CF93DF938C01BF
:1036E000D62FF894549A5C9878940E94471BC6B1E0
:1036F000C6FB882780F9C1E0C8274F9915C082E032
:10370000C82B84E90E944B1B61E0C11101C060E03D
:103710008D2F0E94491BF801ED0FF11DC083DF9131
:10372000CF911F910F91089580E0EACF0E94621B14
:103730001092AA021092A90281E00E94C71B0C9469
:10374000220C1F93CF93DF930F92CDB7DEB7198270
:1037500060E0CE0101960E946B1B9091A9028981C5
:1037600011E0981301C010E098138093A902212F53
:1037700041E06AEA72E089EA92E00E94C81B0E9476
:10378000280C812F0F90DF91CF911F9108950895FC
:10379000FF920F931F93CF93DF93F82E092F162FCD
:1037A000D72FC42F222349F081E0809366020E9424
:1037B0008029909365028093640280916602882339
:1037C000A1F080916402909165020E94982905976A
:1037D00060F0EF2DF02FA12FBD2FCE0FDF2FD11DC9
:1037E000EC17FD0741F410926602DF91CF911F9113
:1037F0000F91FF90089581918D93F2CF0E943A2C02
:103800000E940B180C94462C0E944A2C0E943D18D2
:103810000C94682C0E940F290E94212C0E94F717FB
:103820000E94FE1B0E94041C0E940718FBCF80917F
:103830006D0280FF12C06091090185E0689FB001B0
:103840001124759567957595679560387105A8F58C
:1038500061157105A1F1862F089581FF09C060915E
:10386000090185E0689FB001112475956795EDCF3A
:103870006091090182FD0AC080916C028823D1F019
:103880009091080160910901891728F085E0689FEF
:10389000B0011124DACF869FB001112485E0869F04
:1038A0009001879F300D1124692F70E0C9010E949B
:1038B0008831CBCF65E070E0CECF8FE7089581E00F
:1038C000089580916D0280FF0CC06091050170E049
:1038D00075956795759567956115710549F1862F01
:1038E000089581FF06C06091050170E075956795A8
:1038F000F3CF6091050182FD0BC090916B0299237B
:10390000A1F06091040180910501961738F0682FAD
:1039100070E06038710500F38FE70895899FC0015A
:10392000112470E00E948831F4CF61E070E0D7CFBD
:1039300081E008958D3E31F40E94171C819580939B
:10394000710208958E3E19F40E94171CF8CF8F3E25
:1039500031F40E94171C8195809370020895803F76
:1039600019F40E94171CF8CF893F29F40E94611CAA
:103970008093720208958A3F21F40E94611C819510
:10398000F7CF8B3F31F40E94611C819580937302C5
:1039900008958C3F19F40E94611CF8CF9FE0980FA6
:1039A000983070F4815F990B21E030E001C0220F64
:1039B0008A95EAF780916F02822B80936F020895B7
:1039C0008D3F31F480916D02816080936D02089586
:1039D0008E3F21F480916D028260F7CF8F3FB9F75F
:1039E00080916D028460F1CF409170028D3E59F458
:1039F0008091710287FF0DC01092710241110BC0BE
:103A000010926C0208C08E3E81F4809171021816EB
:103A10009CF3442381F08091720290917302892B70
:103A200009F05AC010926B0208958F3E49F447FF87
:103A3000F0CF10927002809171028111ECCFE0CF33
:103A4000803F19F41416ACF3E4CF90917202893FD1
:103A500029F41916F4F610927202DBCF8A3F19F49A
:103A600097FFD7CFF8CF909173028B3F29F497FF40
:103A7000D0CF10927302CDCF8C3F19F41916CCF32E
:103A8000C8CF9FE0980F983090F4815F990B21E0A8
:103A900030E0B90102C0660F771F8A95E2F7CB01CB
:103AA000809590916F02892380936F02B2CF8D3FF2
:103AB00031F480916D028E7F80936D02AACF8E3F8C
:103AC00021F480916D028D7FF7CF8F3F09F0A1CF58
:103AD00080916D028B7FF0CF08958091630283FF08
:103AE0007EC08BE491E00E941F0B80916F021F92B9
:103AF0008F9386E491E09F938F930E94B80B84E4A8
:103B000091E00E941F0B80917002282F082E000C5C
:103B1000330B3F938F9381E491E09F938F930E94A7
:103B2000B80B8FE391E00E941F0B80917102282F48
:103B3000082E000C330B3F938F938CE391E09F93FF
:103B40008F930E94B80B8AE391E00E941F0B809133
:103B50007202282F082E000C330B3F938F9387E3BC
:103B600091E09F938F930E94B80B85E391E00E94B0
:103B70001F0B80917302282F082E000C330B3F93EC
:103B80008F9382E391E09F938F930E94B80B8FE213
:103B900091E00E941F0B80916C021F928F938CE228
:103BA00091E09F938F930E94B80B8AE291E00E946C
:103BB0001F0B80916D021F928F9387E291E09F937C
:103BC0008F930E94B80B84E291E00E941F0B8DB787
:103BD0009EB74C960FB6F8949EBF0FBE8DBF0E9445
:103BE00080299C019091700280917102982B21F0A4
:103BF00030936A022093690290917202809173025D
:103C0000982B21F030936802209367028EE692E0B1
:103C10000C946828EF92FF920F931F93CF93DF933A
:103C200000D000D000D0CDB7DEB786E0EEE6F2E0FF
:103C3000DE01119601900D928A95E1F7E0907002F5
:103C4000F090710200917202109173021092700252
:103C50001092710210927202109273028E2D8F29AF
:103C600091F08091690290916A020E949829AC01BA
:103C700090916C02992309F43FC080910A01841746
:103C8000150608F447C0802F812B91F080916702C0
:103C9000909168020E949829AC0190916B0299233F
:103CA00009F477C0809106018417150608F47FC0D7
:103CB0008091700290917102892B90917202892BF0
:103CC00090917302892B11F00E946D1D86E0FE0118
:103CD0003196AEE6B2E001900D928A95E1F7269614
:103CE0000FB6F894DEBF0FBECDBFDF91CF911F910D
:103CF0000F91FF90EF90089520910B018AE0289F8B
:103D0000900111242417350708F0BDCF9F5F9093D1
:103D10006C0202C09F3FD1F7EE2059F00E94171CA1
:103D20009FEF1E140CF491E0899F802D1124809345
:103D30007002FF2059F00E94171C9FEF1F140CF413
:103D400091E0899F802D112480937102309170023F
:103D5000332309F498CF20917102222309F493CFE1
:103D600045EB3403C0011124992359F0909370025C
:103D700045EB240390011124332339F03093710271
:103D800082CF81E080937002F3CF81E08093710253
:103D90007ACF209107018AE0289F900111242417EF
:103DA000350708F085CF9F5F90936B0202C09F3F5D
:103DB000D1F7002359F00E94611C9FEF10160CF4FC
:103DC00091E0899F802D112480937202112359F074
:103DD0000E94611C9FEF11160CF491E0899F802DC9
:103DE00011248093730230917202332309F460CF5F
:103DF00020917302222309F45BCF45EB3403C00109
:103E00001124992359F09093720245EB24039001F9
:103E10001124332339F0309373024ACF81E0809329
:103E20007202F3CF81E08093730242CF86E0EEE628
:103E3000F2E0DF011D928A95E9F710926C02109270
:103E40006B0210926D020895CF93DF9300D000D0E3
:103E500000D0CDB7DEB786E0EEE6F2E0DE011196E7
:103E600001900D928A95E1F729813A814B815C811D
:103E70006D817E8180E090E026960FB6F894DEBFDB
:103E80000FBECDBFDF91CF910895EF92FF920F93B8
:103E90001F93CF93DF93CDB7DEB72C970FB6F8946F
:103EA000DEBF0FBECDBF49835A836B837C838D8376
:103EB0009E83EF82F88609871A872B873C8746E026
:103EC00050E0BE01695F7F4FCE0101960E94A23192
:103ED00021E0892B09F420E0822F2C960FB6F8946C
:103EE000DEBF0FBECDBFDF91CF911F910F91FF902D
:103EF000EF90089508950895CF93DF93CDB7DEB77F
:103F00002C970FB6F894DEBF0FBECDBF4F835887F6
:103F100069877A878B879C8786E0FE013796DE016A
:103F2000119601900D928A95E1F729813A814B8192
:103F30005C816D817E8180E090E02C960FB6F894D4
:103F4000DEBF0FBECDBFDF91CF910895CF93DF933A
:103F5000CDB7DEB72C970FB6F894DEBF0FBECDBF3E
:103F60002C960FB6F894DEBF0FBECDBFDF91CF9178
:103F70000C947C1FE0917C01F0917D0109950E94D9
:103F80007A1F0C947B1FEF92FF920F931F93E09088
:103F90007402F090750200917602109177022091E0
:103FA00078023091790240917A0250917B026091BF
:103FB0007C0270917D0280917E0290917F020E942E
:103FC000451F882321F08AE792E00E94682810921A
:103FD0007C0210927D0210927E0210927F0286E097
:103FE000EAE7F2E0A4E7B2E001900D928A95E1F7EA
:103FF0001F910F91FF90EF900895CF93DF9300D022
:1040000000D000D0CDB7DEB7E0917E01F0917F0106
:1040100040917A0250917B0260917C0270917D0206
:1040200080917E0290917F020995F42FE52FCB01BC
:1040300020937A0230937B02F0937C02E0937D021E
:1040400060937E0290937F02A9016F2F7E2F0E94C2
:10405000A61F20937A0230937B0240937C025093F8
:104060007D0260937E0270937F020E94241FEAE724
:10407000F2E08181832B818326960FB6F894DEBF10
:104080000FBECDBFDF91CF910C94C31FCF93DF93B1
:1040900000D000D000D0CDB7DEB786E0EAE7F2E08E
:1040A000DE01119601900D928A95E1F729813A81FE
:1040B0004B815C816D817E8180E090E026960FB619
:1040C000F894DEBF0FBECDBFDF91CF910895CF939F
:1040D000DF9300D000D000D0CDB7DEB749835A833C
:1040E0006B837C838D839E8386E0FE013196AAE7F5
:1040F000B2E001900D928A95E1F726960FB6F894FA
:10410000DEBF0FBECDBFDF91CF910895CF93DF9378
:10411000CDB7DEB72C970FB6F894DEBF0FBECDBF7C
:104120004F8358878B879C870E947321FC016138DD
:104130002FEF720754F19B016038710514F02FE7DF
:1041400030E0E138FF4F1CF18038910514F08FE723
:1041500090E029878A8786E0FE013796DE01119676
:1041600001900D928A95E1F729813A814B815C811A
:104170006D817E8180E090E02C960FB6F894DEBFD2
:104180000FBECDBFDF91CF91089521E8DACF81E84E
:10419000E0CF28E030E043E060E087EF0C94342784
:1041A000CF93DF93D82FC62F0E94C9208D2F806810
:1041B0000E94AC278C2F0E94AC270E94DC278FED39
:1041C00091E00197F1F700C00000DF91CF910895D1
:1041D000CF93C82F0E94C9208C2F8F770E94AC27C5
:1041E0000E94C427C82F0E94DC278AE68A95F1F72F
:1041F00000C08C2FCF9108958FE00E94E82028EC1A
:10420000829FC0011124089568EC883C910548F014
:1042100068E0893020E2920720F468EC70E00E94A8
:1042200074318FE00C94D020CF93DF93879A0E9453
:104230002C276AE58AE30E94D0202FEF80E792E0E6
:10424000215080409040E1F700C0000082E00E94D1
:10425000E82083E00E94E82084E00E94E82085E0D6
:104260000E94E82086E00E94E82062E089E30E9444
:10427000D0206DE183E10E94D020EFE3FCE931978B
:10428000F1F700C0000068E183E10E94D0200E94A5
:10429000C92082EE0E94AC27F0E5FA95F1F7CEE650
:1042A000D1E0FE0184910E94AC27F0E5FA95F1F788
:1042B00021962DE0CC36D207A1F70E94DC278FE3B0
:1042C0009CE90197F1F700C0000080E20E94E8201D
:1042D000682F607F80E20E94D02080E496E0DF912A
:1042E000CF910C9404210F931F93CF93DF930E94DF
:1042F000C92080E50E94AC278FE891E00197F1F793
:1043000000C000000E94C42787FF22C00E94C4276B
:104310000E94C427D82F0E94C427182F0E94C427A8
:10432000C82F0E94C42720E0312F89010D2B20E0E7
:10433000382FC9018C2BEC0182E00E94AC270E942F
:10434000DC27B801CE01DF91CF911F910F91089525
:10435000D0E0C0E010E000E0EFCFCF93DF93EC01BE
:10436000FB018281882309F420C1C430FDE5DF0709
:10437000C8F5CB3F9CE5D90730F49E0122503C455F
:104380002431310598F50E942A179093A802809352
:10439000A702C031FCE5DF0709F4E0C008F061C006
:1043A000C8309CE5D90709F4CBC088F5C430FCE5DA
:1043B000DF0709F4B3C0E8F4C2309CE5D90709F47B
:1043C000A7C08091A7028260C330DC4509F4A3C076
:1043D0008091A7029091A8020E9438170E949A101B
:1043E00080E004C0C236EDE5DE0769F2DF91CF91CF
:1043F00008958091A7028061C630FCE5DF0709F4CB
:104400008AC008F48FC08091A702806284C0809126
:10441000A7028D7FCC309CE5D90709F47CC070F4ED
:104420008091A7028C60CA30FCE5DF0709F473C0F5
:1044300008F48AC08091A7028E7F6DC08091A70288
:10444000877FCE309CE5D90709F465C08091A7022B
:104450008B7FCF30DC4508F45EC08091A7028F7E51
:104460005AC0CD3FFCE5DF0709F474C040F5C43104
:104470009CE5D90709F48AC058F4C231FCE5DF078E
:1044800009F474C008F46EC08091A702837F43C012
:10449000CB3F9CE5D90709F449C008F04DC0C531B0
:1044A000DC4509F095CF8091A70282FB992790F90E
:1044B00021E0922790FB82F990FB83F92CC0C13058
:1044C0008DE5D80709F458C088F48091A80283606C
:1044D000CF3FECE5DE0769F18091A8028D7FC11521
:1044E000DD4538F18091A8028C7F23C0C3308DE573
:1044F000D80709F458C008F452C0C236DD4509F0A7
:1045000067CF9091A702892F8F7E94FF806103C0AF
:104510008091A70281608093A7025ACF8091A70261
:104520008460F9CF8091A7028860F5CF8091A802BE
:1045300081608093A8024CCF8091A8028260F9CF5D
:104540008091A7028064E7CF0E949A108091A70211
:104550008068E1CF8091A8028E7FEBCF8091A70287
:104560008F7DD9CF8091A7028F7BD5CF0E949A10E3
:104570008091A7028F77CFCF8091A802982F909536
:1045800091708E7F892B90FB81F9D3CF0E949A1076
:104590009091A702892F97FB87F98058BCCF81E0C3
:1045A0000E94BE1715CF80E0FBCF81E01FCF809126
:1045B00004011F928F93809105011F928F93809128
:1045C00008011F928F93809109011F928F93809110
:1045D0000A011F928F9380910B011F928F938CE69B
:1045E0009DE09F938F930E94B80B8DB79EB70E9658
:1045F0000FB6F8949EBF0FBE8DBF0895883228F580
:104600008E3108F072C08B3041F130F4873009F4FC
:10461000CFC08BEC9EE0E0C0833109F45FC08431F1
:10462000C1F78DEE9EE00E941F0B809184028823CB
:1046300009F4FEC01092840210928302109282024A
:10464000109281021092800220C08F3409F4C7C0FA
:10465000D8F5893231F38833E1F680EF9EE00E948D
:104660001F0B0E94D7221F9281E08F931F9285E03B
:104670008F9389EE9DE09F938F930E94B80B0F90CC
:104680000F900F900F900F900F9020918402222393
:1046900009F4C9C08091800290918102009711F4C1
:1046A00084E891E09F938F931F922F9389EB9EE074
:1046B0009F938F930E94B80B0F900F900F900F90C5
:1046C0000F900F9081E00895813509F49CC008F4A3
:1046D0009CC0823509F09DCF81E082C08FED9EE0C5
:1046E0000E941F0B0E94D722D0CF8D51809384024D
:1046F000833009F442C058F48130C1F08230A1F116
:10470000109284028CED9EE00E941F0B1BC085302E
:1047100009F445C0D8F1863099F784E091E0909390
:104720008302809382028CEC91E008C08BE091E0E0
:10473000909383028093820288E891E090938102B3
:104740008093800280918402882309F49ECF1F9277
:104750008F9388ED9EE09F938F930E94B80B0F90EC
:104760000F900F900F9091CF8AE091E09093830289
:104770008093820281E991E0E1CF89E091E090931A
:104780008302809382028DE991E0D8CF88E091E0A6
:1047900090938302809382028AEA91E0CFCF85E0F2
:1047A00091E0909383028093820289EB91E0C6CFDF
:1047B0008EE180930B0182E380930A018AE080936B
:1047C000090184E18093080188E08093050188E273
:1047D000809304018EEC9EE00E941F0B56CF8AE06E
:1047E000E0918202F09183023097D1F02081082E6F
:1047F000000C990B820F911D8F3F910541F03CF009
:104800008FEF808307C08FEFEBCF86EFE9CF97FF65
:10481000F8CF108280811F928F9385EC9EE09BCF12
:1048200082EC9EE0D9CF85EB9EE00E941F0B4ACF21
:1048300080E00895CF93C82F1F928F9386E09FE06A
:104840009F938F930E94B80B61E070E080E090E04E
:1048500004C0660F771F881F991FCA95D2F70E9460
:10486000F3100F900F900F900F90CF910C949A101F
:10487000EF92FF920F931F93CF93DF938B3109F445
:1048800001C108F09FC08B3009F4BBC008F07DC0A7
:10489000863009F4C9C048F4853009F4A1C089E420
:1048A00093E10E941F0B80E0CFC0873009F4D3C092
:1048B0008830A9F70E9426171F928F938CE293E10C
:1048C0009F938F930E94B80B0E94221783FB992716
:1048D00090F91F929F9382FB992790F91F929F93C3
:1048E00081FB992790F91F929F93982F91701F92A7
:1048F0009F931F928F9383EE92E19F938F930E94D9
:10490000B80B0E942A1787FB222720F91F922F93AA
:1049100086FB222720F91F922F9385FB222720F95F
:104920001F922F9384FB222720F91F922F9383FB42
:10493000222720F91F922F9382FB222720F91F9212
:104940002F9391FB222720F91F922F93292F21705B
:104950001F922F9381FB222720F91F922F93282F3C
:1049600021701F922F939F938F938EEF91E19F93CE
:104970008F930E94B80B8DB79EB788960FB6F894A8
:104980009EBF0FBE8DBF81E05FC0803109F492C031
:1049900080F48E3009F083CF90916302892F8B7F52
:1049A00092FF84608093630282FF81C084E793E179
:1049B00075C0863109F48EC0893109F070CF86E761
:1049C0009FE021C08A3249F190F4873211F128F436
:1049D0008E3108F464CF8D511DC0893209F05FCF4C
:1049E00087EB93E10E941F0B0E94310CCCCF8334E4
:1049F00068F48A3308F093C0853359F0883309F09E
:104A00004ECF8BE590E10E941F0BBDCF833409F0A0
:104A100046CF80E00E941A24B6CF87ED93E10E9432
:104A20001F0B0E94BC17AFCF80916302807F8093E1
:104A3000630284E390E10E941F0B83ED93E10E94E7
:104A40001F0B81E080938502DF91CF911F910F9121
:104A5000FF90EF90089590916302892F8E7F90FFD1
:104A600081608093630280FF03C08BEA93E1CBCF28
:104A70008EE993E10E941F0B80916302817F8093F6
:104A8000630281CF90916302892F8D7F91FF8260B5
:104A90008093630281FF08C081E993E10E941F0BAC
:104AA000809163028160EBCF83E893E1ACCF84E631
:104AB00093E1A9CF90916302892F877F93FF88604C
:104AC0008093630283FF03C088E593E1E7CF8BE423
:104AD00093E199CF0E948C29162F072FF82EE92EEB
:104AE000D091A602C09119010E941028EF92FF9266
:104AF0000F931F931F92DF931F92CF931F928F9359
:104B00008BE09FE09F938F930E94B80B8DB79EB769
:104B10000C960FB6F8949EBF0FBE8DBF34CF89534D
:104B200079CF80E008950C949125CF93C82F809180
:104B300085028130C1F0882339F0823009F444C005
:104B40001092850280E00DC00E941D168232D1F7BE
:104B50008C2F0E94912581111BC08C2F0E9438241C
:104B60008170CF9108950E941D16823289F38C2F97
:104B70000E94932581111BC0C431D9F060F4CB3061
:104B800071F0C031D1F080E09FE00E941F0B13C094
:104B900081E090E0E5CFC93261F0C833A1F784E34A
:104BA00090E10E941F0B82E09FE00E941F0B81E0BA
:104BB000D7CF1092850280E0D3CF82E08093850228
:104BC00088E30E94FE22F3CF8C2F0E94FE2281E018
:104BD000C8CF0C94C10B85988D9A86988E9A8FB108
:104BE00085FB882780F97E9905C090E0892B80930A
:104BF0008802089592E0FACFE0918802EE0FEE0F5E
:104C0000E09388024FB145FB882780F94FB146FBFE
:104C1000222720F946FF02C022E030E0822BE82B59
:104C2000E0938802EF70F0E0EF51FE4F80819091A9
:104C30008702890F8093870220E0843054F08091AE
:104C400086028F5F8093860260E080E00E94E92503
:104C500021E0809187028D3F54F48091860281503B
:104C60008093860261E080E00E94E92521E0809146
:104C70008702082E000C990B64E070E00E948831D6
:104C800080938702822F0895CF93DF93EB018631C3
:104C90009C4511F50E941D169A81992399F08A7AF4
:104CA00091E009F490E090938902811109C089E2B2
:104CB0000E94F8150E946D1680E0DF91CF91089553
:104CC00085E3F6CF80918902811104C089E20E94B8
:104CD000FF15F0CF85E3FBCF81E0EFCF0F931F935C
:104CE000CF93DF93C42FD22FFC0182818823C9F098
:104CF00040938C020E94802990938B0280938A02B9
:104D000080E28C0F883008F050C0C77081E001C08D
:104D1000880FCA95EAF7DF91CF911F910F910C94FC
:104D2000E50D10918C02141335C080918A02909188
:104D30008B020E949829883C910560F5C0E2CD0F56
:104D40001D17B9F080E2810F883040F4177081E0C0
:104D500001C0880F1A95EAF70E94EC0DC83048F49C
:104D600081E09D2F977001C0880F9A95EAF70E9405
:104D7000E50D802F0E94DD0DC830B8F4D77081E0BA
:104D800001C0880FDA95EAF7DF91CF911F910F915B
:104D90000C94EC0D80E28C0F883038F4C77081E001
:104DA00001C0880FCA95EAF7EFCFDF91CF911F912D
:104DB0000F9108950F939C01CB01243F4CE53407DC
:104DC00059F1A8F4293DFCE53F0701F12A3D4CE5E6
:104DD0003407D1F1283D3C4591F406E221EE41EE45
:104DE00068ED7CE50E946E2680E00F910895263FD5
:104DF000FCE53F07E9F0B0F0273F3C45F9F0FC0146
:104E00008281882339F110928C02EFCF07E225EEE0
:104E100045EE69ED7CE5E6CF06E221EE40EE64EF7B
:104E20007CE5E0CF07E225EE44EE65EF7CE5DACFE6
:104E300006E221EE42EE66EF7CE5D4CF07E225EEF6
:104E400046EE67EF7CE5CECF08E221E045EE6AED65
:104E50007CE5C8CF81E0C9CF289A219A229A23986D
:104E60002B9880E58CBD089590910C019F3F09F02F
:104E700071C08F3F09F46EC0611144C010928E0260
:104E800090918E02423009F441C0433009F442C08F
:104E900094604130E1F141E050E042175307E0F106
:104EA00090918E024031510509F452C0C0F5423054
:104EB000510509F446C04830510509F446C09CB577
:104EC00020918E02922B9CBD90918D02992319F016
:104ED0009DB591609DBD80930C01E82FE295EF7028
:104EE000F0E031A1282F2F7081E090E001C0880F01
:104EF0002A95EAF7382B31A392A18095892382A3C2
:104F000081E0089590E290938E02BACF98609093DA
:104F10008E02C1CF9C60FBCF440F551FBECF4034E3
:104F2000510549F04038510541F04032510539F6FC
:104F300021E020938D02926001C0936090938E02D5
:104F4000BECF91E090938D02BACF21E020938D02E5
:104F50009160F4CF80E00895CF93DF938EBD0E94DF
:104F60008029EC010DB407FE05C08EB590E0DF91FD
:104F7000CF9108950E9480298C1B9D0B843691054A
:104F800088F38EEF9FEFF3CFCF93DF931EBC0E9489
:104F90008029EC010DB407FE05C08EB590E0DF91CD
:104FA000CF9108950E9480298C1B9D0B843691051A
:104FB00088F38EEF9FEFF3CF80910C018F3F29F1A3
:104FC000E82FE295EF70F0E041A18F7021E030E032
:104FD000B90102C0660F771F8A95E2F7CB01942FC3
:104FE000982B91A392A1892B82A38FEF80930C0120
:104FF0008DB58E7F8DBD9CB580918E028095892365
:105000008CBD10928E0210928D0208959093010231
:1050100080930002089590939402809393020895E0
:10502000E0919302F0919402309721F00190F08189
:10503000E02D099480E00895EF92FF920F931F9363
:10504000CF93DF938C01E0919302F091940230971B
:10505000C1F10280F381E02D09958091630282FF06
:1050600030C080FF04C080EF93E10E941F0BD0E0AE
:10507000C0E08AEEE82E83E1F82E8091630280FF83
:105080000EC0F801EC0FFD1F80811F928F93FF92DD
:10509000EF920E94B80B0F900F900F900F902196F7
:1050A000C830D10551F78091630280FF0AC088EEB5
:1050B00093E1DF91CF911F910F91FF90EF900C94AE
:1050C0001F0BDF91CF911F910F91FF90EF900895EB
:1050D000E0919302F0919402309739F022E0DC01E4
:1050E0002C930480F581E02D09940895209191027C
:1050F000309192022817390771F0909392028093B1
:105100009102E0919302F0919402309721F0068091
:10511000F781E02D0994089520918F02309190023B
:105120002817390771F09093900280938F02E091D5
:105130009302F0919402309721F00084F185E02DE4
:10514000099408959C012E5F3F4FAC01485F5F4F6B
:1051500080E02417350709F40895F90191919F0122
:105160009923B9F38F5FF5CF662349F0FC0132969E
:1051700008962191261729F0E817F907D1F780E062
:10518000089581E008959C01FC0132969FEF80E034
:105190004191461751F09F3F19F4411101C0982FDA
:1051A0008F5F8630A9F79F3F09F40895290F311DBD
:1051B00097FD3A95F90162830895FC0132960896AD
:1051C0002191261303C0DF0111971C92E817F907FC
:1051D000B9F708950C94C3280C94DD28029626E0B4
:1051E000FC0111922A95E9F7089508950C94F52889
:1051F000811105C081E0809395020C94F62882E02D
:10520000FACF83E0809395020C94F6280C94F8284A
:1052100081E0809395020C94F6280C940829089557
:105220008091B302843031F10E942A0C10929602D0
:1052300088E190E020E40FB6F894A8958093600090
:105240000FBE2093600083B7817F846083BF83B7E4
:10525000816083BF7894889583B78E7F83BF0FB6B4
:10526000F894A89580916000886180936000109206
:1052700060000FBE0895089508950E943B290E9482
:10528000A11B0E943C2980E00E94151B91E0811126
:1052900001C090E0892F08950E949A100C94A90CE7
:1052A0001F921FB61F9211248F939F93AF93BF93AA
:1052B00080919602811113C08091AB029091AC0253
:1052C000A091AD02B091AE024196A11DB11D809397
:1052D000AB029093AC02A093AD02B093AE02BF912B
:1052E000AF919F918F911F901FBE1F90189582E0E4
:1052F00084BD93E095BD9AEF97BD80936E000895AD
:105300002FB7F8948091AB029091AC02A091AD02BE
:10531000B091AE022FBF08952FB7F8946091AB0201
:105320007091AC028091AD029091AE022FBF0895B2
:105330009C014FB7F8948091AB029091AC02A09180
:10534000AD02B091AE024FBF821B930B08957894CB
:105350001F921FB61F9211248F939F93AF93BF93F9
:105360008091AB029091AC02A091AD02B091AE02DF
:105370000196A11DB11D8093AB029093AC02A09346
:10538000AD02B093AE02BF91AF919F918F911F90EC
:105390001FBE1F90189581E08093E00080E280930B
:1053A000D8001092C9008FE19EE40197F1F700C088
:1053B000000087E090EBDC018093BC029093BD027B
:1053C000A093BE02B093BF0288E19CE00FB6F894B0
:1053D000A895809360000FBE90936000FFCF8091EE
:1053E000A502089508959C0182E08093E9009FEF53
:1053F0008091E800915085FD06C085ED8A95F1F712
:1054000000009111F5CF8091E80085FF0CC050E0BD
:1054100040E066E070E0C9010E94D82C8091E8006D
:105420008E778093E8000895CF93DF93EC0181E0BD
:105430008093E9008FEF9091E800815095FD06C0C0
:1054400095ED9A95F1F700008111F5CF8091E80074
:1054500085FF14C050E040E068E070E0CE010E949B
:10546000D82C8091E8008E778093E80088E0FE01D8
:10547000ADE9B2E001900D928A95E1F7DF91CF910D
:1054800008958093990270939B0260939A02809191
:10549000B302843001F582E08093E9008FEF9091B0
:1054A000E800815095FD06C095ED9A95F1F7000052
:1054B0008111F5CF8091E80085FF0DC050E040E0FC
:1054C00063E070E089E992E00E94D82C8091E800C6
:1054D0008E778093E8000895BC0184E00C94412A03
:1054E000BC0183E00C94412A86E194E10E941F0BE9
:1054F0008091B202811109C00E94682E0E94C52EBF
:105500008091E20084608093E200089582E194E15A
:105510000E941F0B1092B20208958EE094E10E9447
:105520001F0B0C9408298AE094E10E941F0B6091E4
:10553000AF0281E0611101C080E00C94012986E096
:1055400094E10E941F0B9091B30281E0943009F026
:1055500080E06091AF020C940629209198022F5FA1
:10556000822F62E30E946831992319F020939802F8
:1055700008951092980280919C028823F1F0809106
:10558000B3028430C1F49091E9009F702091EC0047
:10559000822F817020FD80E8892B93E09093E900B1
:1055A0009091EB0090FF04C09091EE0097FD08C031
:1055B0008F708093E90010929C0208951092F10080
:1055C0009091E80095FDFACF9091E80090FFF0CF20
:1055D0009091E8009E779093E800EACF42E061EC7A
:1055E00081E00E94E42D42E261EC82E00E94E42D21
:1055F00042E261EC83E00E94E42D9091B30281E0ED
:10560000943009F080E06091AF020C94F82880910A
:10561000B502833009F460C030F48130C9F18230C2
:1056200009F49CC008958A3009F488C08B3009F4CD
:105630006EC0893009F04FC08091B402813209F008
:105640004AC08091B8029091B902029708F043C015
:105650008091E800877F8093E8008091E80082FFD6
:1056600036C09091F3008091F200029731F480915E
:10567000F100813011F0863021F48091F1008093A7
:10568000A5028091E8008B778093E8000C94182E97
:105690008091B402813AF9F48091E800877F809389
:1056A000E8008091B8029091B902892B61F468E01A
:1056B0008DE992E070E00E94272D8091E8008B77C1
:1056C0008093E800089560E090E080E0F3CF80915F
:1056D000B3028111C2CF08958091B402813AD9F703
:1056E0008091B8029091B902892BA9F78091E800C6
:1056F000877F8093E8008091E80080FFFCCF809155
:1057000019018093F1008091E8008E77BDCF8091E0
:10571000B402813201F78091B8029091B902892BCD
:10572000D1F68091E800877F8093E8000E94182ED0
:105730008091B602809319010C949A108091B40262
:10574000813249F68091E800877F8093E8000E94CB
:10575000182E8091B7028093A60208958091B4021A
:10576000813A09F0B8CF8091E800877F8093E80004
:105770008091E80080FFFCCF8091A602C2CF9FB746
:10578000F89410929C029FBF9091B302943009F05C
:1057900048C02091E9002F703091EC00932F917058
:1057A00030FD90E8922B23E02093E9002091EB005C
:1057B00020FF34C02091EE0027FF30C020919702D7
:1057C000222321F02091E80025FF28C010929702A3
:1057D00026E03091E80035FF14C08093F1008091FD
:1057E000E80085FD27C08091E80080FFFCCF809114
:1057F000E8008E778093E8009F709093E90080E046
:1058000008953091B302343049F43091EB0035FD06
:1058100005C0215041F481E0809397029F709093DE
:10582000E9008FEF0895EFE9FFE03197F1F700C04D
:105830000000CFCF8FB7F89421E020939C028FBF58
:10584000DBCF84B7877F84BF0FB6F894A89580918B
:105850006000886180936000109260000FBE80E855
:1058600090E00FB6F89480936100909361000FBEB2
:105870000C940D290E94682E0E94C52EE2EEF0E0E5
:1058800080818460808378940C944D318DE091E028
:105890000C940B288091B3028530C9F482E094E126
:1058A0000E941F0B8091B302853011F00C944C299B
:1058B0000E9410298091B1028823A1F30E943D2902
:1058C000882381F30E94C22C0E949A10EBCF089586
:1058D00008950C946B2C292F33272330310521F1A7
:1058E00068F42130310509F443C02230310509F450
:1058F00044C090E080E030E020E026C02132310555
:1059000051F122323105A9F76330710590F7FB019F
:10591000EE0FFF1FEC50FE4F208131816F507E4F04
:10592000FB01808190E010C099278130910581F0C2
:10593000009729F00297E9F6EAE1F4E102C0E6E413
:10594000F4E1849190E09F01FA013183208308956E
:10595000E0E3F4E1F6CF6330710558F6660F771F88
:10596000FB01E650FE4F2081318189E090E0ECCFD1
:1059700082E190E025EA34E1E7CF8BE590E02AE48C
:1059800034E1E2CF80E189BD82E189BD09B400FE46
:10599000FDCF8091D8008F7D8093D8008091E0006A
:1059A00082608093E0008091E00081FDFCCF08954B
:1059B000AF92BF92CF92DF92FF920F931F93CF933C
:1059C000DF936C01EB018A010E94372EF82E8111C2
:1059D00023C00115110539F0F80180819181C81BA0
:1059E000D90BC80ED91EB12CA12C2097A9F08091FB
:1059F000E80085FD22C08091E8008E778093E80062
:105A000001151105A1F0F80180819181A80EB91E40
:105A1000B182A08285E0F82E8F2DDF91CF911F916A
:105A20000F91FF90DF90CF90BF90AF9008950E94AC
:105A3000372E8823D1F2F82EEFCFF60181916F0136
:105A40008093F1002197FFEFAF1ABF0ACECFFC0180
:105A50008091BA029091BB0286179707A0F061155A
:105A6000710529F49091E8009E779093E80090E00A
:105A70006115710551F4911108C08091E80082FF11
:105A800034C080E00895BC01F2CF8091B302882336
:105A9000C1F18530C1F18091E80083FD30C0809173
:105AA000E80082FDEACF8091E80080FFE1CF80919D
:105AB000F3002091F200382F6115710519F028309C
:105AC000310558F091E02830310509F090E020913F
:105AD000E8002E772093E800CBCF81918093F100EE
