:100000000C94830D0C94BB0D0C94BB0D0C94BB0D88
:100010000C94BB0D0C94BB0D0C94BB0D0C94BB0D40
:100020000C94BB0D0C94BB0D0C9403330C94D73380
:100030000C94282D0C94BB0D0C94BB0D0C94BB0D93
:100040000C94BB0D0C94BB0D0C94BB0D0C94BB0D10
:100050000C94BB0D0C94AF2D0C94BB0D0C94BB0DEC
:100060000C94BB0D0C94BB0D0C94BB0D0C94BB0DF0
:100070000C94BB0D0C94BB0D0C94BB0D0C94BB0DE0
:100080000C94BB0D0C94BB0D0C94BB0D0C94BB0DD0
:100090000C94BB0D0C94BB0D0C94BB0D0C94BB0DC0
:1000A0000C94BB0D0C94BB0D0C94BB0D29001E00D1
:1000B0001F0020002100220023002400250026002C
:1000C00027002A00350214001A0008001500170046
:1000D0001C0018000C001200130001512E00040037
:1000E0001600070009000A000B000D000E000F00AB
:1000F0003300280031001D001B0006001900050018
:10010000110010003600370038003400F100000004
:100110002D00E200E000E1002C002C002F00300058
:100120000000F200010001000100010001000100D7
:100130000100010001000100010001002B0001008D
:100140005200010001000100010001000100010056
:10015000010001000100500051004F0001000100AA
:100160000100010001000100010001000100010087
:100170000100010001000100010001000100010077
:100180000100010001000000010001000100010068
:10019000010001000100010000000100005C0100FD
:1001A0000100010001000100010001000100010047
:1001B0000100010001000100010001000100010037
:1001C0000100010001000100010001000100010027
:1001D0000100010001000100010001000100010017
:1001E0000100010001000100010001000100010007
:1001F00001000100010001000100010001000000F8
:1002000001000100010001000100010001000100E6
:100210000000010044454255473A20646973616219
:100220006C65642E0A0044454255473A20656E616C
:10023000626C65642E0A000A0025303258006C6535
:10024000645F7461736B3A20004F6E6573686F74FE
:100250003A206163746976653A2025640A000A00D1
:100260002530313662003A200025303258000A72BB
:100270002F632030313233343536373839414243F9
:100280004445460A00290A002575002F00257500FF
:100290005D280025640020002564002000256400FE
:1002A00020002564007C0025303258006D6F757386
:1002B000656B6579205B62746E7C7820792076208E
:1002C000685D287265702F61636C293A205B00506D
:1002D000574D33333630202830293A2073746172F9
:1002E00074696E67206D6F74696F6E0A0001048E09
:1002F000966E773EFE7E5F1DB8F2664EFF5D19B0CA
:10030000C20469542AD62EBFDD19B0C3E529B1E075
:1003100023A5A9B1C10082674C1A978D795120C7D6
:10032000068E7C7C7A764FFD5930E2460E9EBEDF0B
:100330001D9991A0A5A1A9D022C6EF5C1B9589901B
:10034000A2A7CCFB5528B3E44AF76C3BF46A562EBF
:10035000DE1F9DB8D3058892A6CE1EBEDF1D99B0C4
:10036000E246EF5C07115D980B9D9497EE4E453386
:100370006B44C729562730C6A7D5F256DFB438627A
:10038000CBA0B6E30F84062405656F7689B5774167
:100390002782666582CCD5E620D52717C5F80323CA
:1003A0007C5F64A51DC1D636CB4CD4DB66D78BB140
:1003B000997E6F4C364006D6EBD7A2E4F495515A9D
:1003C0005496D55344D78CE0B94068D218E9DD9AE9
:1003D000239248EE7F43AFEA7738848C0A72AF6984
:1003E000F8DDF12483A3F84ABFF59413DBBBD8B43E
:1003F000B3A0FB4550603059123171A2D313E7FA14
:10040000E7CE0F63150B6B94BB378326059DFB4628
:1004100092FC0A15D10D7392D68C1B8CB8558ACEDE
:10042000BDFE8EFCED0912839182513123FBB40C89
:1004300076AD7CD9B44BB26714099C7F0C18BA3BDB
:10044000D68E142AE41B529F2B7DE1FB6A3302FAFD
:10045000AC5AF23E887EAED1F378E805D1E3DC21D8
:10046000F6E19ABD170ED9469B8803EAF666BE0EE2
:100470001B5049964097F1F1E480A66EE87734BFAF
:10048000294044C2FF4E98D39CA3322B76510409D5
:10049000E7A9D1A632B12353E247ABD6F5695C3E5A
:1004A0005FFAAE4520E5D244FF39326DFD27575C37
:1004B000FDF0DEC1B599E5F51C770175C56D589263
:1004C000F2B247000126967A30FFB7F0EF77C18A83
:1004D0005DDCC0D129301E77387A94F1B87A7EEF8E
:1004E000A4D1AC314AF25D643DB2E2F00899FC70EF
:1004F000EE24A77EEE1E20697D44BF8742DF883B45
:100500000CDA42C904F94550FC838F116A72BC9918
:1005100095F0AC3DA73BCD1CE2887937115F398956
:10052000950A16847AF68AA428E4ED83803BB123E9
:10053000A50310F466EABB0C0FC5EC6C69C5D324A7
:10054000ABD42AB799887608A0A8957CD8386DCD09
:100550005902514BF1B52B50E3B6BDD072CF9EFD81
:100560006EBB44C8248A77188A1306EF977DFA81F8
:10057000F031E6FA77ED3106315B548A9F3068DB63
:10058000E240F84E73FAAB748B105813DCD2E67865
:10059000D1322E8A9F2C58064827C5A95E814789EB
:1005A0004621910370A43E889CDA330ACEBC8B8E20
:1005B000CF9FD3718043CF6BA95183763082C56AB8
:1005C000853911501A82DC1E1CD57DA971993347DB
:1005D0001997B35AB1DFEDA4F2E62684A2289A9EB9
:1005E000DFA66AF4D6FC2E5B9D1A2A2768FBC1831E
:1005F000214B90E036DD5B314255A013F7D0895393
:100600007199570929C5F321F8372F40F3D4AF1654
:10061000083602FC77C58B049056B9C9679A99E8E9
:1006200000D386FF972D08E9B7B391BCDF45C6ED2F
:100630000F8C4C1EE65B6E3830E4AAE395DEB9E41D
:100640009AF5B2559A879BF66AB2F2779A31F47AA4
:1006500031D11D04C07C32A29E9AF562F8278DBF6D
:1006600051FFD3DF64373F2A6F763A7D77069E7756
:100670007F5EEB3251F916669A09F3B008A47096C2
:100680004630FFDA4FE91BED8DF8741F3192B373DA
:100690001736DB9130D688556B3477877AE7EE06CC
:1006A000C61C8C190C4846235E9C075CBFB47ED6E2
:1006B0004F749CE2C5508BC58B159060625729D052
:1006C0001343A18088910044C74D1986CC2F2A7509
:1006D0005AFCEB972A70E378D891B04F9907A3950D
:1006E000EA2421D5DE512093270A3073A8FF8A9788
:1006F000E9A76A8E0DE8F0DFECEAB46C1D392A62D6
:100700002D3D5A8B65F890052E7E912C78EF8E7AD0
:10071000C12FAC78EEAF2845064C26AF3BA2DBA339
:100720009306B53CA5D8EE8FAF25CC3F856848A988
:1007300062CC978F7F2AEAE0150AAD6207BD45F8C3
:1007400041D836CB4CDB6EE63AE7DA15E9291E12C2
:1007500010A0142C0E3DF4BF394192750B257BA3DC
:10076000CE399C1564C8FA3DEF7327FE262ECEDAEB
:100770006EFD718EDDFE76EEDC125C02C53A4E4EE9
:100780004FBFCA4015C76E8D41F110E04F7E977F75
:100790001CAE478E6BB12531B073C71B9779F980BA
:1007A000D366223007741EE4D08021D6EE6B6C4FE6
:1007B000BFF5B7D909872FA914BE27D9725001D424
:1007C0001373A6A751027525E1B345347DA88EEBBE
:1007D000F31649CB4F8CA1B9368539755D0800AE4B
:1007E000EBF6EAD7133A215A5F3084522695C914A2
:1007F000F257556BB110C2E1BD3B51C0B7554C71BA
:100800001226C70DF951A43802057FB8F1724BBF0B
:10081000718914F37738D97124F30011A1D8D46900
:1008200027083735C9119D901C0EE71CFF2D1EE8C7
:1008300092E11810957CE080F4964321F9752164CB
:1008400038DD9F1E9516DA561D4F9A53B2E2E41812
:10085000CB6B1A65EB56C63BE5FED8263F3A84596A
:100860007266A2F375FFFB60B322AD3F2D6BF9EB0F
:10087000EA057CD88F6D2C989E2B93F15E46F0870D
:1008800049297368D77FF9F0E57DDB1D7519F3C43D
:10089000589B1788A892E0BEBD8B1D8D9F5676ADE4
:1008A000AF29E2D9D552F6B55635573AC8E1564385
:1008B0001994D3049B6D35D80B5F4D198EECFA64F7
:1008C000910A72202BBC1A4AFE8BFDBBED1B23EA5A
:1008D000AD7282A1299971BDF095C103DD7BC2B2D1
:1008E0003C2854D368A472C86696E0D1D87FF8D16A
:1008F000262BF7ADBA55CA15B932C3E588978E5C79
:10090000FB92258BBFA245557AA76F8B575BCF0E05
:10091000CB1DFB208277A88CCC16CE1DFADECC0B2B
:1009200062FECCE1B7F0C381647340A0C24D89116F
:10093000753355338DE84AFDEA6E300BD7312CDE26
:1009400047E3BFF85542E27F59E517EF99346991C3
:10095000B1238E20872DA8FED58AF3843AF037E4A0
:10096000090054EE674993E48170E3904DEFFE4136
:10097000B7997BC183BA62126F7DDE6BAFDA16F96D
:100980005551EEA60C2B02A3FD8DFB3017E46FDF53
:100990003671C4CA872548B047ECEAB4BFA54D9B61
:1009A0009F0293C4E3E4E8422D6881150AEB845B5F
:1009B000D6A874FB7D1DCB2CDA462A7662CEBC5CB1
:1009C0009E8BE7CFBE78F57CEBB33A9CAA6FCC72D6
:1009D000D159F21123D63F48D1B7CEB0BFCBEA8070
:1009E000DE57D45E972F75D1508E802C6679BF72FA
:1009F0004BBD8A816CD3E101DCD21526C536DA2CD9
:100A00001AC02794EDB79B850B5E8097C5EC4FEC21
:100A1000885D50073547DC0B3B3DDD60AFA85D814D
:100A20003824255D5C15D1DEB3ABEC0569EF83EDB1
:100A30005754B8646411163269DA9F2D7F36BB446F
:100A40005A34E87FBF03EB007F59682279CF736C7B
:100A50002C29A7A15F38A11DF02053E01A63145878
:100A60007110AA080C3E161A6022827FBAA443A015
:100A7000D0AC1BD56B64B51493319E5350D05766E0
:100A8000EE5A4FFB032A695876F183F74EBA8C422F
:100A900006605D6DCE6088AEA4C3F103A54B98A13E
:100AA000FF67E1ACA2B862D76FA031B4D277AF21B3
:100AB0001006C69AFF1D09170E5FF1AA54344B4564
:100AC0008A8763A6DCF9243067C6B2D6613369EE43
:100AD00050615728E77EEEEC3A5A734EA88DE41821
:100AE000EAEC4164C8E2E866B62DB6FB6A6C16B360
:100AF000DD4643B973006A71ED4E9D251AC33C4A29
:100B000095159935811402D6989BECD8233B8429FE
:100B1000AF0C9983A69A344FFAE8D03C4BD0FBB681
:100B200068B89E8FCDF7602D7A22E57DAB651B9569
:100B3000A7A87FB677477B5F8B1272D0D491EFDE88
:100B400019503CA78BC4A9B323CB76E681F0C1042E
:100B50008FA3B8545B97AC19FF3F55272FE01D4278
:100B60009B57FC4B4E0FCE98A9435703BDE7C89443
:100B7000DF6E367332B4EF2E857A6EFC6C18827598
:100B8000359007F3E49F3EDC68F3B5F319809206D5
:100B900099A2E86FFF2E7FAE42A45FFBD40E812B9B
:100BA000C304FF2BB3744E365B9C1500C6472BE87D
:100BB0008B3DF19C039A587F9B9CBF854979352ECC
:100BC000567B411439478326AA078998111B86E76B
:100BD000737AD87D786153E979F5368D449284F93A
:100BE0001350583BA46A3665498E3C0EF16FD2848F
:100BF000C47E8E3F39AE7C84F163378E3CCC3E445C
:100C00008145F14BB9ED6B365DBB20601A0FA3AA8D
:100C100055773AA9AE374DBAB8866BBC0850F6CCBA
:100C2000A4BD1D4072A586FAE210AE3D584B97F365
:100C30004374A99EEB21B701A4869397EE2F4F3BF7
:100C400086A1416F412690785C7F30384B3FAAECFB
:100C5000ED5C6F0EAD4387FD9335E601EF412690C5
:100C6000999EFB195BADD2918AE046AF65FA4F843D
:100C7000C1A12DCF458BD38550557CF96788D44EC3
:100C8000E9D76B6154A1A4A6A2C2BF309C409F5F6C
:100C9000D7692B24825ED9D6A712541AF7559F76AE
:100CA00050A99584E66B6DB59654D6CDB3A19B46FD
:100CB000A7944DC494B498E3E1E234D533160754B5
:100CC000CDB77753DB4F4D469DE9D49C8A36B6B8F5
:100CD00038266C0EFF9C1B438B80CCB93DDAC7F1E4
:100CE0008AF26DB8D7742F7E1EB7D34AB4ACFC79A4
:100CF000486CBC96B69446572DB0A3FC1EB9526002
:100D0000852D41D043011E1CD57DFCF3960DC7CB2C
:100D10002A299A93DD882D375DAAFB4968A09C504B
:100D2000867F685657F9791839D4E001843361CA4F
:100D3000A5D2D6E4C98A4A23444EBCF0DC24A1A043
:100D4000C4E2073C10C4B5254B6563F480E7CF616E
:100D5000B1718221872CF59100320CECA9B59A74FF
:100D600085E3368F764F9C6DCEBCAD0A4BED760495
:100D7000CBC3B9339E019396697DC5A245799B0487
:100D80005C8409ED8843C7AB931426A140B5CE4ED1
:100D9000BF2A42853E2C3B54E8121F0E9759B227BA
:100DA00089FAF2DF8E6859DC06BCB6850D0622ECA6
:100DB000B1CBE504E63DB3B04173083F3C588663D0
:100DC000EB50EE1D2C3774A9D318A3476E9354AD86
:100DD0000A5DB82A555D78F6EEBE8E3C7669B9405C
:100DE000C234EC2AB9ED7E20E48D0038C7E68F448A
:100DF000A886CEEB2AE990F14CDF32FB731B6D9293
:100E00001E95FEB4DB65DF4D23548948BF4A2E7022
:100E1000D6D762B43329B13A334C236DA676A521D7
:100E20006348E6905DED90950B7A84BEB80D5E63E5
:100E30000C62264C145AB3AC23A474A76F3330054C
:100E4000600142A028B7EE1938F164808243E14185
:100E5000271F1F90547AD5232ED13DCB28BA587F17
:100E6000DC7C9124E92851836EC5562142EDA056C1
:100E700022A140806BA8F794CA136B0C39D9FDE905
:100E8000F36FA69EFC708AB3BC593C1E1D6CF97CA6
:100E9000AFF9887195EB5700BD9F8C4FE12483C556
:100EA00022EAFDD30CE217187C6A4CDE77B4539B20
:100EB0004C81CD2360AA0E25739C02793230DF74F9
:100EC000DF7519F4A5145CF77AA8A591847C6003FA
:100ED000063BCD50B6279CFEB1DDCCD3B05924B231
:100EE000CAE21C81229D078F8EB9BE4EFAFC39657D
:100EF000BABF9D12375E977EF389F55DF5E3098CE5
:100F000062B5209D0C538A681BD28F75175DD4E59E
:100F1000DA756219146A262DEBF8AF37F06CA45518
:100F2000B1BCE233C09ACAB011494F689B3B6B3CDD
:100F3000CC13F6C785616842AEBBDDCD4516291DD1
:100F4000EADBC803943CEE4F8211C3EC28BD970541
:100F500099DED7BB5E221FD4EB64D992D985B76ADC
:100F6000056AE42441F1CDF0D83FF89E0ECD0B7A0E
:100F7000706B5A750A6A3388EC17750870102F2445
:100F8000CFC4E942006194CA1F3A7606FAD248817A
:100F9000F077600345D961F4A46F3DD930C3046B89
:100FA000542AB7EC3BF44BF5685226CEFF5D1991FD
:100FB000A0A3A5A9B1E023C40A774DF95120A3A5A8
:100FC000A9B1C10082868E7F5D1991A0A3C4EB54A4
:100FD0000B756852078C9A978D79706246EF5C1B8F
:100FE00095897141E121A1A1A1C002674C1AB6CF38
:100FF000FD785324ABB5C9F16023A5C812876D589D
:1010000013858892876D5832C70C9A97ACDA36EE02
:101010005E3EDF1DB8F2662FBDF87247ED581385AE
:101020008892878C7B550990A2C6EF3DF85324AB7C
:10103000D42AB7EC5A36EE5E3EDF3CFA764FFD59C5
:1010400030E246EF3DF853056931C10082868E7F5C
:101050005D19B0E227CCFB744B148B948B7568330D
:10106000C50892878C9AB6CF1CBAD70D98B2E62FD6
:10107000DC1B9589716023C40A968F9CBAF66E3F7B
:10108000FC5B15A8D226AFBDF872662FDC1BB4CB73
:10109000148B94AAB7CDF951018082866F3DD93067
:1010A000E227CCFB744B14AAB7CDF97043046B351F
:1010B000C9F16023A5C8F3450892876D5832E62F21
:1010C000BDF872664E1EBEFE7E7E7E5F1D9991A0AB
:1010D000A3C40A774D1893A4ABD40B754910A2C6CC
:1010E000EF3DF85324ABB5E833E44A16AEDE1FBC3F
:1010F000DB15A8B3C5087345E931C1E121A1A1A160
:10110000C002866F5C3AD70D9893A4CA16AEDE1F54
:101110009D99B0E246EF3DF872470C9AB6CFFD5963
:1011200011A0A3A5C8F3450892876D39F043048A3E
:1011300096AEDE3EDF1D9991A0C2066F3DF8724764
:101140000C9A978D989385887345E931E023A5A97A
:10115000D003848A96AEDE1FBCDB15A8D226CEFF54
:101160005D1991818082672DD813A4ABD40B94AA0A
:10117000B7CDF95120A3A5C8F345E95022C6EF5CCD
:101180003AD70D9893858873644AF74DF95120A397
:10119000C40A96AEDE3EFE7E7E7E5F3CFA764FFD52
:1011A0007872662FBDD930C3E54812878C7B5528ED
:1011B000D2078C9A97ACDA178D795120A3C4EB54DF
:1011C0000B948B94AAD62EBFFC5B15A8D226AFDC5D
:1011D0001BB4EA37EC3BF46A37CD1893856931C10B
:1011E000E140E325C812878C9AB6CFFD5911A0C201
:1011F000068E7F5D38F2470C7B746A37EC5A36EE08
:101200003FFC7A764F1C9B95897141006344EB54F7
:101210002AD60F9CBAD70D9893856931C100828672
:101220008E9EBEDF3CFA572CDA36EE3FFC5B15890A
:1012300071410082868E7F5D38F247ED5813A4CA53
:10124000F74DF95101806344EB542AD62EBFDD19C6
:1012500091A0A3A5A9B1E042068E7F5D1991A0A33C
:10126000C40A968F7D7872470C7B746A562EDE1FF7
:10127000BCFA570D7951016121A1C0E325A9B1C183
:10128000E14002674C1A978D9893A4ABD42AD60FED
:101290009C9BB4CB14AAB7CDF95120A3C4EB35C99C
:1012A000F16042068E7F7C7A766E3FFC7A766E5EC7
:1012B0003EFE7E5F3CDB15897141E121C0E344EBDA
:1012C000542AB7CDF9706227ADD832C70C7B744B66
:1012D00014AAB7EC3BD528D2076D39D120C2E74C10
:1012E0001A978D98B2C70C5928F39B42BD04504DF4
:1012F000573333585820282564293A206D6F746974
:101300006F6E3A20307825782064783A202569205D
:1013100064793A2025690A00504D573333585820D4
:10132000282564293A2062757273740A00504D575B
:101330003333585820282564293A206669726D771E
:10134000617265207369676E617475726520766578
:1013500072696669636174696F6E206661696C6544
:1013600064210A00504D57333358582028256429EA
:101370003A206669726D776172652075706C6F6175
:1013800064206661696C6564210A00313A0964650C
:101390006C6179282A31306D73293A2025750A321B
:1013A0003A09696E74657276616C286D73293A200A
:1013B00025750A333A096D61785F73706565643A23
:1013C0002025750A343A0974696D655F746F5F6D25
:1013D00061783A2025750A353A09776865656C5F4A
:1013E0006D61785F73706565643A2025750A363AD9
:1013F00009776865656C5F74696D655F746F5F6DB3
:1014000061783A2025750A00703A097072696E7425
:101410002076616C7565730A643A0973657420649B
:10142000656661756C74730A75703A092B310A64CC
:101430006E3A092D310A6C743A092B31300A7274F4
:101440003A092D31300A4553432F713A09717569B4
:10145000740A0A7370656564203D2064656C74616C
:10146000202A206D61785F7370656564202A2028CA
:10147000726570656174202F2074696D655F746F8B
:101480005F6D6178290A77686572652064656C74A0
:10149000613A20637572736F723D25642C20776802
:1014A00065656C3D25640A53656520687474703AFF
:1014B0002F2F656E2E77696B6970656469612E6F79
:1014C00072672F77696B692F4D6F7573655F6B65F9
:1014D00079730A004D3E20004D25753A25733E2054
:1014E000003F0A003D2025750A003F0A006465663A
:1014F00061756C74730A0025750A003F0A000A09B9
:101500002D2056616C756573202D0A00710A000A42
:10151000092D204D6F7573656B6579202D0A003F8D
:1015200000433E20004C25640A000A092D20537414
:1015300061747573202D0A686F73745F6B657962CF
:101540006F6172645F6C65647328293A20253032BC
:10155000580A6B6579626F6172645F70726F746F45
:10156000636F6C3A20253032580A6B6579626F617F
:1015700072645F69646C653A20253032580A746978
:101580006D65725F72656164333228293A202530B7
:10159000386C580A002573000A092D20436F6E73BA
:1015A0006F6C65202D0A4553432F713A0971756997
:1015B000740A6D3A096D6F7573656B65790A000A77
:1015C000092D204D61676963202D0A443A0944655D
:1015D000627567204D65737361676520546F676737
:1015E0006C650A583A094D617472697820446562E5
:1015F0007567204D6F646520546F67676C65202D9B
:101600002053686F77206B657970726573736573AB
:1016100020696E206D617472697820677269640A4E
:101620004B3A094B6579626F61726420446562755B
:101630006720546F67676C65202D2053686F772093
:101640006B65797072657373207265706F72740A5E
:101650004D3A094465627567204D6F757365205476
:101660006F67676C650A563A0956657273696F6EE3
:101670000A533A095374617475730A433A09416312
:1016800074697661746520436F6E736F6C65204D6D
:101690006F64650A46312D4631303A0953776974D3
:1016A000636820746F204C6179657220302D392079
:1016B00028463130203D204C30290A302D393A0956
:1016C00053776974636820746F204C617965722068
:1016D000302D390A47524156453A095377697463A8
:1016E0006820746F204C6179657220302028616C0D
:1016F0007465726E617465290A423A094A756D70A3
:1017000020746F20426F6F746C6F616465720A455C
:1017100053433A094A756D7020746F20426F6F749D
:101720006C6F616465722028616C7465726E61749F
:1017300065290A453A095072696E74204545505230
:101740004F4D2053657474696E67730A4241434B71
:1017500053504143453A09436C65617220454550F9
:10176000524F4D0A006B65796D61705F636F6E66F5
:1017700069672E7261773A20253032580A2E7377C6
:1017800061705F636F6E74726F6C5F636170736CB6
:101790006F636B3A2025750A2E636170736C6F63FB
:1017A0006B5F746F5F636F6E74726F6C3A20257538
:1017B0000A2E737761705F6C63746C5F6C67756918
:1017C0003A2025750A2E737761705F7263746C5FBF
:1017D000726775693A2025750A2E737761705F6CA0
:1017E000616C745F6C6775693A2025750A2E737792
:1017F00061705F72616C745F726775693A202575FC
:101800000A2E6E6F5F6775693A2025750A2E737709
:1018100061705F67726176655F6573633A202575F5
:101820000A2E737761705F6261636B736C617368BA
:101830005F6261636B73706163653A2025750A2E80
:101840006E6B726F3A2025750A2E737761705F6533
:1018500073636170655F636170736C6F636B3A2073
:1018600025750A0064656275675F636F6E666967F8
:101870002E7261773A20253032580A2E656E6162E9
:101880006C653A2025750A2E6D61747269783A206C
:1018900025750A2E6B6579626F6172643A20257531
:1018A0000A2E6D6F7573653A2025750A00656563AC
:1018B0006F6E6669673A0A64656661756C745F6C21
:1018C000617965723A2025750A003F000A6D6F75CF
:1018D00073653A206F66660A000A6D6F7573653A24
:1018E000206F6E0A000A6B6579626F6172643A203C
:1018F0006F66660A000A6B6579626F6172643A20EE
:101900006F6E0A000A6D61747269783A206F6666BC
:101910000A000A6D61747269783A206F6E0A000AD3
:1019200064656275673A206F66660A000A646562DC
:1019300075673A206F6E0A000A0A4A756D70696E03
:101940006720746F20626F6F746C6F616465722EB4
:101950002E2E2000433E2000436C656172696E6745
:1019600020454550524F4D0A000A0025303258207C
:10197000006B6579626F6172645F7265706F72741B
:101980003A20005B735D005B575D005B535D005B5D
:10199000525D005B445D005B435D000C03670069C2
:1019A00000670061006E0000000C036700690067BB
:1019B0000061006E0000000403090409025B0003DB
:1019C0000100A0FA0904000001030101000921112E
:1019D00001000122400007058103080001090401FC
:1019E000000103000000092111010001227B000712
:1019F000058203200001090402000203000000091F
:101A000021110100012222000705830320000107A4
:101A10000503032000011201000200000008EDFE92
:101A200000000100010200010631FF0974A1010953
:101A300075150026FF0095207508810209761500AE
:101A400026FF00952075089102C005010902A10139
:101A500085020901A10005091901290815002501C0
:101A60009508750181020501093009311581257F2D
:101A700095027508810609381581257F950175083D
:101A80008106050C0A38021581257F9501750881AC
:101A900006C0C005010980A101850319012AB7000C
:101AA000150126B700950175108100C0050C0901CC
:101AB000A101850419012AA002150126A0029501A1
:101AC00075108100C005010906A101050719E0296B
:101AD000E7150025019508750181029501750881BA
:101AE000010507190029FF150026FF009506750856
:101AF00081000508190129059505750191029501D7
:101B000075039101C00011241FBECFEFDAE0DEBFE4
:101B1000CDBF04B603FE18C08091C6039091C703E1
:101B2000A091C803B091C9038730904BA740B04B38
:101B300059F41092C6031092C7031092C803109272
:101B4000C903E0E0F8E3099512E0A0E0B1E0ECEBB6
:101B5000FCE602C005900D92A83CB107D9F723E03E
:101B6000A8ECB2E001C01D92A63CB207E1F70E94CA
:101B7000391E0C9446360C940000FF93EF93E091CD
:101B8000C802F091C902309709F00995EF91FF91D1
:101B90000895FC018591803011F0EFDFFBCF0895AF
:101BA000FF27E0E230E247FF0CC0419597FF09C0F4
:101BB000EDE26095709580959095611D711D811D78
:101BC000911D27FF02C0219530E350E2AA27660F3E
:101BD000771F881F991FAA1FA41710F0A41B6395D5
:101BE0005A95A9F7AA3008F0A95FA05DAF93F395C5
:101BF000611571058105910541F7ED3211F4EF93FF
:101C0000F395F21718F43F93F395FBCF8F91B5DF5F
:101C1000FA95E1F70895E991F9918591803021F0E5
:101C2000853219F0AADFF9CF089520E0E8945591A4
:101C30005532C1F3503311F4689455915A3348F436
:101C4000505390F3220F022E220F220F200D250F4A
:101C5000F4CF0EF4219589919991533619F35337A6
:101C600029F1533559F1BC0188279927E8945C364E
:101C700021F48991999168945591543639F446EF3D
:101C80007EF077FF0DC08FEF9FEF0AC055374AE017
:101C900039F0583540E121F0523642E009F008951C
:101CA000FF93EF937DDFEF91FF91B7CFFF93EF931A
:101CB000FC0181918030B9F360DFFBCFFF93EF939C
:101CC00068DFF1CFDF93CF93CDB7DEB72596A3DFE3
:101CD000CF91DF910895811107C0662339F06AE042
:101CE00070E089EF0E94B81080E008956AE070E02B
:101CF0008AEFF8CF81E0089581E008950E947C0E7C
:101D0000089508950E94810E0895A5E0B0E0EBE8E3
:101D1000FEE00C94C63549835A833091CF02898105
:101D20009A81311119C0662399F0222389F00E940B
:101D3000AD14182F682F89819A810E9489146981B6
:101D40007A81812F0E945D1B2596E3E00C94E23599
:101D50000E949B14182FF3CF0E94AD1469817A81E1
:101D6000F1CFFC01262F40815181628173818481F2
:101D70000E94850E089581E00895CF93DF93EC01D2
:101D800060E00E94B10EBE010E94820EDF91CF91F1
:101D900008950E949E1C08950E94A21C0895089513
:101DA0000E9454130E94CF0E2FEF84E39CE0215039
:101DB00080409040E1F700C0000008950E94D00EDE
:101DC0000E94D32D08950E94D00E0E94F72D0895F1
:101DD0000F931F93CF93DF938C0161E00E94B10EAC
:101DE000EC01B8010E947E0E811106C080E0DF91F7
:101DF000CF911F910F910895B801CE010E94922AB0
:101E00008823A1F3B801CE010E94EF24882371F347
:101E1000B801CE010E94042A882341F3F80182818F
:101E20008823D9F0CB35FDE5DF07A9F170F4C13087
:101E3000ECE5DE07B1F0CF3DFCE5DF0721F1C11590
:101E4000DC4559F40E94DE0ED1CFCD35EDE5DE073D
:101E5000F9F020F1C83ADD45C1F0C8010E947A0EC0
:101E6000C6CF90915803892F8E7F90FF8160809319
:101E7000580380FF05C086E292E00E94C90DB6CFEC
:101E800084E192E0FACF0E947A190E94E30EAECF6D
:101E90000E94B818E2CF0E94C218DFCF0E94C61875
:101EA000DCCF0E94042D0E94950F0E94E22108952C
:101EB0000E94990F0E94092D0895829590E09C013F
:101EC000220F331F220F331F2C7C959587959595F4
:101ED00087958373282B30E0C901880F991F8A7A70
:101EE000359527952575822B0895CF93DF93D92FAC
:101EF0000E945D0FC82F8D2F0E945D0F9C2FDF91D8
:101F0000CF91089508950E94820F089581E0089569
:101F10000E94860F08950895CF93C82F0E94830FC3
:101F20008C2F0E94880FCF91089580E00E948C0F23
:101F300008950E94F82B0E948C0F0895CF930E9461
:101F4000F82BC82F8091CA028C1789F1C093CA025E
:101F50000E94942D6093CB027093CC028093CD02AB
:101F60009093CE028091580382FF1EC080FF1CC058
:101F70008EE392E00E94C90D8091580380FF14C047
:101F80001F92CF9389E392E09F938F930E94620EFA
:101F9000809158030F900F900F900F9080FF04C016
:101FA00087E392E00E94C90D8C2F0E948C0FCF9185
:101FB0000895ABE0B0E0EFEDFFE00C94C7354F8340
:101FC000588769877A878B8761110E94F0171E8274
:101FD0001D8285E0FE013796DE01119601900D927B
:101FE0008A95E1F78C819D81892B61F449815A8121
:101FF0006B817C818D819E810E9419172B96E2E076
:102000000C94E33589819A8189238F3F79F3CE013E
:1020100001960E94BB0E8111E9CFF0CFFC018081B7
:1020200091810E94DF140895A6E0B0E0EAE1F0E1BA
:102030000C94C535082F162F0E943A2229834B8312
:102040005C836D837E83002369F0312B4981532F9C
:102050006B817C818D819E810E9455222696E4E0D1
:102060000C94E13510953123F1CFCF93C82F8823FD
:10207000E1F08CEF8C0F813AD0F48C2F0E94B029C4
:10208000811113C06C2F80910001909101010E9479
:10209000952C882329F08C2F0E94B0170E941118CC
:1020A0008C2F0E94A8170E941118CF91089580E2EA
:1020B0008C0F883048F4C77081E001C0880FCA9542
:1020C000EAF70E94D317EFCFEBE5EC0FE33040F4D3
:1020D000F0E0EA5BFE4F808190E00E94572CE5CF54
:1020E000E8E5EC0FE73150F4F0E0EE0FFF1FE85E9B
:1020F000FE4F808191810E946D2CD7CFCD3EA8F2FA
:102100008C2F0E94BD1E0E94901FCFCF882379F193
:102110009CEF980F913A28F40E94B0170E94111872
:10212000089590E2980F983050F4877091E001C0C4
:10213000990F8A95EAF7892F0E94D917EFCF9BE56F
:10214000980F933028F490E080E00E94572C089577
:1021500098E5980F973128F490E080E00E946D2C6C
:1021600008958D3E20F00E94171F0E94901F089531
:102170001F93CF93DF93182FEB010E943510209708
:1021800039F4812F0E948610DF91CF911F9108951D
:102190008FE99FE00197F1F700C000002197EFCF92
:1021A00070E060E0893311F460E570E00E94B810DF
:1021B0000895882321F00E94D3170E9411180895D2
:1021C000882321F00E94D9170E9411180895B0E0C9
:1021D000A0E0EDEEF0E10C94C0356C01D62FC72FD6
:1021E000FC011281F580F2949FE0F9220E94C91748
:1021F000E82E8823B9F0E12E1123A1F08C2F807FE7
:10220000803421F080E28D0F8830D0F08091A003DF
:1022100082FF16C082E00E9474180E94C91791E0E4
:10222000E82EE926BC2EB2948FE0B822FBE0FB1525
:1022300008F468C0EB2DF0E0E85BF94C0C94B13584
:10224000E12CF0CF0C2F0F70C07F11F00295007FB2
:10225000112399F0002359F080E28D0F883010F09F
:10226000D11107C0802F0E94D3170E9411188D2F03
:1022700041C0802F0E94E317F8CF8D2F0E94861057
:10228000002309F43FC080E28D0F883010F0D11197
:1022900004C0802F0E94D91703C0802F0E94E91725
:1022A0000E9411182FC00C2F0F70C07FC03211F088
:1022B0000295007FDD2381F0D13009F465C0112340
:1022C00009F46FC0FF2009F465C0F601858180FF25
:1022D000CECF8F7085835EC08091A00382FD34C015
:1022E000112359F0002329F0802F0E94D3170E9458
:1022F000111880E00E94351005C080E00E94861011
:102300000111C7CF2B2D2850330B2430310520F479
:102310000E94F82B0E948C0FEE2089F00E94C517B6
:1023200080FD0DC0F60112820E94BF170E94E713C4
:10233000C6010E9414130E94BF170E94F713CDB765
:10234000DEB7E9E00C94DC35112389F0F11006C00A
:102350000E94F317802B0E94D910D4CF21E0F212F3
:10236000F7CF0E94F317802B0E94FA17CBCFF11002
:1023700006C00E940718802F0E94E010C3CF31E0F2
:10238000F31609F4BFCFF5CF112331F085E08F1597
:1023900008F4B8CF802FDFCF94E09F1508F4B2CFB8
:1023A000EACFFF2041F3D93349F4FFEF27EE33E0C2
:1023B000F15020403040E1F700C000008D2F0E9416
:1023C0008610A0CF8C2F86958695837069F081301A
:1023D00009F098CF8D2F9C2F9370111102C090E0BF
:1023E00080E00E946D2C8ECF8D2F9C2F9370111149
:1023F00002C090E080E00E94572C84CF8D2F1123E3
:1024000091F00E94BD1EED2FE15FFF0BE830F1055A
:1024100068F461E070E001C0660FEA95EAF7812F89
:102420000E9414106FCF0E94171FEDCF0E94901FC3
:1024300069CF8C2F8370A1F5111164CF4D2F429578
:1024400046954770440F440F2D2F2F7030E0042E17
:1024500002C0220F331F0A94E2F790E080E0D4FF1D
:1024600009C08FE090E002C0880F991F4A95E2F7FB
:1024700080959095C695C695C370822B932BC230DC
:1024800049F058F4C13019F00E94B5133BCF0E94B7
:10249000AC1338CF0E94BE1335CF0E94A91332CFA0
:1024A0008695112311F08C2F8170882309F42ACF8F
:1024B0004D2F429546954770440F440F2D2F2F7096
:1024C00030E0042E02C0220F331F0A94E2F790E09E
:1024D00080E0D4FF09C08FE090E002C0880F991F10
:1024E0004A95E2F780959095C695C695C370822B64
:1024F000932BC23049F058F4C13019F00E942214D5
:1025000001CF0E941914FECE0E942B14FBCE0E9414
:10251000CD13F8CECF70112329F08C2F0E94E71332
:102520008D2F19CF8D2F0E94E0108C2F0E94F71352
:10253000E9CED23F51F160F4D03FB9F0D13F81F004
:10254000112309F449C0F11092CE8C2F8F7121C054
:10255000D33F11F1D43FA1F78091A00382FD26C0A3
:102560008C2F8F71112311F314C0112349F0F4E063
:10257000FF1508F4C7CE8C2F8F710E940914C2CEAC
:1025800025E02F1508F4BECEF6CF8C2F8F711111D8
:10259000CDCF0E94E713B6CE112329F08C2F8F7177
:1025A0000E94DB13AFCE0E94D613ACCE112349F0AC
:1025B000CF718C2F0E94E71363E08C2F0E94561876
:1025C000A1CE81E00E94741831E03F1508F09ACE48
:1025D00082E00E94741896CEFF2059F0D93309F09A
:1025E000EDCE8FEF97EEE3E081509040E040E1F7D1
:1025F000E3CE8C2F8F719ACF0F931F93CF93DF93DE
:10260000EC01688179818A810E94EA148C010E9420
:1026100034140E94A813B801CE010E94E710DF9184
:10262000CF911F910F910895CF93DF93EC018B8190
:102630009C81892B29F08881998189238F3F51F4CE
:10264000DF91CF910895CE010E94FC12CE010E942D
:10265000BD0EF6CFCE010E94E80E8111F4CF0E948C
:10266000C917882369F38A81882351F38091A003D5
:1026700082FFE6CF82E00E947418E2CF90E080E013
:102680000E94572C90E080E00E946D2C0E94F01771
:102690000E9411180E942E200E94901F08950E94EF
:1026A000B8170E943E1308950E94E0170E944F132E
:1026B000089592959F70963091F058F4925F9F70B4
:1026C000923058F4803F19F030F4883E30F481E0C5
:1026D00008959A5FF4CF843FD1F380E00895883E57
:1026E000B0F3813FD1F7F3CFFC0183819481892B33
:1026F00029F08081918189238F3F11F480E0089532
:10270000808191810E94DF140E9459130895A5E0F1
:10271000B0E0EDE8F3E10C94C7352596E2E00C94C7
:10272000E335A6E0B0E0E7E9F3E10C94C73526967F
:10273000E2E00C94E33508950E949B1308950E94F3
:102740009C139093F3028093F2020E943E1308952B
:1027500008950E949F1308952091F2023091F30290
:10276000822B932B0E949F1308952091F2023091A7
:10277000F302822393230E949F1308952091F20273
:102780003091F302822793270E949F1308950E949D
:102790009B1308950E94C71308950E94CA13909333
:1027A000F1028093F0020E943E13089590E080E0D1
:1027B0000E94CD13089521E030E0A90102C0440F2A
:1027C000551F8A95E2F7CA010E94CD13089521E0B2
:1027D00030E002C0220F331F8A95E2F78091F002A9
:1027E0009091F102822B932B0E94CD13089521E04A
:1027F00030E002C0220F331F8A95E2F72095309512
:102800008091F0029091F102822393230E94CD13D4
:10281000089521E030E002C0220F331F8A95E2F7CD
:102820008091F0029091F102822793270E94CD13AC
:1028300008952091F0023091F102822B932B0E9497
:10284000CD1308952091F0023091F1028223932359
:102850000E94CD1308952091F0023091F102822759
:1028600093270E94CD1308950895262F277091E095
:1028700001C0990F2A95EAF723E0769567952A9586
:10288000E1F7660F771F660F771FFA01E60FF71F54
:1028900050E040E0682F70E08191DF0111979B01CB
:1028A000042E02C0369527950A94E2F721702195EF
:1028B0002827292328272C934F5F5F4F4430510549
:1028C00059F70895A82FA77023E0969587952A9524
:1028D000E1F7880F991F880F991FFB01E80FF91F77
:1028E00050E040E080E0219130E00A2E02C03695B1
:1028F00027950A94E2F721703327042E01C0220F96
:102900000A94EAF7822B4F5F5F4F4430510559F725
:102910000895262F953070F48C3060F4682F70E0A5
:102920008CE0989F600D711D112440ED52E0822FC4
:102930000E9435140895292F953068F48C3058F48E
:1029400090E060ED72E03CE0239F800D911D11242A
:102950000E946214089580E00895B0E0A0E0E3EBE7
:10296000F4E10C94C0357C010091F0021091F10269
:102970008091F2029091F302082B192BCFE0D0E066
:10298000CC24C394D12CBC2EC6010C2E02C0880FBF
:10299000991F0A94E2F780239123892B49F4219708
:1029A00090F7B12C8B2DCDB7DEB7E9E00C94DC3578
:1029B000B7018C2F0E94781B019789F3F3CFCF9337
:1029C000DF93EC010E94AD14BE010E94781BDF91E1
:1029D000CF9108951F93CF93DF93EB019091CF0296
:1029E000992339F0CB010E94DF14DF91CF911F9121
:1029F0000895882369F0CB010E94AD14182F682F29
:102A0000CE010E948914BE01812F0E94781BEDCF58
:102A1000CB010E949B14182FF6CF1F93CF93DF9307
:102A2000C091F40216E08091F5028C1304C0DF918E
:102A3000CF911F910895D0E01C9FF0011D9FF00DD4
:102A40001124EA50FD4F408151816281738184815C
:102A500095810E9491132196C770E5CF409126037E
:102A600050912703609128037091290380912A03D4
:102A700090912B030E94911308951F93CF93DF939E
:102A800080912B03807F09F049C08091280388231F
:102A900009F444C08091F402C091F50260912603CC
:102AA00070912703A0912903B0912A03D62FD72331
:102AB00016E0C81799F190E0109711F0DF3F19F474
:102AC00001968770F6CF189F9001199F300D112441
:102AD000F901EA50FD4F41814713F2CF408146137F
:102AE000EFCF42814111ECCF438154814A1B5B0BF4
:102AF000483C510528F780912B038F7080618093AB
:102B00002B03F901E550FD4F80818F708061808338
:102B100086E293E00E9414130E940D15DF91CF917D
:102B20001F910895A1E1B0E0E8E9F5E10C94BF350B
:102B30008C0185E0F801DE011D9601900D928A95C9
:102B4000E1F7F801E28086E2C82E83E0D82E60919A
:102B5000290370912A036115710509F44EC1909102
:102B6000260320912703892F82238F3F09F445C133
:102B700040815181A380B480F0902803F501E61BC9
:102B8000F70BFF2009F4EAC080912B03382F307F28
:102B9000E83CF10508F0A3C031116DC0FE2C2513EF
:102BA00016C0941314C0E11012C08F70806180931E
:102BB0002B030E942E15C6010E94141380912B0333
:102BC000F80185838F2D6196EAE00C94DB35A11422
:102BD000B10429F0842F85238F3F09F027C180E0BD
:102BE000F82FF170DF2E80FF3CC08091F40220911D
:102BF000F50236E0821315C04D875E878D859E8570
:102C00000E94DF14292F22952F702230F0F02430FB
:102C100018F59F70F1F0F8019581907FD1F4D12CD7
:102C20001EC090E0389FF001399FF00D1124EA504A
:102C3000FD4F6181651306C06081641303C062812A
:102C4000E6120FC001968770D5CF9F7011F08823D0
:102C500031F3805E883018F3C8010E941413FD2CF4
:102C6000B1CFEE2009F4AECF80912B038160809329
:102C70002B03F12CA7CF251306C0941304C0F80131
:102C8000EE2009F487C0C8010E947413882319F14B
:102C9000EE2009F180912B03803270F02091260301
:102CA0003091270338872F831986BB86AA868C87A5
:102CB000CE0107960E94141386E0F801A6E2B3E065
:102CC00001900D928A95E1F70E943D150E942E1504
:102CD000FF24F39477CFC8010E941413F9CF311168
:102CE00013C07A2DB98AA88A6E2D89890E9487130C
:102CF00086E293E00E94141386E0F60111928A9511
:102D0000E9F70E942E15B5CF25130FC094130DC0FF
:102D1000E1100BC0F8018583C8010E94141386E0FE
:102D2000F60111928A95E9F74DCFC8010E947413FC
:102D3000882389F2EE2079F280912B03803208F407
:102D4000BBCF20912603309127033A8329831B822E
:102D5000BD82AC828E83CE010196ACCFE83CF105FA
:102D600008F03EC0FE2CEE2009F4B5CF25132AC092
:102D7000941328C080912B0380FD1BC0982F907F57
:102D8000C1F0F8018583903F31F0982F907F905FDC
:102D90008F70892B8583C8010E94141386E0F80187
:102DA000A6E2B3E001900D928A95E1F70E942E15FC
:102DB00009CF86E0F801A6E2B3E001900D928A9572
:102DC000E1F700CFC8010E947413811175CF809183
:102DD0002B03816080932B03C8010E941413F2CE51
:102DE0007A2DB98AA88A6E2D89890E94871386E078
:102DF000F60111928A95E9F7D9CFEE2009F46BCF4D
:102E0000C8010E947413F82E882309F464CF86E069
:102E1000F801A6E2B3E001900D928A95E1F786E20F
:102E200093E00E940E100E943D15C0CF81E08E25D8
:102E3000D7CEACE0B0E0EFE1F7E10C94C6354F83BC
:102E4000588769877A878B879C87CE0107960E946F
:102E50009215882369F08A859B85892B39F04F81EB
:102E60005885842F85238F3F09F06BC016E05FC023
:102E700086E0FE013796DE01119601900D928A954B
:102E8000E1F78A859B85892B89F38F819885892332
:102E90008F3F61F32091F50230E0C9010196877000
:102EA00099274091F4024817190671F40E945413AF
:102EB0001092F5021092F40286E0E6E2F3E0DF0100
:102EC0001D928A95E9F7D2CF96E0929FD001939F09
:102ED000B00D1124AA50BD4FFE01319601900D9204
:102EE0009A95E1F78093F5020E940D15BFCF819F5F
:102EF000C00111248A509D4F0E9492158823E9F049
:102F0000E091F4021E9FF0011124EA50FD4F408130
:102F1000518162817381848195810E949113809196
:102F2000F40290E00196877099278093F4028091D3
:102F3000F4029091F5028913DACF2C96E3E00C9419
:102F4000E23569857A858B859C850E9491138ECFA9
:102F5000682F80910001909101010E94CB2C08956F
:102F6000682F80910001909101010E94CE2C08955C
:102F700080910001909101010E94D12C08958091CF
:102F800034038595859585950895809134038770E0
:102F9000089590913403977081E009F480E00895DA
:102FA00080913F03089590913F03892B80933F03C5
:102FB0000895809590913F03982390933F0308953F
:102FC00010923F03089590913E03892B80933E0316
:102FD0000895809590913E03982390933E03089521
:102FE00010923E03089580913503089508950E943C
:102FF000F61708959091A00392FF08C090913503B1
:10300000981721F0809335030E94F7170895809157
:103010003503882329F01092350380E00E94F717CA
:103020000895CF93DF93E0910001F0910101809129
:103030003F038083E0910001F09101018081909134
:103040003E03892B808390913503992381F0E09191
:103050000001F09101018081892B80838091000122
:10306000909101010E94832C81110E940718C09148
:103070000001D091010148E050E06CE273E0CE0124
:103080000E94EE35892B59F088E0FE01ACE2B3E0F6
:1030900001900D928A95E1F7CE010E94052CDF91F7
:1030A000CF91089508950E94521808959091A00319
:1030B00092FF11C098E0899F90011124622B6093C8
:1030C00034030E94E7138091340385958595859597
:1030D0000E94531808950E94E71308951092340334
:1030E00080E00E94531808959091340380958923BD
:1030F00080933403282F277091F4282F082E000C7A
:10310000330B9217130659F09091A00392FF07C05A
:103110008595859585950E94F7130E946E180895F0
:10312000CF93C82F8091A00382FB992790F99C1719
:10313000E9F0C0FB82F98093A00380919F039091F6
:10314000A0030E94F41882E00E9474188091580332
:1031500080FF0CC01F92CF9389E492E09F938F93DE
:103160000E94620E0F900F900F900F90CF910895D4
:103170008091A00382FB882780F991E089270E9433
:103180009018089581E00E949018089580E00E94B0
:10319000901808956FEF7FEF90E080E00E94303646
:1031A000089590E080E00E940C3621E0883E9E4F1A
:1031B00009F020E0822F089582E090E00E9404361A
:1031C000089583E090E00E9404360895CF9384E050
:1031D00090E00E940436C82F82E290E00E940436FC
:1031E000982F8C2FCF910895CF93C92F682F84E00B
:1031F00090E00E9412366C2F82E290E00E9412361C
:10320000CF910895AB01BC018FE090E00E9424367D
:103210000895AB01BC0183E190E00E94243608953B
:1032200060E070E0CB010E940919089560E070E051
:10323000CB010E9402190E941019089568EE7EEFDA
:1032400090E080E00E94303660E082E090E00E94F2
:10325000123660E083E090E00E9412361092F30292
:103260001092F20260E084E090E00E94123664E086
:1032700082E290E00E94123660E085E090E00E94D9
:10328000123660E086E090E00E9412366FEF87E031
:1032900090E00E94123640E050E0BA0188E090E0F1
:1032A0000E94243660E08DE090E00E94123640E0FB
:1032B00050E0BA0188E190E00E94243660E087E1A6
:1032C00090E00E94123640E050E0BA018CE190E0BC
:1032D0000E94243670E060E080E290E00E94303688
:1032E00040E050E0BA0188E190E00E9424360E945C
:1032F000161908950E941E190895682F8EE090E017
:103300000E94123608950E94942D60935403709386
:103310005503809356039093570360935003709323
:103320005103809352039093530308950E94942D68
:1033300060935403709355038093560390935703FF
:1033400060934C0370934D0380934E0390934F030F
:103350000895089508950E94AA19089508950E9455
:10336000AE1908958AED9FE20E94EE2B0E94A919E2
:103370000E94AB19089581E008950E94BB19089539
:10338000089508950E94C0190E94C11908950E94CD
:103390007F1C0E948B0F08950E947F2D0E949A1D12
:1033A0000E94C7190E9467260E9498210E94AF19A7
:1033B0000895AAE0B0E0EFEDF9E10C94BC350E946D
:1033C000B01D22E4822E23E0922E640110E0F6016B
:1033D000E190F1906F01812F0E94A51C1F5F1530B5
:1033E00009F449C0E816F90691F38091580381FD6C
:1033F0000E94AE1C0E94BD19782E10E0812F0E9401
:10340000A51C7C01F401A190B1904F018A159B0588
:1034100061F1A826BF2400E0CC24C394D12CC501BF
:103420008C219D21892BC1F07720B1F00E831F8361
:1034300021E0C7018C219D21892B09F420E02887F8
:103440000E94882D8160782F9A8789874E815F81BD
:1034500068858A850E94D90F0F5FCC0CDD1C0C306B
:10346000F1F6F4013297F182E0821F5F153031F6F8
:103470000E94831922C0E816F90609F0B6CF0E940F
:10348000882D8C0180914003909141030817190702
:10349000A1F08FEF89838A831B820E94882D81602F
:1034A000782F9D838C8349815A816B818D810E9405
:1034B000D90F10934103009340030E948626811187
:1034C0000E9496190E946B200E94E2210E949E0F8A
:1034D0002A96EDE00C94D835CF93DF930E947D1BA4
:1034E000EC01811521E5920708F042C0811530E515
:1034F000930708F09FC0883E910530F5803E910506
:1035000008F094C0883A910588F4853A910508F04E
:1035100086C08130910509F489C0009709F486C0FE
:10352000049708F083C0D0E0C0E080C08F3B9105D5
:10353000D0F7C85AD0E0CC0FDD1FC75BDE4F099033
:10354000D881C02DD46472C0811540E2940750F434
:10355000C11581E0D80708F069C0CD3ED10518F348
:10356000D06564C081159044F0F2DF70D06A5EC00F
:10357000811535E5930718F5811544E5940708F0A2
:1035800085C0C11583E5D80708F06CC0C11522E5D8
:10359000D20708F462C0CE018370992721E030E0A1
:1035A00002C0220F331F8A95E2F7C695C69580E2C6
:1035B000C89FE0011124C22BD32BDC6837C08115D2
:1035C00039E59307A8F4811548E5940708F063C02E
:1035D000C11586E5D80708F0A6CF8C2F0E941F1CC6
:1035E000C82FD0E0DC2FCC27CC27DF71D0621EC0E3
:1035F00081152AE5920708F453C090568115904230
:1036000008F091CF8D2F8F710E941F1C90E0982F92
:10361000882788279F719C012C2BE901E7CFC55A89
:10362000D0E0C958DE4FC881D0E0D064CE01DF9130
:10363000CF9108958370992721E030E002C0220FD6
:10364000331F8A95E2F7C695C69540E2C49FE00114
:103650001124C22BD32BDD68E9CFDC2FCC27C16F1F
:10366000D06AE4CFCE018370992721E030E002C018
:10367000220F331F8A95E2F7C695C69540E2C49F94
:10368000E0011124C22BD32BDA68D0CFD82FCC275E
:10369000C46FD06ACBCFD82FCC27C06FD06AC6CF2B
:1036A0008F700E941F1C34E0D695C7953A95E1F7BC
:1036B000CF709C2FEC01D069B9CF972F7530A8F44B
:1036C0006C3098F470E02CE0929F600D711D112415
:1036D000FB019CE3899FE00DF11D1124EE0FFF1FFC
:1036E000E455FF4F85919491089580E090E008950E
:1036F0000E945D1B0E946C1A089582389105B9F1F1
:10370000B0F48133910509F47DC048F48932910504
:1037100009F46DC08A32910509F47BC008958533A0
:10372000910509F45FC08933910509F10895833E3D
:103730009105D9F138F4803E910529F1823E910539
:1037400079F10895863E9105D9F1873E910509F4F6
:103750003EC0843E910541F52091A00321FF24C085
:1037600080919F0384FD19C087EE90E00895209119
:103770009F03237009F05AC02091A00323FF14C0B7
:1037800089E290E0089520919F0320FD38C0309198
:10379000A00330FF09C024FF43C090E080E00895FB
:1037A00020919F0322FDF7CF089520919F0322FDD2
:1037B0003AC03091A00330FD39C024FFF5CFEDCFE2
:1037C00020919F0323FFF0CF24FDE7CFCDCF2091A1
:1037D0009F0323FD2EC03091A00331FFEECF84EE76
:1037E00090E0089520919F0325FFDECFC9CF20915F
:1037F0009F0325FD21C02091A00323FFD5CF89E39E
:1038000090E0D2CF20919F0326FFCECF8AE290E0B6
:10381000089520919F0326FFC7CF81E390E008958C
:1038200083EE90E0089582EE90E0089580EE90E0BF
:10383000089586EE90E0089585E390E008959091D4
:103840009F0392FF06C0282F28712830F9F4877F44
:10385000846093FF06C0282F28712831F1F4877EF9
:1038600084612091A00320FF06C0382F38713830C2
:10387000D9F4877F816021FF06C0282F2871283165
:10388000D1F4877E816194FD877E0895282F24716D
:103890002430F9F68B7F8860DCCF282F2471243107
:1038A00001F78B7E8861DDCF382F3171313019F708
:1038B0008E7F8860E0CF282F2171213121F78E7E05
:1038C0008861E1CF0E94CA1808950E94B01D2FEFB1
:1038D00086E791E0215080409040E1F700C0000071
:1038E0000E94B01D80E00E94A51C80FF04C00E94C1
:1038F000621C0E94D32D08950E94651C08950E94A9
:10390000D118811102C00E947A190E94DC1880939C
:1039100058030E94E6189093A00380939F030E948F
:103920007C1C0E94E11890E00E94A9138091F00293
:103930009091F1020E94CA13089508950E949D1C5F
:10394000089508950E94A11C0895E82FF0E0EE0F5D
:10395000FF1FE555FC4F808191810895B0E0A0E004
:10396000E4EBFCE10C94C1358EE692E00E94C90DB7
:103970008BEAE82E83E0F82ED0E0C0E099E6C92E6D
:1039800092E0D92E00E612E0DF93CF93DF92CF9240
:103990000E94620E86E692E00E94C90DF7018191B5
:1039A00091917F010E94750F9F938F931F930F93A7
:1039B0000E94620E8EE592E00E94C90D21968DB79D
:1039C0009EB708960FB6F8949EBF0FBE8DBFC53048
:1039D000D105D1F6CDB7DEB7E8E00C94DD3580EA4D
:1039E0008A95F1F7089500C008950E94EF1C08958C
:1039F000F894E82FE295EF70F0E031A1282F2F70B6
:103A000081E090E001C0880F2A95EAF7982F909501
:103A1000932391A392A1892B82A378940895CF93A5
:103A2000DF93C6E8D1E089918F3F11F00E94F81C26
:103A300081E0CB38D807B9F7CAE7D1E089918F3F49
:103A400011F00E94F81C81E0C638D807B9F7DF9161
:103A5000CF910895AF92BF92DF92EF92FF920F93B2
:103A60001F93CF93DF938C01D62EC62FD0E0CE01CB
:103A70008A579E4F7C01FC0120812F3F09F44DC0E5
:103A8000F894E22FE295EF70F0E031A12F7081E021
:103A900090E001C0880F2A95EAF7932F982B91A305
:103AA00092A18095892382A378940E94F31CEAE76F
:103AB000F1E046E851E021E030E0B12CA12C619129
:103AC0006F3FA9F1A62FA295AF70B0E090968C91B0
:103AD00090E06F7002C0959587956A95E2F780FD3A
:103AE00026C0C901A82AB92A220F331F4E175F0723
:103AF00031F7F70180818F3F11F00E94F81C61E0DF
:103B0000A114B10409F460E08D2D0E94F51CCC0FC6
:103B1000DD1FC00FD11FB982A882DF91CF911F9105
:103B20000F91FF90EF90DF90BF90AF90089590E0DD
:103B300080E0D8CF0E940F1D8AE0EBEAF3E0DF01BE
:103B4000982F1D929A95E9F7E1EAF3E0DF011D92C3
:103B50008A95E9F785E00E94EB1D0E94C90E089541
:103B6000AAE0B0E0E6EBFDE10C94C4358E010F5FF6
:103B70001F4F8AE0F80111928A95E9F7F12C6F2D19
:103B8000C8010E942A1DF394F5E0FF12F8CF4AE025
:103B900050E0B80181EA93E00E94EE3521E0009701
:103BA00009F420E0892B41F08AE0F801A1EAB3E0B2
:103BB00001900D928A95E1F745E06BEA73E081EAA6
:103BC00093E00E94EC1D182F0E94CC0E812F2A96A4
:103BD000E5E00C94E0350895CF92DF92EF92FF92EA
:103BE0001F93CF93DF936C017B01C42F222349F0F5
:103BF00081E080935B030E94882D90935A03809309
:103C0000590310915B0311110AC010E0812FDF915D
:103C1000CF911F91FF90EF90DF90CF90089580910A
:103C2000590390915A030E94A02D059770F3D0E09C
:103C3000CC0FDD1FAE01B601C7010E94EE35892B06
:103C400041F0AE01B601C7010E94FB3510925B0343
:103C5000DDCF10E0FBCF0E9456300E94CC190E94AD
:103C6000633008950E9468300E94D9190E948630FE
:103C700008950E94212D0E943C300E94B2190E949A
:103C80002B1E0E94321E0E94C219FBCF809162033C
:103C900080FF0DC06091070170E0660F771F6038EC
:103CA000710570F56115710569F1862F089581FF21
:103CB00007C06091070184E0689FB0011124EFCF35
:103CC0006091070182FD0AC0809161038823A9F0F9
:103CD0002091060160910701821710F088E0ECCF77
:103CE000869FC001112433E0880F991F3A95E1F7B0
:103CF000622F70E00E949D35D2CF68E070E0D5CF92
:103D00008FE7089581E008958091620380FF0CC0E1
:103D10006091030170E075956795759567956115DC
:103D2000710549F1862F089581FF06C06091030156
:103D300070E075956795F3CF6091030182FD0BC02C
:103D4000909160039923A1F0609102018091030199
:103D5000961738F0682F70E06038710500F38FE730
:103D60000895899FC001112470E00E949D35F4CF11
:103D700061E070E0D7CF81E008958D3E31F40E947C
:103D8000461E81958093660308958E3E19F40E9425
:103D9000461EF8CF8F3E31F40E94461E81958093D7
:103DA00065030895803F19F40E94461EF8CF893FAD
:103DB00029F40E94841E8093670308958A3F21F4AA
:103DC0000E94841E8195F7CF8B3F31F40E94841EA0
:103DD00081958093680308958C3F19F40E94841E96
:103DE000F8CF9FE0980F983070F4815F990B21E035
:103DF00030E001C0220F8A95EAF780916403822B9C
:103E00008093640308958D3F31F480916203816053
:103E10008093620308958E3F21F480916203826053
:103E2000F7CF8F3FB9F7809162038460F1CF409163
:103E300065038D3E59F48091660387FF0DC0109293
:103E4000660341110BC01092610308C08E3E81F4DD
:103E50008091660318169CF3442381F080916703D8
:103E600090916803892B09F05AC01092600308955D
:103E70008F3E49F447FFF0CF1092650380916603AF
:103E80008111ECCFE0CF803F19F41416ACF3E4CFEE
:103E900090916703893F29F41916F4F6109267038D
:103EA000DBCF8A3F19F497FFD7CFF8CF9091680303
:103EB0008B3F29F497FFD0CF10926803CDCF8C3F72
:103EC00019F41916CCF3C8CF9FE0980F983090F4EE
:103ED000815F990B21E030E0B90102C0660F771FC6
:103EE0008A95E2F7CB0180959091640389238093B2
:103EF0006403B2CF8D3F31F4809162038E7F809353
:103F00006203AACF8E3F21F4809162038D7FF7CFA9
:103F10008F3F09F0A1CF809162038B7FF0CF08958E
:103F20008091580383FF7EC08CEA92E00E94C90D05
:103F3000809164031F928F9387EA92E09F938F93FF
:103F40000E94620E85EA92E00E94C90D809165038D
:103F5000282F082E000C330B3F938F9382EA92E0B8
:103F60009F938F930E94620E80EA92E00E94C90D97
:103F700080916603282F082E000C330B3F938F93FC
:103F80008DE992E09F938F930E94620E8BE992E0FD
:103F90000E94C90D80916703282F082E000C330B57
:103FA0003F938F9388E992E09F938F930E94620ED4
:103FB00086E992E00E94C90D80916803282F082E9F
:103FC000000C330B3F938F9383E992E09F938F9381
:103FD0000E94620E80E992E00E94C90D8091610307
:103FE0001F928F938DE892E09F938F930E94620EB1
:103FF0008BE892E00E94C90D809162031F928F931B
:1040000088E892E09F938F930E94620E85E892E089
:104010000E94C90D8DB79EB74C960FB6F8949EBFFF
:104020000FBE8DBF0E94882D9C01909165038091E9
:104030006603982B21F030935F0320935E039091E9
:10404000670380916803982B21F030935D032093E0
:104050005C0383E693E00E94492C089586E0E3E642
:10406000F3E0DF011D928A95E9F710926103109247
:104070006003109262030895A6E0B0E0E2E4F0E28B
:104080000C94C73586E0E3E6F3E0DE01119601907B
:104090000D928A95E1F729813A814B815C816D818E
:1040A0007E8180E090E02696E2E00C94E335FC010E
:1040B000828181110EC0838181110BC084818111A5
:1040C00008C091E08581811101C090E0892F817045
:1040D000089581E0FCCFA6E0B0E0E1E7F0E20C94C7
:1040E000C63586E0E3E6F3E0DE01119601900D921D
:1040F0008A95E1F7109265031092660310926703A8
:10410000109268038B819C81892B89F080915E03DA
:1041100090915F030E94A02DAC01909161039923BF
:10412000C9F1809108018417150608F440C08D81FB
:104130009E81892B91F080915C0390915D030E9498
:10414000A02DAC0190916003992309F471C0809176
:1041500004018417150608F479C0BE016F5F7F4F14
:1041600083E693E00E94D82C811105C083E693E09A
:104170000E94572081110E94901F86E0FE01319617
:10418000A3E6B3E001900D928A95E1F72696E3E06D
:104190000C94E235209109018AE0289F90011124B6
:1041A0002417350720F69F5F9093610302C09F3F5D
:1041B000D1F71B81112359F00E94461E9FEF111663
:1041C0000CF491E0899F802D1124809365031C815C
:1041D000112359F00E94461E9FEF11160CF491E036
:1041E000899F802D112480936603309165033323CA
:1041F00009F49DCF20916603222309F498CF45EB63
:104200003403C0011124992359F09093650345EBC1
:10421000240390011124332339F03093660387CFB0
:1042200081E080936503F3CF81E0809366037FCFC5
:10423000209105018AE0289F900111242417350759
:1042400008F08BCF9F5F9093600302C09F3FD1F730
:104250001D81112359F00E94841E9FEF11160CF44A
:1042600091E0899F802D1124809367031E81112383
:1042700059F00E94841E9FEF11160CF491E0899F63
:10428000802D11248093680330916703332309F450
:1042900064CF20916803222309F45FCF45EB3403F8
:1042A000C0011124992359F09093670345EB24032F
:1042B00090011124332339F0309368034ECF81E00D
:1042C00080936703F3CF81E08093680346CF08951E
:1042D0000895ACE0B0E0EFE6F1E20C94C7354F830F
:1042E000588769877A878B879C8786E0FE01379697
:1042F000DE01119601900D928A95E1F729813A81AC
:104300004B815C816D817E8180E090E02C96E2E0C3
:104310000C94E335ACE0B0E0E0E9F1E20C94C73591
:104320000E94692180E090E02C96E2E00C94E33555
:10433000E0918B01F0918C0109950E9467210E9408
:104340006821089569E673E08FE693E00E94D82C17
:10435000882321F08FE693E00E94492C109271038C
:1043600010927203109273031092740386E0EFE6CA
:10437000F3E0A9E6B3E001900D928A95E1F7089584
:10438000ACE0B0E0E6ECF1E20C94C7354F8358871F
:1043900069878B879C8771957A8786E0FE013796BF
:1043A000DE01119601900D928A95E1F729813A81FB
:1043B0004B815C816D817E8180E090E02C96E2E013
:1043C0000C94E335A6E0B0E0E8EEF1E20C94C735DA
:1043D000E0918D01F0918E0140916F035091700337
:1043E00060917103709172038091730390917403D3
:1043F0000995F42FE52FCB0120936F0330937003C1
:10440000F0937103E09372036093730390937403CA
:10441000A9016F2F7E2F0E94C021F42FE52FCB0121
:1044200020936F0330937003F0937103E093720352
:104430006093730390937403A9016F2F7E2F0E94E2
:104440008A2120936F03309370034093710350933C
:10445000720360937303709374030E943C20EFE631
:10446000F3E08181832B81830E94A2212696E2E0E2
:104470000C94E335A6E0B0E0E0E4F2E20C94C7353A
:1044800086E0EFE6F3E0DE01119601900D928A9549
:10449000E1F729813A814B815C816D817E8180E0E9
:1044A00090E02696E2E00C94E335A6E0B0E0EBE580
:1044B000F2E20C94C73549835A836B837C838D83E6
:1044C0009E8386E0FE013196AFE6B3E001900D9247
:1044D0008A95E1F72696E2E00C94E335A2E1B0E09C
:1044E000E4E7F2E20C94C3354D875E876F87788BE3
:1044F000898B9A8B80E00E9468242F8338874987B4
:104500005A876B877C8723FF15C086E0FE013D96A6
:10451000DE01119601900D928A95E1F729813A8189
:104520004B815C816D817E8180E090E06296E6E067
:104530000C94DF3527FD03C010927503E6CFE984A4
:10454000FA840B851C858091750381110FC081E071
:10455000809375038091580380FF08C08FEC92E030
:104560009F938F930E94620E0F900F9020E880E837
:10457000E8168FEFF80634F097012038310514F073
:104580002FE730E000388FEF18074CF0C8010038F3
:10459000110514F08FE790E02F87888BB6CF80E865
:1045A000FBCF80E00E94DE220895BC0180E00E94E3
:1045B000F122089580E00E94E42308952091930160
:1045C000309194018217130648F46FE00E94532340
:1045D0008F5F24E6829FC0011124089590E080E05F
:1045E0000895282FCB0140919301509194012417F5
:1045F000150680F464E670E00E948935AB014150F5
:1046000051094837510510F047E750E06FE0822F1D
:104610000E9420230895CF9328E030E043E060E03B
:1046200087EF0E94EC2AC82F811105C00E94C42B7D
:104630008C2FCF91089585E08A95F1F70000F8CF8F
:10464000A2E0B0E0E6E2F3E20C94C335182F062FA7
:10465000E42E0E940B23F82E811106C0F12C8F2D21
:104660002296E6E00C94DF35003529F0E12FF0E0EA
:10467000EA58FC4F108200680983EA8262E070E029
:10468000CE0101960E94942B892B41F78AEB8A95E3
:10469000F1F700C00E94C42B83E492E00197F1F788
:1046A00000C00000DCCFCF93C62F0E940B238823CD
:1046B000D1F08C2F8F770E94642B8FE792E00197C7
:1046C000F1F700C000000E947C2BC82F95E09A955E
:1046D000F1F700000E94C42B85E68A95F1F70000EF
:1046E0008C2FCF910895C0E0FBCFA3E0B0E0EBE7C3
:1046F000F3E20C94C635182F60E00E94532389839F
:104700006FE3812F0E9453238A836AE2812F0E94E4
:1047100053238B8343E050E0BE016F5F7F4F8BEEEE
:1047200092E10E94EE3521E0892B09F020E0822FF2
:104730002396E3E00C94E2350F931F93CF93DF931E
:10474000C82F4DE163E10E942023811107C0D0E012
:104750008D2FDF91CF911F910F9108958FE39CE9E9
:104760000197F1F700C0000048E163E18C2F0E943F
:1047700020238C2F0E940B23D82F882341F382EE15
:104780000E94642B90E59A95F1F70DEE12E0F80186
:1047900084910E94642BF0E5FA95F1F70F5F1F4FAB
:1047A00082E10B3E180799F7EFE1F3E03197F1F75B
:1047B00000C000006AE28C2F0E94532340E060E1B9
:1047C0008C2F0E942023C4CFCF93882321F0C0E0F8
:1047D0008C2FCF9108950E94E42A80E00E940B2341
:1047E0008823A9F325ED2A95F1F700000E94C42B38
:1047F00085ED8A95F1F700004AE56AE380E00E94C2
:104800002023882321F39FEF20E782E0915020406E
:104810008040E1F700C0000062E080E00E94532386
:1048200063E080E00E94532364E080E00E94532311
:1048300065E080E00E94532366E080E00E945323FD
:1048400080E00E949C23C82F811111C080915803E1
:1048500080FFBDCF1F921F9284E693E19F938F93B9
:104860000E94620E0F900F900F900F90B1CF0E9498
:10487000C42B8FE39CE90197F1F700C0000060E4CE
:1048800076E080E00E94F1228FE99FE00197F1F746
:1048900000C0000040E060E180E00E94202340E092
:1048A00061E180E00E94202342E063E680E00E9414
:1048B000202380E00E947523C82F811189CF809129
:1048C000580380FF84CF1F921F928DE293E1C6CFE1
:1048D000ACE0B0E0EEE6F4E20C94C5358E01095F81
:1048E0001F4F96E0F80111929A95E9F78823A9F0F5
:1048F00086E0FE013796DE01119601900D928A95B1
:10490000E1F729813A814B815C816D817E8180E074
:1049100090E02C96E4E00C94E135809176038111CF
:104920001AC08091580380FF0CC01F921F9288E12B
:1049300093E19F938F930E94620E0F900F900F90C0
:104940000F9040E060E580E00E942023882381F200
:1049500081E08093760380E00E940B23882341F25C
:1049600080E50E94642BFAEBFA95F1F700C066E04F
:1049700070E0C8010E94AC2B8F81877011F01092FB
:1049800076030E94C42B8091580389708930C1F44A
:104990008C858F938B858F938A858F9389858F9351
:1049A0008F811F928F931F921F928EEE92E19F93A1
:1049B0008F930E94620E0FB6F894DEBF0FBECDBF7C
:1049C00089859A859195819591099A8789878B85A3
:1049D0009C859195819591099C878B8789CFCF93F1
:1049E000DF93EC01FB018281882309F464C1C430A8
:1049F000FDE5DF07E0F5CB3F9CE5D90730F49E01EC
:104A000022503C4524313105D8F50E94E618909398
:104A1000A00380939F03C231ECE5DE0709F41FC1B8
:104A200008F06EC0C9308CE5D80709F4F2C008F070
:104A30003FC0C530ECE5DE0709F4DBC058F5C330F4
:104A40008CE5D80709F4CDC008F0CFC080919F0352
:104A50008160C230DC4509F4AEC080919F03909123
:104A6000A0030E94F4180E94541380E009C0C63AC3
:104A7000EDE5DE0751F238F4C2369DE5D90729F29B
:104A8000DF91CF9108959E012E5A3D452330310587
:104A9000B8F7BBCF80919F038062C730FCE5DF078A
:104AA00009F489C008F4B1C080919F03806483C079
:104AB000CD309CE5D90709F4BAC070F480919F030A
:104AC0008E7FCB30FCE5DF0709F475C008F4A7C082
:104AD00080919F038D7F6FC0CF309CE5D90709F48B
:104AE000B6C008F4A8C0C031FCE5DF0709F4B3C0C4
:104AF000C131DC4509F0B1CF80919F038F7B5BC052
:104B0000C1159DE5D90709F4B4C098F5CB3FFCE584
:104B1000DF0709F472C0B8F4C4319CE5D90709F481
:104B2000B6C008F4A2C0C531DC4509F096CF80912B
:104B30009F0382FB992790F921E0922790FB82F94D
:104B400090FB83F938C0CD3F8CE5D80709F477C0D6
:104B500008F457C0CE3FECE5DE0709F474C080913D
:104B6000A0038360CF3FDC4509F077CF8093A0039B
:104B700074CFC2368DE5D80709F496C068F4C23008
:104B8000EDE5DE0709F48CC008F477C0C330DD45DD
:104B900009F063CF80E085C0CE3A9DE5D907E9F002
:104BA00068F490919F03892F8E7F90FF8160C63AB1
:104BB000DD4509F052CF80939F034FCFCF3A8DE56B
:104BC000D80789F1C03BDD4509F047CF9091A0039C
:104BD000892F877F93FF8860C9CF8091A003886069
:104BE000C5CF80919F038260E6CF80919F03846050
:104BF000E2CF80919F038860DECF8091A003816027
:104C0000B5CF8091A0038260B1CF80919F03806176
:104C1000D2CF0E94541380919F038068CCCF8091A3
:104C20009F038C60C8CF8091A003877F9FCF809126
:104C30009F038B7FC0CF80919F03877FBCCF8091E4
:104C4000A0038E7F93CF8091A0038D7F8FCF809123
:104C50009F038F7EB0CF80919F038F7DACCF0E944A
:104C6000541380919F038F77A6CF80919F03837FFA
:104C7000A2CF8091A0038C7F79CF8091A003982F41
:104C8000909591708E7F892B90FB81F96FCF0E9458
:104C9000541390919F03892F97FB87F980588BCFEE
:104CA00081E00E947D19D9CE90919F03892F8F7E3C
:104CB00094FF806180CF81E0E3CE8FE891E001979F
:104CC000F1F700C0000008950E946B0E089581E086
:104CD0008093780352985A9A53985B9A0E945D2663
:104CE000209178034AE753E0FA018E2F841B821744
:104CF00008F0089589B182FB882780F94B9904C098
:104D000090E0892B8193F1CF92E0FBCFB0E0A0E05F
:104D1000ECE8F6E20C94C135F12CE12C84E0C82ECD
:104D2000D12C80917803F81630F08E2DCDB7DEB7F8
:104D3000E8E00C94DD350F2D10E0E9B1E2FBEE2741
:104D4000E0F94B9940C080E08E2BD801A658BC4FAB
:104D5000EC919E2F93709817A1F1EE0FEE0FE82BB8
:104D6000EC93EF70F0E0EB56FE4FE801C758DC4FD4
:104D700080819881890F888320E084305CF0F8017D
:104D8000E958FC4F80818F5F808360E08F2D0E9407
:104D9000642621E088818D3F5CF4F801E958FC4FDE
:104DA00080818150808361E08F2D0E94642621E004
:104DB0008881082E000C990BB6010E949D358883CE
:104DC000E22AF394AECF82E0BFCF809102011F921E
:104DD0008F93809103011F928F93809106011F9200
:104DE0008F93809107011F928F93809108011F92EA
:104DF0008F93809109011F928F938BE893E19F938A
:104E00008F930E94620E8DB79EB70E960FB6F894E0
:104E10009EBF0FBE8DBF0895883228F58E3108F0F1
:104E200072C08B3041F130F4873009F4CFC08AEE84
:104E300094E1E0C0833109F45FC08431C1F78CE0B4
:104E400095E10E94C90D80917F03882309F4FEC07B
:104E500010927F0310927E0310927D0310927C03C8
:104E600010927B0320C08F3409F4C7C0D8F5893273
:104E700031F38833E1F68FE095E10E94C90D0E947D
:104E8000E5261F9281E08F931F9288E08F9388E040
:104E900094E19F938F930E94620E0F900F900F905A
:104EA0000F900F900F9020917F03222309F4C9C027
:104EB00080917B0390917C03009711F485EA91E047
:104EC0009F938F931F922F9388ED94E19F938F93DD
:104ED0000E94620E0F900F900F900F900F900F9006
:104EE00081E00895813509F49CC008F49CC08235A6
:104EF00009F09DCF81E082C08EEF94E10E94C90D40
:104F00000E94E526D0CF8D5180937F03833009F432
:104F100042C058F48130C1F08230A1F110927F0379
:104F20008BEF94E10E94C90D1BC0853009F445C088
:104F3000D8F1863099F782E091E090937E038093D8
:104F40007D038DEE91E008C089E091E090937E03AF
:104F500080937D0389EA91E090937C0380937B03A7
:104F600080917F03882309F49ECF1F928F9387EF50
:104F700094E19F938F930E94620E0F900F900F9079
:104F80000F9091CF88E091E090937E0380937D0312
:104F900082EB91E0E1CF87E091E090937E038093F4
:104FA0007D038EEB91E0D8CF86E091E090937E0375
:104FB00080937D038BEC91E0CFCF83E091E09093E1
:104FC0007E0380937D038AED91E0C6CF81E08093DC
:104FD000090184E1809308018AE0809307018EE152
:104FE0008093060188E08093030188E280930201A8
:104FF0008DEE94E10E94C90D56CF8AE0E0917D03C9
:10500000F0917E033097D1F02081082E000C990B8F
:10501000820F911D8F3F910541F03CF08FEF80830F
:1050200007C08FEFEBCF86EFE9CF97FFF8CF108265
:1050300080811F928F9384EE94E19BCF81EE94E167
:10504000D9CF84ED94E10E94C90D4ACF80E0089544
:10505000CF93C82F1F928F9385E295E19F938F93F3
:105060000E94620E81E090E002C0880F991FCA95ED
:10507000E2F70E94A9130E9454130F900F900F9013
:105080000F90CF910895EF92FF920F931F93CF93BC
:10509000DF938B3109F410C108F0B0C08B3009F4F4
:1050A000CCC008F082C0863009F4DAC048F48530FC
:1050B00009F4B2C08AEC98E10E94C90D80E0E0C01A
:1050C000873009F4E2C08830A9F70E94E1181F92E6
:1050D0008F938DEA98E19F938F930E94620E0E94B6
:1050E000DC1883FB992790F91F929F9382FB9927E5
:1050F00090F91F929F9381FB992790F91F929F939C
:10510000982F91701F929F931F928F9384E698E13E
:105110009F938F930E94620E0E94E61893FB2227B2
:1051200020F91F922F9387FB222720F91F922F939C
:1051300086FB222720F91F922F9385FB222720F937
:105140001F922F9384FB222720F91F922F9383FB1A
:10515000222720F91F922F9382FB222720F91F92EA
:105160002F9391FB222720F91F922F93292F217033
:105170001F922F9381FB222720F91F922F93282F14
:1051800021701F922F939F938F9385E697E19F93B2
:105190008F930E94620E8DB79EB78A960FB6F894D1
:1051A0009EBF0FBE8DBF81E06BC0803109F49CC0F3
:1051B00080F48E3009F07ECF90915803892F8B7F39
:1051C00092FF84608093580382FF8BC085EF98E143
:1051D0007FC0863109F498C0893109F06BCF82E035
:1051E00092E09F938F9385E995E19F938F930E941F
:1051F000620E0F900F900F900F90D5CF8A3249F129
:1052000090F4873211F128F48E3108F453CF8D5188
:105210001DC0893209F04ECF88E399E10E94C90D83
:105220000E94DE0EC0CF833468F48A3308F091C048
:10523000853359F0883309F03DCF8FEB95E10E941B
:10524000C90DB1CF833409F035CF80E00E94282802
:10525000AACF88E599E10E94C90D0E947A19A3CFCF
:1052600080915803807F8093580388E995E10E94DC
:10527000C90D84E599E10E94C90D81E08093800306
:10528000CDB7DEB7E6E00C94DF3590915803892F57
:105290008E7F90FF81608093580380FF03C08CE273
:1052A00099E1CDCF8FE199E10E94C90D809158031A
:1052B000817F8093580377CF90915803892F8D7FFA
:1052C00091FF82608093580381FF08C082E199E1D9
:1052D0000E94C90D809158038160EBCF84E099E171
:1052E000AECF85EE98E1ABCF90915803892F877FA1
:1052F00093FF88608093580383FF03C089ED98E192
:10530000E7CF8CEC98E19BCF0E94942D162F072FAE
:10531000F82EE92ED0919E03C09117010E94F82B20
:10532000EF92FF920F931F931F92DF931F92CF93E1
:105330001F928F938AE295E19F938F930E94620E52
:105340008DB79EB70C960FB6F8949EBF0FBE8DBF5B
:105350002ACF89537BCF80E008950E94AB2908951E
:10536000CF93C82F809180038130C1F0882339F01A
:10537000823009F444C01092800380E00DC00E9486
:10538000D0178232D1F78C2F0E94AB2981111BC01C
:105390008C2F0E9443288170CF9108950E94D017CE
:1053A000823289F38C2F0E94AD2981111BC0C43138
:1053B000D9F060F4CB3071F0C031D1F08FE195E1DC
:1053C0000E94C90D13C081E090E0E5CFC93261F0C1
:1053D000C833A1F788E995E10E94C90D81E295E102
:1053E0000E94C90D81E0D7CF1092800380E0D3CF17
:1053F00082E08093800388E30E940C27F3CF8C2FF8
:105400000E940C2781E0C8CFCF93DF93EB01863158
:105410009C4511F50E94D0179A81992399F08A7AB8
:1054200091E009F490E090938103811109C089E231
:105430000E94A8170E94111880E0DF91CF91089573
:1054400085E3F6CF80918103811104C089E20E9437
:10545000B017F0CF85E3FBCF81E0EFCF0F931F9321
:10546000CF93DF93C42FD22FFC0182818823C9F010
:10547000409384030E94882D90938303809382033A
:1054800080E28C0F883040F4C77081E001C0880F43
:10549000CA95EAF70E94D910DF91CF911F910F9121
:1054A000089510918403141332C080918203909167
:1054B00083030E94A02D883C910548F5C0E2CD0FE2
:1054C0001D17B9F080E2810F883040F4177081E039
:1054D00001C0880F1A95EAF70E94E010C83048F41E
:1054E00081E09D2F977001C0880F9A95EAF70E947E
:1054F000D910802F0E94D010C83070F6D77081E08C
:1055000001C0880FDA95EAF70E94E010C5CF80E26B
:105510008C0F883008F6C77081E001C0880FCA95EB
:10552000EAF7F2CF0F939C01CB01243F4CE53407FF
:1055300059F1A8F4293DFCE53F0701F12A3D4CE56E
:105540003407D1F1283D3C4591F406E221EE41EECD
:1055500068ED7CE50E942E2A80E00F910895263F99
:10556000FCE53F07E9F0B0F0273F3C45F9F0FC01CE
:105570008281882339F110928403EFCF07E225EE70
:1055800045EE69ED7CE5E6CF06E221EE40EE64EF04
:105590007CE5E0CF07E225EE44EE65EF7CE5DACF6F
:1055A00006E221EE42EE66EF7CE5D4CF07E225EE7F
:1055B00046EE67EF7CE5CECF08E221E045EE6AEDEE
:1055C0007CE5C8CF81E0C9CF289A219A229A2398F6
:1055D0002B9880E58CBD089590910A019F3F09F0BA
:1055E00071C08F3F09F46EC0611144C010928603F0
:1055F00090918603423009F441C0433009F442C01F
:1056000094604130E1F141E050E042175307E0F18E
:10561000909186034031510509F452C0C0F54230E3
:10562000510509F446C04830510509F446C09CB5FF
:1056300020918603922B9CBD90918503992319F0AC
:105640009DB591609DBD80930A01E82FE295EF70B2
:10565000F0E031A1282F2F7081E090E001C0880F89
:105660002A95EAF7382B31A392A18095892382A34A
:1056700081E0089590E290938603BACF986090936A
:105680008603C1CF9C60FBCF440F551FBECF403473
:10569000510549F04038510541F04032510539F685
:1056A00021E020938503926001C09360909386036C
:1056B000BECF91E090938503BACF21E0209385037C
:1056C0009160F4CF80E00895CF93DF938EBD0E9468
:1056D000882DEC010DB407FE05C08EB590E0DF917A
:1056E000CF9108950E94882D8C1B9D0B84369105C7
:1056F00088F38EEF9FEFF3CFCF93DF931EBC0E9412
:10570000882DEC010DB407FE05C08EB590E0DF9149
:10571000CF9108950E94882D8C1B9D0B8436910596
:1057200088F38EEF9FEFF3CF0F931F93CF93DF9309
:10573000EC018C01060F171FC017D10719F490E078
:1057400080E005C089910E94642B97FFF5CFDF911F
:10575000CF911F910F9108950F931F93CF93DF93D4
:10576000EC018C01060F171FC017D10739F490E028
:1057700080E0DF91CF911F910F9108950E947C2BC3
:1057800097FDF7CF8993F0CF80910A018F3F29F1E0
:10579000E82FE295EF70F0E041A18F7021E030E05A
:1057A000B90102C0660F771F8A95E2F7CB01942FEB
:1057B000982B91A392A1892B82A38FEF80930A014A
:1057C0008DB58E7F8DBD9CB5809186038095892394
:1057D0008CBD109286031092850308959093C902A0
:1057E0008093C802089590938C0380938B0308954F
:1057F000E0918B03F0918C03309729F00190F081B8
:10580000E02D0995089580E00895EF92FF920F939F
:105810001F93CF93DF938C01E0918B03F0918C0366
:10582000309791F10280F381E02D09958091580322
:1058300082FF2AC080FF04C081E799E10E94C90D60
:10584000D0E0C0E08BE6E82E89E1F82E8091580385
:1058500080FF0EC0F801EC0FFD1F80811F928F9317
:10586000FF92EF920E94620E0F900F900F900F9098
:105870002196C830D10551F78091580380FF04C0AC
:1058800089E699E10E94C90DCDB7DEB7E6E00C9438
:10589000DF35E0918B03F0918C03309739F022E0F3
:1058A000DC012C930480F581E02D09950895209169
:1058B000890330918A032817390771F090938A037E
:1058C00080938903E0918B03F0918C03309721F052
:1058D0000680F781E02D0995089520918703309186
:1058E00088032817390771F0909388038093870302
:1058F000E0918B03F0918C03309721F00084F185C7
:10590000E02D099508959C012E5F3F4FAC01485F43
:105910005F4F80E02417350709F40895F90191914C
:105920009F019923B9F38F5FF5CF662349F0FC01FE
:10593000329608962191261729F0E817F907D1F732
:1059400080E0089581E008959C01FC0132969FEF6C
:1059500080E04191461751F09F3F19F4411101C079
:10596000982F8F5F8630A9F79F3F09F40895290F7C
:10597000311D97FD3A95F90162830895FC01329635
:1059800008962191261303C0DF0111971C92E81796
:10599000F907B9F708950E94A42C08950E94BE2C1F
:1059A0000895029626E0FC0111922A95E9F70895E0
:1059B00046E050E00E94EE3521E0892B09F420E01A
:1059C000822F089508950E94E22C0895811106C047
:1059D00081E080938D030E94E32C089582E0F9CF4B
:1059E00083E080938D030E94E32C08950E94E62CAF
:1059F000089581E080938D030E94E32C08950E9416
:105A0000F92C0895089508950E94032D089508958E
:105A100008950E94022D0895CF930E94072D0E94A1
:105A2000B01D0E94082DC0E08C2F0E94A51C892B60
:105A300031F4CF5FC530C1F780E0CF91089581E0A8
:105A4000FCCF85B7806885BF85B7806885BF08951E
:105A50001F921FB61F9211248F939F93AF93BF93F2
:105A600080918E03811113C08091B5039091B6038C
:105A7000A091B703B091B8034196A11DB11D8093C9
:105A8000B5039093B603A093B703B093B803BF9147
:105A9000AF919F918F911F901FBE1F90189580917D
:105AA000BD03843031F10E94510F10928E0388E1C2
:105AB00090E020E40FB6F894A895809360000FBEA4
:105AC0002093600083B7817F846083BF83B7816048
:105AD00083BF7894889583B78E7F83BF0FB6F89481
