:100000000C9441050C9488050C9488050C94880583
:100010000C9488050C9488050C9488050C9488052C
:100020000C9488050C9488050C9420260C94F426D6
:100030000C948D200C9488050C9488050C948805EC
:100040000C9488050C9488050C9488050C948805FC
:100050000C9488050C94E4200C9488050C94880575
:100060000C9488050C9488050C9488050C948805DC
:100070000C9488050C9488050C9488050C948805CC
:100080000C9488050C9488050C9488050C948805BC
:100090000C9488050C9488050C9488050C948805AC
:1000A0000C9488050C9488050C94880514001A009B
:1000B0000800150017001C0018000C0012001300A7
:1000C00004001600070009000A000B000D000E00D6
:1000D0000F0001511D001B00060019000500110052
:1000E0001000360037003800F200F100E1002C006B
:1000F0002C002C0028002A00F900FA003A003B00EE
:100100003C003D003E003F0040004100420027000F
:100110001E001F00200021002200230024002500D3
:10012000260001002E00E200E00035022D00500004
:10013000510052004F0029007C007D007A006400CD
:100140002F003000310033000100010001000100E8
:100150000100010001000100010001000100005C3C
:100160000100010001000100010001000100010087
:100170000100010001000100010001000100010077
:100180000100010001000100010001000100010067
:100190000100010001000100010001004445425539
:1001A000473A2064697361626C65642E0A004445B5
:1001B0004255473A20656E61626C65642E0A004FB5
:1001C0006E6573686F743A206163746976653A206E
:1001D00025640A000A0025303258006B6579626F89
:1001E0006172645F7365745F6C65643A20000A0035
:1001F0002530313662003A200025303258000A722C
:100200002F63203031323334353637383941424369
:100210004445460A00290A002575002F002575006F
:100220005D2800256400200025640020002564006E
:1002300020002564007C0025303258006D6F7573F6
:10024000656B6579205B62746E7C782079207620FE
:10025000685D287265702F61636C293A205B0031FC
:100260003A0964656C6179282A31306D73293A2026
:1002700025750A323A09696E74657276616C286D6B
:1002800073293A2025750A333A096D61785F7370D6
:100290006565643A2025750A343A0974696D655FAD
:1002A000746F5F6D61783A2025750A353A09776871
:1002B00065656C5F6D61785F73706565643A202574
:1002C000750A363A09776865656C5F74696D655FB4
:1002D000746F5F6D61783A2025750A00703A097075
:1002E00072696E742076616C7565730A643A09737D
:1002F00065742064656661756C74730A75703A097B
:100300002B310A646E3A092D310A6C743A092B318B
:10031000300A72743A092D31300A4553432F713A2D
:1003200009717569740A0A7370656564203D2064FB
:10033000656C7461202A206D61785F7370656564F7
:10034000202A2028726570656174202F2074696DE1
:10035000655F746F5F6D6178290A776865726520E3
:1003600064656C74613A20637572736F723D2564C5
:100370002C20776865656C3D25640A5365652068A7
:100380007474703A2F2F656E2E77696B697065648F
:1003900069612E6F72672F77696B692F4D6F757367
:1003A000655F6B6579730A004D3E20004D25753AF7
:1003B00025733E20003F0A003D2025750A003F0AB4
:1003C0000064656661756C74730A0025750A003FE8
:1003D0000A000A092D2056616C756573202D0A00EC
:1003E000710A000A092D204D6F7573656B657920C0
:1003F0002D0A003F00433E20004C25640A000A09F4
:100400002D20537461747573202D0A686F73745FA7
:100410006B6579626F6172645F6C65647328293AF9
:1004200020253032580A6B6579626F6172645F70A3
:10043000726F746F636F6C3A20253032580A6B65A7
:1004400079626F6172645F69646C653A202530324D
:10045000580A74696D65725F726561643332282968
:100460003A202530386C580A000A092D205665724A
:1004700073696F6E202D0A5649443A2030784645FC
:10048000454428444959534B5929205049443A205E
:10049000307830303030286D617374657262616C11
:1004A0006C29205645523A203078303030310A429B
:1004B00055494C443A2020284D6172203130203279
:1004C000303232290A4F5054494F4E533A204C553E
:1004D0004641204D4F5553454B45592045585452A0
:1004E000414B455920434F4E534F4C4520434F4DB0
:1004F0004D414E4420343039360A4743433A203880
:100500002E342E30204156522D4C4942433A20324F
:100510002E302E30204156525F415243483A2061DE
:100520007672350A000A092D20436F6E736F6C6571
:10053000202D0A4553432F713A09717569740A6D6C
:100540003A096D6F7573656B65790A000A092D208C
:100550004D61676963202D0A443A094465627567F5
:10056000204D65737361676520546F67676C650A1A
:10057000583A094D61747269782044656275672044
:100580004D6F646520546F67676C65202D2053683C
:100590006F77206B65797072657373657320696E10
:1005A000206D617472697820677269640A4B3A0938
:1005B0004B6579626F61726420446562756720548F
:1005C0006F67676C65202D2053686F77206B6579A6
:1005D0007072657373207265706F72740A4D3A0998
:1005E0004465627567204D6F75736520546F67674A
:1005F0006C650A563A0956657273696F6E0A533A0A
:10060000095374617475730A433A094163746976D6
:1006100061746520436F6E736F6C65204D6F646508
:100620000A46312D4631303A0953776974636820A0
:10063000746F204C6179657220302D392028463145
:1006400030203D204C30290A302D393A0953776942
:1006500074636820746F204C6179657220302D3985
:100660000A47524156453A095377697463682074C2
:100670006F204C6179657220302028616C7465723E
:100680006E617465290A423A094A756D7020746F6B
:1006900020426F6F746C6F616465720A4553433A10
:1006A000094A756D7020746F20426F6F746C6F61B2
:1006B0006465722028616C7465726E617465290AC4
:1006C000453A095072696E7420454550524F4D208D
:1006D00053657474696E67730A4253504143453AD7
:1006E00009436C65617220454550524F4D0A006BBD
:1006F00065796D61705F636F6E6669672E72617791
:100700003A20253032580A2E737761705F636F6E1E
:1007100074726F6C5F636170736C6F636B3A2025EA
:10072000750A2E636170736C6F636B5F746F5F63C8
:100730006F6E74726F6C3A2025750A2E7377617034
:100740005F6C63746C5F6C6775693A2025750A2E5F
:10075000737761705F7263746C5F726775693A205A
:1007600025750A2E737761705F6C616C745F6C67BE
:1007700075693A2025750A2E737761705F72616C16
:10078000745F726775693A2025750A2E6E6F5F6710
:1007900075693A2025750A2E737761705F677261FB
:1007A00076655F6573633A2025750A2E73776170ED
:1007B0005F6261636B736C6173685F6261636B73CB
:1007C000706163653A2025750A2E6E6B726F3A2050
:1007D00025750A0064656275675F636F6E66696799
:1007E0002E7261773A20253032580A2E656E61628A
:1007F0006C653A2025750A2E6D61747269783A200D
:1008000025750A2E6B6579626F6172643A202575D1
:100810000A2E6D6F7573653A2025750A006565634C
:100820006F6E6669673A0A64656661756C745F6CC1
:10083000617965723A2025750A003F000A6D6F756F
:1008400073653A206F66660A000A6D6F7573653AC4
:10085000206F6E0A000A6B6579626F6172643A20DC
:100860006F66660A000A6B6579626F6172643A208E
:100870006F6E0A000A6D61747269783A206F66665D
:100880000A000A6D61747269783A206F6E0A000A74
:1008900064656275673A206F66660A000A6465627D
:1008A00075673A206F6E0A000A0A4A756D70696EA4
:1008B0006720746F20626F6F746C6F616465722E55
:1008C0002E2E2000433E2000436C656172696E67E6
:1008D00020454550524F4D0A000A0025303258201D
:1008E000006B6579626F6172645F7265706F7274BC
:1008F0003A20005B735D005B575D005B535D005BFE
:10090000525D005B445D005B435D0016036D00615A
:10091000007300740065007200620061006C006C7E
:100920000000000E0344004900590053004B0059D9
:100930000000000403090409025B00030100A0FA9F
:100940000904000001030101000921110100012235
:1009500040000705810308000A09040100010300A3
:100960000000092111010001227B000705820320FC
:10097000000A09040200020300000009211101001D
:10098000012222000705830320000107050303203D
:1009900000011201000200000008EDFE000001004D
:1009A000010200010631FF0974A101097515002635
:1009B000FF009520750881020976150026FF009535
:1009C0002075089102C005010902A10185020901F3
:1009D000A1000509190129081500250195087501CF
:1009E00081020501093009311581257F95027508BD
:1009F000810609381581257F950175088106050C4A
:100A00000A38021581257F950175088106C0C00549
:100A1000010980A101850319012AB700150126B734
:100A200000950175108100C0050C0901A101850424
:100A300019012AA002150126A00295017510810056
:100A4000C005010906A101050719E029E7150025E0
:100A50000195087501810295017508810105071945
:100A60000029FF150026FF0095067508810005087E
:100A700019012905950575019102950175039101EB
:100A8000C00011241FBECFEFDAE0DEBFCDBF04B639
:100A900003FE27C08091C6029091C702A091C802B0
:100AA000B091C9028730904BA740B04BD1F410925F
:100AB000C6021092C7021092C8021092C90214BE58
:100AC00084B7877F84BF0FB6F894A89580916000A3
:100AD000886180936000109260000FBEE0E0F8E350
:100AE000099511E0A0E0B1E0E0EBF2E502C005906D
:100AF0000D92A63FB107D9F722E0A6EFB1E001C001
:100B00001D92A63CB207E1F70E94FF160C942E2915
:100B10000C940000FF93EF93E091F601F091F70140
:100B2000309709F00995EF91FF910895FC018591A7
:100B3000803011F0EFDFFBCF0895FF27E0E230E2D5
:100B400047FF0CC0419597FF09C0EDE26095709595
:100B500080959095611D711D811D911D27FF02C01B
:100B6000219530E350E2AA27660F771F881F991F4F
:100B7000AA1FA41710F0A41B63955A95A9F7AA30D1
:100B800008F0A95FA05DAF93F3956115710581052C
:100B9000910541F7ED3211F4EF93F395F21718F444
:100BA0003F93F395FBCF8F91B5DFFA95E1F7089569
:100BB000E991F9918591803021F0853219F0AADF11
:100BC000F9CF089520E0E89455915532C1F35033A0
:100BD00011F4689455915A3348F4505390F3220F0E
:100BE000022E220F220F200D250FF4CF0EF4219597
:100BF00089919991533619F3533729F1533559F1A6
:100C0000BC0188279927E8945C3621F48991999151
:100C100068945591543639F446EF7EF077FF0DC055
:100C20008FEF9FEF0AC055374AE039F0583540E161
:100C300021F0523642E009F00895FF93EF937DDFF3
:100C4000EF91FF91B7CFFF93EF93FC01819180303B
:100C5000B9F360DFFBCFFF93EF9368DFF1CFDF9352
:100C6000CF93CDB7DEB72596A3DFCF91DF9108955F
:100C700081E0089581E008950C943A0608950C945B
:100C80003E061F93CF93DF9300D000D00F92CDB7D5
:100C9000DEB749835A836B833091F80189819A8149
:100CA00031111DC06623B9F02223A9F00E94720CF5
:100CB000182F682F89819A810E941E0C69817A8180
:100CC000812F0F900F900F900F900F90DF91CF9189
:100CD0001F910C940C130E944A0C182FEFCF0E9406
:100CE000720C69817A81EDCFFC01262F4081518100
:100CF0006281738184810C94410681E00895CF93D1
:100D0000DF93EC0160E00E947406BE01DF91CF9199
:100D10000C943F060E9434150E9441070C9459150B
:100D20000C945C1580E00C944207089508950E948D
:100D3000C70A0E9496062FEF84E39CE02150804072
:100D40009040E1F700C000000C9408210F931F931E
:100D5000CF93DF938C0161E00E947406EC01B8012F
:100D60000E943C068823C1F1B801CE010E94EB1E0F
:100D7000882391F1B801CE010E94191A882361F1EC
:100D8000B801CE010E94551E882331F1F8018281FD
:100D9000882361F0CF3DFCE5DF07B1F170F4C115A8
:100DA000ECE5DE07B9F0C130DC45E1F0C801DF91C8
:100DB000CF911F910F910C943806CC358DE5D80753
:100DC00049F1CD35DC0719F1CB35DD4579F70E94C6
:100DD0003B11ECCF0E94970680E0DF91CF911F91ED
:100DE0000F91089590917002892F8E7F90FF8160FE
:100DF0008093700280FF05C08EEA91E00E94960504
:100E0000EBCF8CE991E0FACF0E94EC11E5CF0E9484
:100E10003211CCCF0E943E11C9CF0C9495060E948E
:100E2000471F0E9442070C940D07829590E09C0199
:100E3000220F331F220F331F2C7C95958795959594
:100E400087958373282B30E0C901880F991F8A7A10
:100E5000359527952575822B0895CF93DF93D92F4C
:100E60000E941507C82F8D2F0E9415079C2FDF9118
:100E7000CF91089508950C943A0781E008950C9459
:100E80003D070895CF93C82F0E943B078C2FCF9129
:100E90000C943F07CF93DF93CDB7DEB72B970FB6F8
:100EA000F894DEBF0FBECDBF4F83588769877A871E
:100EB0008B8761110E946D101E821D8285E0FE01EC
:100EC0003796DE01119601900D928A95E1F78C819B
:100ED0009D81892B89F449815A816B817C818D8127
:100EE0009E810E948E0F2B960FB6F894DEBF0FBE28
:100EF000CDBFDF91CF91089589819A8189238F3F5A
:100F000051F3CE0101960E947D068111E4CFEBCF13
:100F1000FC01808191810C94B40CCF93C82F88235D
:100F200009F44CC08CEF8C0F813AC8F48C2F0E94CE
:100F3000011E811143C06C2F809102019091030129
:100F40000E94EB1F882329F08C2F0E942F100E94F3
:100F50009D108C2F0E942810CF910C949D1080E240
:100F60008C0F883048F4C77081E001C0880FCA95A3
:100F7000EAF70E945010F0CFEBE5EC0FE33040F4BD
:100F8000F0E0E95BFE4F808190E0CF910C94AD1FC3
:100F9000E8E5EC0FE73150F4F0E0EE0FFF1FE75EFD
:100FA000FE4F80819181CF910C94C31FCD3E30F0D4
:100FB0008C2F0E948F17CF910C946218CF910895B7
:100FC000882361F19CEF980F913A20F40E942F1032
:100FD0000C949D1090E2980F983050F4877091E037
:100FE00001C0990F8A95EAF7892F0E945610F0CF19
:100FF0009BE5980F933020F490E080E00C94AD1FB7
:1010000098E5980F973120F490E080E00C94C31F8E
:101010008D3E20F00E94E9170C94621808951F93EA
:10102000CF93DF93182FEB010E948D07209731F4A7
:10103000812FDF91CF911F910C94E0078FE99FE002
:101040000197F1F700C000002197F0CF70E060E059
:10105000893311F460E570E00C940F08882321F0C7
:101060000E9450100C949D100895882321F00E9436
:1010700056100C949D100895BF92CF92DF92EF927C
:10108000FF920F931F93CF93DF936C01D62FC72F3F
:10109000FC011281F580F2949FE0F9220E94461033
:1010A000E82E8823B9F0E12E1123A1F08C2F807F48
:1010B000803421F080E28D0F8830B0F08091A4025E
:1010C00082FD12C082E00E94EE100E94461091E064
:1010D000E82EE926BC2EB2948FE0B822EB2DF0E08A
:1010E000E05DF64D0C94C528E12CF4CF0C2F0F7069
:1010F000C07F11F00295007F112399F0002359F071
:1011000080E28D0F883010F0D11107C0802F0E942F
:1011100050100E949D108D2F41C0802F0E946010A2
:10112000F8CF8D2F0E94E007002309F43FC080E232
:101130008D0F883010F0D11104C0802F0E945610FE
:1011400003C0802F0E9466100E949D102FC00C2F9C
:101150000F70C07FC03211F00295007FDD2381F057
:10116000D13009F469C0112309F473C0FF2009F4D8
:1011700069C0F601858180FFCECF8F70858362C004
:101180008091A40282FF38C0112359F0002329F076
:10119000802F0E9450100E949D1080E00E948D07B9
:1011A00005C080E00E94E0070111C7CFEB2DE85099
:1011B000FF0B349720F40E94471F0E944207EE2045
:1011C00009F482C10E94421080FD7EC1F6011282A4
:1011D0000E943C100E94820BC6010E94850A0E9458
:1011E0003C10DF91CF911F910F91FF90EF90DF9016
:1011F000CF90BF900C94A30B112389F0F11006C07F
:101200000E948010802B0E942E08D0CFF1E0FF12A8
:10121000F7CF0E948010802B0E948610C7CFF1105C
:1012200006C00E949310802F0E943508BFCF21E096
:10123000F21609F4BBCFF5CF112331F035E03F159D
:1012400008F4B4CF802FDFCF84E08F1508F4AECF41
:10125000EACFFF2041F3D93349F4FFEF27EE33E023
:10126000F15020403040E1F700C000008D2F0E9477
:10127000E0079CCF8C2F86958695837069F081302E
:1012800009F094CF8D2F9C2F9370111102C090E024
:1012900080E00E94C31F8ACF8D2F9C2F9370111165
:1012A00002C090E080E00E94AD1F80CF8D2F1123FF
:1012B00029F00E948F170E94621878CF0E94E917C8
:1012C000FACF8C2F837009F041C011116FCF4D2FD1
:1012D000429546954770440F440F0D2F0F7010E054
:1012E00030E020E0042E04C0000F111F221F331F26
:1012F0000A94D2F760E070E0CB01D4FF0FC06FE03A
:1013000070E080E090E004C0660F771F881F991F8F
:101310004A95D2F76095709580959095C695C6953B
:10132000C370602B712B822B932BC23049F058F481
:10133000C13019F00E94340B39CF0E94220B36CFF6
:101340000E94460B33CF0E94200B30CF869511238D
:1013500011F08C2F8170882309F428CF4D2F4295EE
:1013600046954770440F440F0D2F0F7010E030E08A
:1013700020E0042E04C0000F111F221F331F0A9407
:10138000D2F760E070E0CB01D4FF0FC06FE070E0F7
:1013900080E090E004C0660F771F881F991F4A9570
:1013A000D2F76095709580959095C695C695C37057
:1013B000602B712B822B932BC23049F058F4C13033
:1013C00019F00E94F90BF2CE0E94E70BEFCE0E94BB
:1013D0000B0CECCE0E945C0BE9CECF70112329F0F0
:1013E0008C2F0E94820B8D2F0ECF8D2F0E943508DF
:1013F0008C2F0E94A30BDACED23F51F160F4D03F84
:10140000B9F0D13F81F0112309F449C0F11083CE26
:101410008C2F8F7121C0D33F11F1D43FA1F7809160
:10142000A40282FF26C08C2F8F71112311F314C0E8
:10143000112349F084E08F1508F4B8CE8C2F8F71FA
:101440000E94C60BB3CE95E09F1508F4AFCEF6CF41
:101450008C2F8F711111CDCF0E94820BA7CE11233B
:1014600029F08C2F8F710E946D0BA0CE0E94680B0B
:101470009DCE112349F0CF718C2F0E94820B63E027
:101480008C2F0E94D31092CE81E00E94EE10E1E0FA
:10149000EF1508F08BCE82E00E94EE1087CEF1109F
:1014A000DACE8C2F8F71A5CF4C2F4F706D2FC601C8
:1014B0000E9408130E94E20C79CE4C2F4F706D2FC2
:1014C000C6010E940B1372CEDF91CF911F910F9135
:1014D000FF90EF90DF90CF90BF9008950F931F93F0
:1014E000CF93DF93EC01688179818A810E94BE0CE1
:1014F0008C010E941D0C0E941F0BB801CE01DF91D0
:10150000CF911F910F910C943C08CF93DF93EC0186
:101510008B819C81892B29F08881998189238F3F38
:1015200059F4DF91CF910895CE010E946E0ACE0149
:10153000DF91CF910C947F06CE010E94A606811107
:10154000F3CF0E944610882361F38A81882349F3F0
:101550008091A40282FDE5CF82E0DF91CF910C94CF
:10156000EE1090E080E00E94AD1F90E080E00E94CD
:10157000C31F0E946D100E947D100E949D100E944A
:101580000B1A0C9462180E9436100C94B10A0E9437
:101590005D100C94C30AE92FE295EF70E250EE3033
:1015A00070F4F0E0E05CF64D0C94C528803F19F033
:1015B00020F4883E20F481E00895843FE1F380E048
:1015C0000895883EC0F3813FD1F7F5CF93FB88277C
:1015D00080F90895FC01808191810E94B40C0C94E3
:1015E000CB0ACF93DF9300D000D00F92CDB7DEB7F8
:1015F0000F900F900F900F900F90DF91CF91089563
:10160000CF93DF9300D000D000D0CDB7DEB72696C1
:101610000FB6F894DEBF0FBECDBFDF91CF91089516
:1016200008950C94100B0E94110B60931602709396
:10163000170280931802909319020C94B10A08952E
:101640000C94130B0F931F93009116021091170225
:101650002091180230911902602B712B822B932B51
:101660001F910F910C94130B0F931F93009116026F
:1016700010911702209118023091190260237123F2
:10168000822393231F910F910C94130B0F931F939D
:101690000091160210911702209118023091190240
:1016A00060277127822793271F910F910C94130BAA
:1016B0000C94100B0C94580B0E945A0B609312025E
:1016C0007093130280931402909315020C94B10A44
:1016D00060E070E0CB010C945C0B0F931F9341E032
:1016E00050E060E070E08A019B0104C0000F111F10
:1016F000221F331F8A95D2F7C901B8011F910F919C
:101700000C945C0B0F931F9341E050E060E070E09D
:1017100004C0440F551F661F771F8A95D2F780912A
:10172000120290911302A0911402B09115028A0145
:101730009B01082B192B2A2B3B2BC901B8011F91A8
:101740000F910C945C0B0F931F9341E050E060E00D
:1017500070E004C0440F551F661F771F8A95D2F7AB
:10176000CB01BA0160957095809590950091120219
:1017700010911302209114023091150260237123FD
:10178000822393231F910F910C945C0B0F931F9353
:1017900041E050E060E070E004C0440F551F661F58
:1017A000771F8A95D2F78091120290911302A0912F
:1017B0001402B09115028A019B01082719272A27D4
:1017C0003B27C901B8011F910F910C945C0B0F933B
:1017D0001F93009112021091130220911402309174
:1017E0001502602B712B822B932B1F910F910C9460
:1017F0005C0B0F931F930091120210911302209122
:1018000014023091150260237123822393231F91C8
:101810000F910C945C0B0F931F9300911202109187
:10182000130220911402309115026027712782273C
:1018300093271F910F910C945C0B08952AE0929FBF
:10184000800D1124982F977041E001C0440F9A95A4
:10185000EAF786958695869595E0899FF001112493
:10186000E750FE4F90E080E070E05191DF0111976A
:101870009B01082E02C0369527950A94E2F7217045
:1018800021952527242325272C9301968530910522
:1018900061F708952AE0929F800D1124982F977088
:1018A00086958695869525E0829FF0011124E75064
:1018B000FE4F50E040E080E0219130E0092E02C070
:1018C000369527950A94E2F721703327042E01C03C
:1018D000220F0A94EAF7822B4F5F5F4F4530510584
:1018E00059F70895BF92CF92DF92EF92FF920F9334
:1018F0001F93CF93DF938C01C0901202D0901302FC
:10190000E0901402F0901502809116029091170257
:10191000A0911802B0911902C82AD92AEA2AFB2AF2
:10192000CFE1D0E0BC2ED701C6010C2E04C0B69585
:10193000A795979587950A94D2F780FD0EC02197B9
:1019400088F7B12C8B2DDF91CF911F910F91FF90D4
:10195000EF90DF90CF90BF900895B8018C2F0E9438
:101960003B14019761F3EECFCF93DF93EC010E941C
:10197000720CBE01DF91CF910C943B141F93CF9357
:10198000DF93EB019091F801992331F0CB01DF91C6
:10199000CF911F910C94B40C882379F0CB010E9455
:1019A000720C182F682FCE010E941E0CBE01812FD1
:1019B000DF91CF911F910C943B14CB010E944A0CF4
:1019C000182FF4CFEF92FF920F931F93CF93DF93D3
:1019D0008C01892B81F0F12CEE24E394E80121960F
:1019E000F8018491843770F4843008F05FC081304E
:1019F000B1F08230A1F1DF91CF911F910F91FF9053
:101A0000EF900895853709F44CC008F43DC09CE779
:101A1000980F903780F78F770E94E00749C00E5FDC
:101A20001F4FFE01849190E2980F983060F4877008
:101A3000FE2D01C0FF0F8A95EAF78F2F0E947010CC
:101A40000E949D1002C00E948D078F2D815030F2A0
:101A5000EFE9FFE03197F1F700C00000F7CF0E5F2C
:101A60001F4FFE01849190E2980F983050F48770D8
:101A7000FE2D01C0FF0F8A95EAF78F2F0E94761086
:101A8000DFCF0E94E007E1CF0E5F1F4FFE01C49140
:101A9000C150D8F28FE99FE00197F1F700C0000034
:101AA000F7CF0E5F1F4FFE01F490CFCF0E948D073E
:101AB0008E01CBCF1F93CF93DF93C0911A0216E014
:101AC00080911B028C1304C0DF91CF911F91089568
:101AD000D0E01C9FF0011D9FF00D1124E45EFD4F2E
:101AE0004081518162817381848195810E94000BC4
:101AF0002196C770E5CF40914C0250914D02609104
:101B00004E0270914F0280915002909151020C94BC
:101B1000000BFF920F931F93CF93DF93809151029D
:101B2000807FD1F480914E028823B1F080911A0217
:101B300010911B0260914C0270914D02A0914F02D6
:101B4000B0915002062F0723C0910001D0910101EE
:101B500096E0F92E181306C0DF91CF911F910F91D7
:101B6000FF90089590E0109711F00F3F19F401963F
:101B70008770F0CFF89E9001F99E300D1124F90185
:101B8000E45EFD4F41814713F2CF40814613EFCF12
:101B900042814111ECCF438154814A1B5B0B4C17AE
:101BA0005D0728F7809151028F7080618093510208
:101BB000F901EF5DFD4F80818F70806180838CE43F
:101BC00092E00E94850ADF91CF911F910F91FF90C3
:101BD0000C945A0DAF92BF92CF92DF92EF92FF9288
:101BE0000F931F93CF93DF93CDB7DEB761970FB6F7
:101BF000F894DEBF0FBECDBF8C0185E0F801DE0199
:101C00001D9601900D928A95E1F7F801E2808CE42F
:101C1000C82E82E0D82E60914F027091500261155B
:101C2000710509F45FC190914C0220914D02892FFA
:101C300082238F3F09F456C140815181A380B48033
:101C4000F0904E02F501E61BF70BBF01E091000199
:101C5000F0910101FF2009F4F6C080915102382F64
:101C6000307F6E177F0708F0AFC0311179C0FE2CAE
:101C7000251323C0941321C0E1101FC08F70806111
:101C8000809351020E947B0DC6010E94850A8091BB
:101C90005102F80185838F2D61960FB6F894DEBF4F
:101CA0000FBECDBFDF91CF911F910F91FF90EF90AD
:101CB000DF90CF90BF90AF900895AB2829F0842F8C
:101CC00085238F3F09F027C180E0F82FF170DF2EC8
:101CD00080FF3CC080911A0220911B0236E08213E3
:101CE00015C04D875E878D859E850E94B40C292F77
:101CF00022952F702230F0F0243018F59F70F1F00B
:101D0000F8019581907FD1F4D12C1EC090E0389FCE
:101D1000F001399FF00D1124E45EFD4F61816513E0
:101D200006C06081641303C062816E110FC001960A
:101D30008770D5CF9F7011F0882331F3805E883093
:101D400018F3C8010E94850AFD2CA5CFEE2009F4E6
:101D5000A2CF80915102816080935102F12C9BCFE0
:101D6000251306C0941304C0F801EE2009F487C0BF
:101D7000C8010E94EA0A882319F1EE2009F1809136
:101D80005102803270F020914C0230914D02388720
:101D90002F831986BB86AA868C87CE0107960E9460
:101DA000850A86E0F801ACE4B2E001900D928A95D4
:101DB000E1F70E94890D0E947B0DFF24F3946BCF05
:101DC000C8010E94850AF9CF311113C07A2DB98A52
:101DD000A88A6E2D89890E94F10A8CE492E00E9403
:101DE000850A86E0F60111928A95E9F70E947B0D3B
:101DF000B5CF25130FC094130DC0E1100BC0F8012F
:101E00008583C8010E94850A86E0F60111928A95B1
:101E1000E9F741CFC8010E94EA0A882389F2EE203F
:101E200079F280915102803208F4BBCF20914C02AC
:101E300030914D023A8329831B82BD82AC828E830E
:101E4000CE010196ACCF6E177F0708F03EC0FE2C86
:101E5000EE2009F4B5CF25132AC0941328C0809131
:101E6000510280FD1BC0982F907FC1F0F80185833F
:101E7000903F31F0982F907F905F8F70892B8583F2
:101E8000C8010E94850A86E0F801ACE4B2E0019046
:101E90000D928A95E1F70E947B0DFDCE86E0F80158
:101EA000ACE4B2E001900D928A95E1F7F4CEC8015E
:101EB0000E94EA0A811175CF80915102816080935E
:101EC0005102C8010E94850AE6CE7A2DB98AA88AF5
:101ED0006E2D89890E94F10A86E0F60111928A9599
:101EE000E9F7D9CFEE2009F46BCFC8010E94EA0AC6
:101EF000F82E882309F464CF86E0F801ACE4B2E060
:101F000001900D928A95E1F78CE492E00E94880797
:101F10000E94890DC0CF81E08E25D7CE1F93CF932D
:101F2000DF93CDB7DEB72C970FB6F894DEBF0FBEA8
:101F3000CDBF4F83588769877A878B879C87CE016F
:101F400007960E94EA0D882369F08A859B85892B74
:101F500039F04F815885842F85238F3F09F071C058
:101F600016E05FC086E0FE013796DE011196019013
:101F70000D928A95E1F78A859B85892B89F38F815C
:101F8000988589238F3F61F320911B0230E0C901BE
:101F900001968770992740911A024817190671F423
:101FA0000E94C70A10921B0210921A0286E0ECE40B
:101FB000F2E0DF011D928A95E9F7D2CF96E0929F79
:101FC000D001939FB00D1124A45EBD4FFE01319648
:101FD00001900D929A95E1F780931B020E945A0D91
:101FE000BFCF819FC0011124845E9D4F0E94EA0DE6
:101FF0008823E9F0E0911A021E9FF0011124E45EAB
:10200000FD4F4081518162817381848195810E945D
:10201000000B80911A0290E00196877099278093B7
:102020001A0280911A0290911B028913DACF2C9622
:102030000FB6F894DEBF0FBECDBFDF91CF911F91D9
:10204000089569857A858B859C850E94000B88CFD1
:10205000682F80910201909103010C942120682F38
:1020600080910201909103010C9423208091020140
:10207000909103010C9425208091520285958595BD
:10208000859508958091520287700895909152022B
:10209000977081E009F480E0089580915E020895D0
:1020A00090915E02892B80935E02089580959091B5
:1020B0005E02982390935E02089510925E02089546
:1020C00090915D02892B80935D0208958095909197
:1020D0005D02982390935D02089510925D02089529
:1020E00090915C02892B80935C0208958095909179
:1020F0005C02982390935C02089510925C0208950C
:1021000080915302089508950C9483109091A40235
:1021100092FD08C090915302981721F080935302CA
:102120000C948410089580915302882329F0109212
:10213000530280E00C9484100895E0910201F09124
:10214000030180915E028083E0910201F09103011E
:10215000808190915D02892B8083E0910201F09152
:102160000301808190915C02892B808390915302BE
:10217000992381F0E0910201F09103018081892B84
:10218000808380910201909103010E94D91F8111E7
:102190000E94931080910201909103010C94531FAF
:1021A00008950C94D0109091A40292FD10C098E074
:1021B000899F90011124622B609352020E94820B2E
:1021C000809152028595859585950C94D1100C943B
:1021D000820B1092520280E00C94D1109091520226
:1021E0008095892380935202282F277091F4282FFD
:1021F000082E000C330B9217130659F09091A4028D
:1022000092FD07C08595859585950E94A30B0C943A
:10221000E9100895CF93C82F8091A40282FB9927DB
:1022200090F99C17E9F0C0FB82F98093A402809199
:10223000A3029091A4020E94681182E00E94EE1015
:102240008091700280FF0CC01F92CF938FEB91E0C2
:102250009F938F930E942F060F900F900F900F90D7
:10226000CF9108958091A40282FB882780F991E0A4
:1022700089270C940A1181E00C940A1180E00C94D7
:102280000A116FEF7FEF90E080E00C94182990E046
:1022900080E00E94F42821E0893E9E4F09F020E072
:1022A000822F089582E090E00C94EC2883E090E087
:1022B0000C94EC28CF9384E090E00E94EC28C82F87
:1022C00082E290E00E94EC28982F8C2FCF91089505
:1022D000CF93C92F682F84E090E00E94FA286C2FDA
:1022E00082E290E0CF910C94FA28AB01BC018FE020
:1022F00090E00C940C29AB01BC0183E190E00C94BC
:102300000C2960E070E0CB010C947B1160E070E080
:10231000CB010E9475110C94811169EE7EEF90E063
:1023200080E00E94182960E082E090E00E94FA2894
:1023300060E083E090E00E94FA281092160210926A
:102340001702109218021092190260E084E090E0E7
:102350000E94FA2860E082E290E00E94FA2860E0A1
:1023600085E090E00E94FA2860E086E090E00E941C
:10237000FA286FEF87E090E00E94FA2840E050E0F2
:10238000BA0188E090E00E940C2960E08DE090E0C6
:102390000E94FA2840E050E0BA0188E190E00E94F3
:1023A0000C2960E087E190E00E94FA2840E050E0CC
:1023B000BA018CE190E00E940C2970E060E080E2BC
:1023C00090E00E94182940E050E0BA0188E190E0D6
:1023D0000E940C290C9486110C948D11682F8EE0AC
:1023E00090E00C94FA280E94C92060936C027093CC
:1023F0006D0280936E0290936F02609368027093F7
:10240000690280936A0290936B02089585B7806891
:1024100085BF85B7806885BF0895089508950C9499
:102420000D1208950C9411120E9406128CEF92E284
:102430000E943D1F0E940E120C940F1281E008951D
:102440000C941E12089508950E9422120C942312D7
:102450000E94B4200E9459160C941212CF93C82FD8
:102460008091700282FF1EC080FF1CC08BED91E046
:102470000E9496058091700280FF14C01F92CF9336
:1024800086ED91E09F938F930E942F0680917002BA
:102490000F900F900F900F9080FF04C084ED91E09B
:1024A0000E9496058C2FCF910C9442078F929F9299
:1024B000AF92BF92CF92DF92EF92FF920F931F9352
:1024C000CF93DF93CDB7DEB72A970FB6F894DEBF70
:1024D0000FBECDBF0E946E1681110E94F31150E60F
:1024E000852E52E0952E10E000E0A02E802F0E9455
:1024F0005E156C01F401E190F1904F01E816F906C8
:1025000009F45CC08091700281FD0E946715C701CB
:102510008C259D25B12CEE24E394F12C9C012E21D9
:102520003F21232B09F444C00E9420128823A9F0E4
:10253000BE82AF82CE20DF2081E0CD2809F480E08A
:1025400088870E94BD208160782F9A8789874E8175
:102550005F8168858A850E944A07000F111FF80174
:10256000E05AFD4F80819181E826F926F182E082D0
:102570000E94FF180E94471F90915F028917A9F1DE
:102580000E94471F80935F022A960FB6F894DEBF21
:102590000FBECDBFDF91CF911F910F91FF90EF90B4
:1025A000DF90CF90BF90AF909F908F900C942E12A1
:1025B000B394EE0CFF1CFAE0BF12B0CF0F5F1F4FB9
:1025C0000430110509F091CF8FEF89838A831B8234
:1025D0000E94BD208160782F9D838C8349815A8120
:1025E0006B818D810E944A07C3CF2A960FB6F8945B
:1025F000DEBF0FBECDBFDF91CF911F910F91FF9036
:10260000EF90DF90CF90BF90AF909F908F90089504
:1026100090E080E008950895972F70E02AE0929F5F
:10262000600D711D1124FB0198E2899FE00DF11DE1
:102630001124EE0FFF1FE455FF4F859194910895EB
:10264000FC01EE0FFF1FE251FE4F8591949108951A
:10265000CF93DF930E943F14EC01811520E5920790
:1026600008F042C0811530E4930708F0BDC0883EF1
:10267000910528F5803E910508F09DC0883A9105A6
:1026800088F4853A910508F08FC08130910509F4EE
:1026900092C0009709F48FC0049708F08CC0D0E076
:1026A000C0E089C08F3B910508F489C0805C910926
:1026B000C03CD105A0F30E942013EC017CC0811521
:1026C000904250F4C11581E0D80708F074C0CD3EA7
:1026D000D10528F3D0656FC0C11590E3D90708F084
:1026E00079C0CE019F70E7CF811525E5920758F597
:1026F000811534E5930708F0A6C0811542E59407DB
:1027000050F4C11581E5D80708F471C0DC2FCC273F
:10271000C16FD06A50C0982F969596959E012370F0
:102720003327C115D34508F07FC0C1E0D0E002C017
:10273000CC0FDD1F2A95E2F720E2929FC001112401
:10274000C82BD92B6FC0C11589E5D807A8F4C115CE
:1027500098E5D90708F07CC0C11526E5D20708F036
:102760009ECF8C2F0E94D614C82FD0E0DC2FCC2710
:10277000CC27DF71D0621FC0C1153AE5D30708F43A
:102780006CC0CE0190568115904208F088CF8D2FF5
:102790008F710E94D61490E0982F882788279F7108
:1027A0009C012C2BE901E6CFC55AD0E0C858DE4F7A
:1027B000C881D0E0D064CE01DF91CF910895C85A8E
:1027C000D0E0CC0FDD1FC65BDE4F0990D881C02D55
:1027D000D464F1CFCE019927D3FF03C0EC01D86CAC
:1027E000EACFEC01D06CE7CFDF70D06AE4CFCE0146
:1027F000E4E096958795EA95E1F783702C2F26956E
:102800002695237090E2299F90011124382B8C2F5C
:102810008370C1E0D0E002C0CC0FDD1F8A95E2F7E3
:10282000C22BD32BDC68C7CFC1E0D0E002C0CC0FF5
:10283000DD1F2A95E2F730E2939FC0011124C82BD7
:10284000D92BDA68B8CFD82FCC27C46FD06AB3CFD2
:10285000DC2FCC27C06FD06AAECF8C2F8F700E9438
:10286000D61434E0D695C7953A95E1F7CF709C2FF2
:10287000EC01D069A0CF0E940C130C94281382386D
:102880009105B1F1B0F48133910509F475C048F4B4
:102890008932910509F469C08A32910509F473C03F
:1028A00008958533910509F459C08933910501F1E3
:1028B0000895833E9105A9F138F4803E9105F9F021
:1028C000823E910549F10895863E9105A9F1873E22
:1028D0009105C9F1843E910519F52091A40221FFCB
:1028E0001FC08091A30284FD14C087EE90E008957C
:1028F0002091A3022370A1F080EE90E00895209132
:10290000A30220FD47C03091A40230FF09C024FF7C
:1029100044C090E080E004C02091A30222FDF7CFE4
:1029200008952091A30222FD3BC03091A40230FD06
:10293000E3CF24FFF5CFEDCF2091A30223FFF0CF0B
:1029400024FDE7CFD2CF2091A30223FD2CC03091EC
:10295000A40231FFEECF84EE90E008952091A3020F
:1029600025FFDECF89E290E008952091A30225FFA4
:10297000D7CF85E390E008952091A30226FFD0CF22
:102980008AE290E008952091A30226FFC9CF81E357
:1029900090E0089589E390E0089583EE90E0089533
:1029A00082EE90E0089586EE90E008959091A30263
:1029B00092FF06C0282F28712830F9F4877F8460A1
:1029C00093FF06C0282F28712831F1F4877E846197
:1029D0002091A40220FF06C0382F38713830D9F476
:1029E000877F816021FF06C0282F28712831D1F40C
:1029F000877E816194FD877E0895282F247124307D
:102A0000F9F68B7F8860DCCF282F2471243101F701
:102A10008B7E8861DDCF382F3171313019F78E7F91
:102A20008860E0CF282F2171213121F78E7E8861C7
:102A3000E1CF0C9441110E946E162FEF86E791E0D2
:102A4000215080409040E1F700C000000E946E16C7
:102A500080E00E945E1580FF04C00E9419150C944E
:102A6000082108950C941B150E944711811102C082
:102A70000E94EC110E945211809370020E945A1120
:102A80009093A4028093A3020E9432150E945611D3
:102A9000682F70E090E080E00E94200B60911202AD
:102AA0007091130280911402909115020C945A0BAC
:102AB00008950C94581508950C945B15E82FF0E0D8
:102AC000EE0FFF1FE355FD4F808191810895CF9256
:102AD000DF92EF92FF920F931F93CF93DF938EEFCE
:102AE00091E00E9496058DEAE82E82E0F82ED0E073
:102AF000C0E099EFC92E91E0D92E00EF11E0DF93ED
:102B0000CF93DF92CF920E942F0686EF91E00E9432
:102B10009605F701819191917F010E942D079F9366
:102B20008F931F930F930E942F068EEE91E00E94C9
:102B3000960521968DB79EB708960FB6F8949EBF5E
:102B40000FBE8DBFC430D105D1F6DF91CF911F915B
:102B50000F91FF90EF90DF90CF90089580EA8A95D3
:102B6000F1F7089500C008950C94AE15F894E82F7D
:102B7000E295EF70F0E031A1282F2F7081E090E016
:102B800001C0880F2A95EAF7982F9095932391A377
:102B900092A1892B82A378940895CF93DF9387EF36
:102BA0000E94B61586EF0E94B61585EF0E94B615F5
:102BB00084EF0E94B615CBE7D1E089918F3F11F0E9
:102BC0000E94B61581E0C538D807B9F7DF91CF91DB
:102BD0000895AF92BF92DF92EF92FF920F931F93EF
:102BE000CF93DF938C01D62EC62FD0E0CE018B572A
:102BF0009E4F7C01FC0120812F3F09F44DC0F894C9
:102C0000E22FE295EF70F0E031A12F7081E090E0CB
:102C100001C0880F2A95EAF7932F982B91A392A1D0
:102C20008095892382A378940E94B215EBE7F1E0A6
:102C300045E851E021E030E0B12CA12C61916F3FDB
:102C4000A9F1A62FA295AF70B0E090968C9190E07C
:102C50006F7002C0959587956A95E2F780FD26C052
:102C6000C901A82AB92A220F331F4E175F0731F76F
:102C7000F70180818F3F11F00E94B61561E0A11429
:102C8000B10409F460E08D2D0E94B415CC0FDD1F56
:102C9000C00FD11FB982A882DF91CF911F910F91F0
:102CA000FF90EF90DF90BF90AF90089590E080E0AC
:102CB000D8CF0E94CD1588E0EDEAF2E0DF01982F31
:102CC0001D929A95E9F7E5EAF2E0DF011D928A95F7
:102CD000E9F784E00E94B9160C948A06FF920F93DC
:102CE0001F93CF93DF93CDB7DEB728970FB6F89435
:102CF000DEBF0FBECDBF8E010F5F1F4F88E0F80112
:102D000011928A95E9F7F12C6F2DC8010E94E915FF
:102D1000F394F4E0FF12F8CF48E050E0B80185EA00
:102D200092E00E94DF28FF24F394009709F4F12C2D
:102D3000892B41F088E0F801A5EAB2E001900D92FC
:102D40008A95E1F72F2D44E06DEA72E085EA92E082
:102D50000E94BA160E9490068F2D28960FB6F894FE
:102D6000DEBF0FBECDBFDF91CF911F910F91FF90BE
:102D700008950895FF920F931F93CF93DF93F82E3A
:102D8000092F162FD72FC42F222349F081E08093DB
:102D900073020E94BD209093720280937102809111
:102DA00073028823A1F080917102909172020E94B7
:102DB000D520059760F0EF2DF02FA12FBD2F90E0CB
:102DC00080E0D0E08C179D0744F010927302DF91F1
:102DD000CF911F910F91FF900895219131912D93E3
:102DE0003D930196EFCF0E9477230E9428120C9406
:102DF00083230E9487230E9456120C94A5230E94CD
:102E000046200E945E230E9414120E94F3160E9424
:102E1000F9160E942412FBCF80917A0280FF12C023
:102E20006091090185E0689FB0011124759567954F
:102E30007595679560387105A8F561157105A1F163
:102E4000862F089581FF09C06091090185E0689F80
:102E5000B001112475956795EDCF6091090182FD50
:102E60000AC0809179028823D1F090910801609185
:102E70000901891728F085E0689FB0011124DACF95
:102E8000869FB001112485E0869F9001879F300DB9
:102E90001124692F70E0C9010E94B128CBCF65E0F1
:102EA00070E0CECF8FE7089581E0089580917A0297
:102EB00080FF0CC06091050170E075956795759570
:102EC00067956115710549F1862F089581FF06C048
:102ED0006091050170E075956795F3CF60910501EC
:102EE00082FD0BC0909178029923A1F060910401BA
:102EF00080910501961738F0682F70E060387105F1
:102F000000F38FE70895899FC001112470E00E94AB
:102F1000B128F4CF61E070E0D7CF81E008958D3E15
:102F200031F40E940C17819580937E0208958E3EA5
:102F300019F40E940C17F8CF8F3E31F40E940C1741
:102F4000819580937D020895803F19F40E940C17AB
:102F5000F8CF893F29F40E94561780937F02089585
:102F60008A3F21F40E9456178195F7CF8B3F31F4A9
:102F70000E94561781958093800208958C3F19F422
:102F80000E945617F8CF9FE0980F983070F4815F39
:102F9000990B21E030E001C0220F8A95EAF7809179
:102FA0007C02822B80937C0208958D3F31F48091C6
:102FB0007A02816080937A0208958E3F21F4809195
:102FC0007A028260F7CF8F3FB9F780917A028460EE
:102FD000F1CF40917D028D3E59F480917E0287FFB2
:102FE0000DC010927E0241110BC01092790208C0F0
:102FF0008E3E81F480917E0218169CF3442381F06A
:1030000080917F0290918002892B09F05AC0109222
:10301000780208958F3E49F447FFF0CF10927D0269
:1030200080917E028111ECCFE0CF803F19F414161D
:10303000ACF3E4CF90917F02893F29F41916F4F69E
:1030400010927F02DBCF8A3F19F497FFD7CFF8CFDA
:10305000909180028B3F29F497FFD0CF109280028D
:10306000CDCF8C3F19F41916CCF3C8CF9FE0980F41
:10307000983090F4815F990B21E030E0B90102C0F3
:10308000660F771F8A95E2F7CB01809590917C02BD
:10309000892380937C02B2CF8D3F31F480917A02F4
:1030A0008E7F80937A02AACF8E3F21F480917A029C
:1030B0008D7FF7CF8F3F09F0A1CF80917A028B7F70
:1030C000F0CF08958091700283FF7EC08CE392E080
:1030D0000E94960580917C021F928F9387E392E075
:1030E0009F938F930E942F0685E392E00E9496059E
:1030F00080917D02282F082E000C330B3F938F9375
:1031000082E392E09F938F930E942F0680E392E0E8
:103110000E94960580917E02282F082E000C330B0A
:103120003F938F938DE292E09F938F930E942F069F
:103130008BE292E00E94960580917F02282F082E54
:10314000000C330B3F938F9388E292E09F938F9311
:103150000E942F0686E292E00E94960580918002EE
:10316000282F082E000C330B3F938F9383E292E0BD
:103170009F938F930E942F0680E292E00E94960513
:10318000809179021F928F938DE192E09F938F93AC
:103190000E942F068BE192E00E94960580917A02B0
:1031A0001F928F9388E192E09F938F930E942F0646
:1031B00085E192E00E9496058DB79EB74C960FB6BA
:1031C000F8949EBF0FBE8DBF0E94BD209C019091C0
:1031D0007D0280917E02982B21F03093770220931C
:1031E000760290917F0280918002982B21F030939B
:1031F0007502209374028BE792E00C949F1FEF926C
:10320000FF920F931F93CF93DF9300D000D000D095
:10321000CDB7DEB786E0EBE7F2E0DE011196019074
:103220000D928A95E1F7E0907D02F0907E02009188
:103230007F021091800210927D0210927E02109205
:103240007F02109280028E2D8F2991F0809176025C
:10325000909177020E94D520AC0190917902992338
:1032600009F43FC080910A018417150608F447C08D
:10327000802F812B91F080917402909175020E94B1
:10328000D520AC0190917802992309F477C0809100
:1032900006018417150608F47FC080917D02909185
:1032A0007E02892B90917F02892B90918002892B3D
:1032B00011F00E94621886E0FE013196ABE7B2E0A1
:1032C00001900D928A95E1F726960FB6F894DEBF2D
:1032D0000FBECDBFDF91CF911F910F91FF90EF9067
:1032E000089520910B018AE0289F90011124241752
:1032F000350708F0BDCF9F5F9093790202C09F3FD2
:10330000D1F7EE2059F00E940C179FEF1E140CF419
:1033100091E0899F802D112480937D02FF2059F038
:103320000E940C179FEF1F140CF491E0899F802DD1
:10333000112480937E0230917D02332309F498CFCB
:1033400020917E02222309F493CF45EB3403C00180
:103350001124992359F090937D0245EB24039001A9
:103360001124332339F030937E0282CF81E08093A1
:103370007D02F3CF81E080937E027ACF2091070116
:103380008AE0289F900111242417350708F085CF83
:103390009F5F9093780202C09F3FD1F7002359F0BE
:1033A0000E9456179FEF10160CF491E0899F802D14
:1033B000112480937F02112359F00E9456179FEF2A
:1033C00011160CF491E0899F802D112480938002C6
:1033D00030917F02332309F460CF209180022223B1
:1033E00009F45BCF45EB3403C0011124992359F054
:1033F00090937F0245EB240390011124332339F08D
:10340000309380024ACF81E080937F02F3CF81E046
:103410008093800242CF86E0EBE7F2E0DF011D926D
:103420008A95E9F7109279021092780210927A0246
:103430000895CF93DF93EC01FB018281882309F487
:1034400020C1C430FDE5DF07C8F5CB3F9CE5D907B7
:1034500030F49E0122503C452431310598F50E94FC
:103460005A119093A4028093A302C031FCE5DF07B8
:1034700009F4E0C008F061C0C8309CE5D90709F440
:10348000CBC088F5C430FCE5DF0709F4B3C0E8F42D
:10349000C2309CE5D90709F4A7C08091A3028260DD
:1034A000C330DC4509F4A3C08091A3029091A4022B
:1034B0000E9468110E94C70A80E004C0C236EDE590
:1034C000DE0769F2DF91CF9108958091A3028061B8
:1034D000C630FCE5DF0709F48AC008F48FC080918C
:1034E000A302806284C08091A3028D7FCC309CE5D2
:1034F000D90709F47CC070F48091A3028C60CA30B3
:10350000FCE5DF0709F473C008F48AC08091A302C8
:103510008E7F6DC08091A302877FCE309CE5D90756
:1035200009F465C08091A3028B7FCF30DC4508F49D
:103530005EC08091A3028F7E5AC0CD3FFCE5DF07BD
:1035400009F474C040F5C4319CE5D90709F48AC078
:1035500058F4C231FCE5DF0709F474C008F46EC00A
:103560008091A302837F43C0CB3F9CE5D90709F438
:1035700049C008F04DC0C531DC4509F095CF8091B8
:10358000A30282FB992790F921E0922790FB82F910
:1035900090FB83F92CC0C1308DE5D80709F458C0E1
:1035A00088F48091A4028360CF3FECE5DE0769F1E7
:1035B0008091A4028D7FC115DD4538F18091A40270
:1035C0008C7F23C0C3308DE5D80709F458C008F4B8
:1035D00052C0C236DD4509F067CF9091A302892F12
:1035E0008F7E94FF806103C08091A30281608093ED
:1035F000A3025ACF8091A3028460F9CF8091A302E5
:103600008860F5CF8091A40281608093A4024CCFA2
:103610008091A4028260F9CF8091A3028064E7CFF9
:103620000E94C70A8091A3028068E1CF8091A40222
:103630008E7FEBCF8091A3028F7DD9CF8091A302A3
:103640008F7BD5CF0E94C70A8091A3028F77CFCFFF
:103650008091A402982F909591708E7F892B90FB7A
:1036600081F9D3CF0E94C70A9091A302892F97FBBB
:1036700087F98058BCCF81E00E94EE1115CF80E021
:10368000FBCF81E01FCF809104011F928F93809127
:1036900005011F928F93809108011F928F93809153
:1036A00009011F928F9380910A011F928F9380913D
:1036B0000B011F928F938FE592E09F938F930E944F
:1036C0002F068DB79EB70E960FB6F8949EBF0FBE0D
:1036D0008DBF0895883228F58E3108F072C08B3086
:1036E00041F130F4873009F4CFC08EEB93E0E0C0B5
:1036F000833109F45FC08431C1F780EE93E00E940A
:10370000960580918502882309F4FEC010928502F7
:10371000109284021092830210928202109281020F
:1037200020C08F3409F4C7C0D8F5893231F388330B
:10373000E1F683EE93E00E9496050E94431B1F92E0
:1037400081E08F931F9285E08F938CED92E09F93A1
:103750008F930E942F060F900F900F900F900F9055
:103760000F9020918502222309F4C9C08091810223
:1037700090918202009711F489E891E09F938F93D2
:103780001F922F938CEA93E09F938F930E942F06B2
:103790000F900F900F900F900F900F9081E0089571
:1037A000813509F49CC008F49CC0823509F09DCF96
:1037B00081E082C082ED93E00E9496050E94431B47
:1037C000D0CF8D5180938502833009F442C058F4E4
:1037D0008130C1F08230A1F1109285028FEC93E02C
:1037E0000E9496051BC0853009F445C0D8F186308B
:1037F00099F784E091E0909384028093830281EDB5
:1038000091E008C08BE091E0909384028093830262
:103810008DE891E0909382028093810280918502ED
:10382000882309F49ECF1F928F938BEC93E09F9394
:103830008F930E942F060F900F900F900F9091CFB3
:103840008AE091E0909384028093830286E991E07C
:10385000E1CF89E091E0909384028093830282EA31
:1038600091E0D8CF88E091E0909384028093830226
:103870008FEA91E0CFCF85E091E09093840280932E
:1038800083028EEB91E0C6CF8EE180930B0182E341
:1038900080930A018AE08093090184E18093080102
:1038A00088E08093050188E28093040181EC93E035
:1038B0000E94960556CF8AE0E0918302F09184023F
:1038C0003097D1F02081082E000C990B820F911DAA
:1038D0008F3F910541F03CF08FEF808307C08FEF61
:1038E000EBCF86EFE9CF97FFF8CF108280811F9250
:1038F0008F9388EB93E09BCF85EB93E0D9CF88EA59
:1039000093E00E9496054ACF80E00895CF93C82F98
:103910001F928F9389EF93E09F938F930E942F06BE
:1039200061E070E080E090E004C0660F771F881FC0
:10393000991FCA95D2F70E94200B0F900F900F90FD
:103940000F90CF910C94C70AEF92FF920F931F93A1
:10395000CF93DF938B3109F401C108F09FC08B3006
:1039600009F4BBC008F07DC0863009F4C9C048F432
:10397000853009F4A1C08AE398E00E94960580E0B2
:10398000CFC0873009F4D3C08830A9F70E94561100
:103990001F928F938DE198E09F938F930E942F0643
:1039A0000E94521183FB992790F91F929F9382FBEB
:1039B000992790F91F929F9381FB992790F91F9265
:1039C0009F93982F91701F929F931F928F9384EDD6
:1039D00097E09F938F930E942F060E945A1187FBB6
:1039E000222720F91F922F9386FB222720F91F926E
:1039F0002F9385FB222720F91F922F9384FB2227E8
:103A000020F91F922F9383FB222720F91F922F93D7
:103A100082FB222720F91F922F9391FB222720F966
:103A20001F922F93292F21701F922F9381FB222702
:103A300020F91F922F93282F21701F922F939F936D
:103A40008F938FEE96E09F938F930E942F068DB7F2
:103A50009EB788960FB6F8949EBF0FBE8DBF81E0CB
:103A60005FC0803109F492C080F48E3009F083CFBA
:103A700090917002892F8B7F92FF846080937002F7
:103A800082FF81C085E698E075C0863109F48EC05A
:103A9000893109F070CF89E694E021C08A3249F17A
:103AA00090F4873211F128F48E3108F464CF8D51EF
:103AB0001DC0893209F05FCF88EA98E00E94960520
:103AC0000E949706CCCF833468F48A3308F093C001
:103AD000853359F0883309F04ECF8CE495E00E948D
:103AE0009605BDCF833409F046CF80E00E94861C46
:103AF000B6CF88EC98E00E9496050E94EC11AFCFFB
:103B000080917002807F8093700285E295E00E9430
:103B1000960584EC98E00E94960581E080938602E9
:103B2000DF91CF911F910F91FF90EF9008959091A9
:103B30007002892F8E7F90FF81608093700280FFDA
:103B400003C08CE998E0CBCF8FE898E00E949605FF
:103B500080917002817F8093700281CF909170027A
:103B6000892F8D7F91FF82608093700281FF08C052
:103B700082E898E00E949605809170028160EBCF08
:103B800084E798E0ACCF85E598E0A9CF90917002EA
:103B9000892F877F93FF88608093700283FF03C023
:103BA00089E498E0E7CF8CE398E099CF0E94C920A0
:103BB000162F072FF82EE92ED091A202C0911801DE
:103BC0000E94471FEF92FF920F931F931F92DF9364
:103BD0001F92CF931F928F938EEF93E09F938F93BB
:103BE0000E942F068DB79EB70C960FB6F8949EBF15
:103BF0000FBE8DBF34CF895379CF80E008950C94E8
:103C0000FD1DCF93C82F809186028130C1F088239B
:103C100039F0823009F444C01092860280E00DC071
:103C20000E944D108232D1F78C2F0E94FD1D811110
:103C30001BC08C2F0E94A41C8170CF9108950E94FC
:103C40004D10823289F38C2F0E94FF1D81111BC001
:103C5000C431D9F060F4CB3071F0C031D1F083EFD2
:103C600093E00E94960513C081E090E0E5CFC93251
:103C700061F0C833A1F785E295E00E94960585EFD3
:103C800093E00E94960581E0D7CF1092860280E0F3
:103C9000D3CF82E08093860288E30E946A1BF3CF31
:103CA0008C2F0E946A1B81E0C8CFCF93DF93EB017A
:103CB00086319C4511F50E944D109A81992399F007
:103CC0008A7A91E009F490E090938702811109C00B
:103CD00089E20E9428100E949D1080E0DF91CF9120
:103CE000089585E3F6CF80918702811104C089E2AF
:103CF0000E942F10F0CF85E3FBCF81E0EFCF0F9331
:103D00001F93CF93DF93C42FD22FFC01828188238E
:103D1000C9F040938A020E94BD209093890280934B
:103D2000880280E28C0F883008F050C0C77081E0B4
:103D300001C0880FCA95EAF7DF91CF911F910F91CB
:103D40000C942E0810918A02141335C080918802B9
:103D5000909189020E94D520883C910560F5C0E2CF
:103D6000CD0F1D17B9F080E2810F883040F4177035
:103D700081E001C0880F1A95EAF70E943508C83023
:103D800048F481E09D2F977001C0880F9A95EAF75B
:103D90000E942E08802F0E942608C830B8F4D770E1
:103DA00081E001C0880FDA95EAF7DF91CF911F918A
:103DB0000F910C94350880E28C0F883038F4C7706E
:103DC00081E001C0880FCA95EAF7EFCFDF91CF916C
:103DD0001F910F9108950F939C01CB01243F4CE557
:103DE000340759F1A8F4293DFCE53F0701F12A3DCC
:103DF0004CE53407D1F1283D3C4591F406E221EE33
:103E000041EE68ED7CE50E947F1E80E00F910895F1
:103E1000263FFCE53F07E9F0B0F0273F3C45F9F0CD
:103E2000FC018281882339F110928A02EFCF07E2E8
:103E300025EE45EE69ED7CE5E6CF06E221EE40EEAB
:103E400064EF7CE5E0CF07E225EE44EE65EF7CE52C
:103E5000DACF06E221EE42EE66EF7CE5D4CF07E250
:103E600025EE46EE67EF7CE5CECF08E221E045EE99
:103E70006AED7CE5C8CF81E0C9CF9093F7018093CC
:103E8000F60108959093900280938F020895E09137
:103E90008F02F0919002309721F00190F081E02D97
:103EA000099480E00895EF92FF920F931F93CF93B0
:103EB000DF938C01E0918F02F09190023097C1F175
:103EC0000280F381E02D09958091700282FF30C05D
:103ED00080FF04C081EE98E00E949605D0E0C0E02B
:103EE0008BEDE82E88E0F82E8091700280FF0EC0E6
:103EF000F801EC0FFD1F80811F928F93FF92EF92CC
:103F00000E942F060F900F900F900F902196C830AF
:103F1000D10551F78091700280FF0AC089ED98E0C9
:103F2000DF91CF911F910F91FF90EF900C94960528
:103F3000DF91CF911F910F91FF90EF900895E09145
:103F40008F02F0919002309739F022E0DC012C933F
:103F50000480F581E02D0994089520918D0230911F
:103F60008E022817390771F090938E0280938D028C
:103F7000E0918F02F0919002309721F00680F78156
:103F8000E02D0994089520918B0230918C0228171E
:103F9000390771F090938C0280938B02E0918F022D
:103FA000F0919002309721F00084F185E02D099482
:103FB00008959C012E5F3F4FAC01485F5F4F80E04A
:103FC0002417350709F40895F90191919F01992368
:103FD000B9F38F5FF5CF662349F0FC01329608965E
:103FE0002191261729F0E817F907D1F780E0089505
:103FF00081E008959C01FC0132969FEF80E04191A1
:10400000461751F09F3F19F4411101C0982F8F5F5F
:104010008630A9F79F3F09F40895290F311D97FDB8
:104020003A95F90162830895FC0132960896219130
:10403000261303C0DF0111971C92E817F907B9F79F
:1040400008950C94FA1F0C941420029626E0FC01AB
:1040500011922A95E9F7089508950C942C20811166
:1040600005C081E0809391020C942D2082E0FACF6C
:1040700083E0809391020C942D200C942F2081E0FA
:10408000809391020C942D200C943F2008958091F0
:10409000BD02843031F10E9492061092920288E1B2
:1040A00090E020E40FB6F894A895809360000FBECE
:1040B0002093600083B7817F846083BF83B7816072
:1040C00083BF7894889583B78E7F83BF0FB6F894AB
:1040D000A8958091600088618093600010926000D4
:1040E0000FBE089508950895CF930E9472200E94F4
:1040F0006E160E947320C0E08C2F0E945E15892BE3
:1041000031F4CF5FC430C1F780E0CF91089581E0F2
:10411000FCCF0E94C70A0C940F071F921FB61F9274
:1041200011248F939F93AF93BF938091920281113B
:1041300013C08091B5029091B602A091B702B091E0
:10414000B8024196A11DB11D8093B5029093B602AD
:10415000A093B702B093B802BF91AF919F918F9196
:104160001F901FBE1F90189582E084BD93E095BDFF
:104170009AEF97BD80936E0008952FB7F8948091C1
:10418000B5029091B602A091B702B091B8022FBFCC
:1041900008952FB7F8946091B5027091B60280919E
:1041A000B7029091B8022FBF08959C014FB7F894C1
:1041B0008091B5029091B602A091B702B091B80279
:1041C0004FBF821B930B089578941F921FB61F92C6
:1041D00011248F939F93AF93BF938091B5029091D9
:1041E000B602A091B702B091B8020196A11DB11D0F
:1041F0008093B5029093B602A093B702B093B80231
:10420000BF91AF919F918F911F901FBE1F901895E6
:1042100081E08093E00080E28093D8001092C90092
:104220008FE19EE40197F1F700C0000087E090EB7A
:10423000DC018093C6029093C702A093C802B0939A
:10424000C90288E19CE00FB6F894A89580936000BD
:104250000FBE90936000FFCF8091A1020895089552
:104260009C0182E08093E9009FEF8091E8009150EB
:1042700085FD06C085ED8A95F1F700009111F5CF17
:104280008091E80085FF0CC050E040E066E070E0FF
:10429000C9010E9415248091E8008E778093E80080
:1042A0000895CF93DF93EC0181E08093E9008FEFD5
:1042B0009091E800815095FD06C095ED9A95F1F733
:1042C00000008111F5CF8091E80085FF14C050E017
:1042D00040E068E070E0CE010E9415248091E80083
:1042E0008E778093E80088E0FE01A9E9B2E00190B2
:1042F0000D928A95E1F7DF91CF9108958093950211
:1043000070939702609396028091BD02843001F50C
:1043100082E08093E9008FEF9091E800815095FD55
:1043200006C095ED9A95F1F700008111F5CF8091C7
:10433000E80085FF0DC050E040E063E070E085E9F3
:1043400092E00E9415248091E8008E778093E80027
:104350000895BC0184E00C947E21BC0183E00C94A0
:104360007E2187E099E00E9496058091BC02811130
:1043700009C00E94A5250E9402268091E200846067
:104380008093E200089583E099E00E9496051092E0
:10439000BC0208958FEF98E00E9496050C943F2090
:1043A0008BEF98E00E9496056091B90281E061115F
:1043B00001C080E00C94382087EF98E00E949605B9
:1043C0009091BD0281E0943009F080E06091B902E3
:1043D0000C943D20209194022F5F822F62E30E9473
:1043E000A528992319F0209394020895109294021D
:1043F000809198028823F1F08091BD028430C1F44D
:104400009091E9009F702091EC00822F817020FD37
:1044100080E8892B93E09093E9009091EB0090FF66
:1044200004C09091EE0097FD08C08F708093E90062
:104430001092980208951092F1009091E80095FD75
:10444000FACF9091E80090FFF0CF9091E8009E772E
:104450009093E800EACF42E061EC81E00E942125E0
:1044600042E261EC82E00E94212542E261EC83E0BD
:104470000E9421259091BD0281E0943009F080E0F6
:104480006091B9020C942F208091BF02833009F40F
:1044900060C030F48130C9F1823009F49CC00895C5
:1044A0008A3009F488C08B3009F46EC0893009F075
:1044B0004FC08091BE02813209F04AC08091C20291
:1044C0009091C302029708F043C08091E800877F73
:1044D0008093E8008091E80082FF36C09091F3005D
:1044E0008091F200029731F48091F100813011F057
:1044F000863021F48091F1008093A1028091E80040
:104500008B778093E8000C9455258091BE02813A08
:10451000F9F48091E800877F8093E8008091C202DF
:104520009091C302892B61F468E089E992E070E020
:104530000E9464248091E8008B778093E8000895BE
:1045400060E090E080E0F3CF8091BD028111C2CFA6
:1045500008958091BE02813AD9F78091C20290916C
:10456000C302892BA9F78091E800877F8093E80038
:104570008091E80080FFFCCF809118018093F100CA
:104580008091E8008E77BDCF8091BE02813201F725
:104590008091C2029091C302892BD1F68091E800EC
:1045A000877F8093E8000E9455258091C002809308
:1045B00018010C94C70A8091BE02813249F680919D
:1045C000E800877F8093E8000E9455258091C10212
:1045D0008093A20208958091BE02813A09F0B8CF7B
:1045E0008091E800877F8093E8008091E80080FF59
:1045F000FCCF8091A202C2CF9FB7F894109298028C
:104600009FBF9091BD02943009F048C02091E9000D
:104610002F703091EC00932F917030FD90E8922B29
:1046200023E02093E9002091EB0020FF34C020918B
:10463000EE0027FF30C020919302222321F0209129
:10464000E80025FF28C01092930226E03091E80090
:1046500035FF14C08093F1008091E80085FD27C0EC
:104660008091E80080FFFCCF8091E8008E778093F6
:10467000E8009F709093E90080E008953091BD02BA
:10468000343049F43091EB0035FD05C0215041F440
:1046900081E0809393029F709093E9008FEF0895DB
:1046A000EFE9FFE03197F1F700C00000CFCF8FB7FF
:1046B000F89421E0209398028FBFDBCF84B7877FE7
:1046C00084BF0FB6F894A8958091600088618093AC
:1046D0006000109260000FBE80E890E00FB6F89482
:1046E00080936100909361000FBE0C9444200E945F
:1046F000A5250E940226E2EEF0E08081846080839E
:1047000078940C948A288CE091E00C94421F80915C
:10471000BD028530C9F483EF98E00E949605809130
:10472000BD02853011F00C9489200E9447208091B1
:10473000BB028823A1F30E947420882381F30E9486
:10474000FF230E94C70AEBCF089508950C94A82375
:10475000292F33272330310521F168F42130310529
:1047600009F443C02230310509F444C090E080E0F0
:1047700030E020E026C02132310551F122323105EE
:10478000A9F76330710590F7FB01EE0FFF1FE751AA
:10479000FE4F208131816A517E4FFB01808190E084
:1047A00010C099278130910581F0009729F0029778
:1047B000E9F6EBE0F9E002C0E3E3F9E0849190E090
:1047C0009F01FA01318320830895E3E2F9E0F6CFF7
:1047D0006330710558F6660F771FFB01E151FE4FFC
:1047E0002081318189E090E0ECCF82E190E022E904
:1047F00039E0E7CF8BE590E027E339E0E2CF80E1D5
:1048000089BD82E189BD09B400FEFDCF8091D80049
:104810008F7D8093D8008091E00082608093E000DB
:104820008091E00081FDFCCF0895AF92BF92CF92BE
:10483000DF92FF920F931F93CF93DF936C01EB01F5
:104840008A010E947425F82E811123C001151105DB
:1048500039F0F80180819181C81BD90BC80ED91E8F
:10486000B12CA12C2097A9F08091E80085FD22C0F1
:104870008091E8008E778093E80001151105A1F082
:10488000F80180819181A80EB91EB182A08285E0D5
:10489000F82E8F2DDF91CF911F910F91FF90DF9018
:1048A000CF90BF90AF9008950E9474258823D1F2D5
:1048B000F82EEFCFF60181916F018093F1002197DF
:1048C000FFEFAF1ABF0ACECFFC018091C4029091D6
:1048D000C50286179707A0F06115710529F490911C
:1048E000E8009E779093E80090E06115710551F41F
:1048F000911108C08091E80082FF34C080E00895E3
:10490000BC01F2CF8091BD028823C1F18530C1F195
:104910008091E80083FD30C08091E80082FDEACFFD
:104920008091E80080FFE1CF8091F3002091F200B8
:10493000382F6115710519F02830310558F091E0D4
:104940002830310509F090E02091E8002E7720937F
:10495000E800CBCF81918093F100615071092F5F06
:104960003F4FE7CF8091BD02882341F0853041F071
:104970008091E80083FFBECF81E0089582E0089532
:1049800083E00895FC018091C4029091C5028617CE
:104990009707A0F06115710529F48091E8008E77E2
:1049A0008093E80090E06115710551F4911108C001
:1049B0008091E80082FF35C080E00895BC01F2CF0D
:1049C0008091BD028823C9F18530C9F18091E8004A
:1049D00083FD31C08091E80082FDEACF8091E8003C
:1049E00080FFE1CF8091F3002091F200382F611514
:1049F000710519F02830310558F091E02830310563
:104A000009F090E08091E8008E778093E800CBCFAA
:104A100084918093F1003196615071092F5F3F4F6F
:104A2000E6CF8091BD02882341F0853041F080912E
:104A3000E80083FFBDCF81E0089582E0089583E020
:104A40000895982F973028F08F708093E90081E0C7
:104A500008959093E900242F762F50E0981731F0B5
:104A60007091EC002091ED005091F00021FD02C00A
:104A70009F5FE8CF3091EB003E7F3093EB003091A9
:104A8000ED003D7F3093ED003091EB0031603093CD
:104A9000EB007093EC002093ED005093F000209118
:104AA000EE0027FDE5CF80E008958091BE0287FFEC
:104AB00013C08091E80082FF06C08091E8008B77E8
:104AC0008093E80004C08091BD028111F2CF089567
:104AD0008091BD028823D9F38091E80080FFF8CF50
:104AE0008091E8008E77ECCF2091E4003091E500D2
:104AF00095E6A9012091EC00822F817020FF06C06D
:104B00008091E80080FF06C080E008952091E800D1
:104B100022FD1AC08091BD02882389F0853089F07A
:104B20008091EB0085FD0FC02091E4003091E500FD
:104B300042175307F9F29150E1F684E0089582E0BC
:104B4000089583E0089581E008950E9413260E944D
:104B50001B26E0EEF0E0808181608083E8EDF0E0EC
:104B600080818F77808319BCA7EDB0E08C918E7F18
:104B70008C9380818F7E80831092BC0208950F9366
:104B80001F93CF93DF930E9413260E941B26C8ED2C
:104B9000D0E088818F778883888180688883888146
:104BA0008F7D888319BC1092BD021092B9021092B9
:104BB000BB021092BA0200EE10E0F80180818B7FF8
:104BC000808388818160888342E060E080E00E9489
:104BD0002125E1EEF0E080818E7F8083E2EEF0E03F
:104BE000808181608083808188608083F8018081FA
:104BF0008E7F8083888180618883DF91CF911F9130
:104C00000F910895E8EDF0E080818F7E8083E7EDDD
:104C1000F0E080818160808384E082BF81E08093C6
:104C2000BC020C94BF25E8EDF0E080818E7F80838C
:104C30001092E20008951092DA001092E1000895B7
:104C40001F920F920FB60F9211242F933F934F9301
:104C50005F936F937F938F939F93AF93BF93EF93E4
:104C6000FF938091E10082FF0BC08091E20082FF00
:104C700007C08091E1008B7F8093E1000E94EA21D0
:104C80008091DA0080FF19C08091D80080FF15C0A4
:104C90008091DA008E7F8093DA008091D90080FFC6
:104CA00096C080E189BD82E189BD09B400FEFDCFD7
:104CB00081E08093BD020E94B1218091E10080FFDC
:104CC00019C08091E20080FF15C08091E2008E7FC4
:104CD0008093E2008091E20080618093E200809105
:104CE000D80080628093D80019BC85E08093BD0213
:104CF0000E94D0218091E10084FF2BC08091E200CE
:104D000084FF27C080E189BD82E189BD89B5982FE4
:104D1000917080FFFBCF8091D8008F7D8093D80069
:104D20008091E1008F7E8093E1008091E2008F7E90
:104D30008093E2008091E20081608093E2008091A4
:104D4000B902882309F449C084E08093BD020E941F
:104D5000DC218091E10083FF29C08091E20083FF84
:104D600025C08091E100877F8093E10082E08093FD
:104D7000BD021092B9028091E1008E7F8093E10024
:104D80008091E2008E7F8093E2008091E20080615A
:104D90008093E20042E060E080E00E942125809163
:104DA000F00088608093F0000E94CA21FF91EF918B
:104DB000BF91AF919F918F917F916F915F914F9133
:104DC0003F912F910F900FBE0F901F90189519BC17
:104DD0001092BD020E94C32170CF8091E30087FD35
:104DE00093E09093BD02B3CF1F920F920FB60F9234
:104DF00011242F933F934F935F936F937F938F93E0
:104E00009F93AF93BF93CF93DF93EF93FF93D09193
:104E1000E900DF708091EC00C82FC17080FDC0E810
:104E20001092E9008091F000877F8093F0007894E1
:104E30000E9438271092E9008091F00088608093EA
:104E4000F000CD2BCF70C093E900FF91EF91DF917F
:104E5000CF91BF91AF919F918F917F916F915F9112
:104E60004F913F912F910F900FBE0F901F9018956B
:104E70001F93CF93DF93CDB7DEB7AA970FB6F89401
:104E8000DEBF0FBECDBF8EEB92E02091F100FC01A2
:104E90002193CF01F2E0863C9F07B9F70E9444229C
:104EA0008091E80083FF1EC18091BE029091BF02F5
:104EB0009A3008F017C1E92FF0E0E25BF64D0C9450
:104EC000C528803899F0823809F00CC18091C2025F
:104ED0008F70873008F006C18093E9008091EB0065
:104EE00085FB882780F91092E90006C08091BA02FC
:104EF0009091BB02911182609091E800977F90930E
:104F0000E8008093F1001092F1008091E8008E7724
:104F1000E5C0882309F4D3C0823009F0E3C0809152
:104F2000C0028111D6C08091C2028F702FEF280F6E
:104F3000263008F0D7C08093E9002091EB0020FFD5
:104F4000C8C0933031F48091EB0080628093EB0015
:104F5000C0C09091EB0090619093EB0021E030E0B5
:104F600001C0220F8A95EAF72093EA001092EA0026
:104F70008091EB008860EACF8111B4C01091C0022B
:104F80001F778091E3008078812B8093E3008091EC
:104F9000E800877F8093E8000E9455258091E80013
:104FA00080FFFCCF8091E30080688093E30082E083
:104FB000111183E08093BD0295C08058823008F0C3
:104FC00091C08091C0029091C1028C3D23E0920774
:104FD000A1F583E08A838AE289834FB7F894DE01E2
:104FE000139620E03EE051E2E32FF0E050935700AB
:104FF000E49120FF03C0E295EF703F5FEF708E2FCA
:1050000090E0EA30C0F0C7968D939D932F5F2431D6
:1050100059F74FBF8091E800877F8093E8006AE2EC
:1050200070E0CE0101960E9464248091E8008B77A5
:105030008093E80057C0C096E7CF6091C20270919C
:10504000C302AE014F5F5F4F0E94A623BC01892BB4
:1050500009F448C09091E800977F9093E800898117
:105060009A810E94C224E1CF8038E1F58091E80066
:10507000877F8093E8008091B9028093F10045CF4B
:10508000811130C09091C002923060F58091E800AB
:10509000877F8093E8009093B9020E945525809104
:1050A000B902882311F084E005C08091E30087FDF8
:1050B000FACF81E08093BD020E942B2213C0809121
:1050C000C002813079F481E0933009F080E0809370
:1050D000BB021092E9008091E800877F8093E8008E
:1050E0000E9455258091E80083FF0AC08091E80066
:1050F000877F8093E8008091EB0080628093EB00D3
:10510000AA960FB6F894DEBF0FBECDBFDF91CF9148
:105110001F910895CF938091BD028823A1F0C09183
:10512000E900CF709091EC00892F817090FD80E8AC
:10513000C82B1092E9008091E80083FD0E94382777
:10514000CF70C093E900CF910895991B79E004C016
:10515000991F961708F0961B881F7A95C9F78095B6
:10516000089597FB072E16F4009407D077FD09D019
:105170000E94CB2807FC05D03EF4909581959F4F67
:105180000895709561957F4F0895EE0FFF1F05906C
:10519000F491E02D0994AA1BBB1B51E107C0AA1F83
:1051A000BB1FA617B70710F0A61BB70B881F991FC8
:1051B0005A95A9F780959095BC01CD010895FB0102
:1051C000DC0104C08D910190801921F441505040C0
:1051D000C8F7881B990B0895F999FECF92BD81BD40
:1051E000F89A992780B50895A8E1B0E042E050E030
:1051F0000C942029262FF999FECF92BD81BDF89AF3
:10520000019700B4021639F01FBA20BD0FB6F8940A
:10521000FA9AF99A0FBE08950396272F0E94FB2849
:105220000E94FA28252F0E94FB28242F0C94FB288B
:105230000196272F0E94FB280C94FA28DC01CB0151
:10524000FC01F999FECF06C0F2BDE1BDF89A319696
:1052500000B40D9241505040B8F70895F894FFCF34
:1052600076087608A708A7083A095609D608D60886
:105270006109ED09FC09FC09540AD608D6085D0A43
:10528000D60AD60ADF0ADF0AE10ADF0ADF0ADF0AE6
:10529000D60AD60AE60ADF0ADF0AE60A6127892764
:1052A000722889277228BC27DD27722834284028D5
:1052B000C80054022808641E140A321E2C215121F1
:1052C0003021AD21A9212F2101E200E900EA00B53A
:1052D00000B600B700CD008301CC008A0192019492
:1052E000012102230224022502260227022A02B3F8
:1052F00000B4006F007000818283E200E900EA00E0
:10530000B500B600B700CD008301CC008A01920140
:1053100094012102230224022502260227022A02E6
:10532000B300B4006F007000818283F0F16795379D
:105330003534C69766F7F6F5F43F3F3F006D6B5F77
:1053400064656C6179006D6B5F696E74657276611E
:105350006C006D6B5F6D61785F7370656564006D87
:105360006B5F74696D655F746F5F6D6178006D6B05
:105370005F776865656C5F6D61785F7370656564A4
:10538000006D6B5F776865656C5F74696D655F74F0
:105390006F5F6D617800407B22410AC609A409490C
:0653A0000962097B09000F
:00000001FF
