:100000000C946A040C94B1040C94B1040C94B104E3
:100010000C94B1040C94B1040C94B1040C94B1048C
:100020000C94B1040C94B1040C9477210C943321FA
:100030000C9471220C94B1040C94B1040C94B1048E
:100040000C94B1040C94B1040C94B1040C94B1045C
:100050000C94B1040C944D220C94B1040C94B10492
:100060000C94B1040C94B1040C94B1040C94B1043C
:100070000C94B1040C94B1040C94B1040C94B1042C
:100080000C94B1040C94B1040C94B1040C94B1041C
:100090000C94B1040C94B1040C94B1040C94B1040C
:1000A0000C94B1040C94B1040C94B10405010980C2
:1000B000A101850319012AB700150126B700950192
:1000C00075108100C0050C0901A101850419012AE0
:1000D000A002150126A002950175108100C005013E
:1000E0000906A1018505050719E029E71500250185
:1000F0009508750181020507190029EF15002501F2
:1001000095F075018102050819012905950575010C
:100110009102950175039101C00660FF0961A1017B
:100120000962150026FF00952075088102096315F4
:100130000026FF00952075089102C005010906A15F
:1001400001050719E029E7150025019508750181CA
:10015000029501750881010507190029FF15002680
:10016000FF00950675088100050819012905950508
:1001700075019102950175039101C0000000000016
:10018000000000000000000000000000000000006F
:100190000000000000000000000000000000007EE1
:1001A0000F00D4FFFFFFC700000078000000000030
:1001B0000000002A2B2800000000000000000000C2
:1001C00000000000000029000000002C1E34202147
:1001D0002224342627252E362D3738271E1F20218E
:1001E00022232425263333362E37381F04050607ED
:1001F00008090A0B0C0D0E0F101112131415161707
:1002000018191A1B1C1D2F3130232D350405060724
:1002100008090A0B0C0D0E0F1011121314151617E6
:1002200018191A1B1C1D2F3130354CFD377A585ABE
:10023000000004E6D6B44602002101160000007456
:100240002FE5A3E0081502815D003D8889C654367C
:10025000C3174FE4DB9B3F94C5B67610F8CB0C7107
:10026000F5D0B655422BBDAF737595E2790DAF5FF2
:1002700075D4FCD7C80C495BF0B0A3567B210C1396
:1002800021F44604AF3D64145F6DE252E3F89FAC85
:100290000BDEFB25A1AECF69FC293116BB4FDBDBA2
:1002A000C580CF5A899C95F19BB536A8205BF18615
:1002B00073C120BFBBEC7557D2A8DD598FF193C233
:1002C0002847AC2597AE4755F1B67ADA343F3B1153
:1002D000A74BBF0F624F4FA66E24A6CFFC970F13FC
:1002E000F2BA711AA08782ADAD95AC5A69C987B6CA
:1002F000DE1EAA36EDD46521AAEE84ADA0BC5584DD
:10030000C5EC6879EBB274C3A3B83FAF3C69BEECEF
:100310000029B5D328206E50C5D8C1FCD671817490
:10032000F2C6F7C6A427DBECC046829DCD4CA0C226
:10033000EE23339095362FA62FBD82A0B88C12C91C
:10034000200FECC32AFE7F826A401294BA3FFAC69D
:1003500096E9673F31E4337E84B503A2A2A8D20CAC
:100360002116F22D2E8BEBED22C89CF05B724CFF18
:100370000F474F97B103780E55AFB0B7E84A22DE6A
:100380003CF80DE3FB1E41A21B5DD52A45AEA7A29A
:100390009D49EB7AA37E024EB0A30777A3A6A3687C
:1003A000587B94379B8A160988C58E733D4B7F73A3
:1003B00043CF6278F632AA1E5FCD34744B61238F2F
:1003C0006662815C5B2416186F452D9AAA25EB6541
:1003D000A748CAEB6FEF3C6F0E50329E573830EA99
:1003E0006CC17F3A62C41B10882E34D2A9CE2D7303
:1003F000167C675D87C2DDB89BCF2E1CB2471013F9
:10040000ABDF5103C3C3F450C562D2216710C88962
:100410000C7B12C209A8470E2B5EE3D7664A65A97A
:100420004D43C5A1A3E78B7BCF575139C08C1196A3
:10043000E9155E6A1C2751030AC39E6C78D34D6E82
:1004400061AD730FD62D871422B643DB721D1538AC
:10045000AA1E0BAF7C3E4BFB06694CD792708AA854
:1004600092302103B0CE5E81457CE13D2284D612DC
:100470000E946CDC3C4498DA4A58977A70DBAC678F
:100480006AD3106238A738B9F8AC02207594870097
:10049000DEDF3101107C9BF473F638F84747F52D09
:1004A00006FA53262E09AF76353AE80691D9FDA70C
:1004B00076D9CC2EA50E8E7EF9895108887C485EAF
:1004C00037363E0B7B082B17FE0700000000008725
:1004D000A79BEFB60AE6B000019D05961000003814
:1004E00043402EB1C467FB020000000004595AAA21
:1004F00000A9004E004B0029003A003B003C003DA3
:10050000003E003F004000410042004300440045DF
:1005100000A8004C0035001E001F00200021002212
:1005200000230024002500260027002D002E003186
:10053000002A002B0014001A000800150017001CE8
:100540000018000C00120013002F0030002A004B8E
:1005500000390004001600070009000A000B000D16
:10056000000E000F0033003400280000004E00E1B0
:10057000001D001B000600190005001100100036C8
:100580000037003800E500000052004D00E0000098
:1005900000E20000002C00015105002C000000E6E4
:1005A0000000000000500051004F00005C6800692E
:1005B000006A006B006C006D006E006F00700071CF
:1005C00000720073004600A90001003A003B003CA5
:1005D000003D003E003F0040004100420043004417
:1005E0000045000100490001000100010001000177
:1005F0000001004A004E004B004D000100010001C7
:10060000004C00C05CE3000100010001000100019A
:10061000005000510052004F0001000100AE0000E8
:1006200000A800010001000100010001000100011B
:1006300000010001000100010001000000AE00AA5D
:1006400000010000000100000001000100010001A4
:10065000000000010000000000AC00AD00AB000194
:100660000001000100010001000100010001000182
:100670000001000100010001000100010001000172
:100680000001000100010001000100010001000162
:100690000001000100010001000100010001000152
:1006A0000001000100010001000100010001000142
:1006B0000001000100010001000100010001000132
:1006C0000001000100010001000100010001000122
:1006D0000001000000010001000100010001000113
:1006E0000001000100010001000100010001000003
:1006F00000010001000100000001000000010001F4
:1007000000010001000000010000000000010001E4
:1007100000010001000100010001000100010001D1
:1007200000010001000100010001000100010001C1
:1007300000010001000100010001000100010001B1
:1007400000010001000100010001000100010001A1
:100750000001000100010001000100010001000191
:100760000001000100010001000100010001000181
:100770000001000100010001000100010001000171
:100780000001000100010000000100010001000162
:100790000001000100010001000100010001000151
:1007A0000001000000010001000100000001000044
:1007B0000001000100010001000000010000000034
:1007C00000010001000100010001005C02000002C4
:1007D00000020058020000030001005D0200000456
:1007E00000020042028106050001005E02000006D0
:1007F00000020044020000070002005A0200000844
:100800000001005F020000120002006002000013FD
:100810000002006202000009025B00030100A0FA6E
:100820000904000001030101000921110100012256
:1008300040000705810308000A09040100020300C3
:100840000000092111010001222200070582032076
:100850000001070503032000010904020001030051
:100860000000092111010001226D00070584032009
:10087000000A12010002000000089EDC97AD020091
:10088000010203011C037600690061006C003A005C
:1008900066003600340063003200620033006300FB
:1008A00000001A036100640065006C0068006500C8
:1008B0006900640070006C00750073000000100394
:1008C000640063007000650064006900740000004B
:1008D0000403090411241FBECFEFDAE0DEBFCDBF51
:1008E00004B603FE27C08091A9029091AA02A091AC
:1008F000AB02B091AC028730904BA740B04BD1F423
:100900001092A9021092AA021092AB021092AC02AD
:1009100014BE84B7877F84BF0FB6F894A8958091E2
:100920006000886180936000109260000FBEE0E07C
:10093000F8E3099511E0A0E0B1E0EAE8F2E502C0D1
:1009400005900D92A038B107D9F722E0A0E8B1E0F8
:1009500001C01D92A93AB207E1F70E9498220C94B7
:10096000BD280C940000E8EDF0E080818E7F80834C
:100970001092E2001092DA001092E100A0EEB0E0D6
:100980008C9181608C9380818F77808319BCA7EDD7
:10099000B0E08C918E7F8C9380818F7E80831092CB
:1009A000780208952091E4003091E50095E6A901D0
:1009B0002091EC00822F817020FF06C08091E8001A
:1009C00080FF06C080E008952091E80022FD1AC053
:1009D00080919D02882389F0853089F08091EB0019
:1009E00085FD0FC02091E4003091E50042175307C8
:1009F000F9F29150E1F684E0089582E0089583E0F1
:100A0000089581E00895EF92FF920F931F93CF9383
:100A10007C018B010E94D204C82F811117C08091E4
:100A2000E80085FD0BC08091E8008E778093E80098
:100A30000E94D204882399F3C82F08C0F70181913E
:100A40007F018093F1000150110949F78C2FCF915C
:100A50001F910F91FF90EF90089580919F0287FF63
:100A600013C08091E80082FF06C08091E8008B7778
:100A70008093E80004C080919D028111F2CF089517
:100A800080919D028823D9F38091E80080FFF8CF00
:100A90008091E8008E77ECCF982F9093E900242F77
:100AA000762F50E0891731F07091EC002091ED0025
:100AB0005091F00021FD07C09F5F973071F7809340
:100AC000E90081E008953091EB003E7F3093EB0028
:100AD0003091ED003D7F3093ED003091EB003160BF
:100AE0003093EB007093EC002093ED005093F000F6
:100AF0002091EE0027FDE0CF80E00895CF92DF92B5
:100B0000EF92FF920F931F93CF93DF93C8EDD0E046
:100B100088818F7E8883E7EDF0E08081816080832B
:100B200084E082BF81E08093780288818E7F888311
:100B300002EE10E0F80110821092DA0081EEC82E69
:100B4000D12CF601108288818F7788838881806814
:100B5000888388818F7D888319BC10929D021092B2
:100B60009E0210929C0210929B0290EEE92EF12CB4
:100B7000F70180818B7F808388818160888342E058
:100B800060E080E00E944C05F60180818E7F8083CA
:100B9000F801808181608083808188608083F70193
:100BA00080818E7F8083888180618883DF91CF916F
:100BB0001F910F91FF90EF90DF90CF900895FC016F
:100BC000CB012091A5023091A6022617370790F09D
:100BD000009729F42091E8002E772093E80040E068
:100BE000009751F4411108C08091E80082FF31C0A4
:100BF00080E00895C901F3CF20919D022223A9F13D
:100C00002530A9F12091E80023FD2DC02091E800B6
:100C100022FDEACF2091E80020FFE2CF3091F300DF
:100C20002091F200009719F02830310558F041E08A
:100C30002830310509F040E02091E8002E7720931C
:100C4000E800CECF41914093F10001972F5F3F4FD5
:100C5000E9CF80919D02882341F0853041F0809159
:100C6000E80083FFC1CF81E0089582E0089583E02A
:100C70000895089580917A0208952FB7F89480918D
:100C80006F0290917002A0917102B09172022FBF19
:100C9000089520916C0230916D022817390771F088
:100CA00090936D0280936C02E0916A02F0916B0266
:100CB000309721F00084F185E02D0994089520916A
:100CC0006802309169022817390771F09093690220
:100CD00080936802E0916A02F0916B02309721F0F4
:100CE0000680F781E02D09940895E0916A02F09161
:100CF0006B02309721F00190F081E02D099480E0A3
:100D00000895809142029091430290930D01809347
:100D10000C010895CF93DF93CDB7DEB728970FB6B8
:100D2000F894DEBF0FBECDBF843050F5811129C0CD
:100D3000909190009F77909390004698282F30E0F4
:100D4000AFEFBFEF0E943B2823E030E040E050E0EF
:100D50000E940C28C9012C3764E13607C0F469E011
:100D600070E00E94E42770939900609398002896A1
:100D70000FB6F894DEBF0FBECDBFDF91CF910895BF
:100D800083E090919000906890939000D7CF2A5084
:100D9000374D4F4F5F4FB42FA32F922F8827BC01A1
:100DA000CD0125EF38E241E050E00E940C28298374
:100DB0003A834B835C83CA01B9010E94D4279B010B
:100DC000AC0169817A818B819C810E94D427BB27E9
:100DD000A92F982F872FBC010097A140B10519F6C4
:100DE0006FEF7FEFC0CF282F220F220F220F90919D
:100DF00039029770922B90933902987F21E009F481
:100E000020E09091390220FB90F9909339020C94E4
:100E10008A0680E00895F894E82FE295EF70F0E0FC
:100E200041A18F7021E030E0B90102C0660F771F49
:100E30008A95E2F7CB01962F9095942391A392A1E6
:100E4000892B82A3789408959091730292FF06C033
:100E5000282F28712830F9F4877F846093FF06C01B
:100E6000282F28712831F1F4877E84612091740243
:100E700020FF06C0382F38713830D9F4877F816061
:100E800021FF06C0282F28712831D1F4877E816187
:100E900094FD877E0895282F24712430F9F68B7FE6
:100EA0008860DCCF282F2471243101F78B7E886184
:100EB000DDCF382F3171313019F78E7F8860E0CF68
:100EC000282F2171213121F78E7E8861E1CFCF93C8
:100ED000DF93EC01803E910509F460C050F5813349
:100EE000910509F4A6C090F48932910509F49AC0DD
:100EF0008A9709F4A5C0C130D10509F462C0CE01BA
:100F00000497813A910508F45CC054C08933910577
:100F1000F1F182389105D9F1C59709F47CC0C83A3E
:100F2000D10508F094C0C53AD10528F3A497D06440
:100F300048C0843E910509F453C068F4823E91058F
:100F4000E1F1833E910509F440C0CE01805E910934
:100F5000089780F536C0863E910509F44CC0873E5F
:100F6000910509F44DC0811523E5920708F095C05D
:100F7000811532E5930708F0FDC0811540E2940722
:100F800008F074C08F3F910551F248F21AC0809169
:100F900073028370B1F0C0EED0E013C08091730291
:100FA00080FD10C19091740290FF0BC0C3EED0E0A1
:100FB00084FF07C0D0E0C0E004C08091730282FDCE
:100FC000F5CFCE01DF91CF9108958091730282FD1C
:100FD000FCC09091740290FDDECF84FFF2CFEACF87
:100FE0008091740281FFEDCF80917302C7EED0E053
:100FF00084FDE0CFE6CF8091730283FDF7CFE1CF90
:101000008091730283FDE4C09091740291FFE5CF5B
:10101000C4EED0E0D6CF8091730285FFD2CFC9E273
:10102000D0E0CFCF8091730285FFCBCFC5E3D0E076
:10103000C8CF8091730286FFC4CFCAE2D0E0C1CF8F
:101040008091730286FFBDCFC1E3D0E0BACFCF3B22
:10105000D10508F07ACFC85AD0E0CC0FDD1FC35EAF
:10106000DE4F0990D881C02DD464ABCFC11581E586
:10107000D80770F4C11590E5D90708F05EC0CE011D
:1010800090548115904108F095CFDF70D06A99CFC8
:10109000DC2FCC27C16FD06A94CF811539E5930737
:1010A000A0F5811548E5940708F079C0C11585E5DC
:1010B000D807C8F4C11594E5D90708F06BC0CE0174
:1010C0008370992721E030E002C0220F331F8A95F8
:1010D000E2F7C695C69540E2C49FE0011124C22BF9
:1010E000D32BDA686ECFCE0195558F3F910511F065
:1010F00008F060CF8C2F0E942407C82FD0E0DC2F8F
:10110000CC27CC27DF71D0625CCFC1158AE5D80728
:1011100008F44AC0CE0190568115904208F04ACF9B
:101120008D2F8F710E94240790E0982F88278827A1
:101130009F719C012C2BE901E6CFCE0174E09695BE
:1011400087957A95E1F783702C2F26952695237045
:1011500040E2249F90011124382B8C2F8370C1E032
:10116000D0E002C0CC0FDD1F8A95E2F7C22BD32B53
:10117000DC6827CF8370992721E030E002C0220F7E
:10118000331F8A95E2F7C695C69580E2C89FE001B5
:101190001124ECCFDC2FCC27C46FD06A12CFD82F0C
:1011A000CC27C06FD06A0DCF8C2F8F700E94240780
:1011B00034E0D695C7953A95E1F7CF70DC2FC82F6C
:1011C000D069FFCEC9E3D0E0FCCEC2EED0E0F9CECC
:1011D000C6EED0E0F6CE80910902882331F010925D
:1011E000090210920802109207020895982F909514
:1011F000809141028923809341020895982F909510
:1012000080910602892380930602089510920402B9
:10121000109203021092020208958091440290916C
:101220004502892B91F00E943D06209107023091E2
:101230000802AC01421B530B9A0181E04091440229
:10124000509145022417350708F480E08170089515
:101250008091060290914102892B90910502892B81
:101260008093820180910902882319F180914402C0
:1012700090914502892B29F00E940D0981110E944D
:10128000EB088091820190910902892B8093820161
:1012900080910F01882341F18091730287FF24C060
:1012A0008EE1E4E8F1E090E0815000F591110E94B8
:1012B000EB08E0916A02F0916B023097E1F08091C7
:1012C0000F01882359F08091730287FF07C0809136
:1012D00082018093830185E0809382010280F38103
:1012E000E02D82E891E0099486E0DBCF2191222372
:1012F000D9F29F5FD9CF0895809101028111109298
:101300000102089590910F019923E1F090917302E9
:1013100097FF18C0E82FE695E695E695803FF0F434
:10132000F0E0EE57FE4F877021E030E0A90102C0E7
:10133000440F551F8A95E2F7CA018095928189234F
:1013400082830895E4E8F1E09191891303C0DF01FD
:1013500011971C9251E0EA38F507B1F70895909182
:101360000F019923C1F09091730297FF14C0E82FE9
:10137000E695E695E695803FF8F4F0E0EE57FE4FEF
:10138000877021E030E001C0220F8A95EAF7828160
:10139000822B82830895A4E8B1E0EFEF90E02D91D5
:1013A000821751F0EF3F19F4211101C0E92F9F5F1F
:1013B0009630A9F7EF3F09F408950E2E000CFF0BAD
:1013C000EE57FE4FE6CFE09100029091CF0156E03C
:1013D000E91302C080E008952E2F30E05E9FF001F7
:1013E0001124E053FE4F7181761306C0708178138B
:1013F00003C07281741304C0F9013196E770E8CF1D
:1014000081E00895452B39F0682381E06F3F09F0B2
:1014100080E08170089581E0FCCF8091000290917E
:10142000CF01981301C008958F5F8770FACFE82F1E
:101430009E3F41F18FE0989FE00D11249E2F977001
:10144000E695E695E69583E0E89FF0011124EB55DB
:10145000FE4F50E040E080E0219130E0092E02C0D4
:10146000369527950A94E2F721703327042E01C0A0
:10147000220F0A94EAF7822B4F5F5F4F43305105EA
:1014800059F7089580E00895E82F9E3F61F18FE0BD
:10149000989FE00D11248E2F877041E001C0440F0A
:1014A0008A95EAF7E695E695E69583E0E89FF001F0
:1014B0001124EB55FE4F30E020E070E05191DF0148
:1014C0001197CB01022E02C0969587950A94E2F7F8
:1014D000817081958527842385278C932F5F3F4FCB
:1014E0002330310559F70895282F892F82958F7061
:1014F000903C80F48A30B0F4843020F4823090F450
:1015000080E008958630E1F781E0283E88F0213FB1
:10151000B9F70EC08C3011F08F3091F793FB88270C
:1015200080F9089581E0203F39F018F4283E40F713
:101530000895243F29F7FCCF089590E080E00E94B1
:101540005F0690E080E00E944906109241021092EE
:1015500005020C9428098093A8020C949D0A80919E
:10156000A802982F9670963019F488600C94AB0AF4
:10157000877FFCCF21E030E001C0220F8A95EAF797
:1015800020958091A80282230C94AB0A90910402CA
:101590008095892380930402282F277039F4282FFF
:1015A000082E000C330B9217130621F4909174024D
:1015B00092FF07C08595859585950E94BA0A0C947F
:1015C0000609089521E030E001C0220F8A95EAF76C
:1015D0008091A802822B0C94AB0A9091740292FD28
:1015E00010C098E0899F90011124622B609304023F
:1015F0000E94E20A0E943D06909303028093020239
:1016000008950C94E20A8093A7020C949D0A882303
:1016100021F00E94F6080C9428090895882339F0D7
:1016200090914102892B809341020C9428090895DE
:10163000882321F00E94FE080C942809089588232D
:1016400039F090910602892B809306020C942809A8
:101650000895882309F44BC0823871F40E947506FE
:1016600081FF45C089E30E94AF090E94280989E3F0
:101670000E9482090C942809833859F40E94750647
:1016800080FF35C083E50E94AF090E94280983E5E9
:10169000EFCF843859F40E94750682FF28C087E492
:1016A0000E94AF090E94280987E4E2CF9CEF980FBF
:1016B000913AF0F290E2980F983050F4877091E0F0
:1016C00001C0990F8A95EAF7892F0E94FE08D2CFB0
:1016D0009BE5980F933020F490E080E00C945F0637
:1016E000885A873120F490E080E00C9449060895F0
:1016F0009C019A9581159F4150F5D901AA27B17097
:10170000F901EE27F270B90166277470A901442728
:10171000587034FF0EC080E1AB2B09F480E0EF2B52
:1017200009F08062672B09F08064452B89F080689E
:10173000089581E0AB2B09F480E0EF2B09F0826083
:10174000672B09F08460452B19F08860089580E0CC
:10175000089590919D02943029F5809375026093CD
:101760007602709377029093E9008FEF9091E800F2
:10177000815095FD06C095ED9A95F1F70000811115
:10178000F5CF8091E80085FF0DC050E040E063E0B8
:1017900070E085E792E00E9403058091E8008E7773
:1017A0008093E8000895BC0184E00C94A90BBC016F
:1017B00083E00C94A90BCF93DF93D82FC92F80918E
:1017C0000F018823C1F18091730287FF34C060E26A
:1017D00084E08093E9008FEF9091E800815095FDBF
:1017E00006C095ED9A95F1F700008111F5CF809133
:1017F000E80085FF1DC080910F0170E050E040E0DF
:10180000811104C050E040E068E070E08D2F9C2F13
:101810000E9403058091E8008E778093E80080E2C3
:10182000ED2FFC2FABE7B2E001900D928A95E1F726
:10183000DF91CF91089568E081E0CBCF81E0809384
:10184000E00080E28093D8001092C9008FE19EE40E
:101850000197F1F700C0000087E090EBDC01809376
:10186000A9029093AA02A093AB02B093AC0288E1C4
:101870009CE00FB6F894A895809360000FBE9093FB
:101880006000FFCF9C012150310908F408958FE9D1
:101890009FE00197F1F700C00000F5CF0F931F9371
:1018A000CF93DF9302E412E0C7E9D1E0CE010E94BA
:1018B0007B28F80181938F012196C93BF1E0DF0776
:1018C000A9F7CDECD7E0FE0185919491009711F036
:1018D000FC0109952896F8E0CD31DF07A1F7DF91EB
:1018E000CF911F910F9108950F931F93CF93DF9383
:1018F000823008F561111FC024E0829FE0011124AD
:10190000842F90E0880F991FC80FD91FC157DE4F51
:10191000CE010E947B28082F10E0102F0027CE0157
:1019200001960E947B289801282BC901DF91CF9155
:101930001F910F91089590E080E0F8CF0F931F93CF
:10194000CF93DF93823030F5663020F54F3010F5BD
:10195000C42FD0E0CC0FDD1F2EE1629FC00DD11D42
:10196000112434EB839FC00DD11D1124CE01879625
:101970000E947B28082F10E0102F0027CE018896A8
:101980000E947B289801282BC901DF91CF911F91DC
:101990000F91089590E080E0F8CF462F672F2091B7
:1019A0003C0230913D02232B89F47E3F39F44E3FB7
:1019B00069F480913A0290913B020895823030F4AC
:1019C000763020F44F3010F40C949E0C90E080E0C0
:1019D0000895DF92EF92FF920F931F93CF93DF93BF
:1019E0007C010091A8028091A702082BC7E0D0E0FB
:1019F00010E0DC2EC8010C2E02C0959587950A9444
:101A0000E2F780FD0CC02197A0F7D12C8D2DDF913E
:101A1000CF911F910F91FF90EF90DF900895B70144
:101A20008C2F0E94CD0C0E946707019761F3EECFC7
:101A3000CF93DF93D82FC92F0E94E90C6D2F7C2FF5
:101A40000E94CD0CDF91CF910C946707FC0180813F
:101A500091810E94180D0C94740A1F93CF93DF9309
:101A600000D000D00F92CDB7DEB749835A83898169
:101A70009A816623B9F02223A9F00E94E90C182F5D
:101A8000682F89819A810E94440A69817A81812F15
:101A90000F900F900F900F900F90DF91CF911F91AB
:101AA0000C94CD0C0E94170A182FEFCFFC01262FA3
:101AB000408151816281738184810C942D0D83E278
:101AC00090E00E947B28893989F484E290E00E94AA
:101AD0007B28813B59F485E290E00E947B2891E0CD
:101AE000893609F090E0892F8170089580E0FCCF5D
:101AF000CF9384E090E00E947B28C82F82E290E0A0
:101B00000E947B28982F8C2FCF9108950F931F93BD
:101B1000CF93DF9302E412E0C7E9D1E0CE010E9447
:101B20007B28F80161918F01681719F0CE010E949E
:101B300089282196C93BF1E0DF0781F7DF91CF913A
:101B40001F910F910895E2E4F2E0128E138E8FEA56
:101B500090E09183808385E0848F88E893E193838C
:101B6000828382E390E0978B868B88EC90E0918F64
:101B7000808F158E8AE090E0978F868F80E590E0C9
:101B800091A380A30E94860D0C944E0CCF93DF93FB
:101B9000C9EBD1E060E0CE010E9489282196C115F1
:101BA00084E0D807B9F7DF91CF9108950F931F9381
:101BB000CF93DF938901823030F5611124C0423028
:101BC00010F521153C4531F420910A0130910B01AB
:101BD000232BC9F094E0899FE0011124842F90E029
:101BE000880F991FC80FD91FC157DE4F612FCE0133
:101BF0000E948928602FCE010196DF91CF911F911D
:101C00000F910C948928DF91CF911F910F91089526
:101C10000F931F93CF93DF938901823048F566308D
:101C200038F54F3028F521153C4531F420910A0153
:101C300030910B01232BE1F0C42FD0E0CC0FDD1F3E
:101C40009EE1699FC00DD11D112494EB899FC00DA9
:101C5000D11D1124612FCE0187960E948928602F03
:101C6000CE018896DF91CF911F910F910C94892816
:101C7000DF91CF911F910F910895CF92DF92EF9254
:101C8000FF920F931F93CF93DF93E0900A01F090A0
:101C90000B0181E090E090930B0180930A0110E02A
:101CA000D12CC12CE601CC0FDD1FC950DB4F00E069
:101CB000FE0125913491402F612F80E00E94080E93
:101CC00022960F5F0F30A1F78FE0C80ED11C1F5F67
:101CD000163041F7EFEEF4E02591349140E060E0FA
:101CE00080E00E94D60DE1EFF4E02591349141E0CF
:101CF00060E080E00E94D60D00E09AE5C92ED12C6C
:101D0000E601CC0FDD1FC950DB4F10E0FE0125912D
:101D10003491412F602F81E00E94080E22961F5FB0
:101D20001F30A1F78FE0C80ED11C0F5F063041F7BE
:101D3000E3EFF4E02591349140E060E081E00E941F
:101D4000D60DE5EFF4E02591349141E060E081E0CB
:101D50000E94D60D0E94A30DF0920B01E0920A01A1
:101D6000DF91CF911F910F91FF90EF90DF90CF9077
:101D70000895CF93C82F6FEF811169E983E290E056
:101D80000E9489286FEFC11161EB84E290E00E940C
:101D900089286FEFC11169E685E290E0CF910C943C
:101DA000892880E00E94B90E60E086E290E00E94FF
:101DB00089280E943D0E0E94C60D81E00C94B90E48
:101DC000682F86E090E00C948928CF93C09174022C
:101DD000C2FB992790F9981781F080FBC2F9C09354
:101DE00074026091730284E090E00E9489286C2F55
:101DF00082E290E0CF910C948928CF9108951092BF
:101E0000060280910F01E4E8F1E0882359F0809107
:101E1000730287FF07C08EE1DF011D928A95E9F703
:101E20000C949D0A86E0F8CF1F93CF93DF93CDB734
:101E3000DEB7AA970FB6F894DEBF0FBECDBF8FE90D
:101E400092E0FC0101962091F100208322E0873A84
:101E50009207B9F78091A002893009F456C0C8F4FE
:101E6000823009F4B2C0833009F481C0813071F14D
:101E70008091E80083FF35C180919F029091A0027C
:101E80009A3008F02EC1E92FF0E0E154F74D0C94A0
:101E90002E288A3009F488C08B3051F780919F0238
:101EA000813231F78091A3029091A402892B01F72E
:101EB0008091E800877F8093E8000E942D05809143
:101EC000A10280930F010E94FF0ED2CF80919F024A
:101ED000813A71F68091E800877F8093E8008091D5
:101EE000A3029091A402892B61F460E28BE792E057
:101EF00070E00E94DF058091E8008B778093E80016
:101F0000B7CF60E090E080E0F3CF80919F02813214
:101F100009F0AECF8091A3029091A4028D7F892B0E
:101F200009F0A6CF8091E800877F8093E800809138
:101F3000E80082FF17C09091F3008091F2000297B1
:101F400029F48091F1008B7F813021F48091F100A0
:101F500080937A028091E8008B778093E8000E945A
:101F60002D0586CF80919D028111E1CF81CF809197
:101F70009F02813A09F07CCF8091A3029091A40244
:101F8000892B09F075CF8091E800877F8093E80066
:101F90008091E80080FFFCCF80910F018093F100D9
:101FA0008091E8008E77D9CF80919F02813209F02D
:101FB0005FCF8091E800877F8093E8000E942D0525
:101FC0008091A2028093790253CF80919F02813A3F
:101FD00009F04ECF8091E800877F8093E8008091E0
:101FE000E80080FFFCCF80917902D8CF803899F04B
:101FF000823809F076C08091A3028F70873008F094
:1020000070C08093E9008091EB0085FB882780F900
:102010001092E90006C080919B0290919C02911160
:1020200082609091E800977F9093E8008093F100A0
:102030001092F1008091E8008E77C1C1882309F4E5
:10204000AEC1823009F04DC08091A1028111B2C1B0
:102050008091A3028F702FEF280F263008F041C027
:102060008093E9002091EB0020FFA4C1933031F46C
:102070008091EB0080628093EB009CC19091EB001B
:1020800090619093EB0021E030E001C0220F8A952F
:10209000EAF72093EA001092EA008091EB00886052
:1020A000EACF81111EC01091A1021F778091E30039
:1020B0008078812B8093E3008091E800877F809374
:1020C000E8000E942D058091E80080FFFCCF809100
:1020D000E30080688093E30082E0111183E0809345
:1020E0009D028091E80083FF0AC08091E800877F0D
:1020F0008093E8008091EB0080628093EB00AA96C9
:102100000FB6F894DEBF0FBECDBFDF91CF911F9108
:1021100008958058823028F74091A1025091A20280
:102120004C3D83E05807A1F583E08A838AE28983E6
:102130004FB7F894DE01139620E03EE051E2E32F22
:10214000F0E050935700E49120FF03C0E295EF7058
:102150003F5FEF708E2F90E0EA30C0F0C7968D930E
:102160009D932F5F243159F74FBF8091E800877FFF
:102170008093E8006AE270E0CE0101960E94DF05DC
:102180008091E8008B778093E800ABCFC096E7CFD3
:102190008091A3029091A402252F3327233031058B
:1021A00009F44AC078F52130310509F486C08BE581
:1021B00090E0E7E1F8E02230310509F092CF20917C
:1021C000E800277F2093E8002091A5023091A60225
:1021D0008217930708F49C0140E02115310509F0AE
:1021E00071C041116FC08091E80082FDC9CF80911C
:1021F0009D02882329F2853019F28091E80083FF3F
:10220000F2CFBECF2132310509F448C02232310568
:1022100009F067CF8330910508F063CFFC01EE0F22
:10222000FF1FED58FE4F0190F081E02D80599E4F29
:10223000DC018C9190E026C0CA019927423031F12F
:102240008330910568F40097B1F0019709F049CF08
:10225000EEEBF8E0E4918E2F90E0EEEBF8E012C0A8
:10226000039709F03ECFE4E8F8E0E4918E2F90E088
:10227000E4E8F8E007C0E0EDF8E0E4918E2F90E0AC
:10228000E0EDF8E0009709F42CCF99CFE2EAF8E00E
:10229000E4918E2F90E0E2EAF8E0F4CF83309105EC
:1022A00008F01FCF880F991FFC01E758FE4F0190DF
:1022B000F081E02D89E090E082CF82E190E0E2E7DA
:1022C000F8E07DCF80919D02882309F459CF8530B5
:1022D00009F456CF8091E80083FD52CF8091E80049
:1022E00082FD81CF8091E80080FF77CF9091F3004D
:1022F0008091F2002115310519F08830910550F0D8
:1023000041E0089709F040E08091E8008E778093E3
:10231000E80063CF44914093F10031962150310998
:102320000196E8CF803809F0DCCE8091E800877F05
:102330008093E80080919E028093F1007BCE811112
:10234000D0CE1091A102123008F0CBCE8091E800DF
:10235000877F8093E80010939E020E942D05112331
:1023600011F084E005C08091E30087FDFACF81E0A1
:1023700080939D0242E061EC81E00E944C0542E2C4
:1023800061EC84E00E944C0542E261EC82E00E9434
:102390004C0542E260EC83E00E944C05A2CE8091A5
:1023A000A102813009F09DCE81E0933009F080E0F8
:1023B00080939C021092E9008091E800877F8093CF
:1023C000E8000E942D058DCE90E080E00E948328D9
:1023D0008A3E9E4F11F40C945F0D80E008956AEEE2
:1023E0007EEF90E080E00E94A72860E082E090E02D
:1023F0000E94892860E083E090E00E948928109282
:10240000A70260E084E090E00E94892860E082E218
:1024100090E00E94892860E085E090E00E94892891
:1024200060E086E090E00E9489286FEF87E090E00E
:102430000E94892840E050E0BA0188E090E00E94C4
:102440009B2860E08DE090E00E94892840E050E009
:10245000BA0188E190E00E949B2860E087E190E06B
:102460000E94892840E050E0BA018CE190E00E948F
:102470009B2870E060E080E290E00E94A72840E0A6
:1024800050E0BA0188E190E00E949B2880E00E9421
:10249000B90E0E94D10E40E050E0BA018FE090E00A
:1024A0000E949B2840E050E0BA0183E190E00C9448
:1024B0009B280E94E41181110AC00E94EF118091B3
:1024C000390284708961809339020E94E00E86E0AF
:1024D00090E00E947B2880933902803220F0877040
:1024E00088618093390290913902892F817090FF21
:1024F00004C0892F8695869586950C948A06EBEF05
:10250000E80FEF3308F072C0F0E0E753F74D0C949A
:102510002E280E94EF1181E0089580913802807F7B
:102520008093380281E080933702089580910A01F8
:1025300090910B01892B79F30E94FF0E2FEF84E31A
:102540009CE0215080409040E1F700C000000E94D4
:102550001E0C90913802892F8E7F90FF81608093AE
:10256000380280FDD8CF817F80933802D4CF9091FC
:102570003802892F8D7F91FF82608093380281FF1E
:10258000CACF809138028160EFCF90913802892FB5
:102590008B7F92FF84608093380282FDF2CFBBCFA5
:1025A00090913802892F877F93FF8860809338024B
:1025B00083FDE7CFB0CF0E94FF0E90917302892F69
:1025C00097FB87F9805880937302A5CF81E00E9422
:1025D000030B0E94FF0E9FCF895391E001C0990F1A
:1025E0008A95EAF7892FF3CF8D51F7CF80E00895D0
:1025F000CF93C82F882309F481C08238C1F40E9488
:10260000750681FD7BC089E30E94AF090E942809FD
:102610002FEF31EE84E0215030408040E1F700C0E0
:10262000000089E30E948209CF910C942809833825
:10263000A1F40E94750680FD61C083E50E94AF0988
:102640000E9428099FEF21EE34E091502040304055
:10265000E1F700C0000083E5E5CF8438A1F40E94D3
:10266000750682FD4BC087E40E94AF090E942809CD
:102670008FEF91EE24E0815090402040E1F700C0C0
:10268000000087E4CFCF8CEF8C0F813A08F05BC05D
:1026900080913702882349F1813091F110923702FD
:1026A00080910F01882309F441C08091730287FF54
:1026B0003DC0EC2FE695E695E695F0E0EE57FE4F2F
:1026C000828190E04C2F477021E030E002C0220F61
:1026D000331F4A95E2F782239323892B81F18C2FB4
:1026E0000E9482090E9428092AC080910602823233
:1026F000B9F68C2F0E947F12882391F2CF91089512
:10270000809106028232A9F3C93269F038F481E07F
:10271000CB3039F0C43139F080E003C081E0C833F8
:10272000D9F78170E9CF10923702F6CFE4E8F1E0F3
:102730008191C817A1F231E0EA38F307C9F78C2F6D
:102740000E94AF0971CF80E28C0F883068F4C770A7
:1027500021E030E001C0220FCA95EAF7809106021D
:10276000822B8093060260CF8BE58C0F833038F488
:102770002C2F2452330BC901CF910C945F06C85AF9
:10278000C73108F0BBCFEC2FF0E0EE0FFF1FE35E88
:10279000FE4F80819181CF910C944906FF920F9357
:1027A0001F93CF93DF938C01EB01F42E80910E01E8
:1027B00082FF43C08B7F80930E0180916402209141
:1027C000660230916702AB01421B530B9A014091A4
:1027D0000C0150910D0124173507A8F40E94F8123E
:1027E00080910E018D7F80930E0180916002909107
:1027F00061020E94420C809164020E94290B82E0D7
:102800000E94F60824C09091410292609093410288
:102810000E94F81280910E01826080930E018091D7
:102820005D0285FFE2CF86FDE0CFFF20F1F2DF9170
:10283000CF911F910F91FF900895802F0E94290B37
:10284000809164029091650280179107C1F20E9405
:102850002809D0936702C0936602E9CF6F927F92F6
:102860008F929F92AF92BF92CF92DF92EF92FF92A0
:102870000F931F93CF93DF93CDB7DEB72C970FB68F
:10288000F894DEBF0FBECDBF8E010F5F1F4F8CE0EF
:10289000F80111928A95E9F78BE4E82E81E0F82E91
:1028A000680191E5692E91E0792E88248394912C1A
:1028B000F70181917F018F3F09F44BC0F894E82F15
:1028C000E295EF70F0E021A18F70A40102C0440FE7
:1028D000551F8A95E2F7CA01922F982B91A392A1D6
:1028E0008095892382A3789400C0E1E5F1E030E08F
:1028F00020E0B12CA12C81918F3F09F498C0A82F22
:10290000A295AF70B0E090964C9150E08F7002C0ED
:10291000559547958A95E2F740FD89C0C401022E7E
:1029200002C0880F991F0A94E2F7A82AB92A2F5FDC
:102930003F4F2F303105F9F6F701319780818F3FF6
:1029400011F00E940B0750EA5A95F1F7F601B18297
:10295000A082F2E0CF0ED11C6E147F0409F0A8CF44
:102960004CE050E0B8018DE092E00E945E289C01AE
:10297000FF24F394892B09F4F12C232B09F45AC07A
:102980008CE0F801ADE0B2E001900D928A95E1F79C
:1029900081E080930C020E943D0690930B0280938D
:1029A0000A0220910A0230910B024FB7F8948091ED
:1029B0006F0290917002A0917102B09172024FBFAC
:1029C000821B930B0597D0F180910D0290910E021E
:1029D00090932C0280932B0280910F029091100211
:1029E00090932E0280932D028091110290911202F9
:1029F0009093300280932F028091130290911402E1
:102A000090933202809331028091150290911602C8
:102A100090933402809333028091170290911802B0
:102A2000909336028093350210920C0207C090E01A
:102A300080E07BCF80910C028111B3CF80915D0249
:102A400080FF1CC080910E0182FF18C00E943D06CD
:102A5000BC0180916602909167029B01281B390B93
:102A600080910C0190910D012817390738F041E051
:102A700080916402909165020E94CE138F2D2C9656
:102A80000FB6F894DEBF0FBECDBFDF91CF911F917F
:102A90000F91FF90EF90DF90CF90BF90AF909F90FD
:102AA0008F907F906F9008950F931F93CF93C82FAF
:102AB0000091620210916302893321F0009160025B
:102AC000109161028C2F0E94F8120115110531F44A
:102AD0008C2FCF911F910F910C94290B8FE99FE0C0
:102AE0000197F1F700C0000001501109EECF0F93DC
:102AF0001F93CF93DF93C42FD22FFC0182818823B1
:102B0000A1F0409340020E943D0690933F028093C3
:102B10003E02C77081E001C0880FCA95EAF7DF91D5
:102B2000CF911F910F910C941F0B80914002841341
:102B300042C020913E0230913F029FB7F8944091ED
:102B40006F025091700260917102709172029FBF8A
:102B5000421B530B20915A0230915B0242175307DC
:102B600050F5C0E2CD0F8D17A9F0877011E0F12F5D
:102B700001C0FF0F8A95EAF78F2F0E94180BC8300B
:102B800048F48D2F877001C0110F8A95EAF7812FC5
:102B90000E941F0B802F0E945415C83098F4D770E4
:102BA00081E001C0880FDA95EAF7DF91CF911F919C
:102BB0000F910C94180BC77081E001C0880FCA9563
:102BC000EAF7F3CFDF91CF911F910F910895AF9264
:102BD000BF92CF92DF92EF92FF920F931F93CF930A
:102BE000DF93EC018AE0A82E2881222309F48CC00F
:102BF0002130C9F599818A81913021F422960E9471
:102C0000541505C0923029F422960E94F81221969C
:102C1000EBCF933021F422960E94290BF8CF943009
:102C200011F02196F4CF229630E020E0AE014F5F04
:102C30005F4F8053990B8A30910550F02150310934
:102C400030F38FE99FE00197F1F700C00000F6CF65
:102C5000A29EB001A39E700D11249C01260F371F68
:102C60008981EA01E3CFE22FF0E0E555FE4FB49011
:102C7000822F86958695869590E0FC01E556FE4F5D
:102C8000E4902770F12C022E02C0F594E7940A9488
:102C9000E2F731E0E322FF24FC01E557FE4FC49048
:102CA000D12C022E02C0D594C7940A94E2F731E0E9
:102CB000C322DD24FC01E558FE4F049110E002C060
:102CC000159507952A95E2F701701127E114F10493
:102CD00019F081EE0E94F812C114D10419F086EEA9
:102CE0000E94F8128B2D0E945415CD2819F086EE03
:102CF0000E94290BEF2819F081EE0E94290B012B6D
:102D000009F485CF8CE27BCFDF91CF911F910F919A
:102D1000FF90EF90DF90CF90BF90AF9008958F928B
:102D20009F92AF92BF92CF92DF92EF92FF920F935A
:102D30001F93CF93DF9300D000D0CDB7DEB77C01D7
:102D4000FC0143815481618180810E94020A8111CA
:102D500026C061E0C7010E94560D8C01F7018281F7
:102D6000882309F424C6C80182519F45409708F082
:102D70008FC58FEF93E00E947B284EEED42ED00EAD
:102D800009EB11E0882341F180910402877039F04A
:102D9000F7018281882319F082E00E94C60A0F9011
:102DA0000F900F900F90DF91CF911F910F91FF9097
:102DB000EF90DF90CF90BF90AF909F908F9008954D
:102DC0000115F4E01F0701F3C8010E947B2881115F
:102DD00001C0DA940F5F1F4FD110F2CF8091100124
:102DE00090911101A0911201B091130189839A83EE
:102DF000AB83BC8399249A9468012FEFC21AD20A3C
:102E0000C8010E947B2889831A82882309F4BCCFD9
:102E1000813009F049C0580132E0A30EB11CC6014F
:102E20000E947B28C82E8A83882309F4ADCFC50170
:102E30000E947B28D82E8FEF8C0D833068F45801C8
:102E400043E0A40EB11CDB82DD2021F0CE0101960F
:102E50000E94E7158501D0CF54E0C512FBCF580181
:102E600084E0A80EB11CC80103960E947B28282F7D
:102E7000DD2009F489CF882309F486CF2150330B54
:102E8000929EA001939E500D1124ED2DE150FF0B59
:102E9000CF01840F951F0197E8F2EFE9FFE031972A
:102EA000F1F700C00000F7CFCE0101960E94E715B0
:102EB0005601D0CF81E00E94E20A0E94AF0A64CF9F
:102EC00081E00E94BA0AF9CF82E0F5CF0F3B9CE582
:102ED000190709F44DC0003CECE51E0709F0F8C4E1
:102EE00080913902982F9695969596959F5F9F7140
:102EF000943008F05EC0990F990F990F8770892B55
:102F0000809339028091390214C083E00E94F30655
:102F1000809139020E94E00E37CF80E0F7CF809198
:102F20003902887F09F43FC080913902885080932C
:102F30003902887F91E009F490E08091390290FB9A
:102F400080F913C080913902982F969596959695A1
:102F5000883140F49F5F990F990F990F8770892BE3
:102F6000809339028091390281608093390219C0BF
:102F70008091390280FF09C08E7F809339020E94C0
:102F8000E00E80E00E948A06FFCE809139028160C7
:102F900080933902813019F489E08093390280915D
:102FA00039020E94E00E80913902869586958695B9
:102FB000E9CF8770A5CF80910E01816080930E01CB
:102FC000F7013281332309F4FEC410924002063126
:102FD000FCE51F0708F0B1C002302CE5120708F429
:102FE000BEC00E94780D90937402809373020631E4
:102FF0003CE5130708F03EC102304CE5140708F029
:103000002CC1609173021091740284E090E00E94E0
:103010008928612F82E290E00E9489280E94FF0E99
:10302000B3CE80910E018E7F80930E0182E00E94CC
:10303000F608C6CF0933110560F40D32110520F4EE
:103040000B32110509F0BCCF80915D0282FD04C0F6
:103050007DC404361105C1F3033F5CE5150709F48F
:1030600054C0D0F5083D9CE5190709F448C0093D56
:10307000ECE51E0709F45BC0073DFCE51F0709F0FE
:103080009FCF06E221EE41EE67ED7CE5C7010E948D
:1030900077157ACE80915D0283FDDECF57C4809193
:1030A00041028260809341027EC4109365020093C6
:1030B0006402D0926702C092660280910E01846021
:1030C00080930E0182E00E94C60A5ECE40E0B60107
:1030D000C8010E94CE1358CE053F2CE51207D9F047
:1030E000063F3CE51307E9F0043F4CE5140709F0FF
:1030F00067CF07E225EE44EE64EF7CE5C7CF07E239
:1031000025EE45EE68ED7CE5C1CF06E221EE40EE0E
:1031100063EF7CE5BBCF06E221EE42EE65EF7CE596
:10312000B5CF07E225EE46EE66EF7CE5AFCF08E2CD
:1031300021E045EE69ED7CE5A9CFC8018A5F9C4599
:10314000099708F44ECF06315CE5150709F43FC432
:103150000A35FDE51F0709F44FC108F02BC1011521
:103160003CE5130709F438C10E3D1C4509F441C183
:10317000F7018281C080D180882309F441C1C60152
:103180000E94E90C182F682FC6010E94440AB6015C
:10319000812F0E94CD0C0E946707182F092F882EBF
:1031A000F701C280D580D2943FE0D32280910402FF
:1031B0008770A1F0BC2CCC2091F0892F807F8034C7
:1031C00021F080E2810F883048F082E00E94C60A38
:1031D000809104028770BB24B3948111B12CA02E7E
:1031E000A2942FE0A222F8E0AF1609F40BC2FA1560
:1031F00008F43CC123E02A1508F407C1902F907F02
:10320000302F3F70932E41E04A1508F042C19032B2
:1032100019F0929480EF9822882009F470C1E1E0BF
:103220008E1609F4B8C1CC2009F4C1C1DD2009F41F
:1032300091C120E0F70140815181628173818481D5
:103240000E942D0D80915F0281FD39C1F7019581AA
:1032500090FF35C19F7095837DC1F801E350FC4517
:10326000809173028160E331F10590F4E85FF64DDF
:103270000C942E280A5F1C450930110508F0C1CEB8
:10328000055E164DF8010C942E2880917302826021
:1032900080937302B6CE809173028460F9CF8091DF
:1032A00073028860F5CF809174028160809374020C
:1032B000A8CE809174028260F9CF80917302806100
:1032C000E7CF809173028062E3CF809173028064C4
:1032D000DFCF0E94FF0E809173028068D9CF80916A
:1032E00073028C60D5CF809174028360DFCF8091B0
:1032F00073028E7FCDCF809173028D7FC9CF809175
:1033000073028B7FC5CF80917302877FC1CF80917D
:1033100074028E7FCBCF809174028D7FC7CF809156
:1033200073028F7EB5CF809173028F7DB1CF809174
:1033300073028F7BADCF0E94FF0E809173028F7757
:10334000A7CF80917302837FA3CF809174028C7F7B
:10335000ADCF8091730282FB992790F921E09227EB
:1033600090FB82F990FB83F993CF80917402982FA0
:10337000909591708E7F892B90FB81F997CF0E9459
:10338000FF0E90917302892F97FB87F9805880CFA9
:1033900061E08EE090E00E94892833CE60E0F9CFB2
:1033A0008091A201811104C089E20E9482093AC37E
:1033B00085E3FBCF0B355DE5150701F10C351D45A8
:1033C00009F0D6CE8091740282FB882780F991E0C3
:1033D00089270E94E50ECCCE0E94FF0E9FEFE4E30A
:1033E000FCE09150E040F040E1F700C000000E9496
:1033F0001E0C0E94EF11C8CC81E0EBCF80E0E9CF3A
:10340000C6010E94170A182FC2CE54E0A51609F46F
:10341000DDC0EA2DE850FF0B349710F40E947506CA
:10342000812F902F0E94740A811113C21092A4015F
:103430001092A301BB20A9F08091040280FD11C06D
:10344000F70112828595859585950E94E20AC7014C
:103450000E948F16809104028595859585950E941E
:10346000BA0A60E0C7010E94560D99CC89E0A816FF
:1034700009F43BC186E08A0D8F70823050F6812FAF
:1034800092EF891243C1802F8F71CC2009F48BC138
:103490003AC1992319F0929490EF9922CC20C9F067
:1034A000992069F080E2810F883010F081100BC004
:1034B00080910602982A909206020E942809812F84
:1034C0000E94F812A6CF80914102982A9092410260
:1034D000F4CF812F0E94290B992009F49ACF80E222
:1034E000810F883010F0811006C0892D0E94FE08DF
:1034F0000E9428098ECF892D0E94F608F9CFCC2092
:1035000069F1D11004C080910902892924C0F1E039
:10351000DF1213C08091740282FD7BCF809109027B
:10352000982A981609F475CF0E943D0690930802D8
:1035300080930702909209026CCF80915E028230E4
:1035400010F3D812E0CF0E94EB088091010298128C
:1035500090920102892D0E941F0B5BCFD11006C0F3
:103560000E94EB08892D0E94180B53CF90915E02A8
:1035700021E0D2120BC0923008F44BCF909106029A
:10358000992109F446CF0E947C09EACF923040F39A
:103590009D11E6CF3ECFCC2029F035E03D1508F453
:1035A00038CFD8CF44E04D1508F433CFDBCFDD2042
:1035B000C9F2F9E38F1245C18091620290916302D2
:1035C0000E94420C812F0E94290B23CF802F8695C9
:1035D0008695837069F0813009F01BCF812F902F81
:1035E0009370C11002C090E080E00E94490611CFA4
:1035F000812F902F9370C11002C090E080E00E9454
:103600005F0607CF802F8370A9F5C11002CF912FDD
:10361000929596959770990F990F412F4F70092E9B
:1036200001C0440F0A94EAF7212F207114FF07C04C
:103630002FE030E001C0220F9A95EAF72095902FF5
:10364000969596959370923081F0822F842B9330CB
:1036500031F08091A702913029F0242B82230E941F
:10366000030BD7CE842B822BFACF242B8091A70279
:103670008227F5CF8695CC2011F0802F817088238A
:1036800009F4C7CE912F929596959770990F990F3F
:10369000412F4F70092E01C0440F0A94EAF7212FE1
:1036A000207114FF07C02FE030E001C0220F9A956F
:1036B000EAF72095902F969596959370923081F029
:1036C000822F842B933031F08091A802913029F021
:1036D000242B82230E94AB0A9CCE842B822BFACF10
:1036E000242B8091A8028227F5CF202F2F70922EB5
:1036F000CC2029F0822F0E94E20A812F2CCF812F2B
:103700000E94180B892D0E94BA0A83CE32EF381519
:1037100078F040EF841659F151EF851609F43EC058
:10372000CC2009F489C0D110CACE802F8F713BC044
:1037300093EF8916D9F1E4EF8E12F2CF20915E0259
:10374000223008F461C080910102CC2009F449C004
:103750000E94FE08809104028770843099F50E94CF
:103760000609802F8F710E94BA0AB12C52CECC204C
:1037700081F0F4E0FD1508F44CCE202F2F7181E08C
:1037800090E001C0880F2A95EAF79091A802892756
:10379000A1CF25E02D1508F43CCEEFCF802F8F71FF
:1037A000CC2009F4B0CF0E94E20A33CE80E0CC20D6
:1037B00009F490CF81E0902F9F7101C0880F9A95F6
:1037C000EAF788CF80915E02D81678F6302F3F71E5
:1037D000B32E832F0E94E20A63E08B2D0E94ED0A34
:1037E000C4CF90910602982B90930602D21640F017
:1037F0000E9406090E947C0964E0802F8F71EECF41
:1038000081E00E94C60AB1CFCC2059F0402F4F7101
:10381000942E842F0E94E20A63E0892D0E94ED0A13
:10382000F8CD81E00E94C60A51E05D1508F0F1CDA7
:1038300082E00E94C60AEDCDDD2041F0893309F413
:10384000BBCE8091600290916102BACE802F8F71C1
:103850005ACFCC2019F0D110E9CDECCDD110E6CD66
:1038600020E0F701408151816281738184810E944F
:103870002D0D80915F0283FFD9CD8091A30190919E
:10388000A401029709F0D2CD812F0E945415CECD0C
:103890000031FFE51F0709F40DCB01312FE51207B9
:1038A00009F412CB0E3B2CE5120709F44BCB08F0C0
:1038B0000DCB0C3B4CE5140709F42FCB0D3B5CE51D
:1038C000150709F42CCB0B3B8CE5180709F41DCB2D
:1038D00080915D0280FFC0CB0E943D066C01F70124
:1038E0008281882311F180910E0182FF06C040E0A1
:1038F000B60190E080E00E94CE1382E00E94F608BC
:103900000B31FCE51F0709F456CB0C312CE51207EF
:1039100009F487CB90910E01892F8E7F90FF8160F3
:103920000A313CE5130709F47FCB0832110508F092
:1039300081CB0E31110508F0ADCBC80104974A9731
:1039400008F03ECB80915D0284FD86CBF701828139
:10395000882309F4BBCB80910E0180FF7DCB909131
:103960005D0291FD04C020910602211175CB95FFE7
:103970009CCB2091660230916702A601421B530B3B
:103980009A0196FD02C081FD90CB283C310508F0DC
:103990008CCB20916402309165020217130709F065
:1039A00084CB81FD7CCB802F0E94F812EDC90031C1
:1039B0003FE5130709F484CA01314FE5140709F004
:1039C00087CF82E07ECA06311C4509F0D1CB8091B9
:1039D0000602982F9A7A20915C0220FF04C0482F9B
:1039E000447409F090E021FF04C0482F417109F0B0
:1039F00090E022FF04C0482F487809F090E023FFB0
:103A000003C0827209F090E0332309F4C9CC81E04D
:103A1000911101C080E08093A20189E2911185E3B8
:103A20000E94AF090E942809AFC9BF92CF92DF92CE
:103A3000EF92FF920F931F93CF93DF938091CE016C
:103A4000807F61F48091CB01882341F0C091000216
:103A500086E0B82E8091CF018C130AC0DF91CF9100
:103A60001F910F91FF90EF90DF90CF90BF9008953E
:103A7000F090C901E090CA01C090CC01D090CD0176
:103A8000A6016E2D8F2D0E94020AD0E081113DC04B
:103A9000BC9E8001BD9E100D1124F801E053FE4F25
:103AA00081818E1132C080818F112FC0828181115E
:103AB0002CC0E380F480EC18FD0860E089EC91E014
:103AC0000E94560D80915A0290915B02E816F90609
:103AD000E0F48091CE018F7080618093CE01F80177
:103AE000EB52FE4F80818F708061808389EC91E082
:103AF0000E948F16DF91CF911F910F91FF90EF9051
:103B0000DF90CF90BF900C940D0A2196C770A2CF82
:103B10005F926F927F928F929F92AF92BF92CF925D
:103B2000DF92EF92FF920F931F93CF93DF93CDB766
:103B3000DEB72B970FB6F894DEBF0FBECDBF8C015A
:103B400085E0F801DE01179601900D928A95E1F764
:103B5000D8011296EC9089ECA82E81E0B82E8090C6
:103B6000CC019090CD01A4016091CA018091C9015E
:103B70000E94020A81119FC1F801C380D480F09095
:103B8000CB01C601881999094C01FF2009F43AC1FB
:103B90005080618060E0C5010E94560D80915A02FC
:103BA00090915B027090CE018816990608F005C1CD
:103BB0004091CC015091CD01B090C901A090CA01B3
:103BC000872D807F6A2D09F0B0C08B2D0E94020ADC
:103BD000FE2C81112FC0D80111968C9111978A115A
:103BE00029C08C918B1126C0E11024C0872D8F70C5
:103BF00080618093CE0189EC91E00E948F168091C4
:103C0000CE01F80185838F2D2B960FB6F894DEBF79
:103C10000FBECDBFDF91CF911F910F91FF90EF901D
:103C2000DF90CF90BF90AF909F908F907F906F90DC
:103C30005F90089560E089EC91E00E94560D8091BC
:103C40005A0290915B02843F9140F8F0A601662DE4
:103C5000852D0E94020A81114BC081E08E2580FFD4
:103C60001DC04E2D662D852D0E94E3098823B1F0DD
:103C700089EC91E00E948F1686E0E9ECF1E0DF012B
:103C80001D928A95E9F7F12CBECF60E089EC91E0B6
:103C90000E94560D80915F0280FDD8CFA601662D4F
:103CA000852D0E94020A811125C081E08E25B82F42
:103CB000B170DB2E80FF30C04E2D662D852D0E9409
:103CC000E309C82E811128C05F8268868F8198859C
:103CD0000E94180D292F22952F70903268F0225FD4
:103CE0002F70223088F0C8010E948F16CD2C12C090
:103CF00080E0B5CF80E0DBCF9F7011F0882351F0DA
:103D0000805E883038F0EFCF9F70D1F3F801958155
:103D1000907FB1F7FC2C77CFEE2009F474CF80911F
:103D2000CE0181608093CE01AECF8B2D0E94020A1E
:103D3000811119C0D80111968C9111978A1113C065
:103D40008C918B1110C0E1100EC015967C92C801A9
:103D50000E948F1686E0F801A9ECB1E001900D9267
:103D60008A95E1F750CFC8010E94260D882309F1FA
:103D7000EE20F9F08091CE01803270F02091C901DF
:103D80003091CA013A8329831B82DD82CC828E83E3
:103D9000CE0101960E948F1686E0F801A9ECB1E0F1
:103DA00001900D928A95E1F70E94151DFF24F3946E
:103DB0002ACFC8010E948F16F9CF872D807F09F482
:103DC00057CF9090C9018090CA014091CC01509189
:103DD000CD01682D892D0E94020A8111C4CFF801FE
:103DE00081818811C0CF80818911BDCFE110BBCF07
:103DF0007582C8010E948F1686E0D5011D928A95B2
:103E0000E9F701CF60E089EC91E00E94560D8091C6
:103E10005A0290915B028816990608F046C0FE2C63
:103E2000EE2039F2E090C901D090CA014091CC0156
:103E30005091CD016D2D8E2D0E94020A811127C057
:103E4000F80181818D1123C080818E1120C060E036
:103E500089EC91E00E94560D80915F0282FD7ACF3D
:103E60008091CE0180FD76CF982F907F09F472CF9C
:103E7000D80115968C931597903F09F468CF982F29
:103E8000907F905F8F70892B15968C9360CFC801BF
:103E90000E94260D811180CF8091CE018160809398
:103EA000CE01C8010E948F16AECE86E0F5011192B8
:103EB0008A95E9F7A8CEEE2009F47BCFC8010E94CD
:103EC000260DF82E882309F474CF86E0F801A9ECBA
:103ED000B1E001900D928A95E1F78091C90190912E
:103EE000CA010E94180D0E94151D8DCECF92DF923F
:103EF000FF920F931F93CF93DF93CDB7DEB76797F2
:103F00000FB6F894DEBF0FBECDBF142F4B8B052F1D
:103F10005C8BF62E6D8B7E8B8F8BCE88DF88A60117
:103F2000602F812F0E94020A811109C08091A30194
:103F30009091A40101969093A4018093A301F110A4
:103F4000109241021A8A8091440290914502892B75
:103F5000C1F00E943D062091020230910302821BB3
:103F6000930B20914402309145028217930720F071
:103F70008091040282FF86C00E940D0981110E9477
:103F8000EB081D870E87FF86D98AC88A86E0FE0166
:103F90003D96DE01179601900D928A95E1F7CE01CC
:103FA00007960E94881D811114C086E0FE01379695
:103FB000DE01119601900D928A95E1F7DF80F88479
:103FC0000A851B85A8016F2D8D2D0E94020A88236A
:103FD000A9F016E0809100029091CF0189133FC0B3
:103FE00067960FB6F894DEBF0FBECDBFDF91CF91BD
:103FF0001F910F91FF90DF90CF9008952091CF01F6
:1040000030E0C90101968770992740910002481756
:104010001906B9F0D982FA821D830C8396E0929F2B
:10402000D001939FB00D1124A053BE4FFE013196D5
:1040300001900D929A95E1F78093CF010E940D0AAD
:10404000C8CF0E94FF0E1092CF011092000286E0AE
:10405000E9ECF1E0DF011D928A95E9F7BACF819F83
:10406000C001112480539E4F0E94881D882309F4AB
:10407000B7CF8091000290E00196877099278093D6
:104080000002A8CF82E00E94C60A76CF0F931F934A
:10409000CF93DF9300D000D00F92CDB7DEB78C0165
:1040A00090933B0280933A02011580E2180720F5B5
:1040B000802F0E94290BC8010E94780B9801205E76
:1040C00031092830310510F0012B59F40F900F9071
:1040D0000F900F900F90DF91CF911F910F910C9443
:1040E000180B0F900F900F900F900F90DF91CF91C2
:1040F0001F910F910C94070B8EEF89838A831B828B
:104100000E943D068160782F9D838C8349815A816E
:104110006B818D810F900F900F900F900F90DF911A
:10412000CF911F910F910C94761F0F931F93CF93F4
:10413000DF9300D000D00F92CDB7DEB78C01909303
:104140003B0280933A02011580E21807E8F4C801A7
:104150000E94780B9801205E31092830310518F053
:104160000115110571F40E941F0B802F0F900F9005
:104170000F900F900F90DF91CF911F910F910C94A2
:10418000F8120E940E0BF1CF8EEF89838A8381E0B3
:104190008B830E943D068160782F9D838C834981AB
:1041A0005A816B818D810F900F900F900F900F901F
:1041B000DF91CF911F910F910C94761FAF92BF9218
:1041C000CF92DF92EF92FF921F93CF93DF93182F3E
:1041D000C090A8028091A702C82AC7E0D0E0D12CE5
:1041E000F12CE12CD701C6010C2E04C0B695A79581
:1041F000979587950A94D2F780FF21C0412F60E000
:104200008C2F0E94740C5C0181E0A816B104B9F0F7
:10421000C5010E9495208FE39CE90197F1F700C04A
:104220000000C5010E94462081E0DF91CF911F91DF
:10423000FF90EF90DF90CF90BF90AF9008952197BF
:1042400088F6412F60E080E00E94740CD82FC92FBF
:104250000E9495208FE39CE90197F1F700C00000D0
:104260008D2F9C2FDFCF1F920F920FB60F9211242C
:104270002F933F934F935F936F937F938F939F936E
:10428000AF93BF93CF93DF93EF93FF93D091E90068
:10429000DF708091EC00C82FC17080FDC0E81092E3
:1042A000E9008091F000877F8093F00078940E946D
:1042B000140F1092E9008091F00088608093F00064
:1042C000CD2BCF70C093E900FF91EF91DF91CF919B
:1042D000BF91AF919F918F917F916F915F914F911E
:1042E0003F912F910F900FBE0F901F9018951F9226
:1042F0000F920FB60F9211242F933F934F935F931A
:104300006F937F938F939F93AF93BF93EF93FF939D
:104310008091E10082FF09C08091E20082FF05C028
:104320008091E1008B7F8093E1008091DA0080FF33
:1043300024C08091D80080FF20C08091DA008E7F59
:104340008093DA008091D90080FF99C080E189BD17
:1043500082E189BD09B400FEFDCF81E080939D021A
:1043600080917802811109C00E94B3040E947E05E9
:104370008091E20084608093E2008091E10080FF00
:1043800017C08091E20080FF13C08091E2008E7F11
:104390008093E2008091E20080618093E20080914E
:1043A000D80080628093D80019BC85E080939D027C
:1043B0008091E10084FF27C08091E20084FF23C048
:1043C00080E189BD82E189BD09B400FEFDCF809105
:1043D000D8008F7D8093D8008091E1008F7E8093FC
:1043E000E1008091E2008F7E8093E2008091E20004
:1043F00081608093E20080919E02882309F445C089
:1044000084E080939D028091E10083FF27C080912A
:10441000E20083FF23C08091E100877F8093E10069
:1044200082E080939D0210929E028091E1008E7F37
:104430008093E1008091E2008E7F8093E200809182
:10444000E20080618093E20042E060E080E00E9450
:104450004C058091F00088608093F000FF91EF910F
:10446000BF91AF919F918F917F916F915F914F918C
:104470003F912F910F900FBE0F901F90189519BC70
:1044800010929D021092780278CF8091E30087FD10
:1044900002C081E0B6CF83E0B4CF78941F921FB6FC
:1044A0001F9211248F939F93AF93BF9380916F02BC
:1044B00090917002A0917102B09172020196A11DBB
:1044C000B11D80936F0290937002A0937102B0931C
:1044D0007202BF91AF919F918F911F901FBE1F904D
:1044E00018951F921FB61F9211248F939F93AF931D
:1044F000BF9380916E02811113C080916F029091E1
:104500007002A0917102B09172024196A11DB11D7D
:1045100080936F0290937002A0937102B093720225
:10452000BF91AF919F918F911F901FBE1F901895C3
:10453000CDB7DEB7AC970FB6F894DEBF0FBECDBFD8
:1045400084B7877F84BF0FB6F894A89580916000E8
:10455000886180936000109260000FBE80E890E058
:104560000FB6F89480936100909361000FBE85B7F9
:10457000806885BF85B7806885BF89E097E09093A4
:104580008101809380010E944E0C0E94B3040E941E
:104590007E058091E20084608093E20078948091AF
:1045A0009D028823A1F01091E9001F709091EC000A
:1045B000892F817090FD80E8182B1092E90080917E
:1045C000E80083FD0E94140F1F701093E90082E041
:1045D00084BD93E095BD9AEF97BD80936E000E94D5
:1045E0005F0D811102C00E94D10E0BE411E0F1E5D4
:1045F000EF2EF1E0FF2ED8018D918D018F3F11F04C
:104600000E940B07E016F106B1F701E511E0E0E6C4
:10461000EE2EE1E0FE2EF80181918F018F3F11F027
:104620000E940B07E016F106B1F7EDE0F2E089E138
:1046300092E0ABE2B2E0119211921D921D928E17A0
:104640009F07C9F70E94E411811102C00E94EF1177
:1046500082E090E00E947B28809338020E94780DCF
:1046600090937402809373020E942E148FE39CE94E
:104670000197F1F700C000000E942E1480912B02D8
:1046800080FF08C06FEF7FEF90E080E00E94A728D6
:104690000E941E0C83E090E00E947B280E94030B86
:1046A0003E9A469882E88093900089E18093910039
:1046B0008FEF9FEF90939700809396000E9459127E
:1046C0000E94591284988C9A85988D9A8FB1829500
:1046D00081707D99FCC090E0892B80931B0280E063
:1046E00091E090936B0280936A0258E1E52EF12CE1
:1046F00060E4562E77E3C72E72E0D72E80919D029C
:1047000000E112E1853009F41CC10E942E148823B7
:1047100059F08FB7F89440916F02509170026091F8
:104720007102709172028FBFEDE1F2E0ABE2B2E094
:1047300010E000E0702F8D919D912191319128170B
:10474000390709F410C12827392760E0AA24A39467
:10475000B12CA9014A215B21452B09F4FEC06983D4
:104760007A839C012A213B2191E0232B09F490E0DC
:104770009B830E943D068160782F9D838C834981B5
:104780005A816B818D810E94761F000F111FF801E5
:10479000E35EFD4F80819181A826B926B182A08277
:1047A000E0911B02EE0FEE0FE0931B028FB184FB32
:1047B000662460F87D99EEC080E08629E82BE093BE
:1047C0001B02EF70F0E0E05AFE4F808190911A02D8
:1047D000890F80931A0220E084304CF080911902F6
:1047E0008F5F8093190281E00E94DE2021E080919A
:1047F0001A028D3F4CF48091190281508093190266
:1048000080E00E94DE2021E080911A02082E000C38
:10481000990B64E070E00E94F82780931A0222232B
:1048200059F08FB7F89440916F02509170026091E7
:104830007102709172028FBF0E94750690911C02E6
:10484000891721F00E94750680931C0280919D02B9
:10485000843009F053CF83E08093E9008091E80031
:1048600082FF4CCF8091E80090E085FF0CC00E9451
:10487000D20430E2A32EB12C8E010F5F1F4F88238C
:1048800009F495C091E08091E8008B778093E8006F
:10489000992309F433CF00913C0210913D02E98144
:1048A0000115110509F491C0EE3F09F0C5C08A81D8
:1048B000833020F08550833008F0BEC0EA81EE30AE
:1048C00008F0BAC0F0E0EC5DF64D0C942E2892E0B2
:1048D00003CF80919D02843021F180E00E948A06FE
:1048E00010926E020FB6F894A895E09260000FBE89
:1048F0005092600083B7817F846083BF83B78160FB
:1049000083BF7894889583B78E7F83BF0FB6F89462
:10491000A89580916000886180936000109260008B
:104920000FBE80919C02882361F00E942E14EBE25E
:10493000F2E081919191892B09F0DFC2CE16DF065A
:10494000C1F780919D02853009F4C3CF0E94FF0E0C
:104950000E9459120E947506D8CE6F5FAA0CBB1C2C
:104960006F3009F0F6CE0F5F1F4F0630110509F0CA
:10497000E1CE8FEF89838A831B820E943D0681608E
:10498000782F9D838C8349815A816B818D810E9410
:10499000761F06CF82E090E010CF8091F100D80121
:1049A0008D938D01B1E0AB1AB10809F46BCF809102
:1049B000E80085FDF2CF8091E8008B778093E800D6
:1049C0000E94D204882399F35DCFE43150F4EE23A2
:1049D00059F0E150E33140F4F0E0EE5CF64D0C9418
:1049E0002E28EE3F09F46ACF8FEFB3C21A8289E016
:1049F0008B8322C08A81823009F4CDC2833009F4CE
:104A000042C0813089F78FB7F89420916F023091BE
:104A10007002409171025091720229A73AA74BA7E8
:104A20005CA78FBF69A57AA58BA59CA50E94342899
:104A30006B837C838D839E8380919D02843009F0FB
:104A40005DCE1091E9001F709091EC00892F81706C
:104A500090FD80E8182B82E08093E9008091E800C7
:104A600080FF0DC050E040E060E270E0CE010196B2
:104A70000E9403058091E8008E778093E8001F7004
:104A80001093E9003BCE80910A0190910B01892B94
:104A900099F2DE011196EBE2F2E08081918132968B
:104AA00012969C93129713968C931397129632E05A
:104AB000E733F30791F7C0CF8A81823009F094CFB2
:104AC0008B819C81AD81BE8189A79AA7ABA7BCA72A
:104AD000BC01CD010E94342886E290E00E94892822
:104AE000ABCF4C816B818A810E949E0C98278927CD
:104AF00098279E838D83A0CF2D813E813227232747
:104B000032274C816B818A810E94080E95CF0E94CA
:104B10003D0E92CF8A81893009F08ECF8B81A3E040
:104B20008A9FC00111246FEF70E00E94E427862F56
:104B30000E94F30681CF8A81893029F08A3009F0FA
:104B40007BCF1B8279CF8091390286958695869599
:104B5000BFEF8B9FC001112463E070E00E94E42747
:104B60006B836ACF809139020E94E00E65CF80E1AD
:104B70008A8362CF82E08A8387E43ACF8C81882E51
:104B8000912C8D3108F058CFAA80BB80BA24AB2479
:104B9000BA248E010F5F1F4F800E911EC5018754EE
:104BA0009E4F8016910609F447CFE7E4AE16E2E087
:104BB000BE0658F40E947B28D80114968C93FFEF10
:104BC000AF1ABF0A0F5F1F4FE9CFF8011482F7CF6A
:104BD00080910A0190910B01892B09F42DCF8C81D2
:104BE000A82EB12C8D3108F027CF0A811B81102708
:104BF000012710279E012F5F3F4F4901A00EB11ED4
:104C0000C80187549E4F0A151B0509F415CF0734B8
:104C100032E0130728F4D40114966C910E9489287D
:104C2000BFEF8B1A9B0A0F5F1F4FEACF0E94C60D82
:104C300003CF82E09DCF8C81882E912C8D3108F09E
:104C4000FBCEAA80BB80BA24AB24BA248E010F5FAE
:104C50001F4F800E911EC50187968016910609F49C
:104C6000EBCEE8E6AE16E1E0BE0658F40E947B28E3
:104C7000D80114968C93FFEFAF1ABF0A0F5F1F4F36
:104C8000EACFF8011482F7CF8C81A82EB12C8D3198
:104C900008F0D2CE0A811B81102701271027083681
:104CA00021E0120708F0C8CE88E691E0801B910B46
:104CB0008A159B0508F4C0CEAE014F5F5F4F4A01D5
:104CC000A00EB11EC8018796A016B10609F4B4CE95
:104CD000083651E0150728F4D40114966C910E940F
:104CE0008928BFEF8B1A9B0A0F5F1F4FEBCF88E01D
:104CF000E4E1F1E0DE01919601900D928A95E1F7F1
:104D0000FE013D9684E1DF011D928A95E9F784E07A
:104D100089831A821B821C8288E07496DE011596B4
:104D200001900D928A95E1F787CE84EC898382E029
:104D30008A831B821C8280CE8C81682F70E0762F44
:104D400066278B81860F972F911D092E000CAA0BC9
:104D5000BB0B25E0880F991FAA1FBB1F2A95D1F70F
:104D6000AC01BD01405E5F4F6F4F7F4F803EEFEF64
:104D70009E07AE07BE0708F05FCE843CF2E09F07B7
:104D8000A105B10508F058CE453C22E05207610567
:104D9000710520F044EC52E060E070E0481B590BD4
:104DA000BC01655D7D4FCE0101960E94552844CE21
:104DB0001B810C8140E0602F812F0E94740C98278A
:104DC000892798279A83898341E0602F812F0E9449
:104DD000740C9827892798279C838B832DCE2E814E
:104DE0003F813227232732274D816C818B810E949E
:104DF000D60D22CE4EE150E06FEF70E0CE0103966B
:104E00000E94742880910A0189830A8315CE81E06B
:104E100090E090933D0280933C0282E390E0909377
:104E20002A02809329020E943D0606CE80910A0143
:104E300089830A8380912902DBCD0B811C8140E2AA
:104E400050E06FEF70E0CE0101960E94742827ECCD
:104E500037E090E080E0AC014E5F5F4F413251059A
:104E600008F0EACDF901659174910617170750F41F
:104E7000A1E0B0E0AC0FBD1F8A0F9B1FFC01718346
:104E80006083CA01285F3F4FF8E027313F0719F7D9
:104E9000D3CD2B813C8187EC97E0FC014591549167
:104EA0004217530709F43FC0089648E0873194073A
:104EB000A1F79ACD2B813C8107EC17E087E198E0C0
:104EC000F801459154912417350709F444C0085F4F
:104ED0001F4F80179107A1F787CD0E94A30DACCD7E
:104EE0008B818111A9CDFE0133968EE1DF011D92E8
:104EF0008A95E9F719821A829FCD09BD19BD09B4B7
:104F000000FEFDCF8091D8008F7D8093D8008091E6
:104F1000E00082608093E0008091E00081FDFCCFA2
:104F20000E94FF0E0ECD9C012E5F3F4FF90145916F
:104F300054914032510508F057CDF90145915491F3
:104F4000FC01349665917491CE0102960E946B2803
:104F500080E0898371CDC8010296FC0125913491CE
:104F60002D31310508F040CDFC0145915491F801F7
:104F7000349685919491BE016B5F7F4F0E946B28A0
:104F80000E94860DF801369685919491009701F361
:104F9000FC010995DDCF86E290E00E947B281B8210
:104FA0001C821D828E8348CDDB018F939F930E94CC
:104FB0004A28BF91AF91A29F800D911DA39F900D94
:104FC000B29F900D11240895AA1BBB1B51E107C08D
:104FD000AA1FBB1FA617B70710F0A61BB70B881F89
:104FE000991F5A95A9F780959095BC01CD01089518
:104FF00097FB072E16F4009407D077FD09D00E9486
:10500000E42707FC05D03EF4909581959F4F0895C5
:10501000709561957F4F0895A1E21A2EAA1BBB1BC4
:10502000FD010DC0AA1FBB1FEE1FFF1FA217B30774
:10503000E407F50720F0A21BB30BE40BF50B661F8A
:10504000771F881F991F1A9469F76095709580954E
:1050500090959B01AC01BD01CF010895EE0FFF1F9C
:105060000590F491E02D0994692796276927782700
:10507000872778270895A29FB001B39FC001A39FFF
:10508000700D811D1124911DB29F700D811D112481
:10509000911D08950E943B28A59F900DB49F900DEF
:1050A000A49F800D911D11240895FB01DC0102C015
:1050B00005900D9241505040D8F70895FB01DC0156
:1050C00004C08D910190801921F441505040C8F7DF
:1050D000881B990B0895FB01DC0102C001900D9221
:1050E00041505040D8F70895DC0101C06D93415004
:1050F0005040E0F70895F999FECF92BD81BDF89A2E
:10510000992780B50895A8E1B0E042E050E00C9402
:10511000AF28262FF999FECF92BD81BDF89A01974D
:1051200000B4021639F01FBA20BD0FB6F894FA9AEF
:10513000F99A0FBE08950396272F0E948A280E948D
:105140008928252F0E948A28242F0C948A280196CA
:10515000272F0E948A280C948928DC01CB01FC01AE
:10516000F999FECF06C0F2BDE1BDF89A319600B4C0
:105170000D9241505040B8F70895F894FFCFF60FC4
:105180001E1071101E1071105110891071109211A3
:105190009F1196128D12A9128B12F612F6128B1213
:1051A000F612F612C512F612D012DB12F612F61231
:1051B000F612F6128B12F612F6128B12F612B712C4
:1051C000F612F612F412F412F412F412F412F412AB
:1051D000F412F412F412E612F61296128912F61272
:1051E000F612F612F612F612F612F612F612F6127F
:1051F000F612E612F612F6128B12F612EC12EC12FE
:10520000EC12EC12EC12EC12EC12EC12EC12E612B4
:1052100045194B194F195D196119651969196F19EC
:1052200077197B197F1983198F19931997199B196E
:10523000A119BF19A9195319591987198B1973196C
:10524000A519B519C819CE19772695269C26D826F2
:10525000EF26FA26072716271C251D2749275A2738
:105260006D277027F624FA245C2571257C25872577
:105270008A259B25B225F424F424B725BA25BE251A
:0A528000E825162619261B264426F1
:10528A003A06DB0B3906D70BD30B0100AF0001013D
:10529A000000000026567A4CBC9CD39700E200E935
:1052AA0000EA00B500B600B700CD008301CC008A41
:1052BA0001920194012102230224022502260227D7
:1052CA00022A02B300B4006F007000909192939585
:1052DA00F7F0F1C667F6369431303735349796339E
:1052EA0000FF0100010000FFFF0000010001FF00B4
:1052FA0040226D3B011901AC0029084208620800EE
:00000001FF
