:100000000C94E20C0C94290D0C94290D0C94290DE0
:100010000C94290D0C94290D0C94290D0C94290D88
:100020000C94290D0C94290D0C94C2310C94963229
:100030000C942F2C0C94290D0C94290D0C94290D43
:100040000C94290D0C94290D0C94290D0C94290D58
:100050000C94290D0C94862C0C94290D0C94290DCC
:100060000C94290D0C94290D0C94290D0C94290D38
:100070000C94290D0C94290D0C94290D0C94290D28
:100080000C94290D0C94290D0C94290D0C94290D18
:100090000C94290D0C94290D0C94290D0C94290D08
:1000A0000C94290D0C94290D0C94290DF200F100EB
:1000B000005C010044454255473A2064697361621F
:1000C0006C65642E0A0044454255473A20656E61CE
:1000D000626C65642E0A004F6E6573686F743A2017
:1000E0006163746976653A2025640A000A00253048
:1000F0003258006B6579626F6172645F7365745F1B
:100100006C65643A20000A0025303862003A20000D
:1001100025303258000A722F6320303132333435A3
:1001200036370A00290A002575002F002575005D65
:10013000280025640020002564002000256400209C
:10014000002564007C0025303258006D6F757365A2
:100150006B6579205B62746E7C78207920762068EC
:100160005D287265702F61636C293A205B005374BF
:10017000617274696E67206D6F74696F6E2E0A000C
:100180000A006275727374206F6E00256325632503
:1001900063256325632563256325637C0001048E45
:1001A000966E773EFE7E5F1DB8F2664EFF5D19B01B
:1001B000C20469542AD62EBFDD19B0C3E529B1E0C7
:1001C00023A5A9B1C10082674C1A978D795120C728
:1001D000068E7C7C7A764FFD5930E2460E9EBEDF5D
:1001E0001D9991A0A5A1A9D022C6EF5C1B9589906D
:1001F000A2A7CCFB5528B3E44AF76C3BF46A562E11
:10020000DE1F9DB8D3058892A6CE1EBEDF1D99B015
:10021000E246EF5C07115D980B9D9497EE4E4533D7
:100220006B44C729562730C6A7D5F256DFB43862CB
:10023000CBA0B6E30F84062405656F7689B57741B8
:100240002782666582CCD5E620D52717C5F803231B
:100250007C5F64A51DC1D636CB4CD4DB66D78BB191
:10026000997E6F4C364006D6EBD7A2E4F495515AEE
:100270005496D55344D78CE0B94068D218E9DD9A3A
:10028000239248EE7F43AFEA7738848C0A72AF69D5
:10029000F8DDF12483A3F84ABFF59413DBBBD8B48F
:1002A000B3A0FB4550603059123171A2D313E7FA65
:1002B000E7CE0F63150B6B94BB378326059DFB467A
:1002C00092FC0A15D10D7392D68C1B8CB8558ACE30
:1002D000BDFE8EFCED0912839182513123FBB40CDB
:1002E00076AD7CD9B44BB26714099C7F0C18BA3B2D
:1002F000D68E142AE41B529F2B7DE1FB6A3302FA4F
:10030000AC5AF23E887EAED1F378E805D1E3DC2129
:10031000F6E19ABD170ED9469B8803EAF666BE0E33
:100320001B5049964097F1F1E480A66EE87734BF00
:10033000294044C2FF4E98D39CA3322B7651040926
:10034000E7A9D1A632B12353E247ABD6F5695C3EAB
:100350005FFAAE4520E5D244FF39326DFD27575C88
:10036000FDF0DEC1B599E5F51C770175C56D5892B4
:10037000F2B247000126967A30FFB7F0EF77C18AD4
:100380005DDCC0D129301E77387A94F1B87A7EEFDF
:10039000A4D1AC314AF25D643DB2E2F00899FC7040
:1003A000EE24A77EEE1E20697D44BF8742DF883B96
:1003B0000CDA42C904F94550FC838F116A72BC996A
:1003C00095F0AC3DA73BCD1CE2887937115F3989A8
:1003D000950A16847AF68AA428E4ED83803BB1233B
:1003E000A50310F466EABB0C0FC5EC6C69C5D324F9
:1003F000ABD42AB799887608A0A8957CD8386DCD5B
:100400005902514BF1B52B50E3B6BDD072CF9EFDD2
:100410006EBB44C8248A77188A1306EF977DFA8149
:10042000F031E6FA77ED3106315B548A9F3068DBB4
:10043000E240F84E73FAAB748B105813DCD2E678B6
:10044000D1322E8A9F2C58064827C5A95E8147893C
:100450004621910370A43E889CDA330ACEBC8B8E71
:10046000CF9FD3718043CF6BA95183763082C56A09
:10047000853911501A82DC1E1CD57DA9719933472C
:100480001997B35AB1DFEDA4F2E62684A2289A9E0A
:10049000DFA66AF4D6FC2E5B9D1A2A2768FBC1836F
:1004A000214B90E036DD5B314255A013F7D08953E4
:1004B0007199570929C5F321F8372F40F3D4AF16A6
:1004C000083602FC77C58B049056B9C9679A99E83B
:1004D00000D386FF972D08E9B7B391BCDF45C6ED81
:1004E0000F8C4C1EE65B6E3830E4AAE395DEB9E46F
:1004F0009AF5B2559A879BF66AB2F2779A31F47AF6
:1005000031D11D04C07C32A29E9AF562F8278DBFBE
:1005100051FFD3DF64373F2A6F763A7D77069E77A7
:100520007F5EEB3251F916669A09F3B008A4709613
:100530004630FFDA4FE91BED8DF8741F3192B3732B
:100540001736DB9130D688556B3477877AE7EE061D
:10055000C61C8C190C4846235E9C075CBFB47ED633
:100560004F749CE2C5508BC58B159060625729D0A3
:100570001343A18088910044C74D1986CC2F2A755A
:100580005AFCEB972A70E378D891B04F9907A3955E
:10059000EA2421D5DE512093270A3073A8FF8A97D9
:1005A000E9A76A8E0DE8F0DFECEAB46C1D392A6227
:1005B0002D3D5A8B65F890052E7E912C78EF8E7A22
:1005C000C12FAC78EEAF2845064C26AF3BA2DBA38B
:1005D0009306B53CA5D8EE8FAF25CC3F856848A9DA
:1005E00062CC978F7F2AEAE0150AAD6207BD45F815
:1005F00041D836CB4CDB6EE63AE7DA15E9291E1214
:1006000010A0142C0E3DF4BF394192750B257BA32D
:10061000CE399C1564C8FA3DEF7327FE262ECEDA3C
:100620006EFD718EDDFE76EEDC125C02C53A4E4E3A
:100630004FBFCA4015C76E8D41F110E04F7E977FC6
:100640001CAE478E6BB12531B073C71B9779F9800B
:10065000D366223007741EE4D08021D6EE6B6C4F37
:10066000BFF5B7D909872FA914BE27D9725001D475
:100670001373A6A751027525E1B345347DA88EEB0F
:10068000F31649CB4F8CA1B9368539755D0800AE9C
:10069000EBF6EAD7133A215A5F3084522695C914F3
:1006A000F257556BB110C2E1BD3B51C0B7554C710B
:1006B0001226C70DF951A43802057FB8F1724BBF5D
:1006C000718914F37738D97124F30011A1D8D46952
:1006D00027083735C9119D901C0EE71CFF2D1EE819
:1006E00092E11810957CE080F4964321F97521641D
:1006F00038DD9F1E9516DA561D4F9A53B2E2E41864
:10070000CB6B1A65EB56C63BE5FED8263F3A8459BB
:100710007266A2F375FFFB60B322AD3F2D6BF9EB60
:10072000EA057CD88F6D2C989E2B93F15E46F0875E
:1007300049297368D77FF9F0E57DDB1D7519F3C48E
:10074000589B1788A892E0BEBD8B1D8D9F5676AD35
:10075000AF29E2D9D552F6B55635573AC8E15643D6
:100760001994D3049B6D35D80B5F4D198EECFA6448
:10077000910A72202BBC1A4AFE8BFDBBED1B23EAAB
:10078000AD7282A1299971BDF095C103DD7BC2B222
:100790003C2854D368A472C86696E0D1D87FF8D1BB
:1007A000262BF7ADBA55CA15B932C3E588978E5CCA
:1007B000FB92258BBFA245557AA76F8B575BCF0E57
:1007C000CB1DFB208277A88CCC16CE1DFADECC0B7D
:1007D00062FECCE1B7F0C381647340A0C24D8911C1
:1007E000753355338DE84AFDEA6E300BD7312CDE78
:1007F00047E3BFF85542E27F59E517EF9934699115
:10080000B1238E20872DA8FED58AF3843AF037E4F1
:10081000090054EE674993E48170E3904DEFFE4187
:10082000B7997BC183BA62126F7DDE6BAFDA16F9BE
:100830005551EEA60C2B02A3FD8DFB3017E46FDFA4
:100840003671C4CA872548B047ECEAB4BFA54D9BB2
:100850009F0293C4E3E4E8422D6881150AEB845BB0
:10086000D6A874FB7D1DCB2CDA462A7662CEBC5C02
:100870009E8BE7CFBE78F57CEBB33A9CAA6FCC7227
:10088000D159F21123D63F48D1B7CEB0BFCBEA80C1
:10089000DE57D45E972F75D1508E802C6679BF724B
:1008A0004BBD8A816CD3E101DCD21526C536DA2C2A
:1008B0001AC02794EDB79B850B5E8097C5EC4FEC73
:1008C000885D50073547DC0B3B3DDD60AFA85D819F
:1008D0003824255D5C15D1DEB3ABEC0569EF83ED03
:1008E0005754B8646411163269DA9F2D7F36BB44C1
:1008F0005A34E87FBF03EB007F59682279CF736CCD
:100900002C29A7A15F38A11DF02053E01A631458C9
:100910007110AA080C3E161A6022827FBAA443A066
:10092000D0AC1BD56B64B51493319E5350D0576631
:10093000EE5A4FFB032A695876F183F74EBA8C4280
:1009400006605D6DCE6088AEA4C3F103A54B98A18F
:10095000FF67E1ACA2B862D76FA031B4D277AF2104
:100960001006C69AFF1D09170E5FF1AA54344B45B5
:100970008A8763A6DCF9243067C6B2D6613369EE94
:1009800050615728E77EEEEC3A5A734EA88DE41872
:10099000EAEC4164C8E2E866B62DB6FB6A6C16B3B1
:1009A000DD4643B973006A71ED4E9D251AC33C4A7A
:1009B00095159935811402D6989BECD8233B842950
:1009C000AF0C9983A69A344FFAE8D03C4BD0FBB6D3
:1009D00068B89E8FCDF7602D7A22E57DAB651B95BB
:1009E000A7A87FB677477B5F8B1272D0D491EFDEDA
:1009F00019503CA78BC4A9B323CB76E681F0C10480
:100A00008FA3B8545B97AC19FF3F55272FE01D42C9
:100A10009B57FC4B4E0FCE98A9435703BDE7C89494
:100A2000DF6E367332B4EF2E857A6EFC6C188275E9
:100A3000359007F3E49F3EDC68F3B5F31980920626
:100A400099A2E86FFF2E7FAE42A45FFBD40E812BEC
:100A5000C304FF2BB3744E365B9C1500C6472BE8CE
:100A60008B3DF19C039A587F9B9CBF854979352E1D
:100A7000567B411439478326AA078998111B86E7BC
:100A8000737AD87D786153E979F5368D449284F98B
:100A90001350583BA46A3665498E3C0EF16FD284E0
:100AA000C47E8E3F39AE7C84F163378E3CCC3E44AD
:100AB0008145F14BB9ED6B365DBB20601A0FA3AADF
:100AC00055773AA9AE374DBAB8866BBC0850F6CC0C
:100AD000A4BD1D4072A586FAE210AE3D584B97F3B7
:100AE0004374A99EEB21B701A4869397EE2F4F3B49
:100AF00086A1416F412690785C7F30384B3FAAEC4D
:100B0000ED5C6F0EAD4387FD9335E601EF41269016
:100B1000999EFB195BADD2918AE046AF65FA4F848E
:100B2000C1A12DCF458BD38550557CF96788D44E14
:100B3000E9D76B6154A1A4A6A2C2BF309C409F5FBD
:100B4000D7692B24825ED9D6A712541AF7559F76FF
:100B500050A99584E66B6DB59654D6CDB3A19B464E
:100B6000A7944DC494B498E3E1E234D53316075406
:100B7000CDB77753DB4F4D469DE9D49C8A36B6B846
:100B800038266C0EFF9C1B438B80CCB93DDAC7F135
:100B90008AF26DB8D7742F7E1EB7D34AB4ACFC79F5
:100BA000486CBC96B69446572DB0A3FC1EB9526053
:100BB000852D41D043011E1CD57DFCF3960DC7CB7E
:100BC0002A299A93DD882D375DAAFB4968A09C509D
:100BD000867F685657F9791839D4E001843361CAA1
:100BE000A5D2D6E4C98A4A23444EBCF0DC24A1A095
:100BF000C4E2073C10C4B5254B6563F480E7CF61C0
:100C0000B1718221872CF59100320CECA9B59A7450
:100C100085E3368F764F9C6DCEBCAD0A4BED7604E6
:100C2000CBC3B9339E019396697DC5A245799B04D8
:100C30005C8409ED8843C7AB931426A140B5CE4E22
:100C4000BF2A42853E2C3B54E8121F0E9759B2270B
:100C500089FAF2DF8E6859DC06BCB6850D0622ECF7
:100C6000B1CBE504E63DB3B04173083F3C58866321
:100C7000EB50EE1D2C3774A9D318A3476E9354ADD7
:100C80000A5DB82A555D78F6EEBE8E3C7669B940AD
:100C9000C234EC2AB9ED7E20E48D0038C7E68F44DB
:100CA000A886CEEB2AE990F14CDF32FB731B6D92E4
:100CB0001E95FEB4DB65DF4D23548948BF4A2E7074
:100CC000D6D762B43329B13A334C236DA676A52129
:100CD0006348E6905DED90950B7A84BEB80D5E6337
:100CE0000C62264C145AB3AC23A474A76F3330059E
:100CF000600142A028B7EE1938F164808243E141D7
:100D0000271F1F90547AD5232ED13DCB28BA587F68
:100D1000DC7C9124E92851836EC5562142EDA05612
:100D200022A140806BA8F794CA136B0C39D9FDE956
:100D3000F36FA69EFC708AB3BC593C1E1D6CF97CF7
:100D4000AFF9887195EB5700BD9F8C4FE12483C5A7
:100D500022EAFDD30CE217187C6A4CDE77B4539B71
:100D60004C81CD2360AA0E25739C02793230DF744A
:100D7000DF7519F4A5145CF77AA8A591847C60034B
:100D8000063BCD50B6279CFEB1DDCCD3B05924B282
:100D9000CAE21C81229D078F8EB9BE4EFAFC3965CE
:100DA000BABF9D12375E977EF389F55DF5E3098C36
:100DB00062B5209D0C538A681BD28F75175DD4E5F0
:100DC000DA756219146A262DEBF8AF37F06CA4556A
:100DD000B1BCE233C09ACAB011494F689B3B6B3C2F
:100DE000CC13F6C785616842AEBBDDCD4516291D23
:100DF000EADBC803943CEE4F8211C3EC28BD970593
:100E000099DED7BB5E221FD4EB64D992D985B76A2D
:100E1000056AE42441F1CDF0D83FF89E0ECD0B7A5F
:100E2000706B5A750A6A3388EC17750870102F2496
:100E3000CFC4E942006194CA1F3A7606FAD24881CB
:100E4000F077600345D961F4A46F3DD930C3046BDA
:100E5000542AB7EC3BF44BF5685226CEFF5D19914E
:100E6000A0A3A5A9B1E023C40A774DF95120A3A5F9
:100E7000A9B1C10082868E7F5D1991A0A3C4EB54F5
:100E80000B756852078C9A978D79706246EF5C1BE0
:100E900095897141E121A1A1A1C002674C1AB6CF89
:100EA000FD785324ABB5C9F16023A5C812876D58EE
:100EB00013858892876D5832C70C9A97ACDA36EE54
:100EC0005E3EDF1DB8F2662FBDF87247ED58138500
:100ED0008892878C7B550990A2C6EF3DF85324ABCE
:100EE000D42AB7EC5A36EE5E3EDF3CFA764FFD5917
:100EF00030E246EF3DF853056931C10082868E7FAE
:100F00005D19B0E227CCFB744B148B948B7568335E
:100F1000C50892878C9AB6CF1CBAD70D98B2E62F27
:100F2000DC1B9589716023C40A968F9CBAF66E3FCC
:100F3000FC5B15A8D226AFBDF872662FDC1BB4CBC4
:100F4000148B94AAB7CDF951018082866F3DD930B8
:100F5000E227CCFB744B14AAB7CDF97043046B3570
:100F6000C9F16023A5C8F3450892876D5832E62F72
:100F7000BDF872664E1EBEFE7E7E7E5F1D9991A0FC
:100F8000A3C40A774D1893A4ABD40B754910A2C61D
:100F9000EF3DF85324ABB5E833E44A16AEDE1FBC90
:100FA000DB15A8B3C5087345E931C1E121A1A1A1B1
:100FB000C002866F5C3AD70D9893A4CA16AEDE1FA6
:100FC0009D99B0E246EF3DF872470C9AB6CFFD59B5
:100FD00011A0A3A5C8F3450892876D39F043048A90
:100FE00096AEDE3EDF1D9991A0C2066F3DF87247B6
:100FF0000C9A978D989385887345E931E023A5A9CC
:10100000D003848A96AEDE1FBCDB15A8D226CEFFA5
:101010005D1991818082672DD813A4ABD40B94AA5B
:10102000B7CDF95120A3A5C8F345E95022C6EF5C1E
:101030003AD70D9893858873644AF74DF95120A3E8
:10104000C40A96AEDE3EFE7E7E7E5F3CFA764FFDA3
:101050007872662FBDD930C3E54812878C7B55283E
:10106000D2078C9A97ACDA178D795120A3C4EB5430
:101070000B948B94AAD62EBFFC5B15A8D226AFDCAE
:101080001BB4EA37EC3BF46A37CD1893856931C15C
:10109000E140E325C812878C9AB6CFFD5911A0C252
:1010A000068E7F5D38F2470C7B746A37EC5A36EE59
:1010B0003FFC7A764F1C9B95897141006344EB5449
:1010C0002AD60F9CBAD70D9893856931C1008286C4
:1010D0008E9EBEDF3CFA572CDA36EE3FFC5B15895C
:1010E00071410082868E7F5D38F247ED5813A4CAA5
:1010F000F74DF95101806344EB542AD62EBFDD1918
:1011000091A0A3A5A9B1E042068E7F5D1991A0A38D
:10111000C40A968F7D7872470C7B746A562EDE1F48
:10112000BCFA570D7951016121A1C0E325A9B1C1D4
:10113000E14002674C1A978D9893A4ABD42AD60F3E
:101140009C9BB4CB14AAB7CDF95120A3C4EB35C9ED
:10115000F16042068E7F7C7A766E3FFC7A766E5E18
:101160003EFE7E5F3CDB15897141E121C0E344EB2B
:10117000542AB7CDF9706227ADD832C70C7B744BB7
:1011800014AAB7EC3BD528D2076D39D120C2E74C61
:101190001A978D98B2C70C5928F39B313A096465A8
:1011A0006C6179282A31306D73293A2025750A320D
:1011B0003A09696E74657276616C286D73293A20FC
:1011C00025750A333A096D61785F73706565643A15
:1011D0002025750A343A0974696D655F746F5F6D17
:1011E00061783A2025750A353A09776865656C5F3C
:1011F0006D61785F73706565643A2025750A363ACB
:1012000009776865656C5F74696D655F746F5F6DA4
:1012100061783A2025750A00703A097072696E7417
:101220002076616C7565730A643A0973657420648D
:10123000656661756C74730A75703A092B310A64BE
:101240006E3A092D310A6C743A092B31300A7274E6
:101250003A092D31300A4553432F713A09717569A6
:10126000740A0A7370656564203D2064656C74615E
:10127000202A206D61785F7370656564202A2028BC
:10128000726570656174202F2074696D655F746F7D
:101290005F6D6178290A77686572652064656C7492
:1012A000613A20637572736F723D25642C207768F4
:1012B00065656C3D25640A53656520687474703AF1
:1012C0002F2F656E2E77696B6970656469612E6F6B
:1012D00072672F77696B692F4D6F7573655F6B65EB
:1012E00079730A004D3E20004D25753A25733E2046
:1012F000003F0A003D2025750A003F0A006465662C
:1013000061756C74730A0025750A003F0A000A09AA
:101310002D2056616C756573202D0A00710A000A34
:10132000092D204D6F7573656B6579202D0A003F7F
:1013300000433E20004C25640A000A092D20537406
:1013400061747573202D0A686F73745F6B657962C1
:101350006F6172645F6C65647328293A20253032AE
:10136000580A6B6579626F6172645F70726F746F37
:10137000636F6C3A20253032580A6B6579626F6171
:1013800072645F69646C653A20253032580A74696A
:101390006D65725F72656164333228293A202530A9
:1013A000386C580A000A092D2056657273696F6EF1
:1013B000202D0A5649443A20307846454544286F46
:1013C00070656E747261636B29205049443A203015
:1013D0007830303030286F70656E747261636B29BD
:1013E000205645523A203078303030310A42554943
:1013F0004C443A2020284A756E2031322032303257
:1014000032290A4F5054494F4E533A204C554641C9
:10141000204D4F5553454B45592045585452414B4B
:10142000455920434F4E534F4C4520434F4D4D415E
:101430004E4420343039360A4743433A20382E345C
:101440002E30204156522D4C4942433A20322E3004
:101450002E30204156525F415243483A2061767205
:10146000350A000A092D20436F6E736F6C65202DBD
:101470000A4553432F713A09717569740A6D3A0927
:101480006D6F7573656B65790A000A092D204D61D2
:10149000676963202D0A443A094465627567204DE7
:1014A00065737361676520546F67676C650A583AA6
:1014B000094D6174726978204465627567204D6FCB
:1014C000646520546F67676C65202D2053686F77C3
:1014D000206B65797072657373657320696E206D1A
:1014E000617472697820677269640A4B3A094B65C6
:1014F00079626F61726420446562756720546F671A
:10150000676C65202D2053686F77206B657970724A
:10151000657373207265706F72740A4D3A09446581
:10152000627567204D6F75736520546F67676C65D2
:101530000A563A0956657273696F6E0A533A09532F
:1015400074617475730A433A09416374697661740E
:101550006520436F6E736F6C65204D6F64650A463E
:10156000312D4631303A0953776974636820746FBE
:10157000204C6179657220302D3920284631302089
:101580003D204C30290A302D393A0953776974636C
:101590006820746F204C6179657220302D390A47BC
:1015A000524156453A0953776974636820746F2035
:1015B0004C6179657220302028616C7465726E61AF
:1015C0007465290A423A094A756D7020746F204289
:1015D0006F6F746C6F616465720A4553433A094AD0
:1015E000756D7020746F20426F6F746C6F616465ED
:1015F000722028616C7465726E617465290A453ABF
:10160000095072696E7420454550524F4D20536504
:101610007474696E67730A4253504143453A0943F3
:101620006C65617220454550524F4D0A006B6579DB
:101630006D61705F636F6E6669672E7261773A20C5
:10164000253032580A2E737761705F636F6E747243
:101650006F6C5F636170736C6F636B3A2025750A02
:101660002E636170736C6F636B5F746F5F636F6E1B
:1016700074726F6C3A2025750A2E737761705F6CF7
:1016800063746C5F6C6775693A2025750A2E7377F1
:1016900061705F7263746C5F726775693A2025755B
:1016A0000A2E737761705F6C616C745F6C6775692B
:1016B0003A2025750A2E737761705F72616C745FD2
:1016C000726775693A2025750A2E6E6F5F677569B6
:1016D0003A2025750A2E737761705F6772617665AF
:1016E0005F6573633A2025750A2E737761705F62B8
:1016F00061636B736C6173685F6261636B7370616C
:1017000063653A2025750A2E6E6B726F3A20257537
:101710000A0064656275675F636F6E6669672E7243
:1017200061773A20253032580A2E656E61626C6509
:101730003A2025750A2E6D61747269783A202575F4
:101740000A2E6B6579626F6172643A2025750A2EE4
:101750006D6F7573653A2025750A006565636F6E58
:101760006669673A0A64656661756C745F6C617975
:1017700065723A2025750A003F000A6D6F75736522
:101780003A206F66660A000A6D6F7573653A206FBE
:101790006E0A000A6B6579626F6172643A206F6647
:1017A000660A000A6B6579626F6172643A206F6E37
:1017B0000A000A6D61747269783A206F66660A00E1
:1017C0000A6D61747269783A206F6E0A000A646566
:1017D0006275673A206F66660A000A64656275671B
:1017E0003A206F6E0A000A0A4A756D70696E6720AA
:1017F000746F20626F6F746C6F616465722E2E2E31
:101800002000433E2000436C656172696E6720458D
:101810004550524F4D0A000A002530325820006BC7
:101820006579626F6172645F7265706F72743A207D
:10183000005B735D005B575D005B535D005B525D59
:10184000005B445D005B435D0014036F0070006546
:10185000006E0074007200610063006B00000014F1
:10186000036F00700065006E007400720061006319
:10187000006B0000000403090409025B000301007F
:10188000A0FA09040000010301010009211101006F
:10189000012240000705810308000A090401000134
:1018A00003000000092111010001227B00070582CD
:1018B0000320000A090402000203000000092111AC
:1018C0000100012222000705830320000107050310
:1018D000032000011201000200000008EDFE0000DC
:1018E0000100010200010631FF0974A1010975150B
:1018F0000026FF009520750881020976150026FF55
:1019000000952075089102C005010902A101850218
:101910000901A100050919012908150025019508EB
:10192000750181020501093009311581257F950274
:101930007508810609381581257F9501750881068E
:10194000050C0A38021581257F950175088106C0AE
:10195000C005010980A101850319012AB7001501FD
:1019600026B700950175108100C0050C0901A10181
:10197000850419012AA002150126A00295017510FF
:101980008100C005010906A101050719E029E71535
:1019900000250195087501810295017508810105F1
:1019A00007190029FF150026FF009506750881001C
:1019B0000508190129059505750191029501750321
:1019C0009101C00011241FBECFEFDAE0DEBFCDBF12
:1019D00004B603FE27C08091A8029091A902A091AD
:1019E000AA02B091AB028730904BA740B04BD1F424
:1019F0001092A8021092A9021092AA021092AB02B1
:101A000014BE84B7877F84BF0FB6F894A8958091E1
:101A10006000886180936000109260000FBEE0E07B
:101A2000F8E3099511E0A0E0B1E0E4EFF9E602C0C7
:101A300005900D92A03FB107D9F722E0A0EFB1E0E9
:101A400001C01D92A83AB207E1F70E94F91D0C945B
:101A5000D0340C940000FF93EF93E091F001F091EB
:101A6000F101309709F00995EF91FF910895FC017C
:101A70008591803011F0EFDFFBCF0895FF27E0E282
:101A800030E247FF0CC0419597FF09C0EDE2609539
:101A9000709580959095611D711D811D911D27FF89
:101AA00002C0219530E350E2AA27660F771F881FF6
:101AB000991FAA1FA41710F0A41B63955A95A9F7A4
:101AC000AA3008F0A95FA05DAF93F3956115710589
:101AD0008105910541F7ED3211F4EF93F395F2177B
:101AE00018F43F93F395FBCF8F91B5DFFA95E1F7AB
:101AF0000895E991F9918591803021F0853219F0AE
:101B0000AADFF9CF089520E0E89455915532C1F34A
:101B1000503311F4689455915A3348F4505390F36C
:101B2000220F022E220F220F200D250FF4CF0EF4CC
:101B3000219589919991533619F3533729F15335EA
:101B400059F1BC0188279927E8945C3621F48991E2
:101B5000999168945591543639F446EF7EF077FFA9
:101B60000DC08FEF9FEF0AC055374AE039F0583566
:101B700040E121F0523642E009F00895FF93EF93DF
:101B80007DDFEF91FF91B7CFFF93EF93FC01819140
:101B90008030B9F360DFFBCFFF93EF9368DFF1CFC5
:101BA000DF93CF93CDB7DEB72596A3DFCF91DF913B
:101BB000089581E0089581E008950C94DB0D089567
:101BC0000C94DF0D1F93CF93DF9300D000D00F92C2
:101BD000CDB7DEB749835A836B833091F201898197
:101BE0009A8131111DC06623B9F02223A9F00E9409
:101BF0004B14182F682F89819A810E94FA136981EA
:101C00007A81812F0F900F900F900F900F90DF919E
:101C1000CF911F910C94B61A0E942514182FEFCF64
:101C20000E944B1469817A81EDCFFC01262F4081FF
:101C300051816281738184810C94E20D81E0089569
:101C4000CF93DF93EC0160E00E94150EBE01DF919F
:101C5000CF910C94E00D0E94DA1C0E94D70E0C94D8
:101C6000FF1C0C94021D80E00E94D80E0C94EC2105
:101C7000089508950E94A3120E94390E2FEF84E365
:101C80009CE0215080409040E1F700C000000C949F
:101C9000AA2C0F931F93CF93DF938C0161E00E94D6
:101CA000150EEC01B8010E94DD0D8823C1F1B801C9
:101CB000CE010E94B929882391F1B801CE010E947A
:101CC000E724882361F1B801CE010E9423298823EB
:101CD00031F1F8018281882361F0CF3DFCE5DF0717
:101CE000B1F170F4C115ECE5DE07B9F0C130DC45A7
:101CF000E1F0C801DF91CF911F910F910C94D90DA4
:101D0000CC358DE5D80749F1CD35DC0719F1CB3558
:101D1000DD4579F70E941419ECCF0E943A0E80E05D
:101D2000DF91CF911F910F91089590914F02892FCC
:101D30008E7F90FF816080934F0280FF05C086EC0C
:101D400090E00E94370DEBCF84EB90E0FACF0E9439
:101D5000C519E5CF0E940B19CCCF0E941719C9CF26
:101D60000C94380E0E94EF2A0E94D80E0C94B00EEC
:101D7000829590E09C01220F331F220F331F2C7C91
:101D800095958795959587958373282B30E0C901A4
:101D9000880F991F8A7A359527952575822B089586
:101DA00008950C94D00E81E008950C94D30E0895FC
:101DB000CF93C82F0E94D10E8C2FCF910C94D50EAB
:101DC000CF93DF93CDB7DEB72B970FB6F894DEBF76
:101DD0000FBECDBF4F83588769877A878B87611184
:101DE0000E9446181E821D8285E0FE013796DE01A4
:101DF000119601900D928A95E1F78C819D81892B36
:101E000089F449815A816B817C818D819E810E94F8
:101E100067172B960FB6F894DEBF0FBECDBFDF91CC
:101E2000CF91089589819A8189238F3F51F3CE0103
:101E300001960E941E0E8111E4CFEBCFFC01808140
:101E400091810C948D140F931F93CF93DF9300D047
:101E500000D000D0CDB7DEB7082F162F0E943B224E
:101E600029834B835C836D837E83002399F0312B20
:101E70004981532F6B817C818D819E8126960FB67F
:101E8000F894DEBF0FBECDBFDF91CF911F910F91B0
:101E90000C945C2210953123EBCFCF93C82F88236D
:101EA00009F44CC08CEF8C0F813AC8F48C2F0E943F
:101EB000CF28811143C06C2F8091020190910301C2
:101EC0000E94932B882329F08C2F0E9408180E94CF
:101ED00076188C2F0E940118CF910C94761880E20E
:101EE0008C0F883048F4C77081E001C0880FCA9514
:101EF000EAF70E942918F0CFEBE5EC0FE33040F44D
:101F0000F0E0E85BFE4F808190E0CF910C94552B80
:101F1000E8E5EC0FE73150F4F0E0EE0FFF1FE65E6E
:101F2000FE4F80819181CF910C946B2BCD3E30F090
:101F30008C2F0E94891ECF910C945C1FCF91089525
:101F4000882361F19CEF980F913A20F40E940818C1
:101F50000C94761890E2980F983050F4877091E0C6
:101F600001C0990F8A95EAF7892F0E942F18F0CFA8
:101F70009BE5980F933020F490E080E00C94552B73
:101F800098E5980F973120F490E080E00C946B2B4B
:101F90008D3E20F00E94E31E0C945C1F08951F9359
:101FA000CF93DF93182FEB010E944D0F209731F450
:101FB000812FDF91CF911F910C94A00F8FE99FE0AB
:101FC0000197F1F700C000002197F0CF70E060E0CA
:101FD000893311F460E570E00C94CF0F882321F071
:101FE0000E9429180C9476180895882321F00E94E5
:101FF0002F180C9476180895BF92CF92DF92EF922B
:10200000FF920F931F93CF93DF936C01D62FC72FAF
:10201000FC011281F580F2949FE0F9220E941F18C2
:10202000E82E8823B9F0E12E1123A1F08C2F807FB8
:10203000803421F080E28D0F8830B0F080919402DE
:1020400082FD12C082E00E94C7180E941F1891E012
:10205000E82EE926BC2EB2948FE0B822EB2DF0E0FA
:10206000EE52FB4C0C947B34E12CF4CF0C2F0F7010
:10207000C07F11F00295007F112399F0002359F0E1
:1020800080E28D0F883010F0D11107C0802F0E94A0
:1020900029180E9476188D2F41C0802F0E94391870
:1020A000F8CF8D2F0E94A00F002309F43FC080E2DB
:1020B0008D0F883010F0D11104C0802F0E942F188E
:1020C00003C0802F0E943F180E9476182FC00C2F4B
:1020D0000F70C07FC03211F00295007FDD2381F0C8
:1020E000D13009F46AC0112309F474C0FF2009F447
:1020F0006AC0F601858180FFCECF8F70858363C073
:102100008091940282FF39C0112359F0002329F0F5
:10211000802F0E9429180E94761880E00E944D0F9F
:1021200005C080E00E94A00F0111C7CF2B2D2850C1
:10213000330B2430310520F40E94EF2A0E94D80E80
:10214000EE2009F49DC10E941B1880FD99C1F60183
:1021500012820E9415180E945E13C6010E9461122D
:102160000E941518DF91CF911F910F91FF90EF9072
:10217000DF90CF90BF900C947F13112389F0F11062
:1021800006C00E945918802B0E94EE0FCFCFF1E0BD
:10219000FF12F7CF0E945918802B0E945F18C6CFFC
:1021A000F11006C00E946C18802F0E94F50FBECF60
:1021B00021E0F21609F4BACFF5CF112331F035E062
:1021C0003F1508F4B3CF802FDFCF84E08F1508F4DC
:1021D000ADCFEACFFF2041F3D93349F4FFEF27EE2B
:1021E00033E0F15020403040E1F700C000008D2F77
:1021F0000E94A00F9BCF8C2F86958695837069F0E7
:10220000813009F093CF8D2F9C2F9370111102C054
:1022100090E080E00E946B2B89CF8D2F9C2F9370D4
:10222000111102C090E080E00E94552B7FCF8D2FCE
:10223000112391F00E94891EED2FE15FFF0BE83022
:10224000F10568F461E070E001C0660FEA95EAF715
:10225000812F0E94230F6ACF0E94E31EEDCF0E94C0
:102260005C1F64CF8C2F837009F041C011115ECFC9
:102270004D2F429546954770440F440F0D2F0F7018
:1022800010E030E020E0042E04C0000F111F221FD8
:10229000331F0A94D2F760E070E0CB01D4FF0FC087
:1022A0006FE070E080E090E004C0660F771F881F49
:1022B000991F4A95D2F76095709580959095C6952F
:1022C000C695C370602B712B822B932BC23049F0C3
:1022D00058F4C13019F00E94101328CF0E94FE124A
:1022E00025CF0E94221322CF0E94FC121FCF869579
:1022F000112311F08C2F8170882309F417CF4D2FF3
:10230000429546954770440F440F0D2F0F7010E013
:1023100030E020E0042E04C0000F111F221F331FE5
:102320000A94D2F760E070E0CB01D4FF0FC06FE0F9
:1023300070E080E090E004C0660F771F881F991F4F
:102340004A95D2F76095709580959095C695C695FB
:10235000C370602B712B822B932BC23049F058F441
:10236000C13019F00E94D513E1CE0E94C313DECE16
:102370000E94E713DBCE0E943813D8CECF70112312
:1023800029F08C2F0E945E138D2FFECE8D2F0E9480
:10239000F50F8C2F0E947F13C9CED23F51F160F40C
:1023A000D03FB9F0D13F81F0112309F449C0F110B9
:1023B00072CE8C2F8F7121C0D33F11F1D43FA1F782
:1023C0008091940282FF26C08C2F8F71112311F30C
:1023D00014C0112349F0F4E0FF1508F4A7CE8C2FA8
:1023E0008F710E94A213A2CE25E02F1508F49ECE75
:1023F000F6CF8C2F8F711111CDCF0E945E1396CE28
:10240000112329F08C2F8F710E9449138FCE0E94C7
:1024100044138CCE112349F0CF718C2F0E945E1390
:1024200063E08C2F0E94AC1881CE81E00E94C71817
:1024300031E03F1508F07ACE82E00E94C71876CED0
:10244000FF2059F0D93309F0D2CE8FEF97EEE3E0B9
:1024500081509040E040E1F7C8CE8C2F8F719ACF29
:102460004C2F4F706D2FC6010E94B21A0E94BB14F0
:102470005DCE4C2F4F706D2FC6010E94B51A56CEFF
:10248000DF91CF911F910F91FF90EF90DF90CF9050
:10249000BF9008950F931F93CF93DF93EC01688152
:1024A00079818A810E9497148C010E94F9130E94FD
:1024B000FB12B801CE01DF91CF911F910F910C94C7
:1024C000FC0FCF93DF93EC018B819C81892B29F04A
:1024D0008881998189238F3F59F4DF91CF910895A5
:1024E000CE010E944A12CE01DF91CF910C94200EB2
:1024F000CE010E94490E8111F3CF0E941F1888233C
:1025000061F38A81882349F38091940282FDE5CFAB
:1025100082E0DF91CF910C94C71890E080E00E9498
:10252000552B90E080E00E946B2B0E9446180E9481
:1025300056180E9476180E9405210C945C1F0E9478
:102540000F180C948D120E9436180C949F12E92FCC
:10255000E295EF70E250EE3070F4F0E0EE51FB4C9B
:102560000C947B34803F19F020F4883E20F481E005
:102570000895843FE1F380E00895883EC0F3813FF1
:10258000D1F7F5CF93FB882780F90895FC0180816E
:1025900091810E948D140C94A712CF93DF9300D0E9
:1025A00000D00F92CDB7DEB70F900F900F900F9025
:1025B0000F90DF91CF910895CF93DF9300D000D09B
:1025C00000D0CDB7DEB726960FB6F894DEBF0FBEAB
:1025D000CDBFDF91CF91089508950C94EC120E9425
:1025E000ED126093FC017093FD018093FE019093C6
:1025F000FF010C948D1208950C94EF120F931F930A
:102600000091FC011091FD012091FE013091FF012C
:10261000602B712B822B932B1F910F910C94EF1237
:102620000F931F930091FC011091FD012091FE0179
:102630003091FF0160237123822393231F910F9117
:102640000C94EF120F931F930091FC011091FD0168
:102650002091FE013091FF01602771278227932787
:102660001F910F910C94EF120C94EC120C943413F4
:102670000E9436136093F8017093F9018093FA0178
:102680009093FB010C948D1260E070E0CB010C94F0
:1026900038130F931F9341E050E060E070E08A012F
:1026A0009B0104C0000F111F221F331F8A95D2F710
:1026B000C901B8011F910F910C9438130F931F9308
:1026C00041E050E060E070E004C0440F551F661F19
:1026D000771F8A95D2F78091F8019091F901A09126
:1026E000FA01B091FB018A019B01082B192B2A2BBF
:1026F0003B2BC901B8011F910F910C9438130F9314
:102700001F9341E050E060E070E004C0440F551FAB
:10271000661F771F8A95D2F7CB01BA016095709535
:10272000809590950091F8011091F9012091FA019E
:102730003091FB0160237123822393231F910F911A
:102740000C9438130F931F9341E050E060E070E069
:1027500004C0440F551F661F771F8A95D2F78091DA
:10276000F8019091F901A091FA01B091FB018A0161
:102770009B01082719272A273B27C901B8011F9168
:102780000F910C9438130F931F930091F80110913F
:10279000F9012091FA013091FB01602B712B822B02
:1027A000932B1F910F910C9438130F931F9300914B
:1027B000F8011091F9012091FA013091FB01602399
:1027C0007123822393231F910F910C9438130F933D
:1027D0001F930091F8011091F9012091FA013091B5
:1027E000FB0160277127822793271F910F910C947B
:1027F00038130895990F890F982F977041E001C001
:10280000440F9A95EAF786958695869595E0899F77
:10281000F0011124ED50FE4F30E020E070E05191C6
:10282000DF011197CB01022E02C0969587950A947D
:10283000E2F7817081958527842385278C932F5F0C
:102840003F4F2530310559F70895990F890F982F7B
:10285000977086958695869525E0829FF0011124D4
:10286000ED50FE4F50E040E080E0219130E0092E35
:1028700002C0369527950A94E2F721703327042E7B
:1028800001C0220F0A94EAF7822B4F5F5F4F453059
:10289000510559F70895BF92CF92DF92EF92FF92C0
:1028A0000F931F93CF93DF938C01C090F801D090CA
:1028B000F901E090FA01F090FB018091FC01909108
:1028C000FD01A091FE01B091FF01C82AD92AEA2A90
:1028D000FB2ACFE1D0E0BC2ED701C6010C2E04C0EC
:1028E000B695A795979587950A94D2F780FD0EC067
:1028F000219788F7B12C8B2DDF91CF911F910F91EC
:10290000FF90EF90DF90CF90BF900895B8018C2F8B
:102910000E94E11B019761F3EECFCF93DF93EC01AF
:102920000E944B14BE01DF91CF910C94E11B1F93C9
:10293000CF93DF93EB019091F201992331F0CB011A
:10294000DF91CF911F910C948D14882379F0CB01E6
:102950000E944B14182F682FCE010E94FA13BE015B
:10296000812FDF91CF911F910C94E11BCB010E942D
:102970002514182FF4CFEF92FF920F931F93CF934C
:10298000DF938C01892B81F0F12CEE24E394E80194
:102990002196F8018491843770F4843008F05FC088
:1029A0008130B1F08230A1F1DF91CF911F910F9171
:1029B000FF90EF900895853709F44CC008F43DC0AE
:1029C0009CE7980F903780F78F770E94A00F49C03F
:1029D0000E5F1F4FFE01849190E2980F983060F4D3
:1029E0008770FE2D01C0FF0F8A95EAF78F2F0E9496
:1029F00049180E94761802C00E944D0F8F2D8150F9
:102A000030F2EFE9FFE03197F1F700C00000F7CFB7
:102A10000E5F1F4FFE01849190E2980F983050F4A2
:102A20008770FE2D01C0FF0F8A95EAF78F2F0E9455
:102A30004F18DFCF0E94A00FE1CF0E5F1F4FFE01A6
:102A4000C491C150D8F28FE99FE00197F1F700C01F
:102A50000000F7CF0E5F1F4FFE01F490CFCF0E9412
:102A60004D0F8E01CBCF1F93CF93DF93C091000208
:102A700016E0809101028C1304C0DF91CF911F9169
:102A80000895D0E01C9FF0011D9FF00D1124EE5F12
:102A9000FD4F4081518162817381848195810E94C3
:102AA000DC122196C770E5CF40913202509133027B
:102AB0006091340270913502809136029091370214
:102AC0000C94DC12FF920F931F93CF93DF938091AE
:102AD0003702807FD1F4809134028823B1F0809155
:102AE0000002109101026091320270913302A091B4
:102AF0003502B0913602062F0723C0910001D09114
:102B0000010196E0F92E181306C0DF91CF911F91B5
:102B10000F91FF90089590E0109711F00F3F19F476
:102B200001968770F0CFF89E9001F99E300D112428
:102B3000F901EE5FFD4F41814713F2CF408146130B
:102B4000EFCF42814111ECCF438154814A1B5B0B93
:102B50004C175D0728F7809137028F708061809352
:102B60003702F901E95FFD4F80818F7080618083BA
:102B700082E392E00E946112DF91CF911F910F9149
:102B8000FF900C943315AF92BF92CF92DF92EF92E9
:102B9000FF920F931F93CF93DF93CDB7DEB761976B
:102BA0000FB6F894DEBF0FBECDBF8C0185E0F801F3
:102BB000DE011D9601900D928A95E1F7F801E28001
:102BC00082E3C82E82E0D82E6091350270913602E1
:102BD0006115710509F45FC19091320220913302B1
:102BE000892F82238F3F09F456C140815181A380F0
:102BF000B480F0903402F501E61BF70BBF01E091C1
:102C00000001F0910101FF2009F4F6C08091370224
:102C1000382F307F6E177F0708F0AFC0311179C0B1
:102C2000FE2C251323C0941321C0E1101FC08F7008
:102C30008061809337020E945415C6010E94611280
:102C400080913702F80185838F2D61960FB6F89435
:102C5000DEBF0FBECDBFDF91CF911F910F91FF90CF
:102C6000EF90DF90CF90BF90AF900895AB2829F000
:102C7000842F85238F3F09F027C180E0F82FF17062
:102C8000DF2E80FF3CC0809100022091010236E0DF
:102C9000821315C04D875E878D859E850E948D1499
:102CA000292F22952F702230F0F0243018F59F70D4
:102CB000F1F0F8019581907FD1F4D12C1EC090E005
:102CC000389FF001399FF00D1124EE5FFD4F6181B7
:102CD000651306C06081641303C062816E110FC06A
:102CE00001968770D5CF9F7011F0882331F3805EF5
:102CF000883018F3C8010E946112FD2CA5CFEE2088
:102D000009F4A2CF80913702816080933702F12CC1
:102D10009BCF251306C0941304C0F801EE2009F4DC
:102D200087C0C8010E94C612882319F1EE2009F15C
:102D300080913702803270F020913202309133025C
:102D400038872F831986BB86AA868C87CE01079683
:102D50000E94611286E0F801A2E3B2E001900D92B8
:102D60008A95E1F70E9462150E945415FF24F3949E
:102D70006BCFC8010E946112F9CF311113C07A2DB7
:102D8000B98AA88A6E2D89890E94CD1282E392E0C9
:102D90000E94611286E0F60111928A95E9F70E947D
:102DA0005415B5CF25130FC094130DC0E1100BC0FF
:102DB000F8018583C8010E94611286E0F601119234
:102DC0008A95E9F741CFC8010E94C612882389F28B
:102DD000EE2079F280913702803208F4BBCF209147
:102DE0003202309133023A8329831B82BD82AC8246
:102DF0008E83CE010196ACCF6E177F0708F03EC0E0
:102E0000FE2CEE2009F4B5CF25132AC0941328C058
:102E10008091370280FD1BC0982F907FC1F0F80190
:102E20008583903F31F0982F907F905F8F70892B32
:102E30008583C8010E94611286E0F801A2E3B2E036
:102E400001900D928A95E1F70E945415FDCE86E01F
:102E5000F801A2E3B2E001900D928A95E1F7F4CE79
:102E6000C8010E94C612811175CF8091370281601E
:102E700080933702C8010E946112E6CE7A2DB98A8A
:102E8000A88A6E2D89890E94CD1286E0F6011192E2
:102E90008A95E9F7D9CFEE2009F46BCFC8010E94DB
:102EA000C612F82E882309F464CF86E0F801A2E365
:102EB000B2E001900D928A95E1F782E392E00E94E0
:102EC0001E0F0E946215C0CF81E08E25D7CE1F93C2
:102ED000CF93DF93CDB7DEB72C970FB6F894DEBF54
:102EE0000FBECDBF4F83588769877A878B879C87B2
:102EF000CE0107960E94C315882369F08A859B85B9
:102F0000892B39F04F815885842F85238F3F09F015
:102F100071C016E05FC086E0FE013796DE011196B3
:102F200001900D928A95E1F78A859B85892B89F31B
:102F30008F81988589238F3F61F32091010230E0D2
:102F4000C901019687709927409100024817190618
:102F500071F40E94A312109201021092000286E006
:102F6000E2E3F2E0DF011D928A95E9F7D2CF96E025
:102F7000929FD001939FB00D1124AE5FBD4FFE0113
:102F8000319601900D929A95E1F7809301020E948B
:102F90003315BFCF819FC00111248E5F9D4F0E94CA
:102FA000C3158823E9F0E09100021E9FF00111246F
:102FB000EE5FFD4F408151816281738184819581F3
:102FC0000E94DC128091000290E0019687709927A0
:102FD0008093000280910002909101028913DACF60
:102FE0002C960FB6F894DEBF0FBECDBFDF91CF9108
:102FF0001F91089569857A858B859C850E94DC12D6
:1030000088CF682F80910201909103010C94C92B05
:10301000682F80910201909103010C94CB2B809139
:103020000201909103010C94CD2B8091380285957B
:1030300085958595089580913802877008959091BF
:103040003802977081E009F480E00895809144028D
:10305000089590914402892B8093440208958095AD
:103060009091440298239093440208951092440250
:10307000089590914302892B80934302089580958F
:103080009091430298239093430208951092430233
:10309000089590914202892B809342020895809571
:1030A0009091420298239093420208951092420216
:1030B000089580913902089508950C945C189091B8
:1030C000940292FD08C090913902981721F08093E4
:1030D00039020C945D18089580913902882329F0F3
:1030E0001092390280E00C945D180895E09102017D
:1030F000F0910301809144028083E0910201F091FC
:103100000301808190914302892B8083E091020129
:10311000F0910301808190914202892B80839091EC
:103120003902992381F0E0910201F091030180813D
:10313000892B808380910201909103010E94812B51
:1031400081110E946C1880910201909103010C94EE
:10315000FB2A08950C94A9189091940292FD10C036
:1031600098E0899F90011124622B609338020E949D
:103170005E13809138028595859585950C94AA18E3
:103180000C945E131092380280E00C94AA1890916F
:1031900038028095892380933802282F277091F474
:1031A000282F082E000C330B9217130659F090911C
:1031B000940292FD07C08595859585950E947F13A1
:1031C0000C94C2180895CF93C82F8091940282FB6B
:1031D000992790F99C17E9F0C0FB82F9809394023B
:1031E00080919302909194020E94411982E00E9482
:1031F000C71880914F0280FF0CC01F92CF9387EDBC
:1032000090E09F938F930E94D00D0F900F900F909E
:103210000F90CF9108958091940282FB882780F9C6
:1032200091E089270C94E31881E00C94E31880E086
:103230000C94E3186FEF7FEF90E080E00C94BA34C9
:1032400090E080E00E94963421E0893E9E4F09F094
:1032500020E0822F089582E090E00C948E3483E089
:1032600090E00C948E34CF9384E090E00E948E34F2
:10327000C82F82E290E00E948E34982F8C2FCF913D
:103280000895CF93C92F682F84E090E00E949C346A
:103290006C2F82E290E0CF910C949C34AB01BC0186
:1032A0008FE090E00C94AE34AB01BC0183E190E080
:1032B0000C94AE3460E070E0CB010C94541960E0E3
:1032C00070E0CB010E944E190C945A1969EE7EEF02
:1032D00090E080E00E94BA3460E082E090E00E94DA
:1032E0009C3460E083E090E00E949C341092FC01EA
:1032F0001092FD011092FE011092FF0160E084E047
:1033000090E00E949C3460E082E290E00E949C3455
:1033100060E085E090E00E949C3460E086E090E010
:103320000E949C346FEF87E090E00E949C3440E064
:1033300050E0BA0188E090E00E94AE3460E08DE099
:1033400090E00E949C3440E050E0BA0188E190E0B7
:103350000E94AE3460E087E190E00E949C3440E03F
:1033600050E0BA018CE190E00E94AE3470E060E081
:1033700080E290E00E94BA3440E050E0BA0188E177
:1033800090E00E94AE340C945F190C946619682F7B
:103390008EE090E00C949C340E946B2C60934B0266
:1033A00070934C0280934D0290934E0260934702BB
:1033B000709348028093490290934A02089585B71A
:1033C000806885BF85B7806885BF08950895089592
:1033D0000C94E61908950C94EA190E94DF198EE9FD
:1033E0009EE20E94E52A0E94E7190C94E81981E008
:1033F00008950C94F719089508950E94FB190C94F0
:10340000FC190E94562C0E94851D0E94A9210C9433
:10341000EB19CF93C82F80914F0282FF1EC080FF0F
:103420001CC083EF90E00E94370D80914F0280FF17
:1034300014C01F92CF938EEE90E09F938F930E94C3
:10344000D00D80914F020F900F900F900F9080FF42
:1034500004C08CEE90E00E94370D8C2FCF910C941D
:10346000D80EFF920F931F93CF93DF93CDB7DEB7A4
:103470002A970FB6F894DEBF0FBECDBF0E94901DF5
:1034800081110E94CC1980E00E94041D182F8091A8
:103490004602F82EF126811709F447C080914F02A9
:1034A00081FD0E940A1D0F2D0170F0FC3CC0F1FE51
:1034B0003CC0FF24F39402E00E94F919882399F09C
:1034C000FE821F82102381E009F480E088870E9439
:1034D0005F2C8160782F9A8789874E815F8168850C
:1034E0008A850E94E00E80914602802780934602E2
:1034F0000E94F91F0E94EC210E94EF2A9091450240
:10350000891721F10E94EF2A809345022A960FB66F
:10351000F894DEBF0FBECDBFDF91CF911F910F9109
:10352000FF900C94091AF12CC7CF8FEF89838A83FF
:103530001B820E945F2C8160782F9D838C83498140
:103540005A816B818D810E94E00ED2CF2A960FB6F0
:10355000F894DEBF0FBECDBFDF91CF911F910F91C9
:10356000FF90089590E080E008950895272F280F98
:103570003327331FF901EE0FFF1FE60FF11DEE0F8A
:10358000FF1FE455FF4F859194910895FC01EE0FC4
:10359000FF1FEA5FFE4F859194910895CF93DF93CB
:1035A0000E94E51BEC01811520E5920708F042C05E
:1035B000811530E4930708F0BDC0883E910528F5D9
:1035C000803E910508F09DC0883A910588F4853ABF
:1035D000910508F08FC08130910509F492C00097E1
:1035E00009F48FC0049708F08CC0D0E0C0E089C017
:1035F0008F3B910508F489C0805C9109C03CD105DE
:10360000A0F30E94C61AEC017CC08115904250F4D0
:10361000C11581E0D80708F074C0CD3ED10528F36C
:10362000D0656FC0C11590E3D90708F079C0CE010D
:103630009F70E7CF811525E5920758F5811534E590
:10364000930708F0A6C0811542E5940750F4C11510
:1036500081E5D80708F471C0DC2FCC27C16FD06A90
:1036600050C0982F969596959E0123703327C115CB
:10367000D34508F07FC0C1E0D0E002C0CC0FDD1F11
:103680002A95E2F720E2929FC0011124C82BD92B82
:103690006FC0C11589E5D807A8F4C11598E5D90709
:1036A00008F07CC0C11526E5D20708F09ECF8C2F0C
:1036B0000E947C1CC82FD0E0DC2FCC27CC27DF71E8
:1036C000D0621FC0C1153AE5D30708F46CC0CE0123
:1036D00090568115904208F088CF8D2F8F710E94EF
:1036E0007C1C90E0982F882788279F719C012C2BA9
:1036F000E901E6CFC55AD0E0C758DE4FC881D0E017
:10370000D064CE01DF91CF910895C85AD0E0CC0F9C
:10371000DD1FC55BDE4F0990D881C02DD464F1CF89
:10372000CE019927D3FF03C0EC01D86CEACFEC019E
:10373000D06CE7CFDF70D06AE4CFCE01E4E096959D
:103740008795EA95E1F783702C2F269526952370AF
:1037500090E2299F90011124382B8C2F8370C1E0B7
:10376000D0E002C0CC0FDD1F8A95E2F7C22BD32B2D
:10377000DC68C7CFC1E0D0E002C0CC0FDD1F2A95C6
:10378000E2F730E2939FC0011124C82BD92BDA68ED
:10379000B8CFD82FCC27C46FD06AB3CFDC2FCC27BB
:1037A000C06FD06AAECF8C2F8F700E947C1C34E02B
:1037B000D695C7953A95E1F7CF709C2FEC01D0696B
:1037C000A0CF0E94B61A0C94CE1A82389105B1F19E
:1037D000B0F48133910509F475C048F4893291053C
:1037E00009F469C08A32910509F473C008958533DC
:1037F000910509F459C08933910501F10895833E7B
:103800009105A9F138F4803E9105F9F0823E9105C9
:1038100049F10895863E9105A9F1873E9105C9F1C8
:10382000843E910519F52091940221FF1FC08091DB
:10383000930284FD14C087EE90E0089520919302D6
:103840002370A1F080EE90E008952091930220FD76
:1038500047C03091940230FF09C024FF44C090E07B
:1038600080E004C02091930222FDF7CF08952091BB
:10387000930222FD3BC03091940230FDE3CF24FF40
:10388000F5CFEDCF2091930223FFF0CF24FDE7CFBA
:10389000D2CF2091930223FD2CC03091940231FFAE
:1038A000EECF84EE90E008952091930225FFDECFC5
:1038B00089E290E008952091930225FFD7CF85E318
:1038C00090E008952091930226FFD0CF8AE290E005
:1038D00008952091930226FFC9CF81E390E00895D7
:1038E00089E390E0089583EE90E0089582EE90E001
:1038F000089586EE90E008959091930292FF06C09D
:10390000282F28712830F9F4877F846093FF06C040
:10391000282F28712831F1F4877E84612091940248
:1039200020FF06C0382F38713830D9F4877F816086
:1039300021FF06C0282F28712831D1F4877E8161AC
:1039400094FD877E0895282F24712430F9F68B7F0B
:103950008860DCCF282F2471243101F78B7E8861A9
:10396000DDCF382F3171313019F78E7F8860E0CF8D
:10397000282F2171213121F78E7E8861E1CF0C94AF
:103980001A190E94901D2FEF86E791E02150804088
:103990009040E1F700C000000E94901D80E00E946E
:1039A000041D80FF04C00E94BF1C0C94AA2C089523
:1039B0000C94C11C0E942019811102C00E94C519DB
:1039C0000E942B1980934F020E9433199093940206
:1039D000809393020E94D81C0E942F19682F70E0D8
:1039E00090E080E00E94FC126091F8017091F90172
:1039F0008091FA019091FB010C94361308950C9478
:103A0000FE1C08950C94011DE82FF0E0EA56FD4FCE
:103A10008081089585E191E00E94370D1F921F92E9
:103A200080E191E09F938F930E94D00D8DE091E013
:103A30000E94370D809196020E94B80E1F928F93BC
:103A400088E091E09F938F930E94D00D8DB79EB731
:103A500008960FB6F8949EBF0FBE8DBF86E091E02A
:103A60000C94370D80EA8A95F1F7089500C0089507
:103A70000C94321DF894E82FE295EF70F0E031A13C
:103A8000282F2F7081E090E001C0880F2A95EAF777
:103A9000982F9095932391A392A1892B82A3789438
:103AA000089586EC0E943A1D85E30E943A1D84E346
:103AB0000C943A1D0F931F93CF93DF938C01D62F55
:103AC000F8946E9A769878940E94361DC3B1C5FB1F
:103AD000882780F9C1E0C8271C9915C082E0C82B4F
:103AE00086EC0E943A1D61E0C11101C060E08D2F9B
:103AF0000E94381DF801ED0FF11DC083DF91CF91B9
:103B00001F910F91089580E0EACF0E94511D1092FD
:103B100096021092950281E00E94B61D0C942B0E25
:103B20001F93CF93DF930F92CDB7DEB7198260E07A
:103B3000CE0101960E945A1D90919502898111E053
:103B4000981301C010E0981380939502212F41E053
:103B500066E972E085E992E00E94B71D0E94310E8D
:103B6000812F0F90DF91CF911F9108950895FF92BB
:103B70000F931F93CF93DF93F82E092F162FD72F74
:103B8000C42F222349F081E0809352020E945F2CCF
:103B90009093510280935002809152028823A1F0A9
:103BA00080915002909151020E94772C059760F00D
:103BB000EF2DF02FA12FBD2FCE0FDF2FD11DEC1732
:103BC000FD0741F410925202DF91CF911F910F91A6
:103BD000FF90089581918D93F2CF0E94192F0E943A
:103BE000011A0C94252F0E94292F0E94311A0C943F
:103BF000472F0E94EE2B0E94002F0E94ED190E9479
:103C0000ED1D0E94F31D0E94FD19FBCF809159020A
:103C100080FF12C06091090185E0689FB001112406
:103C2000759567957595679560387105A8F5611567
:103C30007105A1F1862F089581FF09C060910901E6
:103C400085E0689FB001112475956795EDCF60916F
:103C5000090182FD0AC0809158028823D1F0909119
:103C6000080160910901891728F085E0689FB0017B
:103C70001124DACF869FB001112485E0869F900140
:103C8000879F300D1124692F70E0C9010E946734AD
:103C9000CBCF65E070E0CECF8FE7089581E0089547
:103CA0008091590280FF0CC06091050170E075950C
:103CB0006795759567956115710549F1862F08958A
:103CC00081FF06C06091050170E075956795F3CF9F
:103CD0006091050182FD0BC0909157029923A1F0DC
:103CE0006091040180910501961738F0682F70E00B
:103CF0006038710500F38FE70895899FC001112492
:103D000070E00E946734F4CF61E070E0D7CF81E0CB
:103D100008958D3E31F40E94061E819580935D02C8
:103D200008958E3E19F40E94061EF8CF8F3E31F49E
:103D30000E94061E819580935C020895803F19F4CD
:103D40000E94061EF8CF893F29F40E94501E8093DE
:103D50005E0208958A3F21F40E94501E8195F7CF9C
:103D60008B3F31F40E94501E819580935F0208952D
:103D70008C3F19F40E94501EF8CF9FE0980F9830A6
:103D800070F4815F990B21E030E001C0220F8A9529
:103D9000EAF780915B02822B80935B0208958D3F4E
:103DA00031F48091590281608093590208958E3FC9
:103DB00021F4809159028260F7CF8F3FB9F780914B
:103DC00059028460F1CF40915C028D3E59F480919C
:103DD0005D0287FF0DC010925D0241110BC0109271
:103DE000580208C08E3E81F480915D0218169CF343
:103DF000442381F080915E0290915F02892B09F04B
:103E00005AC01092570208958F3E49F447FFF0CFF1
:103E100010925C0280915D028111ECCFE0CF803F77
:103E200019F41416ACF3E4CF90915E02893F29F4A3
:103E30001916F4F610925E02DBCF8A3F19F497FF51
:103E4000D7CFF8CF90915F028B3F29F497FFD0CF67
:103E500010925F02CDCF8C3F19F41916CCF3C8CF66
:103E60009FE0980F983090F4815F990B21E030E04B
:103E7000B90102C0660F771F8A95E2F7CB018095E2
:103E800090915B02892380935B02B2CF8D3F31F426
:103E9000809159028E7F80935902AACF8E3F21F4E0
:103EA000809159028D7FF7CF8F3F09F0A1CF80918C
:103EB00059028B7FF0CF089580914F0283FF7EC01F
:103EC0008BE491E00E94370D80915B021F928F93EB
:103ED00086E491E09F938F930E94D00D84E491E05B
:103EE0000E94370D80915C02282F082E000C330BA6
:103EF0003F938F9381E491E09F938F930E94D00D25
:103F00008FE391E00E94370D80915D02282F082EEB
:103F1000000C330B3F938F938CE391E09F938F932F
:103F20000E94D00D8AE391E00E94370D80915E02DD
:103F3000282F082E000C330B3F938F9387E391E0DB
:103F40009F938F930E94D00D85E391E00E94370DDF
:103F500080915F02282F082E000C330B3F938F9324
:103F600082E391E09F938F930E94D00D8FE291E0C6
:103F70000E94370D809158021F928F938CE291E03E
:103F80009F938F930E94D00D8AE291E00E94370D9B
:103F9000809159021F928F9387E291E09F938F93B4
:103FA0000E94D00D84E291E00E94370D8DB79EB73C
:103FB0004C960FB6F8949EBF0FBE8DBF0E945F2C2B
:103FC0009C0190915C0280915D02982B21F03093CE
:103FD00056022093550290915E0280915F02982BC9
:103FE00021F030935402209353028AE592E00C941E
:103FF000472BEF92FF920F931F93CF93DF9300D045
:1040000000D000D0CDB7DEB786E0EAE5F2E0DE0111
:10401000119601900D928A95E1F7E0905C02F09084
:104020005D0200915E0210915F0210925C0210929C
:104030005D0210925E0210925F028E2D8F2991F028
:1040400080915502909156020E94772CAC0190917C
:104050005802992309F43FC080910A01841715067C
:1040600008F447C0802F812B91F0809153029091EA
:1040700054020E94772CAC0190915702992309F4C5
:1040800077C0809106018417150608F47FC08091DF
:104090005C0290915D02892B90915E02892B909138
:1040A0005F02892B11F00E945C1F86E0FE013196B1
:1040B000AAE5B2E001900D928A95E1F726960FB637
:1040C000F894DEBF0FBECDBFDF91CF911F910F914E
:1040D000FF90EF90089520910B018AE0289F9001B6
:1040E00011242417350708F0BDCF9F5F9093580225
:1040F00002C09F3FD1F7EE2059F00E94061E9FEFAD
:104100001E140CF491E0899F802D112480935C0291
:10411000FF2059F00E94061E9FEF1F140CF491E03F
:10412000899F802D112480935D0230915C0233239E
:1041300009F498CF20915D02222309F493CF45EB37
:104140003403C0011124992359F090935C0245EB8C
:10415000240390011124332339F030935D0282CF80
:1041600081E080935C02F3CF81E080935D027ACF9F
:10417000209107018AE0289F900111242417350718
:1041800008F085CF9F5F9093570202C09F3FD1F701
:10419000002359F00E94501E9FEF10160CF491E07E
:1041A000899F802D112480935E02112359F00E9473
:1041B000501E9FEF11160CF491E0899F802D112461
:1041C00080935F0230915E02332309F460CF209127
:1041D0005F02222309F45BCF45EB3403C0011124B5
:1041E000992359F090935E0245EB2403900111242A
:1041F000332339F030935F024ACF81E080935E022F
:10420000F3CF81E080935F0242CF86E0EAE5F2E0FF
:10421000DF011D928A95E9F7109258021092570219
:10422000109259020895CF93DF9300D000D000D0B0
:10423000CDB7DEB786E0EAE5F2E0DE011196019047
:104240000D928A95E1F729813A814B815C816D81DC
:104250007E8180E090E026960FB6F894DEBF0FBE18
:10426000CDBFDF91CF910895EF92FF920F931F93EF
:10427000CF93DF93CDB7DEB72C970FB6F894DEBFA0
:104280000FBECDBF49835A836B837C838D839E830E
:10429000EF82F88609871A872B873C8746E050E033
:1042A000BE01695F7F4FCE0101960E94813421E0FB
:1042B000892B09F420E0822F2C960FB6F894DEBFEC
:1042C0000FBECDBFDF91CF911F910F91FF90EF9067
:1042D000089508950895CF93DF93CDB7DEB72C9757
:1042E0000FB6F894DEBF0FBECDBF4F8358876987E6
:1042F0007A878B879C8786E0FE013796DE011196D0
:1043000001900D928A95E1F729813A814B815C8178
:104310006D817E8180E090E02C960FB6F894DEBF30
:104320000FBECDBFDF91CF910895CF93DF93CDB76F
:10433000DEB72C970FB6F894DEBF0FBECDBF2C961C
:104340000FB6F894DEBF0FBECDBFDF91CF910C94B6
:104350006B21E0917C01F0917D0109950E9469211A
:104360000C946A21EF92FF920F931F93E0906002EA
:10437000F090610200916202109163022091640248
:104380003091650240916602509167026091680227
:104390007091690280916A0290916B020E943421AF
:1043A000882321F086E692E00E94472B1092680253
:1043B0001092690210926A0210926B0286E0E6E6A1
:1043C000F2E0A0E6B2E001900D928A95E1F71F912C
:1043D0000F91FF90EF9008950F931F93CF93DF936A
:1043E00000D000D000D0CDB7DEB7E0917E01F091D3
:1043F0007F0140916602509167026091680270915E
:10440000690280916A0290916B020995E42FCB01B9
:104410002093660230936702E093680260936A0219
:1044200090936B0206E612E0752F7195D8011396F2
:104430007C93A9016E2F0E949521209366023093F0
:104440006702409368025093690260936A02709316
:104450006B020E941321F8018181832B81832696B0
:104460000FB6F894DEBF0FBECDBFDF91CF911F9185
:104470000F910C94B221CF93DF9300D000D000D0E5
:10448000CDB7DEB786E0E6E6F2E0DE0111960190F8
:104490000D928A95E1F729813A814B815C816D818A
:1044A0007E8180E090E026960FB6F894DEBF0FBEC6
:1044B000CDBFDF91CF910895CF93DF9300D000D08F
:1044C00000D0CDB7DEB749835A836B837C838D835D
:1044D0009E8386E0FE013196A6E6B2E001900D9241
:1044E0008A95E1F726960FB6F894DEBF0FBECDBFD2
:1044F000DF91CF910895EF92FF920F931F93CF9387
:10450000DF93CDB7DEB765970FB6F894DEBF0FBE69
:10451000CDBF488B598B8C8B9D8BF62E172FCE01E0
:1045200001960E945B248B818823B1F18A818823C4
:1045300099F1EC80FD800F81188580916C0290913B
:104540006D02892B99F480914F028970893041F472
:104550008EE691E09F938F930E94D00D0F900F9065
:104560000E945F2C90936D0280936C0281E8E816A4
:104570008FEFF8068CF1B7016038710514F06FE722
:1045800070E0F62E01388FEF18074CF10038110556
:1045900014F00FE710E0102FFA8A1B8B86E0FE0163
:1045A0007096DE011A9601900D928A95E1F72A85A0
:1045B0003B854C855D856E857F8580E090E06596C6
:1045C0000FB6F894DEBF0FBECDBFDF91CF911F9124
:1045D0000F91FF90EF90089581E8F82ED3CF11E866
:1045E000DBCF0C94F72390914F0290FF36C070E31D
:1045F00080FD71E360E381FD61E350E382FD51E3FF
:1046000040E383FD41E330E384FD31E320E385FDB6
:1046100021E390E386FD91E387FD20C080E31F92B4
:104620007F931F926F931F925F931F924F931F92DE
:104630003F931F922F931F929F931F928F938BE80C
:1046400091E09F938F930E94D00D8DB79EB74296B5
:104650000FB6F8949EBF0FBE8DBF089581E3DFCFE4
:1046600028E030E043E060E086E30E94132A95E012
:104670009A95F1F70000089585E08A95F1F700001A
:104680000C94BB2ACF93DF93C82FD62F803511F01F
:1046900010926E020E9430238C2F80680E948B2A19
:1046A0008D2F0E948B2AEC018AE68A95F1F700C0D3
:1046B0008FE891E00197F1F700C000000E94BB2A4B
:1046C000CE01DF91CF910895CF93C82F0E94302360
:1046D0008C2F8F770E948B2A0E94A32AC82F85E0F7
:1046E0008A95F1F7000085E68A95F1F700000E94AF
:1046F000BB2A8C2FCF910895CF93DF93EC010E94BA
:104700003023CE0164E670E00E9453346150710999
:104710006837710510F067E770E08FE00E94422370
:10472000DF91CF910C94BB2A8FE00E9464238F5FAE
:1047300024E6829FC00111240895CF93DF936DE199
:1047400083E10E9442238FE39CE90197F1F700C0C7
:10475000000068E183E10E9442230E94302382EE40
:104760000E948B2A90E59A95F1F7CDE9D1E0FE0100
:1047700084910E948B2AF0E5FA95F1F7219681E168
:10478000CB39D807A1F7EFE1F3E03197F1F700C09B
:1047900000008AE20E94642360E080E10E944223DC
:1047A0000E94BB2A8FE39CE90197F1F700C000004B
:1047B000DF91CF910895CF93DF9380E00E9464232F
:1047C000D82F8FE30E946423C82F8AE20E946423BB
:1047D000D23459F4CD3B49F491E0843009F090E0B3
:1047E000892F8170DF91CF91089580E0FACF269ACA
:1047F0000E940B2A10926E020E94BB2A0E94302354
:104800000E94BB2A66EB8BE30E9442232FEF85EACE
:104810009EE0215080409040E1F700C000000E94DF
:10482000302325ED2A95F1F700000E943C2385ED09
:104830008A95F1F700006AE58AE30E9442239FEF20
:1048400020E782E0915020408040E1F700C0000066
:1048500082E00E94642383E00E94642384E00E943B
:10486000642385E00E94642386E00E9464230E9402
:104870009D230E943C238FE39CE90197F1F700C040
:10488000000080E496E00E947C238FE99FE001977E
:10489000F1F700C0000060E080E10E94422360E088
:1048A00081E10E94422362E083E60E9442230E944B
:1048B000DB232E9808959F92AF92BF92CF92DF9202
:1048C000EF92FF920F931F93CF93DF93EC018091B0
:1048D0006E02811113C080914F0280FF08C082E8F0
:1048E00091E09F938F930E94D00D0F900F9060E006
:1048F00080E50E94422381E080936E020E94302373
:1049000080E50E948B2A8AEB8A95F1F700C00E940D
:10491000A32AF82E80E00E948B2A0E94A32A6C0111
:104920000E94A32AB82E0E94A32A8C010E94A32AC7
:10493000E82E0E94BB2A80914F0283FF1BC08F2D5F
:104940000E94F3228C2D0E94F3228B2D0E94F322D1
:10495000802F0E94F3228E2D0E94F32280914F021D
:1049600080FF08C080E891E09F938F930E94D00D54
:104970000F900F909F2C991C9924991CAA24A39402
:10498000F3FCA12CDB28D194C194D1081E291195E8
:10499000019511090E94BB2A8F2D877011F010928A
:1049A0006E02F8829982AA82DC82CB82BD821F834A
:1049B0000E83E886CE01DF91CF911F910F91FF907A
:1049C000EF90DF90CF90BF90AF909F900895CF93DE
:1049D000DF93EC01FB018281882309F420C1C430FC
:1049E000FDE5DF07C8F5CB3F9CE5D90730F49E0114
:1049F00022503C452431310598F50E94331990939B
:104A0000940280939302C031FCE5DF0709F4E0C013
:104A100008F061C0C8309CE5D90709F4CBC088F51F
:104A2000C430FCE5DF0709F4B3C0E8F4C2309CE50C
:104A3000D90709F4A7C0809193028260C330DC4596
:104A400009F4A3C080919302909194020E944119AD
:104A50000E94A31280E004C0C236EDE5DE0769F2D1
:104A6000DF91CF910895809193028061C630FCE57B
:104A7000DF0709F48AC008F48FC080919302806236
:104A800084C0809193028D7FCC309CE5D90709F4D6
:104A90007CC070F4809193028C60CA30FCE5DF0723
:104AA00009F473C008F48AC0809193028E7F6DC0B0
:104AB00080919302877FCE309CE5D90709F465C0C9
:104AC000809193028B7FCF30DC4508F45EC08091EB
:104AD00093028F7E5AC0CD3FFCE5DF0709F474C016
:104AE00040F5C4319CE5D90709F48AC058F4C231B5
:104AF000FCE5DF0709F474C008F46EC080919302EE
:104B0000837F43C0CB3F9CE5D90709F449C008F037
:104B10004DC0C531DC4509F095CF8091930282FBF1
:104B2000992790F921E0922790FB82F990FB83F975
:104B30002CC0C1308DE5D80709F458C088F48091A5
:104B400094028360CF3FECE5DE0769F18091940227
:104B50008D7FC115DD4538F1809194028C7F23C093
:104B6000C3308DE5D80709F458C008F452C0C236E6
:104B7000DD4509F067CF90919302892F8F7E94FFD6
:104B8000806103C0809193028160809393025ACF29
:104B9000809193028460F9CF809193028860F5CF71
:104BA000809194028160809394024CCF8091940212
:104BB0008260F9CF809193028064E7CF0E94A312B4
:104BC000809193028068E1CF809194028E7FEBCF39
:104BD000809193028F7DD9CF809193028F7BD5CF27
:104BE0000E94A312809193028F77CFCF809194027D
:104BF000982F909591708E7F892B90FB81F9D3CF60
:104C00000E94A31290919302892F97FB87F98058F5
:104C1000BCCF81E00E94C71915CF80E0FBCF81E0B7
:104C20001FCF809104011F928F93809105011F92E5
:104C30008F93809108011F928F93809109011F9299
:104C40008F9380910A011F928F9380910B011F9285
:104C50008F938BE991E19F938F930E94D00D8DB735
:104C60009EB70E960FB6F8949EBF0FBE8DBF0895E7
:104C7000883228F58E3108F072C08B3041F130F463
:104C8000873009F4CFC08AEF92E1E0C0833109F4A4
:104C90005FC08431C1F78CE193E10E94370D8091B0
:104CA0007302882309F4FEC01092730210927202FC
:104CB000109271021092700210926F0220C08F3415
:104CC00009F4C7C0D8F5893231F38833E1F68FE1B2
:104CD00093E10E94370D0E9411261F9281E08F936D
:104CE0001F9285E08F9388E192E19F938F930E94BA
:104CF000D00D0F900F900F900F900F900F9020916C
:104D00007302222309F4C9C080916F02909170024E
:104D1000009711F484E891E09F938F931F922F9353
:104D200088EE92E19F938F930E94D00D0F900F9089
:104D30000F900F900F900F9081E00895813509F446
:104D40009CC008F49CC0823509F09DCF81E082C0F0
:104D50008EE093E10E94370D0E941126D0CF8D5135
:104D600080937302833009F442C058F48130C1F05B
:104D70008230A1F1109273028BE093E10E94370D13
:104D80001BC0853009F445C0D8F1863099F784E01E
:104D900091E090937202809371028CEC91E008C0D4
:104DA0008BE091E0909372028093710288E891E029
:104DB0009093700280936F0280917302882309F4AC
:104DC0009ECF1F928F9387E093E19F938F930E94D2
:104DD000D00D0F900F900F900F9091CF8AE091E03F
:104DE000909372028093710281E991E0E1CF89E0B2
:104DF00091E090937202809371028DE991E0D8CF97
:104E000088E091E090937202809371028AEA91E0C7
:104E1000CFCF85E091E0909372028093710289EB8D
:104E200091E0C6CF8EE180930B0182E380930A016B
:104E30008AE08093090184E18093080188E08093EF
:104E4000050188E2809304018DEF92E10E94370D05
:104E500056CF8AE0E0917102F09172023097D1F062
:104E60002081082E000C990B820F911D8F3F910518
:104E700041F03CF08FEF808307C08FEFEBCF86EFE0
:104E8000E9CF97FFF8CF108280811F928F9384EF34
:104E900092E19BCF81EF92E1D9CF84EE92E10E9423
:104EA000370D4ACF80E00895CF93C82F1F928F937C
:104EB00085E393E19F938F930E94D00D61E070E0B2
:104EC00080E090E004C0660F771F881F991FCA9585
:104ED000D2F70E94FC120F900F900F900F90CF917D
:104EE0000C94A312EF92FF920F931F93CF93DF9333
:104EF0008B3109F401C108F09FC08B3009F4BBC0AD
:104F000008F07DC0863009F4C9C048F4853009F442
:104F1000A1C088E797E10E94370D80E0CFC08730BD
:104F200009F4D3C08830A9F70E942F191F928F93DC
:104F30008BE597E19F938F930E94D00D0E942B19D0
:104F400083FB992790F91F929F9382FB992790F9F1
:104F50001F929F9381FB992790F91F929F93982FFF
:104F600091701F929F931F928F9382E197E19F937D
:104F70008F930E94D00D0E94331987FB222720F9BE
:104F80001F922F9386FB222720F91F922F9385FBD8
:104F9000222720F91F922F9384FB222720F91F92AA
:104FA0002F9383FB222720F91F922F9382FB222726
:104FB00020F91F922F9391FB222720F91F922F9304
:104FC000292F21701F922F9381FB222720F91F92F6
:104FD0002F93282F21701F922F939F938F938DE2F1
:104FE00096E19F938F930E94D00D8DB79EB78896C0
:104FF0000FB6F8949EBF0FBE8DBF81E05FC08031B9
:1050000009F492C080F48E3009F083CF90914F0262
:10501000892F8B7F92FF846080934F0282FF81C033
:1050200083EA97E175C0863109F48EC0893109F0B1
:1050300070CF85EA93E121C08A3249F190F487323A
:1050400011F128F48E3108F464CF8D511DC08932DE
:1050500009F05FCF86EE97E10E94370D0E943A0E6D
:10506000CCCF833468F48A3308F093C0853359F089
:10507000883309F04ECF8AE894E10E94370DBDCF06
:10508000833409F046CF80E00E945427B6CF86E0F3
:1050900098E10E94370D0E94C519AFCF80914F0251
:1050A000807F80934F0283E694E10E94370D82E077
:1050B00098E10E94370D81E080937402DF91CF91D7
:1050C0001F910F91FF90EF90089590914F02892FBB
:1050D0008E7F90FF816080934F0280FF03C08AED36
:1050E00097E1CBCF8DEC97E10E94370D80914F0275
:1050F000817F80934F0281CF90914F02892F8D7FC6
:1051000091FF826080934F0281FF08C080EC97E19D
:105110000E94370D80914F028160EBCF82EB97E1C7
:10512000ACCF83E997E1A9CF90914F02892F877F78
:1051300093FF886080934F0283FF03C087E897E165
:10514000E7CF8AE797E199CF0E946B2C162F072FA4
:10515000F82EE92ED0919202C09119010E94EF2AF7
:10516000EF92FF920F931F931F92DF931F92CF93A3
:105170001F928F938AE393E19F938F930E94D00DA8
:105180008DB79EB70C960FB6F8949EBF0FBE8DBF1D
:1051900034CF895379CF80E008950C94CB28CF93F6
:1051A000C82F809174028130C1F0882339F0823099
:1051B00009F444C01092740280E00DC00E942618C9
:1051C0008232D1F78C2F0E94CB2881111BC08C2FEB
:1051D0000E9472278170CF9108950E942618823212
:1051E00089F38C2F0E94CD2881111BC0C431D9F0C6
:1051F00060F4CB3071F0C031D1F08FE293E10E94C6
:10520000370D13C081E090E0E5CFC93261F0C833BB
:10521000A1F783E694E10E94370D81E393E10E94B8
:10522000370D81E0D7CF1092740280E0D3CF82E0B7
:105230008093740288E30E943826F3CF8C2F0E945B
:10524000382681E0C8CFCF93DF93EB0186319C45B0
:1052500011F50E9426189A81992399F08A7A91E093
:1052600009F490E090937502811109C089E20E94CF
:1052700001180E94761880E0DF91CF91089585E3B0
:10528000F6CF80917502811104C089E20E9408184E
:10529000F0CF85E3FBCF81E0EFCF0F931F93CF9348
:1052A000DF93C42FD22FFC0182818823C9F0409361
:1052B00078020E945F2C909377028093760280E2BE
:1052C0008C0F883008F050C0C77081E001C0880F93
:1052D000CA95EAF7DF91CF911F910F910C94EE0FD1
:1052E00010917802141335C0809176029091770264
:1052F0000E94772C883C910560F5C0E2CD0F1D1708
:10530000B9F080E2810F883040F4177081E001C06D
:10531000880F1A95EAF70E94F50FC83048F481E02B
:105320009D2F977001C0880F9A95EAF70E94EE0FA3
:10533000802F0E94E60FC830B8F4D77081E001C01A
:10534000880FDA95EAF7DF91CF911F910F910C94B6
:10535000F50F80E28C0F883038F4C77081E001C00F
:10536000880FCA95EAF7EFCFDF91CF911F910F9188
:1053700008950F939C01CB01243F4CE5340759F16C
:10538000A8F4293DFCE53F0701F12A3D4CE534072F
:10539000D1F1283D3C4591F406E221EE41EE68ED65
:1053A0007CE50E944D2980E00F910895263FFCE5A1
:1053B0003F07E9F0B0F0273F3C45F9F0FC0182815E
:1053C000882339F110927802EFCF07E225EE45EEFF
:1053D00069ED7CE5E6CF06E221EE40EE64EF7CE588
:1053E000E0CF07E225EE44EE65EF7CE5DACF06E29A
:1053F00021EE42EE66EF7CE5D4CF07E225EE46EEE5
:1054000067EF7CE5CECF08E221E045EE6AED7CE572
:10541000C8CF81E0C9CF289A219A229A23982B9845
:1054200080E58CBD089590910C019F3F09F071C0FB
:105430008F3F09F46EC0611144C010927A029091BE
:105440007A02423009F441C0433009F442C094600A
:105450004130E1F141E050E042175307E0F1909113
:105460007A024031510509F452C0C0F5423051056D
:1054700009F446C04830510509F446C09CB5209156
:105480007A02922B9CBD90917902992319F09DB5D7
:1054900091609DBD80930C01E82FE295EF70F0E0E4
:1054A00031A1282F2F7081E090E001C0880F2A954C
:1054B000EAF7382B31A392A18095892382A381E05A
:1054C000089590E290937A02BACF986090937A020E
:1054D000C1CF9C60FBCF440F551FBECF4034510558
:1054E00049F04038510541F04032510539F621E08C
:1054F00020937902926001C0936090937A02BECFAC
:1055000091E090937902BACF21E0209379029160E3
:10551000F4CF80E00895CF93DF938EBD0E945F2C7F
:10552000EC010DB407FE05C08EB590E0DF91CF9180
:1055300008950E945F2C8C1B9D0B8436910588F387
:105540008EEF9FEFF3CFCF93DF931EBC0E945F2CB3
:10555000EC010DB407FE05C08EB590E0DF91CF9150
:1055600008950E945F2C8C1B9D0B8436910588F357
:105570008EEF9FEFF3CF80910C018F3F29F1E82F41
:10558000E295EF70F0E041A18F7021E030E0B901C9
:1055900002C0660F771F8A95E2F7CB01942F982BF4
:1055A00091A392A1892B82A38FEF80930C018DB5DB
:1055B0008E7F8DBD9CB580917A02809589238CBDAC
:1055C00010927A021092790208959093F1018093DB
:1055D000F00108959093800280937F020895E091F6
:1055E0007F02F0918002309721F00190F081E02D50
:1055F000099480E00895EF92FF920F931F93CF9349
:10560000DF938C01E0917F02F09180023097C1F12D
:105610000280F381E02D099580914F0282FF30C016
:1056200080FF04C08FE198E10E94370DD0E0C0E018
:1056300089E1E82E88E1F82E80914F0280FF0EC0AC
:10564000F801EC0FFD1F80811F928F93FF92EF9264
:105650000E94D00D0F900F900F900F902196C830A0
:10566000D10551F780914F0280FF0AC087E198E190
:10567000DF91CF911F910F91FF90EF900C94370D18
:10568000DF91CF911F910F91FF90EF900895E091DE
:105690007F02F0918002309739F022E0DC012C93F8
:1056A0000480F581E02D0994089520917D023091C8
:1056B0007E022817390771F090937E0280937D0255
:1056C000E0917F02F0918002309721F00680F7810F
:1056D000E02D0994089520917B0230917C022817D7
:1056E000390771F090937C0280937B02E0917F02F6
:1056F000F0918002309721F00084F185E02D09942B
:1057000008959C012E5F3F4FAC01485F5F4F80E0E2
:105710002417350709F40895F90191919F01992300
:10572000B9F38F5FF5CF662349F0FC0132960896F6
:105730002191261729F0E817F907D1F780E008959D
:1057400081E008959C01FC0132969FEF80E0419139
:10575000461751F09F3F19F4411101C0982F8F5FF8
:105760008630A9F79F3F09F40895290F311D97FD51
:105770003A95F90162830895FC01329608962191C9
:10578000261303C0DF0111971C92E817F907B9F738
:1057900008950C94A22B0C94BC2B029626E0FC01DD
:1057A00011922A95E9F7089508950C94D42B81114C
:1057B00005C081E0809381020C94D52B82E0FACF62
:1057C00083E0809381020C94D52B0C94D72B81E03D
:1057D000809381020C94D52B0C94E72B0895809133
:1057E0009F02843031F10E94330E1092820288E1D0
:1057F00090E020E40FB6F894A895809360000FBE67
:105800002093600083B7817F846083BF83B781600A
:1058100083BF7894889583B78E7F83BF0FB6F89443
:10582000A89580916000886180936000109260006C
:105830000FBE0895089508950E941A2C0E94901D8D
:105840000E941B2C80E00E94041D91E0811101C088
:1058500090E0892F08950E94A3120C94B20E1F921B
:105860001FB61F9211248F939F93AF93BF93809184
:105870008202811113C08091970290919802A091A9
:105880009902B0919A024196A11DB11D8093970291
:1058900090939802A0939902B0939A02BF91AF910E
:1058A0009F918F911F901FBE1F90189582E084BD1D
:1058B00093E095BD9AEF97BD80936E0008952FB742
:1058C000F8948091970290919802A0919902B091DA
:1058D0009A022FBF08952FB7F894609197027091A4
:1058E00098028091990290919A022FBF08959C018D
:1058F0004FB7F8948091970290919802A0919902E5
:10590000B0919A024FBF821B930B089578941F9217
:105910001FB61F9211248F939F93AF93BF938091D3
:10592000970290919802A0919902B0919A020196E3
:10593000A11DB11D8093970290939802A0939902A4
:10594000B0939A02BF91AF919F918F911F901FBE0C
:105950001F90189581E08093E00080E28093D8004A
:105960001092C9008FE19EE40197F1F700C000009A
:1059700087E090EBDC018093A8029093A902A093AA
:10598000AA02B093AB0288E19CE00FB6F894A89508
:10599000809360000FBE90936000FFCF80919102D2
:1059A000089508959C0182E08093E9009FEF809123
:1059B000E800915085FD06C085ED8A95F1F700005D
:1059C0009111F5CF8091E80085FF0CC050E040E0D8
:1059D00066E070E0C9010E94B72F8091E8008E77E1
:1059E0008093E8000895CF93DF93EC0181E08093EA
:1059F000E9008FEF9091E800815095FD06C095ED8C
:105A00009A95F1F700008111F5CF8091E80085FFAC
:105A100014C050E040E068E070E0CE010E94B72F73
:105A20008091E8008E778093E80088E0FE01A9E885
:105A3000B2E001900D928A95E1F7DF91CF91089540
:105A400080938502709387026093860280919F0203
:105A5000843001F582E08093E9008FEF9091E800B7
:105A6000815095FD06C095ED9A95F1F700008111E2
:105A7000F5CF8091E80085FF0DC050E040E063E085
:105A800070E085E892E00E94B72F8091E8008E7761
:105A90008093E8000895BC0184E00C94202DBC01A3
:105AA00083E00C94202D85E498E10E94370D8091CD
:105AB0009E02811109C00E9447310E94A431809149
:105AC000E20084608093E200089581E498E10E94FE
:105AD000370D10929E0208958DE398E10E94370DD4
